:020000040800F2
:1000000018080020F9010008A51A00087914000852
:10001000A11A0008B90F0008FD2E0008000000001A
:100020000000000000000000000000000B020008BB
:10003000BD0F0008000000000F02000811020008B8
:10004000130200081302000813020008130200083C
:100050001302000813020008C10F00081302000871
:10006000130200081302000813020008130200081C
:10007000130200081302000813020008130200080C
:1000800013020008130200081302000813020008FC
:1000900013020008130200081302000813020008EC
:1000A00013020008130200081302000813020008DC
:1000B0000D2000080D21000821210008130200086E
:1000C00013020008130200081302000813020008BC
:1000D00013020008A92900081302000813020008EF
:1000E000130200081302000813020008130200089C
:1000F000130200081302000813020008130200088C
:10010000130200081302000835210008130200083A
:10011000130200081302000813020008130200086B
:10012000130200081302000813020008130200085B
:1001300000F002F800F050F80AA090E8000C8244A9
:100140008344AAF10107DA4501D100F045F8AFF286
:10015000090EBAE80F0013F0010F18BFFB1A43F0A5
:100160000103184790900000B0900000103A24BF9F
:1001700078C878C1FAD8520724BF30C830C144BF0C
:1001800004680C607047000000230024002500264E
:10019000103A28BF78C1FBD8520728BF30C148BFEA
:1001A0000B607047662905F0BC85642900F08280E9
:1001B000002070471FB500F035FC0400002000212E
:1001C00005F0C2F8401C60600020002105F0A6F890
:1001D000E0601FBD10B510BD00F070FD1146FFF7C7
:1001E000E9FF04F03FFA00F09CFD03B4FFF7F2FFD3
:1001F00003BC04F055F9000009488047094800474E
:10020000FEE7FEE7FEE7FEE7FEE7FEE7FEE7FEE7C6
:10021000FEE7FEE704480549054A064B7047000023
:10022000B51E00083101000818020020180800203F
:100230001804002018040020704700000FB41CB5FB
:10024000074B06AA7B4469460090059800F08DFB99
:100250000020694600F09CFB1CBC5DF814FB00000C
:100260004907000070B5044685690068C10601D5DC
:10027000302600E02026C00707D070BDD4E9012158
:1002800030469047206A401C20626D1EF6D570BD36
:1002900070B5044685690078C00707D170BDD4E900
:1002A000012120209047206A401C20626D1EF6D557
:1002B00070BD00002DE9F041064600241068752944
:1002C000314616A510D0AFF30080002802DA404274
:1002D00013A507E031688A0701D512A502E0490796
:1002E00004D511A5012401E0AFF3008000210A220A
:1002F00006F1240709E0B0FBF2FCB0FBF2F302FBCD
:100300001C00303078541846491C0028F3D123468D
:100310002A463046BDE8F04100F0BAB800000000BF
:100320002D0000002B000000200000002DE9F05FF0
:10033000894604464FF0000ADFF824B1FB44C0F8B8
:1003400020A02046E168884700287DD0252806D0D7
:10035000D4E901219047206A401C2062F1E7002582
:100360005F462046E16888472028064607DB312E95
:1003700005D2B81910F8200C08B10543F1E7A80719
:1003800001D525F00405C4F81CA00027C4F818A066
:100390002A2E09D0304604F0B9FF38B304EB8708A1
:1003A000303EC8F8186019E059F8041B204604EBE9
:1003B00087029161E1688847012F064618D1E069FC
:1003C000002820DA25F020051DE0D8F8180000EB01
:1003D000800006EB40003038C8F818002046E1687D
:1003E0008847064604F092FF0028EED1012F0AD07C
:1003F0002E2E08D12046E16888477F1C0646022F32
:1004000045F02005C4DBA069002803DA404245F02E
:100410000105A061E80701D025F01005A6B1A6F1FD
:100420004100192802D8203645F400654A46314675
:10043000204625604D46FFF7B5FE60B1012807D084
:10044000ED1D25F0070000E007E000F1080978E75E
:1004500005F1040975E730467AE7206ABDE8F09FA8
:10046000E659000070B5064600F00EF8046805462F
:1004700030460A22002100F090FA2C6070BD7047CF
:100480007047704770470000004870472800002000
:100490002DE9F0470D4699469246044600F124089E
:1004A0000168880604D5E06921F01001216000E0B0
:1004B0000120A84201DD471B00E00027A1697A194D
:1004C00002EB0900081AA0612078C00602D4204679
:1004D000FFF7C8FE002608E0D4E901211AF806005B
:1004E0009047206A401C761C20624E45F4DB207841
:1004F000C0060AD52046FFF7B5FE06E0D4E9012183
:1005000030209047206A401C2062381EA7F1010766
:10051000F4DC07E0D4E9012118F805009047206ACF
:10052000401C2062281EA5F10105F3DC2046FFF7E0
:10053000AFFE2078000602D50220BDE8F08701203A
:10054000FBE72DE9FF4F0C461E464FF0FF378BB0FF
:10055000D2E90001DDF860800A908A46C1F30A55AD
:1005600005B93D46002108464FF00000BAF1000FE2
:1005700000F4400005DA00EB80004FF4400101EA8E
:1005800050004FEA9059B9F1010F00DDB9460A98C1
:1005900050EA4A000ED044F61050A5F2FF3545430C
:1005A0002F14B8F1000F1ED07542291E1EDDC9F1AF
:1005B00000021CE0B8F1010F4FF0000001D0302123
:1005C00003E0F24305E02154401CB042FBDB30461F
:1005D0000022002121540B99C1F80880C1E90020B4
:1005E0000FB0BDE8F08FBD1B6D1CDEE74A4600DA98
:1005F000694206A800F0F0FA06AB93E8070003ABE7
:1006000083E8070050460A9904F0A4FA8DE8070031
:10061000A0F500501F3800900398002D0ADD42F22B
:100620001F014A460844002303A90390684604F0CA
:100630000DFD09E0A0F500504A461F38002303A92C
:100640000390684604F017FD8DE807000004000CD5
:1006500003D04FF0FF30410800E01046B8F1000F22
:1006600003D00022009215461EE0751E05D400F04E
:10067000DDF9303262556D1EF9D5B34601220843CB
:1006800002D000227F1C04E02078302801D1002213
:100690007F1E002A099784D01DE0112D07DA00F093
:1006A000C5F9303262556D1C50EA0102F5D108439C
:1006B00002D00098C8B10EE00021681E05E0235C5E
:1006C000625C63542254401E491C8142F7DBAB46F6
:1006D000A81B401E0990002004F80B000B98099AF3
:1006E000C0F80880C0E9002B7AE711264FF0000817
:1006F00057E72DE9F04F88460446D21D22F0070146
:1007000091B0D1E90001CDE90A0104F0EBFD024608
:100710000B98C00F01D02D2007E02068810701D57C
:100720002B2002E0202101EAC000032A099001D019
:10073000072A05DB03464146204600F0BDF90BE1E0
:100740002078800601D5E06900E00620B8F1650F49
:10075000814606D0B8F1660F18D0B8F1670F70D196
:1007600031E00020B9F1110F009001DB112301E00D
:1007700009F101030AAA01A90CA8FFF7E2FEDDE9CD
:100780000C70002609F10105834647E001204B4625
:1007900000904FF000470AAA01A90CA8FFF7D1FE6C
:1007A000DDE90DB00C995D46002610B909F1010094
:1007B0000D18B9EB050003D4C0F1FF3609F10105AE
:1007C000A5EB09002BE0B9F1010F01DA4FF00109A7
:1007D0000020B9F1110F0090484601DD112300E01F
:1007E00003460AAA01A90CA8FFF7ABFEDDE90C70CD
:1007F0004D4600268346207800070AD4AB4500DA30
:100800005D4601A8012D04DD411911F8011C3029B4
:1008100007D04F4502DA17F1040F04DA01208246AF
:100820000FE06D1EEEE7002F02DCED1B3E4403E0FF
:10083000781CA84200DD7D1CB81B00F1010A4FF0B6
:1008400000472078000703D4AA4501DB4FF0FF3AA8
:100850000021B7F1004F0DF143088DF8431024D06B
:1008600002202B23002F01DA7F422D230A21021EB2
:10087000A0F1010000DC5FB197FBF1FC97FBF1F206
:1008800001FB1C7C17460CF1300C08F801CDEEE79B
:10089000A8F1010003702188090501D5452100E078
:1008A0006521A0F1010800F8011C09980FA9A1EB2E
:1008B0000807FF1D00B10120411901EBEA70A16991
:1008C0003844081A401EA0612078C00602D4204691
:1008D000FFF7C8FC099828B1D4E901219047206AA4
:1008E000401C20622078C00622D52046FFF7BAFCC3
:1008F0001EE0002E04DBB34502DD01A8805D00E0B0
:100900003020D4E901219047206A401C2062761CE7
:10091000AAF101005FEA000A0AD100F083F8C0687A
:100920000168405CD4E901219047206A401C2062A4
:10093000281EA5F10105DCDC07E0D4E9012118F847
:10094000010B9047206A401C2062381EA7F1010766
:10095000F3DC2046FFF79CFC032011B041E60000C9
:1009600001694A1C02610878704700B58FB0CDE973
:1009700001310021059105497944CDE90310114663
:100980006846FFF7D3FC0FB000BD0000E5FFFFFF96
:100990000A6802F8010B0A6070472DE9F04791469A
:1009A0000F4680460446002614F8015B2DB100F086
:1009B00031F80068405DC007F6D12B2D02D02D2DF7
:1009C00018D0641E4A463946204600F0B5F827B1D3
:1009D0003968A14201D1C7F800804FF002047105C7
:1009E0000BD54042002803DDFFF74EFD0460A00751
:1009F000BDE8F08746F48066E4E70028F8DAFFF700
:100A000043FD04606FF00040F2E7000000487047CB
:100A10002800002010B500F005F8001D10BD00BF33
:100A200029490000004870474800002030B5B0F167
:100A30000A0271F100034FEA900E4EEA817EB0EB9C
:100A40000E0061EB91014FEA101E4EEA017E10EBA1
:100A50000E0041EB11114FEA102E4EEA016E10EB21
:100A60000E0041EB11214FEA104E4EEA014E10EB01
:100A70000E0041EB1141401841F100014FEAD00056
:100A800040EA41704FEAD1014FEA810444EA907490
:100A900010EB800544EB01046D1944EB0404521B78
:100AA000A3414FF0000348BF0A3200D530BD401CBF
:100AB00041F1000130BD00002DE9F0411F46044620
:100AC00003260168072A01F4006004DB08B116A5BB
:100AD00005E016A503E008B115A500E015A521F075
:100AE00010002060A069C01EA0610FB1401EA0616F
:100AF0002046FFF7B7FB4FB1D4E9012138469047B4
:100B0000206A401C2062C01C206206E0206AFAE7CE
:100B1000D4E9012115F8010B9047761EF8D2204642
:100B2000FFF7B6FBBDE8F0814E414E006E616E00EE
:100B3000494E4600696E66002DE9F05F8246154613
:100B40008B4600270AF10104B9460078302801D00D
:100B50009DB113E014F8010B0127782803D0582821
:100B600001D045B10AE00DB1102D07D1002714F8CE
:100B7000010B102502E0082500E00A250026B046FA
:100B80000EE005FB080005FB06F101271FFA80F8BF
:100B900001EB1046B6F5803F00D3B94614F8010BBF
:100BA000294600F0B0F80028EBDABBF1000F05D0C1
:100BB0000FB1641E00E05446CBF80040B9F1000FBD
:100BC00006D0FFF761FC02210160C81EBDE8F09F5E
:100BD00048EA0640FAE700002DE9F047814616464C
:100BE0008AB0354878440DC88DE80D003248784405
:100BF000801C03AC0DC884E80D0041F69B3008440E
:100C0000372190FBF1F290FBF1F5A5F1800501FB96
:100C100012041B3C02D56442012000E00020DFF8F2
:100C200098A080460027FA44AAF1BE0A0EE0E00729
:100C30000AD03246684607EB470101230AEB8101DF
:100C400004F019FA8DE8070064107F1C002CEED127
:100C5000194F7F44AE3F19E0E80715D007EB0410A9
:100C60000DF1180A90E80E008AE80E00C068F04204
:100C700001D1981908903246012306A903A804F06F
:100C8000FAF903AB83E807006D10641C002DE3D173
:100C90004FF0010332466946B8F1000F03A802D0B5
:100CA00004F0D4F901E004F0E6F9C9E90001C9F85B
:100CB00008200AB0BDE8F087CC5100007546FFF768
:100CC000A5FEAE4605006946534620F0070085465E
:100CD00018B020B5FFF79EFABDE820404FF000069F
:100CE0004FF000074FF000084FF0000BAC46ACE8A7
:100CF000C009ACE8C009ACE8C009ACE8C00921F003
:100D000007018D4670473A2800D2303820F0200283
:100D1000412A01D3A2F13700884201D34FF0FF30BE
:100D2000704710B50446AFF300802046BDE8104080
:100D3000FFF75BBA4FF0013C50F8042B51F8043B2D
:100D40009A4221D1A2EB0C03934313EACC1317D19F
:100D500050F8042B51F8043B9A4215D1A2EB0C0336
:100D6000934313EACC130BD150F8042B51F8043BF6
:100D70009A4209D1A2EB0C03934313EACC13DBD0C4
:100D80004FF00000704700BFD01A01BAB1FA81F1EC
:100D900001F0180122FA01F0CB40DBB2C0B2C01A58
:100DA000C1F120012CFA01F3D11A914311EAC311C8
:100DB000E6D170478268002942F0010308BF22F0A3
:100DC000010383607047000080B543F60041C4F220
:100DD0000101884214D042F60001C4F201018842A8
:100DE00016D042F20041C4F20101884218BF80BD12
:100DF0004FF40070012100F0BFFE4FF400700EE0D0
:100E00004FF40040012100F0B7FE4FF4004006E02F
:100E10004FF48060012100F0AFFE4FF480600021AC
:100E2000BDE8804000F0A8BE8068C0F38000704735
:100E3000C06C80B2704700000068084018BF0120F5
:100E4000704700008068C0F3C000704780B54FF65F
:100E5000FF634268CFF6F07302EA030CD1E9003277
:100E600043EA0C0343EA02224FF2FD734260CFF6DD
:100E7000F173826802EA030ED1E902C30A6942EA09
:100E80000E021A4342EA4C028260C26A097D0139AD
:100E900022F47002C9B242EA0151C16280BD000071
:100EA00010B501EB410C092988BFACF11E0C0929D2
:100EB00003FA0CFE4FF0070303FA0CFC4FF010038B
:100EC00088BF0C23062AC45824EA0C0444EA0E0402
:100ED000C45003D834306FF0040307E00C2A87BFF6
:100EE0002C306FF0400330306FF0220302EB8202AF
:100EF0001A441F23914003FA02F2036823EA020214
:100F00001143016010BD0000816841F0080181605B
:100F1000704700008268002942F4A00308BF22F451
:100F2000A003836070470000816841F00401816084
:100F30007047000070B58AB04FF40170012101259F
:100F400000F00EFE4FF4004000F0E8FD42F20044D5
:100F50000026042001A9C4F201040396ADF80400A0
:100F6000A4F5A05000F098F82046FFF72DFF4FF4AD
:100F70006020CDE90466069604A9CDE9070620465F
:100F80008DF82450FFF762FF20460121FFF712FF82
:100F90002046FFF7B9FF00BF2046FFF753FF0028A8
:100FA000FAD12046FFF7C0FF2046FFF73DFF00289B
:100FB000FAD10AB070BD0000FEE7000070470000E3
:100FC00010B5142003F090FA41F200000121C4F2A0
:100FD000010000F009FA50B940F220040021C2F2E9
:100FE0000004C4F2A001206804F090FC20600120FD
:100FF000BDE81040AFF3008040F21441C4F201019B
:1010000008607047C26840F20041C4F20101F2B1C9
:1010100002680B6893430B604B6893434B60D0F8B6
:1010200004C05CF801301A434CF8012002688B6858
:1010300093438B60CB689343CB60806810280DD1BD
:10104000886810438860C8681043C8607047D0E95A
:101050000020435823EA02024250704743581A4383
:101060004250704780B50C2240F2080E0F2302EA6E
:10107000810201F0FC01C4F2010E03FA02FC51F8F6
:101080000E30904023EA0C0341F80E3051F80E2048
:10109000104341F80E0080BD80B5D1F808E00EF095
:1010A0000F0C1EF0100F1CBF4B684CEA030C098894
:1010B00011F0FF0F00F0A4800368CA070BD023F0E3
:1010C0000F02BEF1480F42EA0C0315D0BEF1280F03
:1010D00001D1012242618A0712D523F0F002BEF14C
:1010E000280F42EA0C131CD0BEF1480F08D102228F
:1010F00002614A0706D418E0012202618A07ECD493
:101100004A0712D523F47062BEF1280F42EA0C237D
:101110001CD0BEF1480F08D1042202610A0719D57C
:1011200005E0022242614A07ECD40A0712D523F4F3
:101130007042BEF1280F42EA0C331CD0BEF1480FBA
:1011400008D108220261CA0606D418E004224261CE
:101150000A07ECD4CA0612D523F47022BEF1280F78
:1011600042EA0C431CD0BEF1480F08D110220261A4
:101170008A0619D505E008224261CA06ECD48A061F
:1011800012D523F47002BEF1280F42EA0C531CD092
:10119000BEF1480F08D1202202614A0606D418E0A9
:1011A000102242618A06ECD44A0612D523F07062FE
:1011B000BEF1280F42EA0C631AD0BEF1480F08D1E5
:1011C000402202610A061AD505E0202242614A0641
:1011D000ECD40A0613D523F07042BEF1280F42EA80
:1011E0000C730AD0BEF1480F09D18022026106E0DB
:1011F000402242610A06EED401E08022426103608F
:10120000B1F5807F38BF80BD4368CA050CD523F097
:101210000F02BEF1480F42EA0C0317D0BEF1280FAF
:1012200002D14FF4807242618A0514D523F0F00296
:10123000BEF1280F42EA0C131FD0BEF1480F0AD1AD
:101240004FF4007202614A0507D41BE04FF480722C
:1012500002618A05EAD44A0514D523F47062BEF10E
:10126000280F42EA0C231FD0BEF1480F0AD14FF4D9
:10127000806202610A051CD506E04FF400724261EB
:101280004A05EAD40A0514D523F47042BEF1280FAA
:1012900042EA0C331FD0BEF1480F0AD14FF400626E
:1012A0000261CA0407D41BE04FF4806242610A0560
:1012B000EAD4CA0414D523F47022BEF1280F42EAFE
:1012C0000C431FD0BEF1480F0AD14FF48052026187
:1012D0008A041CD506E04FF400624261CA04EAD4D5
:1012E0008A0414D523F47002BEF1280F42EA0C538D
:1012F0001FD0BEF1480F0AD14FF4005202614A04D8
:1013000007D41BE04FF4805242618A04EAD44A04B5
:1013100014D523F07062BEF1280F42EA0C631ED090
:10132000BEF1480F0AD14FF48042026109041BD577
:1013300006E04FF4005242614A04EAD4090413D58E
:1013400023F07041BEF1280F41EA0C730ED0BEF1BC
:10135000480F09D14FF400410161436080BD4FF453
:10136000804242610904EBD4436080BD4FF40041E8
:101370004161436080BD000010B50422002800F4E4
:1013800040141FFA80FCC4F201021346B8BF43F0B8
:101390001803B4F5401F1B68C0F3034E07D114684F
:1013A00023F0706324F07064146081B916E0C40205
:1013B00006D447F6F07404EA50440CFA04F402E050
:1013C000032404FA0EF4A34343F0706331B147F6EB
:1013D000F07101EA50410CFA01F10B430028B8BF4B
:1013E0001832136010BD00008068084018BF01204B
:1013F0007047000041617047016170472DE9F0437B
:1014000081B08946804671B342F20046002400272D
:10141000C4F201063046414601220723FFF740FD92
:1014200030460121FFF776FD30460221FFF704FD2B
:101430000028F9D03046FFF7FBFC0546052003F0F5
:1014400053F8284604F018FB0546384604F014FB10
:10145000294604F05BFA04F0D7FA01340746E0B2FB
:101460004845D7D300E00027B7FBF9F004F004FBB0
:1014700001B0BDE8F0830000FEE70000022003F0A9
:1014800061B8000080B584B00820012100F068FB3D
:10149000102001A903904FF44060ADF80400032030
:1014A000029040F60040C4F20100FFF7F5FD04B0E1
:1014B00080BD00002DE9F04F83B040F6044102905A
:1014C00048F2A8154FF0000BC4F20101C4F2212527
:1014D000086820F470400860086840F40040086024
:1014E00000202860022003F02DF801262E6055F818
:1014F0007C0C0190012003F025F80220C5F800B013
:1015000003F020F82E60012055F87C7C03F01AF8D7
:101510000220C5F800B003F015F82E60012055F840
:101520007C4C03F00FF80220C5F800B003F00AF875
:101530002E60012055F87C8C03F004F80220C5F8D9
:1015400000B002F0FFFF2E60012055F87C9C02F0F5
:10155000F9FF0220C5F800B002F0F4FF2E60012070
:1015600055F87CAC02F0EEFF0220C5F800B002F0A6
:10157000E9FF2E60012055F87CBC02F0E3FF00205B
:101580002860022002F0DEFF2E60012055F87C6CFE
:1015900002F0D8FF40F6044200212960C4F20102A3
:1015A000106820F470401060106840F440501060E3
:1015B0000198002818BF0120002F18BF0127002C18
:1015C00018BF012447EA4000B8F1000F18BF4FF0E0
:1015D000010844EA4000B9F1000F18BF4FF00109BB
:1015E00048EA4000BAF1000F18BF4FF0010A49EA7B
:1015F0004000BBF1000F18BF4FF0010B4AEA40005A
:10160000002E4BEA400018BF012646EA400402982B
:1016100048B10220696002F095FF01202860022095
:1016200002F090FF08E0012602206E6002F08AFFBF
:1016300002202E6002F086FF00202860E0B203B096
:10164000BDE8F08FF0B581B0044640F6044048F2A2
:10165000A8150026C4F20100C4F22125016821F476
:1016600070410160016841F440510160E0092E6061
:101670006860022002F066FF012702202F6002F05E
:1016800061FF02202E6002F05DFFC4F380106860ED
:10169000022002F057FF02202F6002F053FF0220C9
:1016A0002E6002F04FFFC4F340106860022002F089
:1016B00049FF02202F6002F045FF02202E6002F059
:1016C00041FFC4F300106860022002F03BFF0220DB
:1016D0002F6002F037FF02202E6002F033FFC4F3C8
:1016E000C0006860022002F02DFF02202F6002F08F
:1016F00029FF02202E6002F025FFC4F380006860FD
:10170000022002F01FFF02202F6002F01BFF0220C8
:101710002E6002F017FFC4F340006860022002F060
:1017200011FF02202F6002F00DFF02202E6002F058
:1017300009FF04F001006860022002F003FF0220AC
:101740002F6002F0FFFE2E60022001B0BDE8F040E5
:1017500002F0F8BEB0B540F6044048F2A814C4F256
:101760000100C4F22124016821F470410160016884
:1017700041F440510160012060602060042002F0CB
:10178000E1FE00250420656002F0DCFE2560B0BDAE
:1017900010B540F6044048F2A814C4F20100C4F2A7
:1017A0002124016821F470410160016841F4405135
:1017B0000160002020606060042002F0C3FE012070
:1017C000206060600420BDE8104002F0BBBE000055
:1017D00070B540F6044448F22C150126C4F2010409
:1017E000C4F22125206820F470402060206840F475
:1017F000004020600120C5F8806002F0A3FE0120B7
:10180000EE6702F09FFE286888B10020296871B158
:10181000296861B140F00201C9B2F9290BD82A68E0
:101820002AB1F92907D8296804300029EED100240B
:101830002046EC6770BD206820F47040206020686E
:1018400040F4405020600020E867C5F88000042084
:1018500002F078FE01240420EC67C5F8804002F015
:1018600071FE204670BD000041F21801C4F2020171
:101870000A6842F001020A600421C4F201010A6808
:1018800022F0E0620A600A6842EA4060086070473D
:101890002DE9F04F83B0FFF7F5FD6B20802101F0BB
:1018A0002FFB64204FF0640A02F01EFE6B20002123
:1018B00001F026FB1B20182101F022FB1C20102127
:1018C00001F01EFB1920012101F01AFB1A20012151
:1018D00001F016FB3820002101F012FB6A200021E4
:1018E00001F00EFB2320002101F00AFB37208021AC
:1018F00001F006FBFFF72EFFD220FFF7A3FEFFF754
:1019000067FF7520FFF79EFEFFF762FFFFF722FFDC
:10191000D320FFF797FEFFF75BFF0020FFF7CAFD1C
:1019200040F2BD11C2F200010870FFF731FF6B20D9
:10193000032101F0E5FA6C20002101F0E1FA40F208
:10194000601B48F21F5940F2C6040DF10608C2F2AE
:10195000000BC5F2EB19C2F2000400BF692043215D
:101960000622434600F06CF988B9BDF8060000BABB
:10197000000CABF80000BDF8080000BA000CABF892
:101980000200BDF80A0000BA000CABF804006920A0
:101990003B210622434600F053F938B1BBF80A0058
:1019A000BBF80810BBF8062012E000BFBDF8060027
:1019B00000BA020CBDF80800ABF8062000BA010C12
:1019C000BDF80A00ABF8081000BA000CABF80A002A
:1019D000BBF90030BBF90270BBF9045012B209B276
:1019E00000B2BAF1010A83FB09364FEA561303EB42
:1019F000D67326883344238087FB09374FEA571371
:101A000003EBD77367883B44638085FB09374FEA54
:101A1000571303EBD773A7883B44A38082FB0923AA
:101A20004FEA531202EBD372E3881A44E28081FB3F
:101A300009124FEA521101EBD2712289114421811E
:101A400080FB09014FEA511000EBD1706189084415
:101A500060817FF483AF4DF20A7449F6A63541F2F6
:101A60006F2640F23C100021C3F6A334C3F6443580
:101A7000C3F68326C2F2000022462B46009602F0EF
:101A8000E1FD40F21810002122462B460096C2F2DA
:101A9000000002F0D7FD002003B0BDE8F08F000089
:101AA000FEE700007047000042684EF20011CEF2DF
:101AB0000001EAB110B54EF60C520723CEF2000237
:101AC000126890F801E0847890F800C023EA1222AE
:101AD0000F23D340C2F1040223400EFA02F21A434C
:101AE00001EB0C03120183F80023BDE8104000E075
:101AF00080310078012300F01F02C0F3421003FA86
:101B000002F241F82020704740F080604EF60C5100
:101B100040F0FD70CEF200010860704741F2040110
:101B2000C4F202010A6822F4404210430860704780
:101B300041F21C020029C4F2020211680CBF21EA22
:101B4000000008431060704741F210020029C4F2FF
:101B5000020211680CBF21EA0000084310607047C0
:101B600041F218020029C4F2020211680CBF21EAF6
:101B7000000008431060704741F20C020029C4F2D3
:101B8000020211680CBF21EA000008431060704790
:101B900080B541F2040EC4F2020EDEF8002002F01D
:101BA0000C0341F20022C0F27A02082B1FD1DEF8AA
:101BB0000030C3F3834303F1020CDEF8003013F46A
:101BC000803F06D140F60012C0F23D020CFB02F24B
:101BD0000DE0DEF8003013F4003F02D10CFB02F2FE
:101BE00005E040F60012C0F23D020CFB02F202607A
:101BF00045F6D051DEF80030C0F60001C3F3031300
:101C0000CB5CDA404260DEF80030C3F30223CB5CE9
:101C100022FA03F38360DEF80030C3F3C223C95C09
:101C200045F6CC53C0F6000322FA01F1C160DEF89C
:101C30000020C2F381329A5CB1FBF2F1016180BDF8
:101C40002DE9F04F81B040F6044A074648F2A81942
:101C500001261C4615468846C4F2010AC4F2212911
:101C6000DAF8000020F47040CAF80000DAF800004A
:101C700040F44050CAF800000420C9F80460C9F8D4
:101C8000006002F05FFC4FF0000B0420C9F804B0C4
:101C900002F058FC7F00C9F800B0F8B2FFF7D2FCA0
:101CA000FFF796FDD0B1DAF8000020F47040CAF8D2
:101CB0000000DAF8000040F44050CAF800000420A8
:101CC000C9F800B0C9F804B002F03CFC0420C9F81F
:101CD0000060C9F8046002F035FC51E04046FFF7AF
:101CE000B1FCFFF775FDDAF8000020F47040CAF887
:101CF0000000DAF8000040F44050CAF80000042068
:101D0000C9F80460C9F8006002F01CFC0420C9F89E
:101D100004B002F017FC47F00100C9F800B0C0B2EF
:101D2000FFF790FCFFF754FD05E000BFFFF7C2FB93
:101D300004F8010B013DE8B2012803D020B10120D5
:101D4000F4E700BF0020F1E7DAF80000002620F4F5
:101D50007040CAF80000DAF8000040F44050CAF8B9
:101D600000000420C9F80060C9F8046002F0EAFB32
:101D70000120C9F80000C9F80400042002F0E2FBC9
:101D8000304601B0BDE8F08F41F20001002214237B
:101D9000C4F202010A61CA604B618A61CA610B68C0
:101DA00043F001030B600023D1F804C0CFF6FF031A
:101DB00003EA0C034B604FF6FF73D1F800C0CFF677
:101DC000F66303EA0C034EF6085C0B60CEF2000CDF
:101DD0000B6823F480230B604B6823F4FE034B60F5
:101DE0004FF000638A60CCF800300B6843F4803316
:101DF0000B6000BF0B68B3F5003F0BD20B68B2EB72
:101E0000534F07D10B68B2EB534F03D10B68B3F5B7
:101E1000003FEFD34FF4806202384A60C0B24A6894
:101E200042EA80404860486840F4803048604FF49F
:101E300080500A5842F032020A50086840F0807020
:101E4000086000200A68B2F1007F0BD20A68B0EB8C
:101E5000526F07D10A68B0EB526F03D10A68B2F132
:101E6000007FEFD3486840F002004860486800F007
:101E70000C0008280FD0486800F00C0008280AD091
:101E8000486800F00C00082808BF7047486800F058
:101E90000C000828EAD170474EF210010428CEF257
:101EA00000010A6822F0040308BF42F004030B603B
:101EB0007047000082B041F204000022C4F2020028
:101EC000CFF6FF0250F8041C41F0010140F8041C59
:101ED000016811404FF6FF720160CFF6F66250F8CC
:101EE000041C114040F8041C50F8041C21F480210B
:101EF00040F8041C016821F4FE0101604FF41F0149
:101F0000416000210191009150F8041C41F480319E
:101F100040F8041C50F8041C01F4003100910199B0
:101F200001310191009919B90199B1F5A06FF1D171
:101F300050F8041C11F4003F0CBF00210121009156
:101F40000099012958D1D0F8FC1F41F01001C0F8C8
:101F5000FC1FD0F8FC1F21F00301C0F8FC1FD0F8D3
:101F6000FC1F41F00201C0F8FC1F0168016001681C
:101F70000160016841F480610160016821F47C1115
:101F80000160016841F4E811016050F8041C41F05F
:101F9000807140F8041C00BF50F8041C11F0007F51
:101FA0000ED150F8041C11F0007F09D150F8041C28
:101FB00011F0007F04D150F8041C11F0007FEBD029
:101FC000016821F003010160016841F00201016034
:101FD000016801F00C0108290ED0016801F00C0124
:101FE000082909D0016801F00C01082904D0016812
:101FF00001F00C010829EBD14EF608504FF00061BA
:10200000CEF20000016002B0704700002DE9F041FF
:102010004FF08040012100F003FA002808BFBDE81E
:10202000F0814FF08040012100F0AAF840F29400C6
:10203000C2F20000006803F007FD054640F20820E8
:10204000C2F2000006682846314603F0F5FD04465A
:1020500040F20C20C2F20000006803F0F5FC0746D5
:102060002046394603F052FC03F0B2FC40F20C0863
:1020700004462946C2F20008C8F80000304603F0C2
:1020800045FC394603F0D8FD03F0A2FC40F21401F0
:10209000002CC2F20001086002DB06D0C82201E079
:1020A0006FF0C7022244C8F80020002802DB30B1DC
:1020B000C82201E06FF0C7021044086000E0002071
:1020C00001F084FDD8F8000001F058FD042001F073
:1020D000DBF840F28C01C2F20001086040F290018E
:1020E000C2F200010A6810440860032001F0CCF835
:1020F00040F2B001C2F20001086040F2B401C2F245
:1021000000010A6810440860BDE8F08140F2104008
:10211000C4F200000188018821F0010101807047AC
:1021200040F61000C4F200000188018821F001018E
:102130000180704710B540F600440121C4F200044C
:10214000204600F06DF9002808BF10BD204601218F
:1021500000F016F840F2E000C2F200000168013120
:10216000016010BD0288002942F0800308BF22F000
:102170008003038070470000C9430182704700005C
:10218000C9430182704700000288002942F0010320
:1021900008BF22F00103038070470000B0F844201C
:1021A000002913466FF3DF3318BF42F40043A0F851
:1021B0004430704780B541F6FF71C4F20001884297
:1021C00028DD44F2FF31C4F2010188423FDD44F6CC
:1021D000FF31C4F2010188426EDD44F60041C4F2D1
:1021E0000101884200F0B58045F20001C4F201010E
:1021F000884200F0B68045F20041C4F201018842F5
:1022000018BF80BD4FF400100121FFF7B5FC4FF45B
:102210000010D7E040F6FF71C4F20001884232DCC2
:1022200040F2FF71C4F2000188425ADCB0F1804FE5
:1022300000F09F8040F20041C4F20001884240F06B
:10224000D08002200121FFF77FFC0220C4E043F28E
:10225000FF31C4F20101884255DC42F20001C4F2B0
:102260000001884200F08B8042F60041C4F2010177
:10227000884240F0B6804FF400600121FFF77CFCFB
:102280004FF400609EE041F2FF71C4F20001884209
:102290004DDC41F20001C4F20001884277D041F2E6
:1022A0000041C4F20001884240F09B8020200121BF
:1022B000FFF74AFC20208FE044F20041C4F2010104
:1022C00088426AD044F60001C4F20101884240F01D
:1022D00088804FF480200121FFF74EFC4FF48020CE
:1022E00070E040F60001C4F2000188425DD040F683
:1022F0000041C4F20001884273D108200121FFF798
:1023000023FC082068E043F20041C4F20101884246
:1023100051D044F20001C4F20101884261D14FF46E
:1023200080300121FFF728FC4FF480304AE041F66D
:102330000001C4F20001884249D041F60041C4F2D4
:10234000000188424DD180200121FFF7FDFB802054
:1023500042E04FF400200121FFF70EFC4FF4002073
:1023600030E04FF480100121FFF706FC4FF480109D
:1023700028E001200121FFF7E7FB01202CE04FF4CA
:1023800080700121FFF7E0FB4FF4807024E0102003
:102390000121FFF7D9FB10201EE04FF4003001218E
:1023A000FFF7EAFB4FF400300CE004200121FFF7B7
:1023B000CBFB042010E04FF400500121FFF7DCFBC1
:1023C0004FF400500021BDE88040FFF7D5BB40200E
:1023D0000121FFF7B9FB40200021BDE88040FFF755
:1023E000B3BB80BD80B5B0F808C02CF0070C41EA43
:1023F0000C01B0F818C0B0F820E001814FF6FC41A4
:102400000CEA010C40F2011141EA0C01018342EA9D
:1024100003112EF022021143018480BD808C70478D
:10242000028A0A4018BF01228089084018BF012093
:102430001040704770B50B88042B2AD0002B56D162
:10244000B1F802C00A898B88068C40F6FF354FF63A
:10245000FC74C4F2000526F0010643EA02130246AA
:10246000A842068432F8186FB0F820E026F0F30690
:1024700043EA06036DDCB0F1804F7DD040F20045A9
:10248000C4F20005A84277D040F60005C4F200056A
:102490006FE00E894B888A88058C40F6FF4436032E
:1024A00025F0100546EA02260584024632F8185F38
:1024B000B0F820E0254046EA050C40F6FF356FF005
:1024C0000306C4F20005A6F1AD04A84262DCB0F137
:1024D000804F71D040F20045C4F20005A8426BD095
:1024E00040F60005C4F20005A84265D068E00A89FC
:1024F0008C884E88058C082B71D125F48073038459
:1025000044EA0213024632F81C5FB0F820E025F0DE
:10251000F30543EA050C6FF4405303F5145440F6F9
:10252000FF33C4F20003984200F38180B0F1804F82
:1025300000F08F8040F20043C4F20003984200F0A4
:10254000888040F60003C4F20003984200F08180C6
:1025500084E040F60045C4F20005A8420CD042F6E3
:102560000045C4F20105A84206D043F20045C4F27A
:102570000105A84218BF083C03830EEA040343EA9E
:102580000C0343F001030384C988038B23F00C037D
:10259000038394E040F60045C4F20005A8420BD046
:1025A00043F20045C4F20105A84205D042F60045B9
:1025B000C4F20105A84203D14FF6FC741B012D3C67
:1025C0000EEA0406A0F818C0334343F01003038456
:1025D000C988038B23F44063090203836FE025F469
:1025E00080531203038442EA0423024640F6FF4468
:1025F00032F81C5FB0F820C0254046F6FF5443EA8D
:10260000050E40F6FF33C4F20003984234DCB0F10B
:10261000804F43D040F20043C4F2000398423DD0C3
:1026200040F60003C4F20003984237D039E040F688
:102630000043C4F2000398420BD043F20043C4F2BB
:102640000103984205D042F60043C4F201039842C8
:1026500004D14CF6FF73360203F534540EEA04033A
:10266000A0F81CC0334343F480730384C988838B70
:1026700023F00C03838322E040F60043C4F20003FE
:1026800098420BD043F20043C4F20103984205D0B4
:1026900042F60043C4F20103984202D136034CF6DD
:1026A000FF740CEA0403A0F81CE0334343F48053A6
:1026B0000384C988838B23F44063090283831088D1
:1026C0000843108070BD00000021012201604260BB
:1026D00001817047002A82890CBF22EA010111435F
:1026E0008181704710B5028C22F001020284048CB3
:1026F000B0F804E0038B0A8823F0730343EA020C6A
:102700000B8924F002021A434B881A43A0F180433C
:10271000A3F596334FEAB323072B14D8012404FA08
:1027200003F313F0E50F0ED08C892EF4407322F0E2
:102730000C022343CC8943EA040E4B8923F00403A3
:102740001A438B881A43A0F804E0A0F818C0C9887F
:102750008186028410BD0000028B22F00802114322
:102760000183704710B5028C22F010020284048CA1
:10277000B0F804E0038B0A8823F4E64343EA022C12
:102780000B8924F0200242EA03124B8842EA03122A
:1027900043F20043C4F20103984205D042F60043DD
:1027A000C4F20103984212D18B892EF4406422F0C6
:1027B000C00244EA8303CC8943EA840E4B896FF05C
:1027C0004F0404EA03131A438B8842EA0312A0F869
:1027D00004E0A0F818C0C9880187028410BD000079
:1027E000028B22F4006242EA01210183704700005B
:1027F00010B5028C22F480720284048CB0F804E0DC
:10280000838B0A8823F0730343EA020C0B8924F4B8
:10281000007242EA03224B8842EA032243F2004359
:10282000C4F20103984205D042F60043C4F201030A
:10283000984212D18B892EF4405422F4406244EA2B
:102840000313CC8943EA041E4B8940F2FF441B0268
:10285000A3431A438B8842EA0322A0F804E0A0F8BD
:102860001CC0C9888187028410BD0000828B22F0C1
:10287000080211438183704710B5028C22F4805204
:102880000284048CB0F804E0828B0B8822F4E642C8
:1028900042EA032C0B8924F4005242EA03324B88AB
:1028A00042EA033343F20042C4F20102904205D0EF
:1028B00042F60042C4F20102904204D18A892EF409
:1028C000804444EA821EA0F804E0A0F81CC0C98835
:1028D000A0F84010038410BD828B22F4006242EA0B
:1028E00001218183704700008184704740F6FF33E7
:1028F000B0F800C0C4F2000398420FDCB0F1804F82
:102900001ED040F20043C4F20003984218D040F6B3
:102910000003C4F20003984212D016E040F60043D0
:10292000C4F2000398420BD043F20043C4F2010307
:10293000984205D042F60043C4F20103984204D104
:102940004B882CF0700243EA020C41F2004240F442
:102950008063C4F20002934204D0CB882CF440720E
:1029600043EA020CA0F800C08A8882850A880285A2
:10297000A0F18042A2F596324FEAB222072A07D888
:10298000012303FA02F212F0E50F1CBF097A018657
:1029900001218182704700004FF6FF7141600021E4
:1029A000016001727047000070B543F6000440F208
:1029B0002551C4F20104204600F00CFA002800F072
:1029C0007F80204600F096FA044640F21020C2F2C2
:1029D0000000A4F1580304602046252B1ED859217D
:1029E0000222DFE803F013151B1B1B1B1B1B1B1B09
:1029F0001B1B1B1B1B1B1B1B1B1B1B1B1B1B1B1B27
:102A00001B1B1B1B1B1B1B1B1B451B6E5821012269
:102A100040F20800C2F200000270084640F21411B1
:102A2000C2F200010978B1B13A2870D0232840F0F1
:102A3000908040F2142100200122C2F200010870AF
:102A400040F2C401C2F200010A7040F26C11C2F2FD
:102A500000010870D3E040F21010C2F200000268DA
:102A6000511C016040F26D10C2F200008454D5E0A8
:102A700040F2081000210122C2F20000016040F281
:102A80001410C2F20000027040F21420C2F20000E2
:102A9000027040F2C400C2F20000017040F26C10FB
:102AA000C2F20000027040F21010C2F20000016891
:102AB0004A1C026040F26D10C2F200004454D5E09E
:102AC00070BD40F2141040F214260025C2F200003E
:102AD000C2F200060570307800284ED040F2DC00CB
:102AE000C2F20000016840F2D200C2F20000455478
:102AF000FDF7B8FC40F2081140F2E4023570C2F272
:102B00000001C2F20002096842F8210042E040F2EE
:102B1000DC0540F2D2000022C2F20005C2F2000041
:102B200029684254FDF79EFC40F26C1240F21421D9
:102B3000C2F20002C2F2000116780B78A6B3002B95
:102B400041D00021117040F20811C2F2000108606A
:102B50004CE0A0F13001092924D840F2DC02C2F295
:102B600000021168052944DC4B1C136040F2D202BC
:102B7000C2F200025054002041E040F2C400C2F210
:102B80000000007830B140F20810C2F20000016885
:102B90000131016040F2DC000021C2F2000001605E
:102BA00001202CE000202AE06BB140F2081240F234
:102BB000E403C2F20002C2F20003126843F82200EA
:102BC0000020087012E040F2C401C2F2000109784E
:102BD00061B140F20811C2F200010A68531C0B6097
:102BE00040F2E401C2F2000141F822000020286016
:102BF00005E040F2D2010020C2F20001887140F2EB
:102C000010120028C2F20002136803F101011160E2
:102C100040F26D12C2F20002D4540AD040F26D109C
:102C20000022C2F20000425440F21010C2F2000032
:102C300002600B2C38BF70BDA4F14100262815D8C6
:102C4000DFE800F0714848487E5F5F5F1414141499
:102C500014141414141414141414141414881414C0
:102C600014141414149EA3A8ADB2B70040F2880047
:102C70000021C2F20000017040F28A00C2F200009E
:102C8000017040F28900C2F20000017040F28B0036
:102C9000C2F20000017040F20020C2F200000160A8
:102CA00040F20420C2F20000016040F2F010C2F2D3
:102CB0000000016040F2F410C2F20000016040F236
:102CC000F810C2F20000016040F2FC10C2F20000F5
:102CD0000160F5E640F288000021C2F200000170B8
:102CE00040F28A00C2F20000017040F28900C2F294
:102CF0000000017040F28B000121C2F2000001705F
:102D000070BD40F2880000210122C2F20000017073
:102D100040F28A00C2F20000017040F28900C2F263
:102D20000000027026E040F2880000210122C2F279
:102D30000000017040F28A00C2F20000027014E04C
:102D400040F288000121C2F20000017040F28A00C6
:102D5000002107E040F288000021C2F2000001706B
:102D600040F28A00C2F20000017040F28900C2F213
:102D70000000017040F28B00C2F20000017070BDD3
:102D800040F20020C2F2000017E040F20420C2F23C
:102D9000000012E040F2F010C2F200000DE040F23C
:102DA000F410C2F2000008E040F2F810C2F2000095
:102DB00003E040F2FC10C2F200000121016070BD8E
:102DC0008289002942F4005308BF22F40053838112
:102DD0007047000001F01F02012303FA02F2C1F361
:102DE0004213022B06D0012B14BF00F1140300F193
:102DF0000C0301E000F110031B88090A1A404FF090
:102E0000010318BF0122008803FA01F1084018BF2E
:102E1000012010407047000001F01F0C012303FA4D
:102E20000CFCC1F342131421022B08BF1021012B0B
:102E300008BF0C21002A42580CBF22EA0C0242EAC9
:102E40000C0242507047000070B586B00446008AFC
:102E50000D46C98801AE20F4405008434EF6F311E8
:102E60002082A0890840A9880843298908436989E4
:102E70000843A081A08AA98920F440700843A08259
:102E80003046FEF785FE43F6000106F108000222F7
:102E9000C4F201018C424FF0190108BF06F10C0089
:102EA000042600684843A189A2EBD1312A6802FABE
:102EB00001F1B0FBF1F048F21F51C5F2EB11A0FB9C
:102EC00001235A096FF0630302FB0300A389A6EBF9
:102ED000D336B0403230A0FB0101072040EA133066
:102EE00080F0080000EA511040EA0210208106B08C
:102EF00070BD000080886FF35F207047FEE7000020
:102F0000B0B50C460546FEF725FCFEF7B7FAD22011
:102F1000FEF798FBFEF75CFC18B1FEF739FC0120C8
:102F2000B0BD2846FEF78EFBFEF752FC2046FEF7AA
:102F300089FBFEF74DFC0446002818BF0124FEF76C
:102F400027FC2046B0BD0000F0B587B0102001215D
:102F50001024FEF705FE042001210427FEF7E8FDFA
:102F6000032004AE059040203146ADF810000694D1
:102F700040F60044C4F2000404F582352846FEF70A
:102F80008BF828464021FEF735FA80203146ADF80F
:102F9000100028460697FEF77FF82046FFF70AF94B
:102FA0004FF6FF7001A90290472001902046FFF7DD
:102FB0009DFC20460121FFF7DFF820460121012278
:102FC000FFF788FB20460021FFF7DEF807B0F0BDD1
:102FD00010B50446000A00F0ADF8E0B2BDE81040BC
:102FE00000F0A8B82DE9F04F87B0119E0746904633
:102FF0001C460D46069100EB5600013882B2881936
:10300000013883B2384600F0D9FB0721012230098C
:1030100011EA560F18BF02EB1610704300280490F7
:1030200000F08480A6F10C0075083E464FF0000BBE
:10303000C0F385015FFA85F941EA8011A8F120000B
:10304000CBB246F25421C2B20020C0F60001029277
:10305000039301EB0211019147F62421C0F6000110
:1030600001EB821100220091052B5FD80592DFE869
:1030700003F0030D5D0F5D19029945F6E052C0F6AD
:10308000000201EB410102EB81010CE001990AE031
:10309000029946F65402C0F6000201EB410102EB30
:1030A000011100E0009908444FF0000890F800A0DA
:1030B0000120129900FA08F000EA0A0081B148B133
:1030C0000699B0B2024689B20B4600F077FB204663
:1030D000FFF77EFF0136B0B2C01BA8420FD115E04A
:1030E00000280CBF10982046FFF772FF0BF1010B70
:1030F0005FFA8BF0B0FBF9F101FB190058B108F150
:103100000108B8F1080FD3D308E000BF06983E4687
:103110000130069002E04FF0000B00BF059A0499C1
:10312000039B013290B281423FF69EAF07B0BDE8EB
:10313000F08F0000B0B541F6000405460221C4F24C
:1031400001042046FEF756F920460821FEF752F901
:1031500068B2B0F1FF3F04DD20462021FEF74AF9B6
:1031600003E020462021FEF747F920460821FEF71C
:1031700043F920460821FEF73DF9680604D42046AD
:103180002021FEF737F903E020462021FEF734F92D
:1031900020460821FEF730F920460821FEF72AF9DB
:1031A000A80604D420462021FEF724F903E0204697
:1031B0002021FEF721F920460821FEF71DF92046BF
:1031C0000821FEF717F9E80604D420462021FEF76F
:1031D00011F903E020462021FEF70EF920460821D0
:1031E000FEF70AF920460821FEF704F9280704D45F
:1031F00020462021FEF7FEF803E020462021FEF7BE
:10320000FBF820460821FEF7F7F820460821FEF7D4
:10321000F1F8680704D420462021FEF7EBF803E01C
:1032200020462021FEF7E8F820460821FEF7E4F8C2
:1032300020460821FEF7DEF8A80704D42046202106
:10324000FEF7D8F803E020462021FEF7D5F8204607
:103250000821FEF7D1F820460821FEF7CBF8E80751
:1032600004D120462021FEF7C5F803E020462021A6
:10327000FEF7C2F820460821FEF7BEF820460221DC
:10328000BDE8B040FEF7B8B8242200210228C4F2FD
:1032900000020AD0042806D003284FF0000006D10F
:1032A00002F5806201E002F500621088118000B230
:1032B00070470000B0B58AB0112001210124FEF74B
:1032C0004FFC012001F03EF94820ADF81C4007A951
:1032D00009900320089041F20000C4F20100FDF7BC
:1032E000DBFE022000210025FDF7BCFE0C20CDE90D
:1032F0000345CDE9050403A8FDF784FE04208DF8FD
:10330000060040F20620ADF8040001A80294FEF782
:10331000CBFB0AB0B0BD000010B500F0BBF941F620
:1033200000041021C4F201042046FEF763F8642073
:1033300001F0DAF820461021FEF75EF8642001F073
:10334000D3F820464021FEF757F8642001F0CCF86E
:1033500020460421FEF74EF81120FFF7EBFE204631
:103360000421FEF749F8782001F0BEF82046042138
:10337000FEF740F83620FFF7DDFE20460421FEF779
:103380003BF80020FFF7D6FE20460421FEF732F876
:103390003A20FFF7CFFE20460421FEF72DF8052046
:1033A000FFF7C8FE20460421FEF724F8B220FFF7FD
:1033B000C1FE20460421FEF71FF80C20FFF7BAFEDD
:1033C0000C20FFF7B7FE0020FFF7B4FE3320FFF715
:1033D000B1FE3320FFF7AEFE20460421FEF70AF8C7
:1033E000B720FFF7A7FE20460421FEF705F8352099
:1033F000FFF7A0FE20460421FDF7FCFFBB20FFF7EE
:1034000099FE20460421FDF7F7FF3220FFF792FED8
:1034100020460421FDF7EEFFC220FFF78BFE204679
:103420000421FDF7E9FF0120FFF784FE2046042177
:10343000FDF7E0FFC320FFF77DFE20460421FDF7E6
:10344000DBFF1520FFF776FE20460421FDF7D2FFB3
:10345000C420FFF76FFE20460421FDF7CDFF20209A
:10346000FFF768FE20460421FDF7C4FFC620FFF7E2
:1034700061FE20460421FDF7BFFF0F20FFF75AFE33
:1034800020460421FDF7B6FFD020FFF753FE20466B
:103490000421FDF7B1FFA420FFF74CFEA120FFF7A8
:1034A00049FE20460421FDF7A5FFE020FFF742FE7C
:1034B00020460421FDF7A0FFD020FFF73BFE0820A7
:1034C000FFF738FE0E20FFF735FE0920FFF732FE2A
:1034D0000920FFF72FFE0520FFF72CFE3120FFF714
:1034E00029FE3320FFF726FE4820FFF723FE172092
:1034F000FFF720FE1420FFF71DFE1520FFF71AFE30
:103500003120FFF717FE3420FFF714FE2046042178
:10351000FDF770FFE120FFF70DFE20460421FDF7C7
:103520006BFFD020FFF706FE0820FFF703FE0E20FA
:10353000FFF700FE0920FFF7FDFD0920FFF7FAFD68
:103540001520FFF7F7FD3120FFF7F4FD3320FFF7DB
:10355000F1FD4820FFF7EEFD1720FFF7EBFD1420EB
:10356000FFF7E8FD1520FFF7E5FD3120FFF7E2FD4D
:103570003420FFF7DFFD20460421FDF73BFF21202B
:10358000FFF7D8FD20460421FDF736FF2046042131
:10359000FDF730FF2920FFF7CDFD20460421BDE8CF
:1035A0001040FDF729BF0000F0B58BB041F21800C4
:1035B0000124C4F20200016841F0450101600120CC
:1035C00000F0C0FF08200121FEF7B2FA45200121DA
:1035D000FEF7C6FA40200121FEF7C2FA102008AE1D
:1035E00003270A90ADF8204040F600443146099781
:1035F000C4F2000404F586352846FDF74DFD284643
:103600000121FDF7F9FE04200121FEF7A9FA182097
:1036100031460A900F20ADF8200004F57C40099750
:10362000FDF73AFD4FF47A7005A906904720059002
:103630002046FFF75BF9002001ADADF80C006020DB
:103640002946C0F2010001902046FFF74BF82046C2
:103650000821FFF781F820462946FFF783F8204626
:103660000821FFF7BDF820462946FFF7C1F820469C
:103670000821FFF7FBF820462946FFF7FDF8204612
:103680000821FFF729F920460121FEF77DFD0BB047
:10369000F0BD000070B584B040200121FEF760FA53
:1036A00041F600041026022001AD0396ADF8040097
:1036B0000320C4F20104294602902046FDF7ECFCE9
:1036C00020460221FDF798FE28202946ADF8040087
:1036D0002046FDF7E1FC20462821FDF78DFE442021
:1036E0002946ADF804002046FDF7D6FC204648F2F6
:1036F0002001FDF781FE20462946ADF80460FDF764
:10370000CBFC20461021FDF777FE04B070BD000011
:10371000704700002DE9F04F83B00D4611789B46AD
:103720000646B1B1DDE90C9ADDF83880571C4FEA46
:103730005A0400BFCAB2B0B229465B46CDE9009A2E
:10374000CDF80880FFF74EFC17F8011B264400292E
:10375000F0D103B0BDE8F08F70470000B0B584B081
:1037600070200121FEF7FCF9102041F6000401ADA4
:1037700003904FF44160C4F201042946ADF80400FF
:1037800003200290A4F58060FDF786FC4FF4805082
:103790002946ADF80400A4F50060FDF77DFC4FF468
:1037A00080602946ADF804002046FDF775FC2046F0
:1037B0004FF48061FDF720FE04B0B0BD2DE9F0416B
:1037C00041F600040E460546042198461746C4F209
:1037D00001042046FDF70EFE2A20FFF7ABFC204631
:1037E0000421FDF709FE280AFFF7A4FCE8B2FFF761
:1037F000A1FC380AFFF79EFCF8B2FFF79BFC2046BD
:103800000421FDF7F7FD2B20FFF794FC204604214F
:10381000FDF7F2FD300AFFF78DFCF0B2FFF78AFCEE
:103820004FEA1820FFF786FC5FFA88F0FFF782FC6A
:1038300020460421FDF7DEFD2C20FFF77BFC20460F
:103840000421BDE8F041FDF7D7BD0000F0B58BB015
:1038500041F21800C4F20200016841F40061016005
:10386000012000F06FFE42F63C4601200027C4F222
:1038700001063780B78000F065FEC0200121C0F24C
:103880001600FDF779FD4FF400600121FEF768F99D
:1038900041200121FEF764F9032042F6004408A903
:1038A00009901820C4F201040A904FF4C040ADF80A
:1038B0002000A4F5A050FDF7EFFB41F61F4005A93D
:1038C000CDE905702046FFF711F8602001ADC0F288
:1038D0000100294601902046CDF80A70FEF788FFC6
:1038E00020460821FEF7C2FF20462946FEF7C4FF06
:1038F00020460821FEF7F0FF20460121FEF74EFC8E
:1039000020460121FEF72EFC20460121FEF73CFC5B
:103910003780B7800BB0F0BD2DE9F04F81B040F695
:10392000004B40F2E00944F6D35A00240026C4F2CA
:10393000000BC2F20009C1F2620A0BF5823500BF2A
:1039400028464021FDF758FD142000F0FBFD2846D5
:103950004021FDF74FFD0A2000F0F4FD28468021AC
:10396000FDF742FD0028F9D058460121FEF70CFC76
:1039700028468021FDF738FD0128F9D0584600215E
:10398000FEF702FC5846FEF749FD07460020D9F82D
:1039900000800021C9F800005846FEF7A5FFC8EBDB
:1039A0000840384400EB001787FB0A01881100EB40
:1039B000D17002F049F80146B7F57A7F3046B8BFBA
:1039C000002101F0A3FF01340646082CB8D130468F
:1039D0004FF0785102F064F801B0BDE8F08F0000BC
:1039E000B0B58AB002200121FEF7A2F81020012113
:1039F000FEF7B6F840F600400121C0F21A00FDF7CC
:103A0000BBFC40F20044042001A90390C020C4F292
:103A10000004ADF8040004F58630FDF73DFB07AD6A
:103A20002846FEF7B9FF4FF6FF70294608900020A0
:103A300007902046FEF75AFF20460321002200236C
:103A4000FEF7D0FC04AD2846FEF73EFE0A202946CC
:103A5000ADF818002046FEF7EDFC20460121FEF7E8
:103A60008BFB204601210122FEF734FE2046002177
:103A7000FEF73AFF20460121FEF786FB0AB0B0BDF3
:103A8000B0B58AB0042001210424FEF751F82020AB
:103A90000121FEF765F84FF480500121FDF76CFC21
:103AA000039440F600044FF4405001A9C4F200040E
:103AB000ADF8040004F58630FDF7EEFA07AD2846B0
:103AC000FEF76AFF4FF6FF70294608900020079026
:103AD0002046FEF70BFF2046032100220023FEF7BD
:103AE00081FC04AD2846FEF7EFFD0A202946ADF81B
:103AF00018002046FEF79EFC20460121FEF73CFB05
:103B0000204601210122FEF7E5FD20460021FEF7B7
:103B1000EBFE20460121FEF737FB0AB0B0BD0000E6
:103B2000F0B581B040F28C14002501260027C4F2C4
:103B3000212400BF4FF46F702560256000F002FD66
:103B40004FF46F70266000F0FDFC0137B8B29C287E
:103B5000F0D300250126002740F2A46025602560EF
:103B600000F0F0FC40F2A460266000F0EBFC0137AE
:103B7000B8B25828F0D301B0F0BD000048F2A81147
:103B800041F65832C4F2222190420EDC4EF2A84295
:103B9000CFF6FF72904205DA0120524248600020C1
:103BA000086006E001280ADB024600204860012088
:103BB000086042F63C40C4F20100028070470028D1
:103BC0000246E9D100224A600A60F2E740F2B011F1
:103BD00048F2901241F65833C4F22221C4F2222254
:103BE00098420EDC4EF2A843CFF6FF73984205DAF6
:103BF00001205B4210600020086006E001280ADB1B
:103C00000346002010600120086042F64040C4F2E4
:103C100001000380704700280346E9D100231360A8
:103C20000B60F2E72DE9F04397B000200021EF226E
:103C3000EF230024FFF7C2FD002500BF4FF6FF7001
:103C4000FFF7C6F90135A8B2F028F7D30134A0B2C6
:103C5000F028F1D346F6527220204FF0203146F280
:103C60005428002552240DF11C09C3F66C2209903A
:103C70000891C0F60008079246F65012CDE90510EB
:103C8000C3F674220492CDE9021046F25910C3F62D
:103C90007720019045F00701A8B20F2300278AB2D0
:103CA0000021FFF78BFDA4F12000C0B208EB001447
:103CB000E65D16F0010F0CBF4FF6FF704FF4784031
:103CC000FFF786F9B00754BF4FF6FF704FF4784006
:103CD000FFF77EF9700754BF4FF6FF704FF478403E
:103CE000FFF776F9300754BF4FF6FF704FF4784076
:103CF000FFF76EF9F00654BF4FF6FF704FF47840AF
:103D0000FFF766F9B00654BF4FF6FF704FF47840E6
:103D1000FFF75EF9700654BF4FF6FF704FF478401E
:103D2000FFF756F9300654BF4FF6FF704FF4784056
:103D3000FFF74EF90137102FBAD119F8014F0835A6
:103D4000002CA7D1002550240DF1100945F00701E2
:103D5000A8B21F238AB21021FFF730FDA4F1200082
:103D60000024C0B208EB00173E5D16F0010F0CBF37
:103D70004FF6FF704FF47840FFF72AF9B00754BFB1
:103D80004FF6FF704FF47840FFF722F9700754BFE9
:103D90004FF6FF704FF47840FFF71AF9300754BF21
:103DA0004FF6FF704FF47840FFF712F9F00654BF5A
:103DB0004FF6FF704FF47840FFF70AF9B00654BF92
:103DC0004FF6FF704FF47840FFF702F9700654BFCA
:103DD0004FF6FF704FF47840FFF7FAF8300654BF03
:103DE0004FF6FF704FF47840FFF7F2F80134102CD3
:103DF000BAD119F8014F0835002CA7D10025592454
:103E00000DF1040945F00701A8B22F238AB2202141
:103E1000FFF7D4FCA4F120000024C0B208EB001787
:103E20003E5D16F0010F0CBF4FF6FF704FF4784067
:103E3000FFF7CEF8B00754BF4FF6FF704FF478404D
:103E4000FFF7C6F8700754BF4FF6FF704FF4784085
:103E5000FFF7BEF8300754BF4FF6FF704FF47840BD
:103E6000FFF7B6F8F00654BF4FF6FF704FF47840F6
:103E7000FFF7AEF8B00654BF4FF6FF704FF478402E
:103E8000FFF7A6F8700654BF4FF6FF704FF4784066
:103E9000FFF79EF8300654BF4FF6FF704FF478409E
:103EA000FFF796F80134102CBAD119F8014F0835F4
:103EB000002CA7D10120FFF72BFC3A2000256C2411
:103EC0000DF12809ADF82C0046F26C50C7F266409F
:103ED0000A9000BF45F00701A8B23F238AB2302103
:103EE000FFF76CFCA4F120000024C0B208EB00171F
:103EF0003E5D16F0010F0CBF4FF6FF704FF4784097
:103F0000FFF766F8B00754BF4FF6FF704FF47840E4
:103F1000FFF75EF8700754BF4FF6FF704FF478401C
:103F2000FFF756F8300754BF4FF6FF704FF4784054
:103F3000FFF74EF8F00654BF4FF6FF704FF478408D
:103F4000FFF746F8B00654BF4FF6FF704FF47840C5
:103F5000FFF73EF8700654BF4FF6FF704FF47840FD
:103F6000FFF736F8300654BF4FF6FF704FF4784035
:103F7000FFF72EF80134102CBAD119F8014F08358B
:103F8000002CA7D143F67420002572240DF12809D6
:103F9000ADF82C0046F672108DF82E50C6F667006C
:103FA0000A9000BF45F00701A8B24F238AB2402112
:103FB000FFF704FCA4F120000024C0B208EB0017B6
:103FC0003E5D16F0010F0CBF4FF6FF704FF47840C6
:103FD000FEF7FEFFB00754BF4FF6FF704FF4784076
:103FE000FEF7F6FF700754BF4FF6FF704FF47840AE
:103FF000FEF7EEFF300754BF4FF6FF704FF47840E6
:10400000FEF7E6FFF00654BF4FF6FF704FF478401E
:10401000FEF7DEFFB00654BF4FF6FF704FF4784056
:10402000FEF7D6FF700654BF4FF6FF704FF478408E
:10403000FEF7CEFF300654BF4FF6FF704FF47840C6
:10404000FEF7C6FF0134102CBAD119F8014F08351C
:10405000002CA7D143F6742000254C240DF128092B
:10406000ADF82C0045F64C708DF82E50C6F6636006
:104070000A9000BF45F00701A8B25F238AB2502121
:10408000FFF79CFBA4F120000024C0B208EB00174E
:104090003E5D16F0010F0CBF4FF6FF704FF47840F5
:1040A000FEF796FFB00754BF4FF6FF704FF478400D
:1040B000FEF78EFF700754BF4FF6FF704FF4784045
:1040C000FEF786FF300754BF4FF6FF704FF478407D
:1040D000FEF77EFFF00654BF4FF6FF704FF47840B6
:1040E000FEF776FFB00654BF4FF6FF704FF47840EE
:1040F000FEF76EFF700654BF4FF6FF704FF4784026
:10410000FEF766FF300654BF4FF6FF704FF478405D
:10411000FEF75EFF0134102CBAD119F8014F0835B3
:10412000002CA7D143F67420002552240DF1280954
:10413000ADF82C0045F652708DF82E50C6F663602F
:104140000A9000BF45F00701A8B26F238AB2602130
:10415000FFF734FBA4F120000024C0B208EB0017E5
:104160003E5D16F0010F0CBF4FF6FF704FF4784024
:10417000FEF72EFFB00754BF4FF6FF704FF47840A4
:10418000FEF726FF700754BF4FF6FF704FF47840DC
:10419000FEF71EFF300754BF4FF6FF704FF4784014
:1041A000FEF716FFF00654BF4FF6FF704FF478404D
:1041B000FEF70EFFB00654BF4FF6FF704FF4784085
:1041C000FEF706FF700654BF4FF6FF704FF47840BD
:1041D000FEF7FEFE300654BF4FF6FF704FF47840F6
:1041E000FEF7F6FE0134102CBAD119F8014F08354C
:1041F000002CA7D143F64D2000254C240DF12809B1
:10420000ADF82C0045F64C708DF82E50C5F250706C
:104210000A9000BF45F00701A8B27F238AB270213F
:10422000FFF7CCFAA4F120000024C0B208EB00177D
:104230003E5D16F0010F0CBF4FF6FF704FF4784053
:10424000FEF7C6FEB00754BF4FF6FF704FF478403C
:10425000FEF7BEFE700754BF4FF6FF704FF4784074
:10426000FEF7B6FE300754BF4FF6FF704FF47840AC
:10427000FEF7AEFEF00654BF4FF6FF704FF47840E5
:10428000FEF7A6FEB00654BF4FF6FF704FF478401D
:10429000FEF79EFE700654BF4FF6FF704FF4784055
:1042A000FEF796FE300654BF4FF6FF704FF478408D
:1042B000FEF78EFE0134102CBAD119F8014F0835E3
:1042C000002CA7D143F64D20002552240DF12809DA
:1042D000ADF82C0045F652708DF82E50C5F2507096
:1042E0000A9000BF45F00701A8B28F238AB280214F
:1042F000FFF764FAA4F120000024C0B208EB001715
:104300003E5D16F0010F0CBF4FF6FF704FF4784082
:10431000FEF75EFEB00754BF4FF6FF704FF47840D3
:10432000FEF756FE700754BF4FF6FF704FF478400B
:10433000FEF74EFE300754BF4FF6FF704FF4784043
:10434000FEF746FEF00654BF4FF6FF704FF478407C
:10435000FEF73EFEB00654BF4FF6FF704FF47840B4
:10436000FEF736FE700654BF4FF6FF704FF47840EC
:10437000FEF72EFE300654BF4FF6FF704FF4784024
:10438000FEF726FE0134102CBAD119F8014F08357A
:10439000002CA7D13A20782556240DF12809ADF834
:1043A0002C0044F25640C4F244100A9008E000BFCA
:1043B00019F8014F0835002C04BF17B0BDE8F08391
:1043C00045F00701A8B20F2300278AB20021FFF7AA
:1043D000F5F9A4F12000C0B208EB0014E65D16F078
:1043E000010F0CBF4FF6FF704FF47840FEF7F0FD61
:1043F000B00754BF4FF6FF704FF47840FEF7E8FD6A
:10440000700754BF4FF6FF704FF47840FEF7E0FDA1
:10441000300754BF4FF6FF704FF47840FEF7D8FDD9
:10442000F00654BF4FF6FF704FF47840FEF7D0FD12
:10443000B00654BF4FF6FF704FF47840FEF7C8FD4A
:10444000700654BF4FF6FF704FF47840FEF7C0FD82
:10445000300654BF4FF6FF704FF47840FEF7B8FDBA
:104460000137102FBAD1A3E710B584B00420012181
:10447000FDF776FB102040F6000401A90390082008
:10448000C4F20104ADF80400032002902046FCF7BA
:1044900003FE20460821FCF7ADFF04B010BD00006C
:1044A0007047000080B56FF00400FDF7F5FC40F2A6
:1044B00018004DF6836140F20E12C2F20000C4F201
:1044C0001B31C2F200020068A0FB0101480D107010
:1044D000C1F347504FF47A71484340F20C11C2F2D5
:1044E0000001088080BD000040F20C11C2F2000102
:1044F000098841434EF21000CEF2000041600021D5
:104500008160016841F00101016000BF016801F0B4
:10451000011101290ED1016801F00111012909D110
:10452000016801F00111012904D1016801F00111B4
:104530000129EBD0016821F00101016000218160B7
:104540007047000040F20E11C2F2000109784143A9
:104550004EF21000CEF2000041600021816001683F
:1045600041F00101016000BF016801F00111012962
:104570000ED1016801F00111012909D1016801F092
:104580000111012904D1016801F001110129EBD0C9
:10459000016821F001010160002181607047000085
:1045A0002DE9F04389B00446042001214FF00409AD
:1045B0004FF00108FDF7D4FA4FF480400121FDF7D8
:1045C000CFFA43F60005032006AF07904FF40070C2
:1045D000C4F201053946ADF818001820A5F540567B
:1045E00008903046FCF758FD4FF48060CDF82090DD
:1045F0003946ADF818003046FCF74EFD05208DF821
:1046000002002520ADF800006846CDF80480FDF7D3
:104610004BFA0020029402A90390ADF814004FF465
:10462000402004902846FEF70FFC284640F2255112
:104630000122FEF7F1FB28460121FEF7C1FB09B07C
:10464000BDE8F08380B54FF0000C4FF07E5E80E84F
:1046500002500299C0E903CCC0E905E2C3610162DE
:1046600080BD00002DE9F04F89B0FDF723FC092043
:10467000FDF78AFBFFF716FF01200124FDF7F4F890
:1046800040F29C00C2F20000FDF782FA4FF4407045
:10469000FDF73AFAFEF788FFFDF7FAF8FFF7E4FEB8
:1046A000FFF73EFAFFF758F8FEF736FEFFF7BAFAC3
:1046B000FEF700FEFCF73EFC4FF41650FFF770FFCC
:1046C000FFF78EF9FFF7DCF9FFF7C0F8FFF746F8C0
:1046D00001200121FDF72CFA312006A9079041F6AF
:1046E0001F4006904FF08040FEF700F94FF08040E9
:1046F00001210122FDF7EEFF03208DF812004FF497
:104700008E70ADF8100004A80594FDF7CDF94FF0B8
:1047100080400121FDF738FDFEF746FFFEF7FCFD66
:10472000FEF7C8FDFEF710FC40F2040040F2E4077B
:104730000021C2F20000C2F20007C4F2C8210468DE
:1047400040F20000C2F20000D0F800A040F22000C9
:10475000C2F20000056840F21000C7E9004AC2F248
:1047600000000068BD6001F09BF90021C4F27A41AD
:1047700001F0CCF801F02CF9F86040F2BE170646C3
:104780004FF6FF7B4FF000094FF01008C2F2000710
:1047900040F20000C2F20000C0F800A040F2040A9B
:1047A0002846C2F2000ACAF8004040F22004C2F2D1
:1047B0000004256000F068FF00230022C4F26903B2
:1047C00000F00AFE00F0D6FD40F21C04C2F2000424
:1047D0002060A6F57A7000F057FF00230022C4F293
:1047E000590300F0F9FD00F0C5FD40F21005052168
:1047F000C2F2000528600C20FCF700FE01F05AF818
:1048000046F266634FF06632C4F20A0300F054FFCA
:1048100000230022C4F2260300F04EFF49F69A124C
:1048200049F69913C9F69912C3F6F17300F044FFE3
:1048300000230022C3F6307300F03EFF00F09AFD23
:1048400040F2BC06C2F20006306040F2B800C2F28C
:104850000000006801F02EF849F2EC1402460B4605
:104860003846C0F600042146FBF7E8FC282000216A
:104870003A461F23CDE900B8CDF80890FEF74AFF6D
:1048800040F29800C2F20000006801F013F80246FE
:104890000B4638462146FBF7D1FC282010213A462A
:1048A0001F23CDE900B8CDF80890FEF733FF40F2A2
:1048B000C000C2F20000006800F0FCFF02460B4698
:1048C00038462146FBF7BAFC282020213A461F2310
:1048D000CDE900B8CDF80890FEF71CFF40F28C003F
:1048E00049F2E414C2F20000C0F60004026838463F
:1048F0002146FBF7A3FC302030213A461F23CDE9A7
:1049000000B8CDF80890FEF705FF40F2B000214650
:10491000C2F20000006842423846FBF78FFC3020AC
:1049200040213A461F23CDE900B8CDF80890FEF7A4
:10493000F1FE40F2900049F2E814C2F20000C0F625
:104940000004026838462146FBF778FC30205021ED
:104950003A461F23CDE900B8CDF80890FEF7DAFEFD
:1049600040F2B4002146C2F2000002683846FBF76C
:1049700065FC302060213A461F23CDE900B8CDF810
:104980000890FEF7C7FE286800F094FF02460B4629
:10499000384668A1FBF752FC002090213A461F23BD
:1049A000CDE900B8CDF80890FEF7B4FEDAF80020A3
:1049B00038462146FBF742FC0020A0213A461F233F
:1049C000CDE900B8CDF80890FEF7A4FE40F2000053
:1049D0002146C2F2000002683846FBF72FFC78201F
:1049E000A0213A461F23CDE900B8CDF80890FEF784
:1049F00091FE40F220002146C2F2000002683846D3
:104A0000FBF71CFC0020B0213A461F23CDE900B87B
:104A1000CDF80890FEF77EFE40F21C00C2F20000C6
:104A2000006800F047FF02460B46384642A1FBF7FC
:104A300005FC7820B0213A461F23CDE900B8CDF817
:104A40000890FEF767FE40F20C002146C2F200001B
:104A500002683846FBF7F2FB302070213A461F23EC
:104A6000CDE900B8CDF80890FEF754FE40F21400EE
:104A70002146C2F2000002683846FBF7DFFB302017
:104A800080213A461F23CDE900B8CDF80890FEF703
:104A900041FE306800F00EFF02460B46384628A162
:104AA000FBF7CCFBA02000213A461F23CDE900B83C
:104AB000CDF80890FEF72EFE40F2102022A1C2F29F
:104AC000000002683846FBF7B9FB0020D0213A46C7
:104AD0001F23CDE900B8CDF80890FEF71BFE40F289
:104AE0006D120020D0211F23CDE900B8CDF8089029
:104AF000C2F20002FEF70EFEFEF70EFF00F0DAFE35
:104B000002460B46384611A1FBF798FB0020E02136
:104B10003A461F23CDE900B8CDF80890FEF7FAFD1C
:104B200040F2E400C2F20000D0E9004AD0E90256A7
:104B30002EE600BF2536660025362E3266000000C0
:104B400025322E32660000002564000025342E3206
:104B5000660000005FEA400C08BF91F0000F4FEACA
:104B60008C234FEAC12243EA51514FEA1C5018BF2F
:104B700000F5F0404FEA300018BF41F000415FEA15
:104B80006C5C00F02980BCF1FF3F08BF40F0804022
:104B90007047130C06BF12044FF0100C4FF0000CBE
:104BA000130E04BF12020CF1080C130F04BF120104
:104BB0000CF1040C930F04BF92000CF1020CD30F04
:104BC00004BF52000CF1010C11464FF00002A0F19D
:104BD0001F00A0EB0C00704711F0004F08BF70479A
:104BE00031F000413FF4D5AF0B0C06BF09044FF084
:104BF000100C4FF0000C0B0E04BF09020CF1080C56
:104C00000B0F04BF09010CF1040C8B0F04BF8900CA
:104C10000CF1020CCB0F04BF49000CF1010CCCF1DC
:104C2000200322FA03F341EA030102FA0CF2A0EB9B
:104C30000C0000F10100704723F07F4720F07F4C0B
:104C400080EA030000F00040ACEB070303F57C535F
:104C500003F1FF032DE9804909B44FEA144324EA24
:104C600003484FEA154B25EA0B4E0FF2042606EBDC
:104C700013273E7803FB0667C7F5000707FB06F618
:104C80004FEAD64606F102064FEA543707FB066C98
:104C9000CCF1005C4FEA1C472CEA074C0CFB06F5F4
:104CA00007FB06F404EB15464FEA961649085FEA3F
:104CB000320234BF00204FF000404FEAD13706FBEC
:104CC00007FC4FEA1C4C0CFB0BF7D21B03FB0CF749
:104CD00061EB07010CFB0EF7B0EB074072EB1742DC
:104CE0000CFB08F734BFA2EB0742B2EB074261EBC3
:104CF00017414FEA0C444FEA910706FB07FC4FEAC5
:104D00001C4C0CFB0BF7B0EBC74072EB573203FBAC
:104D10000CF734BFA2EBC742B2EBC74261EB57318D
:104D20000CFB0EF7B0EBC70072EB57720CFB08F7E9
:104D300034BFA2EBC702B2EBC70261EB57714FEA77
:104D4000816141EA92114FEA826242EA90124FEA8F
:104D5000806004EBCC04039F4FEAD13706FB07FCCD
:104D60004FEA1C4C0CFB0BF7D21B03FB0CF761EB5F
:104D700007010CFB0EF7B0EB074072EB17420CFB80
:104D800008F734BFA2EB0742B2EB074261EB1741D1
:104D90004FEA8C5504EB9C244FEA910706FB07FC75
:104DA0004FEA1C4C0CFB0BF7B0EBC74072EB5732D1
:104DB00003FB0CF734BFA2EBC742B2EBC74261EB77
:104DC00057310CFB0EF7B0EBC70072EB57720CFBC0
:104DD00008F734BFA2EBC702B2EBC70261EB577111
:104DE0004FEA816141EA92114FEA826242EA9012EF
:104DF0004FEA806015EB4C2544F100044FEAD137AF
:104E000006FB07FC4FEA1C4C0CFB0BF7D21B03FB09
:104E10000CF761EB07010CFB0EF7B0EB074072EBF0
:104E200017420CFB08F734BFA2EB0742B2EB074274
:104E300061EB17414FEA813141EA92414FEA8232F8
:104E400042EA90424FEA80304FEA0C7615EB1C158F
:104E500044F1000448EA03434EEA0B484FF0000EC9
:104E6000B2EB080C71EB030724BF624639464EEBE8
:104E70000E0E4FF0000B0018524149414BEB0B0B4B
:104E8000B2EB080C71EB03077BF1000B24BF624609
:104E900039464EEB0E0E4FF0000B001852414941BF
:104EA0004BEB0B0BB2EB080C71EB03077BF1000B28
:104EB00024BF624639464EEB0E0E51EA020718BF78
:104EC00046F0010616EB0E7655F1000254F1000192
:104ED00003D5BDE88901BDE80088BDE88901BDE8CA
:104EE0000048B619524141EB0101A3F1010370479B
:104EF00080807F7E7D7C7B7A797877767675747317
:104F0000727171706F6E6E6D6C6C6B6A6A696868D5
:104F1000676666656464636362616160605F5F5E6B
:104F20005E5D5D5C5C5B5B5A5A59595858575756E1
:104F30005655555554545353525252515150505046
:104F40004F4F4F4E4E4D4D4D4C4C4C4B4B4B4A4A98
:104F50004A494949484848474747474646464545DC
:104F60004544444444434343434242424241414115
:104F70009C46002B30D477002BD04FEA37071CB566
:104F800003B44FF010004FF01001BAF1000F06D03B
:104F9000BCF1000FDCBF40F0080040F008014FF00A
:104FA00000000FBCBDE810400BF1010BBBF1010F7D
:104FB00008BF5FEA170722BF12F1010211F10101D8
:104FC0004FF0004143F1000300F0004043EA0000CD
:104FD0007047F9D35708D0E746EA06464FEA164627
:104FE00013F1400F1FDD13F1200FDFBF16430A46F8
:104FF000002120335B42BED0C3F1200746EA0646BB
:105000004FEA164602FA07F746EA070622FA03F2C3
:10501000C3F1200701FA07F742EA070221FA03F178
:105020004FF00003A7E746EA020646EA06464FEAC3
:10503000164646EA0106BCBF46EA0646360C4FF065
:1050400000034FF000024FF0000194E72DE9804C7F
:1050500070B49A46934691E8380007C831EA400C8C
:1050600048BF34EA430C03D5FFF7E6FDFFF780FFA6
:10507000F0BCBDE8008C2DE9804C70B49A46934694
:1050800091E8380007C810F0804F08BF13F0804F38
:1050900003D100F005F8FFF76BFFF0BCBDE8008C12
:1050A00020F07F4723F07F4C80EA030000F00040AF
:1050B00007EB0C03A3F57C53A3F1FE0392F0000F62
:1050C00000F0B38095F0000F00F077802DE90149E2
:1050D0004FEA114021EA00484FEA144624EA064705
:1050E00000FB06FC08FB06F607FB08F818EB064871
:1050F0004CEB164C00FB07F718EB07484CEB17403E
:105100004FEA124B22EA0B4E4FEA154625EA0647B4
:105110000BFB06FC0EFB06F607FB0EFE1EEB064E17
:105120004CEB164C0BFB07F71EEB074E4CEB174BEB
:1051300018EB0B0840F1000018EB0E0B58EB0008C1
:1051400040F100008F1A4FF000014FF000063CBF05
:10515000C943661B14BFB5EB040C00213CBFC94317
:10516000F61B4FEA174427EA04454FEA1C472CEA8E
:10517000074C04FB076205FB07F70CFB05F616EB73
:10518000074642EB174204FB0CFC16EB0C4642EBC5
:105190001C421BEB060658EB020241414EEA8E0E02
:1051A00046EA9E0601D5BDE80189B619524141EB98
:1051B0000101A3F10103BDE801894FEA144524EA86
:1051C00005464FEA114721EA074C05FB07F406FBA9
:1051D00007F70CFB06F111EB074144EB174405FB05
:1051E0000CFC11EB0C4144EB1C444FEA124722EA41
:1051F000074C05FB07F206FB07F70CFB06F616EB60
:10520000074642EB174205FB0CFC16EB0C4642EB43
:105210001C456A1854F1000148BF7047B619524145
:1052200041EB0101A3F10103704795F0000F37D066
:105230004FEA114221EA02464FEA144724EA074C9A
:1052400002FB07F106FB07F70CFB06F414EB07441F
:1052500041EB174102FB0CFC14EB0C4441EB1C41ED
:105260004FEA154725EA074C02FB07F506FB07F74F
:105270000CFB06F616EB074645EB174502FB0CFC4C
:1052800016EB0C4645EB1C42121951F1000148BFC8
:105290007047B619524141EB0101A3F10103704778
:1052A0004FEA144524EA05464FEA114721EA074C24
:1052B00005FB07F106FB07F70CFB06F212EB0742B2
:1052C00041EB174105FB0CFC12EB0C4251EB1C416E
:1052D0004FF0000648BF7047921841EB0101A3F15F
:1052E00001037047490050EAC12018BF04204A0D4D
:1052F00018BF40F0010040F2FF72B2EB515F08BFEF
:1053000040F00200012808BF0520704730380A2805
:1053100001D20120704700207047000010B500291D
:105320000AD00878002807D005487844FBF702FD2A
:10533000002801D0002010BD0248784410BD0000B4
:10534000EA3E0000E23E000010B500290AD00878CD
:10535000002807D005487844FBF7ECFC002801D072
:10536000002010BD0248784410BD0000DA3E000065
:10537000D23E000021F0004201F00043A2F1605251
:10538000B2F5801F28BFD2F17F6C0BD95FEA001CF9
:1053900043EAC20242EB507018BF704728BF20F0AA
:1053A00001007047B2F5801FBCBF184670474FEA36
:1053B000410C1CF5001F02D2084600F038BC70B545
:1053C00000F024FA00000089FFF7F6BF4FF000401C
:1053D000A0F58000704700002DE9C04130B4DFF82F
:1053E000A0C23CEA111418BF3CEA131400F0EC8090
:1053F0001CEA111481EA030544EAD57418BF1CEABB
:10540000131500F0C780A4EB050404F17F7404F5C4
:1054100000344FF0004545EAC12145EAC32341EA83
:10542000505143EA52534FEAC0204FEAC2229942F8
:1054300008BF904200F09C804FEA13650FF24016BF
:10544000765D4FEA134506FB05F7C7F1807706FB4B
:1054500007F74FEAD737A7FB03687642A7FB06CECC
:10546000C8F5803838BFA8F1010807FB08E6A6FB9D
:10547000028C4FF0000EE6FB03CEDCF1000CCEF107
:10548000004E38BFAEF1010EA6FB0C584FF00007DE
:10549000E6FB0E87A1FB08C6A0FB07CE16EB0E06A7
:1054A0004FF0000545F10005E1FB076515F1E04E01
:1054B0007EBFA4F580345FEA46066D4116F1800791
:1054C00045F100054FEA172747EA05674FEA15251A
:1054D0004FEA0666A6F1DE46B6F1805F1FD9384670
:1054E00005EBC47124F0010C01EB0C11BCF1FE6F53
:1054F00002D8F0BCBDE8008124425CBF01F5801EEB
:105500009EEAC47F02D4F0BCBDE80081244238D4B6
:10551000A1F1C041F0BCBDE8004100F0C5B94FEABF
:10552000D02040EA41504FEAD1214FEAD22242EA4C
:1055300043524FEAD323A7FB028607FB036605FB12
:1055400002661EEA0E0F58BFA6EB0056B6EB0056D9
:105550004FEA520E4EEAC37E18EB0E0E56EB530E78
:10556000BDD518EB02085E417F1C55F10005B6E77A
:105570004FF480154FF000074FF000064FF0000881
:10558000ADE701F1C04101F000414FF00000F0BC77
:10559000BDE800810CEA131511EA0C1F00D00CE0E5
:1055A00013EA0C1F00F025804FF0000081EA030190
:1055B00001F00041F0BCBDE80081F0BCBDE8004155
:1055C00081EA030100F070B9F0BCBDE8004170B59C
:1055D00000F01CF9097EFC3E00F007B84FF0000017
:1055E00081EA030101F00041704781EA030100F004
:1055F0005BB9F0BCBDE8004122494FF000007047A4
:10560000FFFDFBF9F7F5F4F2F0EEEDEBE9E8E6E487
:10561000E3E1E0DEDDDBDAD8D7D5D4D3D1D0CFCD0E
:10562000CCCBCAC8C7C6C5C4C2C1C0BFBEBDBCBB47
:10563000BAB9B8B7B6B5B4B3B2B1B0AFAEADACAB42
:10564000AAA9A8A8A7A6A5A4A3A3A2A1A09F9F9E1C
:105650009D9C9C9B9A9999989797969595949393CE
:10566000929191908F8F8E8E8D8C8C8B8B8A898965
:1056700088888787868585848483838282818180E8
:105680000000FF070000F87F10F0004248BF4042D2
:10569000B0FA80F310FA03F10AD0C3F11D0303F549
:1056A000806302EB03524FEA415002EBD121704775
:1056B0004FF000007047000070B5DFF848C11CEAE9
:1056C000111E1EBF1CEA13159EEA0C0F95EA0C0F63
:1056D00000F06F8081EA03044EEAD47EAE4421EAF2
:1056E0004C1123EA4C1341F4801143F48013AEF1C2
:1056F0007F7EA1FB024CA0FB0365361955EB0C0520
:10570000A1FB034C4CF10003A0FB021C16EB0C06A2
:10571000654153F10003094218BF46F0010613F436
:10572000007F0BD14FEA03314FEA053041EA1551B2
:1057300040EA165034036FF003020AE04FEAC32137
:105740004FEAC52041EA555140EA5650F4026FF045
:10575000020202EB2E4201EB025585EACE710AD01D
:105760005FEA440C18BF24F0004450F1000041F1FE
:10577000000120EAD47040F2FE7C624500D270BD88
:10578000A84214BF4FF080444FF04044002E08BFA1
:105790000024BEF1806FA8BFA1F1C041BDE87040F8
:1057A00080F2828001F1C04101F000414FF0000021
:1057B00070470CEA13159EEA0C0F18BF95EA0C0F00
:1057C00006D081EA030E4FF000000EF0004170BDDC
:1057D00000F01CF88900013E00F007B800F009B89D
:1057E0004FEA430C5FEA5C5C08D081EA030100F0F9
:1057F0005BB84FEA410C5FEA5C5CF6D102494FF0BE
:10580000000070470000FF070000F87F0EF1020E55
:105810002EF0030E5EF8046B364205D4012A43EBEA
:10582000030515F5001F12D8012841EB010C1CF5EA
:10583000001F0CD80ED14FEAD17C0CEB4C0C0CF1B4
:10584000020C15F5001F08BF4CEBD37C04E04FF0B1
:10585000080C01E04FEAD37C0CEB4C0526FA05F668
:1058600006F00706B6F1040C06D20EEB860CBDE876
:1058700070404CF0010C6047DFE80CF0090B0202AD
:105880004FF00041A1F500214FF0000070BD194616
:105890001046012851EB010418BFD4F5001484BF51
:1058A000002001F0004170BD0808A0F500114FEA8A
:1058B0003101704743004FEAD30C4FEA3C0C4340A0
:1058C0001FBF40070CF1605113F0FE4F70471CF0F2
:1058D000006F03D10CF00041002070470CF0004332
:1058E00043EA507040EACC0010B500F05AF900BF0E
:1058F000000000924FEA0001FFF7D6BF4FF00041D1
:10590000A1F500214FF000007047000090EA010F60
:1059100048BF81F0004100F19681421A3CBF801AD5
:1059200089184FEAD052A2EBD1534FF07F4C1CEABA
:10593000410F18BF9CEA026F00F03B804FF0004C13
:105940004CEA00204CEA012121FA03FC10EB0C0C7C
:105950001ED202F1FF325FEA1C2040EBC25038BF7A
:1059600070471CF07F0F4FEA400C18BFBCF17F4F0F
:1059700038BF7047C3F12003994008BF20F00100F1
:10598000BCF17F4F38BF7047A0F1C04000F04FB965
:105990004FEA3C00000A40EBC25028BF1CF0FF0F4A
:1059A0004FEA400CE6D018BFBCF17F4F38BF7047BC
:1059B000EAE79CEA026F05D010EA5C0F08BF00F02E
:1059C0000040704710B500F0ECF800BF64FBBE3E2D
:1059D00041000B0ED3F19E0208D950F400034FEAA8
:1059E000032323FA02F048BF4042704710B500F08D
:1059F000D8F800BF49922480002070476FF0004221
:105A000082EA200070470000C10DD1F19E0206DB42
:105A10004FEA002343F0004323FA02F070470042AC
:105A200007D54FEA4001B1F1FE4F02D24FF000001E
:105A3000704710B500F0B5F84992248000207047F7
:105A40006FEA20007047000010F0004148BF40425C
:105A5000B0FA80F310FA03F2C3F19D030BD051EAC0
:105A6000C35101EB1220530638BF704700F101000B
:105A700008BF20F001007047B0FA80F310FA03F27B
:105A8000C3F19D030AD0D90501EB1220530638BF9C
:105A9000704700F1010008BF20F0010070470000CE
:105AA0004FF47F0C1CEAD0121EBF1CEAD11392EAFD
:105AB0000C0F93EA0C0F00F0478090EA010F48BFEB
:105AC00042F480724FF0004C4CEA00204CEA012175
:105AD00002EB0302A0FB0113A2F50002002918BF8C
