:020000040800F2
:1000000090090020FD01000829240008351D000882
:100010002524000879120008BD3C000800000000FB
:100020000000000000000000000000000F020008B7
:100030007D120008000000001302000815020008ED
:10004000170200081702000817020008170200082C
:1000500017020008170200088112000817020008A2
:10006000170200081702000817020008170200080C
:1000700017020008170200081702000817020008FC
:1000800017020008170200081702000817020008EC
:10009000170200081702000817020008BD12000826
:1000A00017020008170200081702000817020008CC
:1000B00091290008B52D0008C92D00081702000875
:1000C00017020008170200081702000817020008AC
:1000D000170200084536000817020008B93A000860
:1000E000170200081702000817020008170200088C
:1000F000170200081702000817020008170200087C
:100100001702000817020008DD2D0008170200087A
:10011000170200081702000817020008170200085B
:10012000170200081702000817020008170200084B
:1001300000F002F800F053F80AA090E8000C8244A6
:100140008344AAF10107DA4501D100F048F8AFF283
:10015000090EBAE80F0013F0010F18BFFB1A43F0A5
:100160000103184700EA000020EA0000103A24BF0B
:1001700078C878C1FAD8520724BF30C830C144BF0C
:1001800004680C607047000000230024002500264E
:10019000103A28BF78C1FBD8520728BF30C148BFEA
:1001A0000B60704766290AF01483642900F0B4805C
:1001B000782900F0ED80002070471FB500F08EFD1B
:1001C00004000020002109F081F9401C606000203B
:1001D000002109F065F9E0601FBD10B510BD00F009
:1001E000CDFE1146FFF7E9FF06F0E8F900F0F9FE51
:1001F00003B4FFF7F2FF03BC05F0F0F909488047AC
:1002000009480047FEE7FEE7FEE7FEE7FEE7FEE7F8
:10021000FEE7FEE7FEE7FEE704480549054A064B10
:1002200070470000392800083101000890030020C1
:10023000900900209005002090050020704710B51F
:100240004C1084EA530404D54042C1F1000138BF88
:10025000491E1B4204D55242C3F1000338BF5B1E46
:1002600000F0DEF914F0804F04D04042C1F10001EB
:1002700038BF491E14F0004F04D05242C3F10003AE
:1002800038BF5B1E10BD00000FB4044910B503AAAF
:10029000029800F0CDFC10BC5DF814FB3C0100207E
:1002A0000FB41CB5074B06AA7B446946009005981D
:1002B00000F0A5FC0020694600F0B4FC1CBC5DF811
:1002C00014FB00007909000070B5044685690068D8
:1002D000C10601D5302600E02026C00707D070BD3A
:1002E000D4E9012130469047206A401C20626D1EEF
:1002F000F6D570BD70B5044685690078C00707D192
:1003000070BDD4E9012120209047206A401C206262
:100310006D1EF6D570BD00002DE9F04106460024A3
:1003200010687529314616A510D0AFF3008000285B
:1003300002DA404213A507E031688A0701D512A509
:1003400002E0490704D511A5012401E0AFF30080C4
:1003500000210A2206F1240709E0B0FBF2FCB0FB01
:10036000F2F302FB1C00303078541846491C002878
:10037000F3D123462A463046BDE8F04100F0D2B919
:10038000000000002D0000002B00000020000000F5
:1003900070B504460D4621461068AFF300802188F1
:1003A000090502D50F4A7A4402E00E4A7A440E3219
:1003B000002104F1240305E000F00F060009965D1A
:1003C0005E54491C0028F7D120780023000704D58B
:1003D000702D02D009B1022311322046BDE87040D1
:1003E00000F0A0B91CA500002DE9F05F8946044685
:1003F0004FF0000ADFF824B1FB44C0F820A02046EB
:10040000E168884700287DD0252806D0D4E901215D
:100410009047206A401C2062F1E700255F46204695
:10042000E16888472028064607DB312E05D2B81937
:1004300010F8200C08B10543F1E7A80701D525F015
:100440000405C4F81CA00027C4F818A02A2E09D05F
:10045000304608F0E1FC38B304EB8708303EC8F8BA
:10046000186019E059F8041B204604EB87029161DB
:10047000E1688847012F064618D1E069002820DA94
:1004800025F020051DE0D8F8180000EB800006EBF1
:1004900040003038C8F818002046E1688847064612
:1004A00008F0BAFC0028EED1012F0AD02E2E08D178
:1004B0002046E16888477F1C0646022F45F020054C
:1004C000C4DBA069002803DA404245F00105A061C1
:1004D000E80701D025F01005A6B1A6F141001928C2
:1004E00002D8203645F400654A463146204625604C
:1004F0004D46FFF757FE60B1012807D0ED1D25F0EE
:10050000070000E007E000F1080978E705F10409B9
:1005100075E730467AE7206ABDE8F09FF2A4000054
:1005200070B5064600F078F80468054630460A22A1
:10053000002100F08FFB2C6070BD000010B5044658
:1005400003E005F02FFD401C09D014F8010B05490C
:100550000028F6D1BDE810400A2005F023BD4FF079
:10056000FF3010BD3C01002040EA010310B59B079D
:100570000FD1042A0DD310C808C9121F9C42F8D00D
:1005800020BA19BA884201D9012010BD4FF0FF30BE
:1005900010BD1AB1D30703D0521C07E0002010BDD4
:1005A00010F8013B11F8014B1B1B07D110F8013B60
:1005B00011F8014B1B1B01D1921EF1D1184610BD41
:1005C0004FF0000200B5134694469646203922BFEC
:1005D000A0E80C50A0E80C50B1F12001BFF4F7AF37
:1005E000090728BFA0E80C5048BF0CC05DF804EB19
:1005F000890028BF40F8042B08BF704748BF20F887
:10060000022B11F0804F18BF00F8012B7047704784
:100610007047704770470000004870474000002056
:1006200053EA020C00F069802DE9F04B4FF0000610
:10063000002B1FBFB3FA83F503FA05F424FA05F67D
:100640005E4012BF1643B2FA82F502FA05F4C5F114
:1006500020051EBF22FA05FC44EA0C04203556EAA8
:10066000044C4FEA144418BF641C4FF000084FF0CC
:100670000009904271EB030C39D3002919BFB1FA7C
:1006800081F701FA07F6B0FA80F700FA07F6C7F12A
:1006900020071EBF20FA07FC46EA0C062037B6FBEF
:1006A000F4FCA7EB0507103F07F01F0BCBF120066A
:1006B0002CFA06F60CFA0BFB44BFB3460026202F9B
:1006C000A4BF5E464FF0000B5BEA060C08BF4FF07C
:1006D000010B19EB0B0948EB0608ABFB027C06FB90
:1006E00002CC0BFB03CCC01B71EB0C01C1E70B462A
:1006F000024641464846BDE8F08B13B54FF0000076
:100700004FF00001AFF30080BDE81C40704710B50A
:10071000FFF782FF006810BD10B50446FFF77CFFAD
:10072000046010BD2DE9F0470D46994692460446F7
:1007300000F124080168880604D5E06921F0100161
:10074000216000E00120A84201DD471B00E00027F6
:10075000A1697A1902EB0900081AA0612078C00685
:1007600002D42046FFF7B0FD002608E0D4E90121BD
:100770001AF806009047206A401C761C20624E45FD
:10078000F4DB2078C0060AD52046FFF79DFD06E081
:10079000D4E9012130209047206A401C2062381E95
:1007A000A7F10107F4DC07E0D4E9012118F80500FE
:1007B0009047206A401C2062281EA5F10105F3DC49
:1007C0002046FFF797FD2078000602D50220BDE8FD
:1007D000F0870120FBE72DE9FF4F0C461E464FF046
:1007E000FF378BB0D2E90001DDF860800A908A46BD
:1007F000C1F30A5505B93D46002108464FF00000F7
:10080000BAF1000F00F4400005DA00EB80004FF46D
:10081000400101EA50004FEA9059B9F1010F00DDA3
:10082000B9460A9850EA4A000ED044F61050A5F294
:10083000FF3545432F14B8F1000F1ED07542291E15
:100840001EDDC9F100021CE0B8F1010F4FF00000FD
:1008500001D0302103E0F24305E02154401CB042B6
:10086000FBDB30460022002121540B99C1F808809F
:10087000C1E900200FB0BDE8F08FBD1B6D1CDEE7A5
:100880004A4600DA694206A800F002FB06AB93E88C
:10089000070003AB83E8070050460A9907F078FE8B
:1008A0008DE80700A0F500501F3800900398002D38
:1008B0000ADD42F21F014A460844002303A90390BF
:1008C000684608F0E1F809E0A0F500504A461F38F4
:1008D000002303A90390684608F0EBF88DE80700B1
:1008E0000004000C03D04FF0FF30410800E0104638
:1008F000B8F1000F03D00022009215461EE0751ECD
:1009000005D400F0EFF9303262556D1EF9D5B346CB
:100910000122084302D000227F1C04E02078302806
:1009200001D100227F1E002A099784D01DE0112DDD
:1009300007DA00F0D7F9303262556D1C50EA010237
:10094000F5D1084302D00098C8B10EE00021681E1E
:1009500005E0235C625C63542254401E491C8142C2
:10096000F7DBAB46A81B401E0990002004F80B00E3
:100970000B98099AC0F80880C0E9002B7AE7112685
:100980004FF0000857E72DE9F04F88460446D21D86
:1009900022F0070191B0D1E90001CDE90A0108F088
:1009A000BFF902460B98C00F01D02D2007E0206848
:1009B000810701D52B2002E0202101EAC000032A93
:1009C000099001D0072A05DB03464146204600F086
:1009D000CFF90BE12078800601D5E06900E0062020
:1009E000B8F1650F814606D0B8F1660F18D0B8F19E
:1009F000670F70D131E00020B9F1110F009001DBD9
:100A0000112301E009F101030AAA01A90CA8FFF7CB
:100A1000E2FEDDE90C70002609F10105834647E09E
:100A200001204B4600904FF000470AAA01A90CA8EC
:100A3000FFF7D1FEDDE90DB00C995D46002610B937
:100A400009F101000D18B9EB050003D4C0F1FF3620
:100A500009F10105A5EB09002BE0B9F1010F01DA5D
:100A60004FF001090020B9F1110F0090484601DD57
:100A7000112300E003460AAA01A90CA8FFF7ABFE68
:100A8000DDE90C704D4600268346207800070AD425
:100A9000AB4500DA5D4601A8012D04DD411911F8CE
:100AA000011C302907D04F4502DA17F1040F04DA90
:100AB000012082460FE06D1EEEE7002F02DCED1BE9
:100AC0003E4403E0781CA84200DD7D1CB81B00F109
:100AD000010A4FF000472078000703D4AA4501DB44
:100AE0004FF0FF3A0021B7F1004F0DF143088DF8A8
:100AF000431024D002202B23002F01DA7F422D2324
:100B00000A21021EA0F1010000DC5FB197FBF1FC9D
:100B100097FBF1F201FB1C7C17460CF1300C08F836
:100B200001CDEEE7A8F1010003702188090501D588
:100B3000452100E06521A0F1010800F8011C099899
:100B40000FA9A1EB0807FF1D00B10120411901EB1E
:100B5000EA70A1693844081A401EA0612078C006D6
:100B600002D42046FFF7B0FB099828B1D4E901214F
:100B70009047206A401C20622078C00622D520467B
:100B8000FFF7A2FB1EE0002E04DBB34502DD01A847
:100B9000805D00E03020D4E901219047206A401CAC
:100BA0002062761CAAF101005FEA000A0AD100F077
:100BB00095F8C0680168405CD4E901219047206A3B
:100BC000401C2062281EA5F10105DCDC07E0D4E909
:100BD000012118F8010B9047206A401C2062381E42
:100BE000A7F10107F3DC2046FFF784FB032011B0D7
:100BF00041E6000001694A1C02610878704700B5AF
:100C00008FB0CDE901310021059105497944CDE945
:100C1000031011466846FFF7E7FB0FB000BD000068
:100C2000E5FFFFFF0A6802F8010B0A607047000049
:100C3000074B70B50D467B44FFF7E1FF044628469D
:100C400000F098F910B14FF0FF3070BD204670BD34
:100C50006B5300002DE9F04791460F46804604464D
:100C6000002614F8015B2DB100F030F80068405DFB
:100C7000C007F6D12B2D02D02D2D18D0641E4A4668
:100C80003946204600F0B4F827B13968A14201D1B5
:100C9000C7F800804FF0020471050BD540420028D0
:100CA00003DDFFF7B9FC0460A007BDE8F08746F458
:100CB0008066E4E70028F8DAFFF7AEFC04606FF026
:100CC0000040F2E7004870474000002010B500F0F7
:100CD00005F8001D10BD00BFF587000000487047F3
:100CE0006000002030B5B0F10A0271F100034FEA54
:100CF000900E4EEA817EB0EB0E0061EB91014FEA5F
:100D0000101E4EEA017E10EB0E0041EB11114FEA6E
:100D1000102E4EEA016E10EB0E0041EB11214FEA4E
:100D2000104E4EEA014E10EB0E0041EB11414018FF
:100D300041F100014FEAD00040EA41704FEAD10191
:100D40004FEA810444EA907410EB800544EB0104FF
:100D50006D1944EB0404521BA3414FF0000348BF3C
:100D60000A3200D530BD401C41F1000130BD000009
:100D70002DE9F0411F46044603260168072A01F4C5
:100D8000006004DB08B116A505E016A503E008B174
:100D900015A500E015A521F010002060A069C01E77
:100DA000A0610FB1401EA0612046FFF78DFA4FB140
:100DB000D4E9012138469047206A401C2062C01CBB
:100DC000206206E0206AFAE7D4E9012115F8010B58
:100DD0009047761EF8D22046FFF78CFABDE8F081E6
:100DE0004E414E006E616E00494E4600696E6600CF
:100DF0002DE9F05F824615468B4600270AF1010473
:100E0000B9460078302801D09DB113E014F8010BE9
:100E10000127782803D0582801D045B10AE00DB148
:100E2000102D07D1002714F8010B102502E008252A
:100E300000E00A250026B0460EE005FB080005FB91
:100E400006F101271FFA80F801EB1046B6F5803F46
:100E500000D3B94614F8010B294600F0B4F8002875
:100E6000EBDABBF1000F05D00FB1641E00E0544671
:100E7000CBF80040B9F1000F06D0FFF7CDFB0221FF
:100E80000160C81EBDE8F09F48EA0640FAE700008E
:100E90002DE9F047814616468AB0354878440DC89A
:100EA0008DE80D0032487844801C03AC0DC884E8FE
:100EB0000D0041F69B300844372190FBF1F290FB86
:100EC000F1F5A5F1800501FB12041B3C02D564423B
:100ED000012000E00020DFF898A080460027FA44B7
:100EE000AAF1BE0A0EE0E0070AD03246684607EBD8
:100EF000470101230AEB810107F0DBFD8DE80700C4
:100F000064107F1C002CEED1194F7F44AE3F19E0D6
:100F1000E80715D007EB04100DF1180A90E80E0051
:100F20008AE80E00C068F04201D198190890324654
:100F3000012306A903A807F0BCFD03AB83E8070063
:100F40006D10641C002DE3D14FF001033246694659
:100F5000B8F1000F03A802D007F096FD01E007F0FA
:100F6000A8FDC9E90001C9F808200AB0BDE8F0876A
:100F7000CC9B0000007B00F0800070477546FFF7B7
:100F8000A1FEAE4605006946534620F0070085469F
:100F900018B020B5FFF740F9BDE820404FF000063B
:100FA0004FF000074FF000084FF0000BAC46ACE8E4
:100FB000C009ACE8C009ACE8C009ACE8C00921F040
:100FC00007018D4670473A2800D2303820F02002C1
:100FD000412A01D3A2F13700884201D34FF0FF30FC
:100FE000704710B50446AFF300802046BDE81040BE
:100FF000FFF7FEB84FF0013C50F8042B51F8043BCA
:101000009A4221D1A2EB0C03934313EACC1317D1DC
:1010100050F8042B51F8043B9A4215D1A2EB0C0373
:10102000934313EACC130BD150F8042B51F8043B33
:101030009A4209D1A2EB0C03934313EACC13DBD001
:101040004FF00000704700BFD01A01BAB1FA81F129
:1010500001F0180122FA01F0CB40DBB2C0B2C01A95
:10106000C1F120012CFA01F3D11A914311EAC31105
:10107000E6D170478268002942F0010308BF22F0E0
:10108000010383607047000080B543F60041C4F25D
:101090000101884214D042F60001C4F201018842E5
:1010A00016D042F20041C4F20101884218BF80BD4F
:1010B0004FF40070012101F021FA4FF400700EE0AE
:1010C0004FF40040012101F019FA4FF4004006E00E
:1010D0004FF48060012101F011FA4FF4806000218B
:1010E000BDE8804001F00ABA8068C0F38000704714
:1010F000C06C80B2704700000068084018BF012033
:10110000704700008068C0F3C000704780B54FF69C
:10111000FF634268CFF6F07302EA030CD1E90032B4
:1011200043EA0C0343EA02224FF2FD734260CFF61A
:10113000F173826802EA030ED1E902C30A6942EA46
:101140000E021A4342EA4C028260C26A097D0139EA
:1011500022F47002C9B242EA0151C16280BD0000AE
:1011600010B501EB410C092988BFACF11E0C09290F
:1011700003FA0CFE4FF0070303FA0CFC4FF01003C8
:1011800088BF0C23062AC45824EA0C0444EA0E043F
:10119000C45003D834306FF0040307E00C2A87BF33
:1011A0002C306FF0400330306FF0220302EB8202EC
:1011B0001A441F23914003FA02F2036823EA020251
:1011C0001143016010BD0000816841F00801816099
:1011D000704700008268002942F4A00308BF22F48F
:1011E000A003836070470000816841F004018160C2
:1011F0007047000070B58AB04FF4017001210125DD
:1012000001F070F94FF4004001F04AF942F2004455
:101210000026042001A9C4F201040396ADF80400DD
:10122000A4F5A05000F018F92046FFF72DFF4FF469
:101230006020CDE90466069604A9CDE9070620469C
:101240008DF82450FFF762FF20460121FFF712FFBF
:101250002046FFF7B9FF00BF2046FFF753FF0028E5
:10126000FAD12046FFF7C0FF2046FFF73DFF0028D8
:10127000FAD10AB070BD0000FEE700007047000020
:1012800080B5322004F0CEF941F200000121C4F211
:10129000010000F089FA48B940F290200022C2F221
:1012A000000001680329B8BF4A1C0260012000F059
:1012B00075F80120BDE8804004F0E2B9F0B581B0D6
:1012C0004FF4807000F070F8002804BF01B0F0BD4A
:1012D00040F600444FF48071C4F2000404F58030FD
:1012E00000F062FA01280BD12046012101F09AFD9D
:1012F00040F2C410C2F2000001680131016045E013
:1013000020460021002601F08DFD204601F0D4FE8C
:1013100040F26431C2F20001086000EB001008F0F6
:101320009CFB44F200030022C4F28F0308F0D2F9C0
:1013300008F0E2F80021054608F02AFF40F2C41147
:10134000002840F28C2040F26037C2F2000118BF42
:101350000025C2F20000C2F200070A680560386882
:10136000052A0BD10E604FF07A513E6009F0F0F87B
:1013700040F28821C2F20001086003E0294608F02B
:1013800089FE38602046002102F0FCF84FF480709E
:1013900001B0BDE8F04000F001B8000040F2144197
:1013A000C4F201010860704740F20041C4F201013B
:1013B0000A68024018BF01224969084018BF01208D
:1013C00010407047C26840F20041C4F20101F2B11E
:1013D00002680B6893430B604B6893434B60D0F8F3
:1013E00004C05CF801301A434CF8012002688B6895
:1013F00093438B60CB689343CB60806810280DD1FA
:10140000886810438860C8681043C8607047D0E996
:101410000020435823EA02024250704743581A43BF
:101420004250704780B50C2240F2080E0F2302EAAA
:10143000810201F0FC01C4F2010E03FA02FC51F832
:101440000E30904023EA0C0341F80E3051F80E2084
:10145000104341F80E0080BD80B5D1F808E00EF0D1
:101460000F0C1EF0100F1CBF4B684CEA030C0988D0
:1014700011F0FF0F00F0A4800368CA070BD023F01F
:101480000F02BEF1480F42EA0C0315D0BEF1280F3F
:1014900001D1012242618A0712D523F0F002BEF188
:1014A000280F42EA0C131CD0BEF1480F08D10222CB
:1014B00002614A0706D418E0012202618A07ECD4CF
:1014C0004A0712D523F47062BEF1280F42EA0C23BA
:1014D0001CD0BEF1480F08D1042202610A0719D5B9
:1014E00005E0022242614A07ECD40A0712D523F430
:1014F0007042BEF1280F42EA0C331CD0BEF1480FF7
:1015000008D108220261CA0606D418E0042242610A
:101510000A07ECD4CA0612D523F47022BEF1280FB4
:1015200042EA0C431CD0BEF1480F08D110220261E0
:101530008A0619D505E008224261CA06ECD48A065B
:1015400012D523F47002BEF1280F42EA0C531CD0CE
:10155000BEF1480F08D1202202614A0606D418E0E5
:10156000102242618A06ECD44A0612D523F070623A
:10157000BEF1280F42EA0C631AD0BEF1480F08D121
:10158000402202610A061AD505E0202242614A067D
:10159000ECD40A0613D523F07042BEF1280F42EABC
:1015A0000C730AD0BEF1480F09D18022026106E017
:1015B000402242610A06EED401E0802242610360CB
:1015C000B1F5807F38BF80BD4368CA050CD523F0D4
:1015D0000F02BEF1480F42EA0C0317D0BEF1280FEC
:1015E00002D14FF4807242618A0514D523F0F002D3
:1015F000BEF1280F42EA0C131FD0BEF1480F0AD1EA
:101600004FF4007202614A0507D41BE04FF4807268
:1016100002618A05EAD44A0514D523F47062BEF14A
:10162000280F42EA0C231FD0BEF1480F0AD14FF415
:10163000806202610A051CD506E04FF40072426127
:101640004A05EAD40A0514D523F47042BEF1280FE6
:1016500042EA0C331FD0BEF1480F0AD14FF40062AA
:101660000261CA0407D41BE04FF4806242610A059C
:10167000EAD4CA0414D523F47022BEF1280F42EA3A
:101680000C431FD0BEF1480F0AD14FF480520261C3
:101690008A041CD506E04FF400624261CA04EAD411
:1016A0008A0414D523F47002BEF1280F42EA0C53C9
:1016B0001FD0BEF1480F0AD14FF4005202614A0414
:1016C00007D41BE04FF4805242618A04EAD44A04F2
:1016D00014D523F07062BEF1280F42EA0C631ED0CD
:1016E000BEF1480F0AD14FF48042026109041BD5B4
:1016F00006E04FF4005242614A04EAD4090413D5CB
:1017000023F07041BEF1280F41EA0C730ED0BEF1F8
:10171000480F09D14FF400410161436080BD4FF48F
:10172000804242610904EBD4436080BD4FF4004124
:101730004161436080BD000010B50422002800F420
:1017400040141FFA80FCC4F201021346B8BF43F0F4
:101750001803B4F5401F1B68C0F3034E07D114688B
:1017600023F0706324F07064146081B916E0C40241
:1017700006D447F6F07404EA50440CFA04F402E08C
:10178000032404FA0EF4A34343F0706331B147F627
:10179000F07101EA50410CFA01F10B430028B8BF87
:1017A0001832136010BD00008068084018BF012087
:1017B0007047000041617047016170472DE9F043B7
:1017C00081B08946804671B342F20046002400276A
:1017D000C4F201063046414601220723FFF7C0FC50
:1017E00030460121FFF7F6FC30460221FFF784FC6A
:1017F0000028F9D03046FFF77BFC0546052003F0B2
:1018000011FF284608F028FE0546384608F024FE59
:10181000294608F03FFC08F0E7FD01340746E0B236
:101820004845D7D300E00027B7FBF9F008F014FED5
:1018300001B0BDE8F08300002DE9F04F85B004460B
:1018400000F084FC40F22011012CC2F2000108607B
:1018500040F0858040F2F40440F21C1040F228125F
:10186000C2F20004C2F20000C2F20002214605F0FA
:10187000F5F9002840F05A820DF1060369203B215A
:10188000062200F09FFED0B9BDF8060040F290118C
:10189000C2F2000100BA000C0880BDF8080040F256
:1018A0009211C2F2000100BA000C0880BDF80A00D3
:1018B00040F29411C2F2000100BA000C08800DF150
:1018C000060369204321062200F07CFED0B9BDF852
:1018D000060040F22E21C2F2000100BA000C08807E
:1018E000BDF8080040F23021C2F2000100BA000C3D
:1018F0000880BDF80A0040F23221C2F2000100BAAD
:10190000000C088040F2BC012068C2F200010860AF
:1019100040F22821C2F20001B1F90000B1F90440FF
:1019200008F082FD40F2D001C2F2000108602046BA
:1019300008F07AFD40F2D401C2F20001086040F2E2
:101940009610C2F20000B0F9040008F06DFD40F2FC
:10195000B801C2F20001086005B0BDE8F08F0DF1DA
:10196000060369203B210E22009400F02BFEE0B11B
:1019700040F2D800C2F20000D0F8009040F2DC0043
:10198000C2F20000D0F800A040F2B400C2F20000A1
:10199000D0F800B040F2B000C2F20000066840F299
:1019A000AC00C2F20000046843E0BDF80600C0BA13
:1019B00008F03AFD044640F2AC00C2F200000460B8
:1019C000BDF80800C0BA08F02FFD064640F2B0008E
:1019D000C2F200000660BDF80A00C0BA08F024FD9B
:1019E000834640F2B400C2F20000C0F800B0BDF877
:1019F0000E00C0BA08F018FD814640F2D800C2F2CD
:101A00000000C0F80090BDF81000C0BA08F00CFD4E
:101A1000824640F2DC00C2F20000C0F800A0BDF82F
:101A20001200C0BA08F000FD40F2E001C2F200016D
:101A3000086040F2A411C2F20001B1F90000B1F94E
:101A40000270B1F90480B1F9085008F0EDFC0146CC
:101A5000204608F049FE044640F2AC00C2F2000005
:101A60000460384608F0E0FC0146304608F03CFED1
:101A7000064640F2B000C2F200000660404608F0A0
:101A8000D3FC0146584608F02FFE40F2B408074642
:101A9000C2F20008C8F80000284608F0C5FC01465C
:101AA000504608F021FE40F2DC0A05464FF08E4118
:101AB000C2F2000ACAF80000484608F069FB60B9A3
:101AC00000214846CCF2807108F0E4FA814640F2E9
:101AD000D800C2F20000C0F8009028464FF08E41B6
:101AE00008F056FB38B900212846CCF2807108F086
:101AF000D1FACAF8000040F2E00B4FF08E41C2F27A
:101B0000000BDBF80050284608F042FB38B90021F2
:101B10002846CCF2807108F0BDFACBF800002046D0
:101B20004FF08E4108F034FB50B900212046CCF232
:101B3000807108F0AFFA40F2AC01C2F20001086017
:101B400030464FF08E4108F023FB58B90021304653
:101B5000CCF2807108F09EFA064640F2B000C2F264
:101B60000000066038464FF08E414C4608F010FBEE
:101B700040B900213846CCF2807108F08BFA074654
:101B8000C8F8000040F2D000C146C2F20000046074
:101B9000304608F053FA044638460D4608F04EFA2F
:101BA00002460B462046294607F086FB48F2000411
:101BB0000022C4F26604234607F066FF42F2FB15DA
:101BC0004FF0C042C4F209052B4607F083FD07F031
:101BD00093FC40F2A00140F2AC08C2F20001C2F254
:101BE00000080860D8F8000008F028FA0646D9F87E
:101BF00000000F4608F022FA02460B4630463946EE
:101C000007F05AFB0022234607F03EFF4FF0C04288
:101C10002B4607F05FFD07F06FFC40F2A409C2F20B
:101C20000009C9F8000040F2B000C2F200000068EC
:101C300008F004FA0646D8F800000F4608F0FEF94E
:101C400002460B463046394607F036FB0022234653
:101C500007F01AFF4FF0C0422B4607F03BFD07F09C
:101C60004BFC40F2A801C2F20001086040F2D8002B
:101C7000C2F20000006808F0E1F946F266654FF034
:101C80006632C4F230052B4607F024FD07F034FC21
:101C9000044640F2C400C2F200000460DAF800001A
:101CA00008F0CCF94FF066322B4607F013FD07F031
:101CB00023FC40F2C806C2F200063060DBF80000E8
:101CC00008F0BCF94FF066322B4607F003FD07F031
:101CD00013FC40F2CC01C2F2000108600098022817
:101CE00024D140F2A0004DF20A752146C2F2000054
:101CF000C3F6A335026840F264202B46C2F200000E
:101D000004F0CAFB40F2F401D9F800202B46C2F2DD
:101D10000001086040F240203168C2F2000004F087
:101D2000BBFB40F21C11C2F20001086005B0BDE827
:101D3000F08F0000FEE70000022003F0A1BC0000CD
:101D400080B584B00820012100F0CCFB102001A94F
:101D500003904FF44060ADF804000320029040F679
:101D60000040C4F20100FFF777FB04B080BD000023
:101D70002DE9F04F83B040F60441029048F2A815D7
:101D80004FF0000BC4F20101C4F22125086820F4D1
:101D900070400860086840F4004008600020286037
:101DA000022003F06DFC01262E6055F87C0C01909A
:101DB000012003F065FC0220C5F800B003F060FCD0
:101DC0002E60012055F87C7C03F05AFC0220C5F8F7
:101DD00000B003F055FC2E60012055F87C4C03F058
:101DE0004FFC0220C5F800B003F04AFC2E60012031
:101DF00055F87C8C03F044FC0220C5F800B003F0D9
:101E00003FFC2E60012055F87C9C03F039FC022039
:101E1000C5F800B003F034FC2E60012055F87CAC0E
:101E200003F02EFC0220C5F800B003F029FC2E6060
:101E3000012055F87CBC03F023FC00202860022020
:101E400003F01EFC2E60012055F87C6C03F018FC9A
:101E500040F6044200212960C4F20102106820F417
:101E600070401060106840F44050106001980028E5
:101E700018BF0120002F18BF0127002C18BF012414
:101E800047EA4000B8F1000F18BF4FF0010844EADC
:101E90004000B9F1000F18BF4FF0010948EA4000B7
:101EA000BAF1000F18BF4FF0010A49EA4000BBF138
:101EB000000F18BF4FF0010B4AEA4000002E4BEA1A
:101EC000400018BF012646EA4004029848B10220AB
:101ED000696003F0D5FB01202860022003F0D0FBED
:101EE00008E0012602206E6003F0CAFB02202E608B
:101EF00003F0C6FB00202860E0B203B0BDE8F08F1D
:101F0000F0B581B0044640F6044048F2A81500261A
:101F1000C4F20100C4F22125016821F4704101607E
:101F2000016841F440510160E0092E6068600220C0
:101F300003F0A6FB012702202F6003F0A1FB022083
:101F40002E6003F09DFBC4F380106860022003F054
:101F500097FB02202F6003F093FB02202E6003F01A
:101F60008FFBC4F340106860022003F089FB02205D
:101F70002F6003F085FB02202E6003F081FBC4F389
:101F800000106860022003F07BFB02202F6003F04A
:101F900077FB02202E6003F073FBC4F3C00068607F
:101FA000022003F06DFB02202F6003F069FB02208A
:101FB0002E6003F065FBC4F380006860022003F02C
:101FC0005FFB02202F6003F05BFB02202E6003F01A
:101FD00057FBC4F340006860022003F051FB02206D
:101FE0002F6003F04DFB02202E6003F049FB04F04C
:101FF00001006860022003F043FB02202F6003F021
:102000003FFB2E60022001B0BDE8F04003F038BB7A
:10201000B0B540F6044048F2A814C4F20100C4F27E
:102020002124016821F470410160016841F44051AC
:102030000160012060602060042003F021FB002586
:102040000420656003F01CFB2560B0BD10B540F6B0
:10205000044048F2A814C4F20100C4F2212401682B
:1020600021F470410160016841F440510160002099
:1020700020606060042003F003FB012020606060AA
:102080000420BDE8104003F0FBBA000070B540F634
:10209000044448F22C150126C4F20104C4F221259F
:1020A000206820F470402060206840F400402060E8
:1020B0000120C5F8806003F0E3FA0120EE6703F029
:1020C000DFFA286888B10020296871B1296861B1F8
:1020D00040F00201C9B2F9290BD82A682AB1F929BE
:1020E00007D8296804300029EED100242046EC6787
:1020F00070BD206820F470402060206840F440509B
:1021000020600020E867C5F88000042003F0B8FADA
:1021100001240420EC67C5F8804003F0B1FA2046A2
:1021200070BD000041F21801C4F202010A6842F0D9
:1021300001020A600421C4F201010A6822F0E0628F
:102140000A600A6842EA406008607047B0B5FFF76D
:102150005FFFD220FFF7D4FEFFF798FF4120FFF783
:10216000CFFEFFF793FFFFF753FFD320FFF7C8FE23
:10217000FFF78CFF0020FFF7FBFD40F21534C2F2A1
:1021800000042070FFF762FF2578FFF741FFD2209F
:10219000FFF7B6FEFFF77AFF4220FFF7B1FEFFF729
:1021A00075FFFFF735FFD320FFF7AAFEFFF76EFF9D
:1021B0000020FFF7DDFD2070FFF748FF207840EAA0
:1021C0000524204608F030F900210546CCF2807144
:1021D00007F060FF0021B4F5004F98BF2846C4F215
:1021E000AA3107F0EFFF07F029FF47F2A40244F2FB
:1021F000D733C0F63D22C4F2420307F0AFF9002303
:102200000022C4F2240307F03FFC07F075F908F040
:10221000CFF8B0BD2DE9F04F83B0FFF791FD6B20F3
:10222000802101F04DFD64204FF0640A03F0FAF9BB
:102230006B20002101F044FD1B20182101F040FD1E
:102240001C20102101F03CFD1920012101F038FD76
:102250001A20012101F034FD3820002101F030FD69
:102260006A20002101F02CFD2320002101F028FD2F
:102270003720802101F024FDFFF7CAFED220FFF7AE
:102280003FFEFFF703FF7520FFF73AFEFFF7FEFE64
:10229000FFF7BEFED320FFF733FEFFF7F7FE002067
:1022A000FFF766FD40F21531C2F200010870FFF73A
:1022B000CDFE6B20032101F003FD6C20002101F015
:1022C000FFFC40F2B82B48F21F5940F2A4140DF164
:1022D0000608C2F2000BC5F2EB19C2F2000400BFFF
:1022E000692043210622434600F06CF988B9BDF805
:1022F000060000BA000CABF80000BDF8080000BAF8
:10230000000CABF80200BDF80A0000BA000CABF8F4
:10231000040069203B210622434600F053F938B1FE
:10232000BBF80A00BBF80810BBF8062012E000BF9B
:10233000BDF8060000BA020CBDF80800ABF8062094
:1023400000BA010CBDF80A00ABF8081000BA000C86
:10235000ABF80A00BBF90030BBF90270BBF90450BE
:1023600012B209B200B2BAF1010A83FB09364FEA90
:10237000561303EBD67326883344238087FB093733
:102380004FEA571303EBD77367883B44638085FBA1
:1023900009374FEA571303EBD773A7883B44A38051
:1023A00082FB09234FEA531202EBD372E3881A44EB
:1023B000E28081FB09124FEA521101EBD2712289AE
:1023C0001144218180FB09014FEA511000EBD170CB
:1023D0006189084460817FF483AF4DF20A7449F645
:1023E000A63541F26F2640F264200021C3F6A334E3
:1023F000C3F64435C3F68326C2F2000022462B46BC
:10240000009604F039F840F24020002122462B4685
:102410000096C2F2000004F02FF8002003B0BDE8DF
:10242000F08F0000FEE700007047000042684EF2A7
:102430000011CEF20001EAB110B54EF60C5207239E
:10244000CEF20002126890F801E0847890F800C0A3
:1024500023EA12220F23D340C2F1040223400EFAD2
:1024600002F21A4301EB0C03120183F80023BDE8CA
:10247000104000E080310078012300F01F02C0F31B
:10248000421003FA02F241F82020704740F08060C9
:102490004EF60C5140F0FD70CEF20001086070471E
:1024A00041F20401C4F202010A6822F440421043DE
:1024B0000860704741F21C020029C4F20202116850
:1024C0000CBF21EA000008431060704741F210027F
:1024D0000029C4F2020211680CBF21EA000008437F
:1024E0001060704741F218020029C4F2020211681C
:1024F0000CBF21EA000008431060704741F20C0253
:102500000029C4F2020211680CBF21EA000008434E
:102510001060704780B541F2040EC4F2020EDEF87E
:10252000002002F00C0341F20022C0F27A02082BD4
:102530001FD1DEF80030C3F3834303F1020CDEF851
:10254000003013F4803F06D140F60012C0F23D0285
:102550000CFB02F20DE0DEF8003013F4003F02D174
:102560000CFB02F205E040F60012C0F23D020CFB4B
:1025700002F202604AF68821DEF80030C0F600015F
:10258000C3F30313CB5CDA404260DEF80030C3F3E0
:102590000223CB5C22FA03F38360DEF80030C3F33E
:1025A000C223C95C4AF68423C0F6000322FA01F173
:1025B000C160DEF80020C2F381329A5CB1FBF2F117
:1025C000016180BD2DE9F04F81B040F6044A074615
:1025D00048F2A81901261C4615468846C4F2010A8D
:1025E000C4F22129DAF8000020F47040CAF8000093
:1025F000DAF8000040F44050CAF800000420C9F89E
:102600000460C9F8006003F03BF84FF0000B0420B1
:10261000C9F804B003F034F87F00C9F800B0F8B28C
:10262000FFF76EFCFFF732FDD0B1DAF8000020F4BE
:102630007040CAF80000DAF8000040F44050CAF8D0
:1026400000000420C9F800B0C9F804B003F018F87D
:102650000420C9F80060C9F8046003F011F851E0E3
:102660004046FFF74DFCFFF711FDDAF8000020F4BB
:102670007040CAF80000DAF8000040F44050CAF890
:1026800000000420C9F80460C9F8006002F0F8FFF7
:102690000420C9F804B002F0F3FF47F00100C9F8C4
:1026A00000B0C0B2FFF72CFCFFF7F0FC05E000BF64
:1026B000FFF75EFB04F8010B013DE8B2012803D0EF
:1026C00020B10120F4E700BF0020F1E7DAF80000B4
:1026D000002620F47040CAF80000DAF8000040F448
:1026E0004050CAF800000420C9F80060C9F804602E
:1026F00002F0C6FF0120C9F80000C9F80400042058
:1027000002F0BEFF304601B0BDE8F08F41F200019B
:1027100000221423C4F202010A61CA604B618A617B
:10272000CA610B6843F001030B600023D1F804C0B9
:10273000CFF6FF0303EA0C034B604FF6FF73D1F8AB
:1027400000C0CFF6F66303EA0C034EF6085C0B609C
:10275000CEF2000C0B6823F480230B604B6823F44B
:10276000FE034B604FF000638A60CCF800300B68CA
:1027700043F480330B6000BF0B68B3F5003F0BD20E
:102780000B68B2EB534F07D10B68B2EB534F03D139
:102790000B68B3F5003FEFD34FF4806202384A6014
:1027A000C0B24A6842EA80404860486840F48030DD
:1027B00048604FF480500A5842F032020A500868CC
:1027C00040F08070086000200A68B2F1007F0BD2F0
:1027D0000A68B0EB526F07D10A68B0EB526F03D1B1
:1027E0000A68B2F1007FEFD3486840F00200486009
:1027F000486800F00C0008280FD0486800F00C0072
:1028000008280AD0486800F00C00082808BF704764
:10281000486800F00C000828EAD170474EF2100119
:102820000428CEF200010A6822F0040308BF42F037
:1028300004030B607047000082B041F204000022E4
:10284000C4F20200CFF6FF0250F8041C41F001016F
:1028500040F8041C016811404FF6FF720160CFF68A
:10286000F66250F8041C114040F8041C50F8041C97
:1028700021F4802140F8041C016821F4FE0101606C
:102880004FF41F01416000210191009150F8041C98
:1028900041F4803140F8041C50F8041C01F400316C
:1028A0000091019901310191009919B90199B1F58E
:1028B000A06FF1D150F8041C11F4003F0CBF0021AF
:1028C000012100910099012958D1D0F8FC1F41F055
:1028D0001001C0F8FC1FD0F8FC1F21F00301C0F864
:1028E000FC1FD0F8FC1F41F00201C0F8FC1F01687A
:1028F000016001680160016841F480610160016864
:1029000021F47C110160016841F4E811016050F884
:10291000041C41F0807140F8041C00BF50F8041CF6
:1029200011F0007F0ED150F8041C11F0007F09D186
:1029300050F8041C11F0007F04D150F8041C11F071
:10294000007FEBD0016821F003010160016841F0D4
:1029500002010160016801F00C0108290ED0016834
:1029600001F00C01082909D0016801F00C010829C7
:1029700004D0016801F00C010829EBD14EF6085093
:102980004FF00061CEF20000016002B0704700001D
:102990002DE9F04F81B04FF08040012100F08EFB17
:1029A000002800F0B3814FF08040012100F036FA9A
:1029B0000220FEF741FF40F2942740F2E800C2F205
:1029C0000007C2F20000D7E9008BD7F80CA0C0F8CE
:1029D000008040F21010C2F20000C0F800B040F2D7
:1029E0003420C2F2000001680131016040F2CC00E5
:1029F000C2F20000006807F021FB49F69A1249F67E
:102A00009913C9F69912C3F6E17306F0A7FD41F2D6
:102A10007B4247F6E123C4F2AE72C3F6747307F04B
:102A200033F840F2A01904460D46C2F20009D9F865
:102A3000000007F003FB02460B462046294606F03D
:102A40008DFD06F059FD40F208050646C9F8000064
:102A5000C2F20005286801283ED140F2202040F251
:102A60002421ABF15A0BA8F15A08C2F20000C2F2BD
:102A70000001C0F800A03869086040F29020C2F25E
:102A80000000006800285DD100213046C4F2AA3160
:102A900007F085FB002808BFBAF1030F46D00021DC
:102AA0003046C4F2AA3107F07AFB002808BFBAF119
:102AB000020F40D000213046C4F2AA3107F06FFB6C
:102AC000002808BFBAF1010F00F0718140F2380010
:102AD000C2F20000016832E040F2B4113869ABF193
:102AE0005A0BA8F15A08C2F200010968084340F2E3
:102AF000242118BF0120C2F20001086040F2B0108A
:102B0000C2F2000000688245014600EB0A02B8BF2D
:102B10005146002840F22020D8BF1146BAF1000FDC
:102B2000C2F20000D8BF114601600BE04CF6CD4167
:102B3000C3F64C6103E04CF6CD41C3F6CC51584688
:102B400002F06EFC286840F29027C2F200070128CC
:102B500022D1386801281FD140F22020D9F8006026
:102B6000C2F200000468032C06D100213046C4F2F2
:102B70002F4107F014FB40B1022C38D10021304620
:102B8000C4F22F4107F00BFB88BB4CF6CD41C3F6D6
:102B90004C51584602F044FC2868012855D1386849
:102BA000022852D140F22020D9F80060C2F2000081
:102BB0000468032C0CD100213046C4F27A4107F09E
:102BC000EEFA28B94CF6CD415846C3F64C613AE0CE
:102BD000022C18D100213046C4F27A4107F0DFFA06
:102BE00088B94CF6CD41C3F6CC5158462BE0012CA8
:102BF00015D100213046C4F22F4107F0D0FA70B948
:102C000000200021C6E7012C0FD100213046C4F27C
:102C10007A4107F0C4FA40B90020002113E040F2E5
:102C20003800C2F200000168B3E700213046C4F268
:102C30002F4107F0B4FA40F238010028C2F2000137
:102C40000968D2D1404602F0EBFB2868012859D12F
:102C50003868002856D140F22020D9F80060C2F22E
:102C600000000468032C0CD100213046C4F2AA31C4
:102C700007F095FA28B94CF6CD415846C3F64C6199
:102C80003EE0022C0CD100213046C4F2AA3107F0FC
:102C900086FA28B94CF6CD41C3F6CC5158462FE000
:102CA000012C09D100213046C4F2AA3107F077FA8D
:102CB00010B90020002123E040F22420C2F20000DD
:102CC000006801280FD140F28C34C2F20004206861
:102CD000B0F57A7F07DC0020002102F0A1FB20681C
:102CE000013020600EE040F23800C2F200000168BE
:102CF00040F21820C2F2000000680128CED1404600
:102D000002F08EFB28683968084302D001B0BDE8A4
:102D1000F08F40F2380649F69A10D9F80050C2F206
:102D20000006C3F69960306040F22020C2F2000035
:102D30000468032C0BD100212846C4F2AA3107F005
:102D40002EFA20B94CF6CD41C3F64C6129E0022C95
:102D50000BD100212846C4F2AA3107F020FA20B98D
:102D60004CF6CD41C3F6CC511BE0012C09D100211A
:102D70002846C4F2AA3107F012FA10B90020002147
:102D800010E040F28820C2F20000006801F00EF965
:102D900040F2FC11C2F200010860316807F07AF9D4
:102DA0000146584601B0BDE8F04F02F039BB0020A3
:102DB0000021C5E640F21040C4F2000001880188FD
:102DC00021F001010180704740F61000C4F20000BC
:102DD0000188018821F001010180704710B540F69B
:102DE00000440121C4F20004204600F067F90028E5
:102DF00008BF10BD20460121BDE8104000F00EB80C
:102E00000288002942F0800308BF22F0800303807B
:102E100070470000C943018270470000C943018226
:102E2000704700000288002942F0010308BF22F029
:102E30000103038070470000B0F8442000291346C6
:102E40006FF3DF3318BF42F40043A0F844307047FB
:102E500080B541F6FF71C4F20001884228DD44F2DA
:102E6000FF31C4F2010188423FDD44F6FF31C4F274
:102E7000010188426EDD44F60041C4F2010188423E
:102E800000F0B58045F20001C4F20101884200F073
:102E9000B68045F20041C4F20101884218BF80BDEE
:102EA0004FF400100121FFF729FB4FF40010D7E089
:102EB00040F6FF71C4F20001884232DC40F2FF713B
:102EC000C4F2000188425ADCB0F1804F00F09F80CC
:102ED00040F20041C4F20001884240F0D08002205C
:102EE0000121FFF7F3FA0220C4E043F2FF31C4F2FC
:102EF0000101884255DC42F20001C4F2000188421F
:102F000000F08B8042F60041C4F20101884240F09B
:102F1000B6804FF400600121FFF7F0FA4FF4006033
:102F20009EE041F2FF71C4F2000188424DDC41F2A3
:102F30000001C4F20001884277D041F20041C4F29E
:102F40000001884240F09B8020200121FFF7BEFA5B
:102F500020208FE044F20041C4F2010188426AD08F
:102F600044F60001C4F20101884240F088804FF429
:102F700080200121FFF7C2FA4FF4802070E040F674
:102F80000001C4F2000188425DD040F60041C4F265
:102F90000001884273D108200121FFF797FA082029
:102FA00068E043F20041C4F20101884251D044F28A
:102FB0000001C4F20101884261D14FF48030012147
:102FC000FFF79CFA4FF480304AE041F60001C4F26A
:102FD0000001884249D041F60041C4F20001884214
:102FE0004DD180200121FFF771FA802042E04FF49B
:102FF00000200121FFF782FA4FF4002030E04FF467
:1030000080100121FFF77AFA4FF4801028E00120A8
:103010000121FFF75BFA01202CE04FF480700121C1
:10302000FFF754FA4FF4807024E010200121FFF7DD
:103030004DFA10201EE04FF400300121FFF75EFA38
:103040004FF400300CE004200121FFF73FFA042088
:1030500010E04FF400500121FFF750FA4FF40050F8
:103060000021BDE88040FFF749BA40200121FFF769
:103070002DFA40200021BDE88040FFF727BA80BD2F
:1030800080B5B0F808C02CF0070C41EA0C01B0F88C
:1030900018C0B0F820E001814FF6FC410CEA010CA9
:1030A00040F2011141EA0C01018342EA03112EF0C2
:1030B00022021143018480BD808C7047028A0A403D
:1030C00018BF01228089084018BF012010407047B6
:1030D00070B50B88042B2AD0002B56D1B1F802C052
:1030E0000A898B88068C40F6FF354FF6FC74C4F2D3
:1030F000000526F0010643EA02130246A8420684B0
:1031000032F8186FB0F820E026F0F30643EA060321
:103110006DDCB0F1804F7DD040F20045C4F2000577
:10312000A84277D040F60005C4F200056FE00E8992
:103130004B888A88058C40F6FF44360325F010053D
:1031400046EA02260584024632F8185FB0F820E00D
:10315000254046EA050C40F6FF356FF00306C4F241
:103160000005A6F1AD04A84262DCB0F1804F71D039
:1031700040F20045C4F20005A8426BD040F60005BD
:10318000C4F20005A84265D068E00A898C884E88A0
:10319000058C082B71D125F48073038444EA021353
:1031A000024632F81C5FB0F820E025F0F30543EA50
:1031B000050C6FF4405303F5145440F6FF33C4F28A
:1031C0000003984200F38180B0F1804F00F08F80BF
:1031D00040F20043C4F20003984200F0888040F6B9
:1031E0000003C4F20003984200F0818084E040F6BE
:1031F0000045C4F20005A8420CD042F60045C4F2D6
:103200000105A84206D043F20045C4F20105A842D8
:1032100018BF083C03830EEA040343EA0C0343F09F
:1032200001030384C988038B23F00C03038394E018
:1032300040F60045C4F20005A8420BD043F2004519
:10324000C4F20105A84205D042F60045C4F20105CA
:10325000A84203D14FF6FC741B012D3C0EEA040674
:10326000A0F818C0334343F010030384C988038BCC
:1032700023F44063090203836FE025F480531203B3
:10328000038442EA0423024640F6FF4432F81C5FFE
:10329000B0F820C0254046F6FF5443EA050E40F63C
:1032A000FF33C4F20003984234DCB0F1804F43D0C6
:1032B00040F20043C4F2000398423DD040F60003C0
:1032C000C4F20003984237D039E040F60043C4F21C
:1032D000000398420BD043F20043C4F2010398422A
:1032E00005D042F60043C4F20103984204D14CF6E3
:1032F000FF73360203F534540EEA0403A0F81CC031
:10330000334343F480730384C988838B23F00C0315
:10331000838322E040F60043C4F2000398420BD0BE
:1033200043F20043C4F20103984205D042F6004341
:10333000C4F20103984202D136034CF6FF740CEA42
:103340000403A0F81CE0334343F480530384C9888A
:10335000838B23F440630902838310880843108021
:1033600070BD0000002101220160426001817047B0
:10337000002A82890CBF22EA010111438181704732
:1033800010B5028C22F001020284048CB0F804E033
:10339000038B0A8823F0730343EA020C0B8924F0A1
:1033A00002021A434B881A43A0F18043A3F59633D7
:1033B0004FEAB323072B14D8012404FA03F313F0C4
:1033C000E50F0ED08C892EF4407322F00C022343BB
:1033D000CC8943EA040E4B8923F004031A438B88FB
:1033E0001A43A0F804E0A0F818C0C98881860284B6
:1033F00010BD0000028B22F00802114301837047C8
:1034000010B5028C22F010020284048CB0F804E0A3
:10341000038B0A8823F4E64343EA022C0B8924F049
:10342000200242EA03124B8842EA031243F20043AD
:10343000C4F20103984205D042F60043C4F20103EE
:10344000984212D18B892EF4406422F0C00244EAE3
:103450008303CC8943EA840E4B896FF04F0404EA5E
:1034600003131A438B8842EA0312A0F804E0A0F881
:1034700018C0C9880187028410BD0000028B22F4A5
:10348000006242EA012101837047000010B5028CFE
:1034900022F480720284048CB0F804E0838B0A88E2
:1034A00023F0730343EA020C0B8924F4007242EA0E
:1034B00003224B8842EA032243F20043C4F2010391
:1034C000984205D042F60043C4F20103984212D15B
:1034D0008B892EF4405422F4406244EA0313CC89D1
:1034E00043EA041E4B8940F2FF441B02A3431A43E4
:1034F0008B8842EA0322A0F804E0A0F81CC0C98827
:103500008187028410BD0000828B22F008021143E3
:103510008183704710B5028C22F480520284048C9F
:10352000B0F804E0828B0B8822F4E64242EA032CD6
:103530000B8924F4005242EA03324B8842EA0333F7
:1035400043F20042C4F20102904205D042F600422A
:10355000C4F20102904204D18A892EF4804444EAE4
:10356000821EA0F804E0A0F81CC0C988A0F8401092
:10357000038410BD828B22F4006242EA0121818320
:10358000704700008184704740F6FF33B0F800C0F8
:10359000C4F2000398420FDCB0F1804F1ED040F21D
:1035A0000043C4F20003984218D040F60003C4F26E
:1035B0000003984212D016E040F60043C4F2000324
:1035C00098420BD043F20043C4F20103984205D065
:1035D00042F60043C4F20103984204D14B882CF018
:1035E000700243EA020C41F2004240F48063C4F2EC
:1035F0000002934204D0CB882CF4407243EA020CC0
:10360000A0F800C08A8882850A880285A0F18042DD
:10361000A2F596324FEAB222072A07D8012303FA0D
:1036200002F212F0E50F1CBF097A018601218182A6
:10363000704700004FF6FF71416000210160017288
:103640007047000070B543F6000440F22551C4F203
:103650000104204600F09EFA002800F07F802046FA
:1036600000F028FB044640F28430C2F20000A4F1CE
:10367000580304602046252B1ED859210222DFE87A
:1036800003F013151B1B1B1B1B1B1B1B1B1B1B1BDB
:103690001B1B1B1B1B1B1B1B1B1B1B1B1B1B1B1B7A
:1036A0001B1B1B1B1B451B6E5821012240F20000F7
:1036B000C2F200000270084640F23C21C2F2000152
:1036C0000978B1B13A2870D0232840F0908040F2B8
:1036D000883100200122C2F20001087040F29C11E2
:1036E000C2F200010A7040F2C421C2F20001087067
:1036F000D3E040F23820C2F200000268511C0160A1
:1037000040F2C520C2F200008454D5E040F2EC1033
:1037100000210122C2F20000016040F23C20C2F20E
:103720000000027040F28830C2F20000027040F2E5
:103730009C10C2F20000017040F2C420C2F20000EE
:10374000027040F23820C2F2000001684A1C026098
:1037500040F2C520C2F200004454EAE070BD40F2DD
:103760003C2040F288360025C2F20000C2F200067A
:103770000570307800284ED040F2C010C2F2000030
:10378000016840F2B810C2F200004554FCF7C8FED0
:1037900040F2EC1140F2C8123570C2F20001C2F2E0
:1037A0000002096842F8210042E040F2C01540F2F0
:1037B000B8100022C2F20005C2F20000296842548B
:1037C000FCF7AEFE40F2C42240F28831C2F20002A1
:1037D000C2F2000116780B78A6B3002B41D000216D
:1037E000117040F2EC11C2F2000108604CE0A0F14F
:1037F0003001092924D840F2C012C2F20002116837
:10380000052944DC4B1C136040F2B812C2F20002DE
:103810005054002041E040F29C10C2F200000078B9
:1038200030B140F2EC10C2F20000016801310160D9
:1038300040F2C0100021C2F20000016001202CE023
:1038400000202AE06BB140F2EC1240F2C813C2F241
:103850000002C2F20003126843F822000020087040
:1038600012E040F29C11C2F20001097861B140F20D
:10387000EC11C2F200010A68531C0B6040F2C8113F
:10388000C2F2000141F822000020286005E040F269
:10389000B8110020C2F20001887140F238220028DD
:1038A000C2F20002136803F10101116040F2C52267
:1038B000C2F20002D4540AD040F2C5200022C2F263
:1038C0000000425440F23820C2F2000002600B2C8B
:1038D00038BF70BDA4F1410028282AD8DFE810F0D5
:1038E00086005D005D005D0093007400740074004C
:1038F0002900290029002900290029002900290080
:10390000290029002900290029002900290029006F
:1039100029009D00290029002900290029002900EB
:10392000B300BB00C200C700CC00D100D800DF004C
:10393000E40040F2C0000021C2F20000017040F239
:10394000C200C2F20000017040F2C100C2F20000E9
:10395000017040F2C300C2F20000017040F2783002
:10396000C2F20000016040F27C30C2F2000001604F
:1039700040F26830C2F20000016040F26C30C2F2E6
:103980000000016040F27030C2F20000016040F2BD
:103990007430C2F200000160E0E640F2C000002195
:1039A000C2F20000017040F2C200C2F200000170D9
:1039B00040F2C100C2F20000017040F2C3000121D8
:1039C000C2F20000017070BD40F2C000002101226F
:1039D000C2F20000017040F2C200C2F200000170A9
:1039E00040F2C100C2F20000027026E040F2C000C6
:1039F00000210122C2F20000017040F2C200C2F2B6
:103A00000000027014E040F2C0000121C2F2000088
:103A1000017040F2C200002107E040F2C000002126
:103A2000C2F20000017040F2C200C2F20000017058
:103A300040F2C100C2F20000017040F2C300C2F2C5
:103A40000000017070BD40F2C8102821C2F20000D1
:103A5000FCF7B6FD70BD40F290200021C2F20000DC
:103A6000016070BD40F29020C2F2000020E040F200
:103A70009020C2F200000FE040F29020C2F200005D
:103A800003E040F2B010C2F200000321016070BDFB
:103A900040F2B010C2F200000221016070BD40F29D
:103AA000B010C2F2000003E040F2B410C2F2000015
:103AB0000121016070BD000010B544F6000440F221
:103AC0002551C4F20004204600F064F8D8B3204623
:103AD00000F0F0F840F2803140F2243E5B28C2F260
:103AE0000001C2F2000E086040F22831DEF800301A
:103AF000C2F200010C6801BF53EA04020120086011
:103B000010BD5B2808BF012C1ED040F2142C012BE5
:103B1000C2F2000CDCF8004008BF5D281BD0012B6E
:103B200008BF5D281ED0012B18BF10BD40F2A82190
:103B300040F29423C2F20001C2F200030A6843F883
:103B40002200501C086010BD002B02BF0120CEF8DF
:103B5000000010BDD9E7002C02BF0120CCF8000006
:103B600010BDDCE7012CDED10020086040F2A82166
:103B7000CCF80000CEF80000C2F20001086010BDD1
:103B80008289002942F4005308BF22F40053838144
:103B90007047000001F01F02012303FA02F2C1F393
:103BA0004213022B06D0012B14BF00F1140300F1C5
:103BB0000C0301E000F110031B88090A1A404FF0C2
:103BC000010318BF0122008803FA01F1084018BF61
:103BD000012010407047000001F01F0C012303FA80
:103BE0000CFCC1F342131421022B08BF1021012B3E
:103BF00008BF0C21002A42580CBF22EA0C0242EAFC
:103C00000C0242507047000070B586B00446008A2E
:103C10000D46C98801AE20F4405008434EF6F3111A
:103C20002082A0890840A988084329890843698916
:103C30000843A081A08AA98920F440700843A0828B
:103C40003046FEF767FC43F6000106F10800022249
:103C5000C4F201018C424FF0190108BF06F10C00BB
:103C6000042600684843A189A2EBD1312A6802FAF0
:103C700001F1B0FBF1F048F21F51C5F2EB11A0FBCE
:103C800001235A096FF0630302FB0300A389A6EB2B
:103C9000D336B0403230A0FB0101072040EA133098
:103CA00080F0080000EA511040EA0210208106B0BE
:103CB00070BD000080886FF35F207047FEE7000052
:103CC000B0B50C460546FEF7A3F9FEF735F8D2204D
:103CD000FEF716F9FEF7DAF918B1FEF7B7F9012089
:103CE000B0BD2846FEF70CF9FEF7D0F92046FEF7E6
:103CF00007F9FEF7CBF90446002818BF0124FEF7A8
:103D0000A5F92046B0BD00002DE9F04F81B040F686
:103D1000044A074648F2A81901241D46164688465B
:103D2000C4F2010AC4F22129DAF8000020F470403C
:103D3000CAF80000DAF8000040F44050CAF8000069
:103D40000420C9F80440C9F8004001F099FC4FF084
:103D5000000B0420C9F804B001F092FC7800C9F807
:103D600000B0C0B2FEF7CCF8FEF790F9D0B1DAF8A7
:103D7000000020F47040CAF80000DAF8000040F4B7
:103D80004050CAF800000420C9F800B0C9F804B0D7
:103D900001F076FC0420C9F80040C9F8044001F0A5
:103DA0006FFC49E04046FEF7ABF8FEF76FF956B1FD
:103DB000002400BF285DFEF7A3F8FEF767F9F8B905
:103DC0000134B442F6D3DAF80000002420F4704045
:103DD000CAF80000DAF8000040F44050CAF80000C9
:103DE0000420C9F80040C9F8044001F049FC012052
:103DF000C9F80000C9F80400042001F041FC1BE0F0
:103E0000DAF8000020F47040CAF80000DAF8000088
:103E100040F44050CAF800000020C9F80000C9F87A
:103E20000400042001F02CFC01240420C9F8004007
:103E3000C9F8044001F024FC204601B0BDE8F08F31
:103E40002DE9F04F81B0044640F23010C2F200007C
:103E50000168046040F22C10C2F20000006800917A
:103E6000214606F017F9074640F21830C2F200006A
:103E70003946D0E900A6D0F80890304606F068FB35
:103E80004CF2000B0546C4F2DA5B594606F072F9B3
:103E900080465846314606F095F940F22C11B8F1AB
:103EA000000F08BF3846C2F20001086050462146A4
:103EB00006F04EFB294606F0EDF80099054620462F
:103EC00006F012FC0146484606F042FB0146284631
:103ED00006F0E0F806F06CFA01B0BDE8F08F0000E3
:103EE0002DE9F0478CB0082001214FF00108FEF7C2
:103EF000F9FA08200121FEF7DDFA40F600444FF000
:103F0000030909AE4FF400704FF0100AC4F2000428
:103F1000CDF82890ADF824003146CDF82CA004F55A
:103F200080352846FDF798FA28464FF40071FDF7D2
:103F300041FC4FF4807704203146ADF824700B909B
:103F40002846FDF789FA01200821FDF76BFA0020C9
:103F5000CDE9027002A8CDE904A8FDF733FA1720D5
:103F60008DF80290ADF800006846CDF80480FEF7A9
:103F70005DFA2046FEF76CFF4FF6FF7006A907902A
:103F8000472006902046FFF7FFFA20460121FEF762
:103F900041FF204601210122FFF7EAF920460021D6
:103FA000FEF740FF0CB0BDE8F08700002DE9F041BE
:103FB00000210446C4F2202106F0F1F8002605464F
:103FC0002146C4F2A016304606F08EFB0446002DB2
:103FD00008BF3446204606F05DF8054640F2F01072
:103FE000C2F2000090E84201204606F0B1FA07460E
:103FF0002846314606F0ACFA0146384606F04AF843
:104000000546204606F070FB414606F0A1FA01463F
:10401000284606F03FF806F0CBF906F005FABDE8B1
:10402000F081000010B50446000A00F0ADF8E0B2DF
:10403000BDE8104000F0A8B82DE9F04F87B0119E00
:10404000074690461C460D46069100EB5600013887
:1040500082B28819013883B2384600F0D9FB0721B3
:104060000122300911EA560F18BF02EB16107043F7
:104070000028049000F08480A6F10C0075083E46EC
:104080004FF0000BC0F385015FFA85F941EA80111A
:10409000A8F12000CBB24AF60C71C2B20020C0F6E3
:1040A00000010292039301EB021101914CF2DC61D9
:1040B000C0F6000101EB821100220091052B5FD8B0
:1040C0000592DFE803F0030D5D0F5D1902994AF6D2
:1040D0009822C0F6000201EB410102EB81010CE0E5
:1040E00001990AE002994BF20C52C0F6000201EB72
:1040F000410102EB011100E0009908444FF0000873
:1041000090F800A00120129900FA08F000EA0A00D5
:1041100081B148B10699B0B2024689B20B4600F0AF
:1041200077FB2046FFF77EFF0136B0B2C01BA842E6
:104130000FD115E000280CBF10982046FFF772FF42
:104140000BF1010B5FFA8BF0B0FBF9F101FB1900E9
:1041500058B108F10108B8F1080FD3D308E000BF47
:1041600006983E460130069002E04FF0000B00BF7B
:10417000059A0499039B013290B281423FF69EAFAB
:1041800007B0BDE8F08F0000B0B541F60004054669
:104190000221C4F201042046FDF70CFB2046082151
:1041A000FDF708FB68B2B0F1FF3F04DD2046202197
:1041B000FDF700FB03E020462021FDF7FDFA204635
:1041C0000821FDF7F9FA20460821FDF7F3FA680601
:1041D00004D420462021FDF7EDFA03E020462021FB
:1041E000FDF7EAFA20460821FDF7E6FA2046082105
:1041F000FDF7E0FAA80604D420462021FDF7DAFAFC
:1042000003E020462021FDF7D7FA20460821FDF7DC
:10421000D3FA20460821FDF7CDFAE80604D420465B
:104220002021FDF7C7FA03E020462021FDF7C4FA5C
:1042300020460821FDF7C0FA20460821FDF7BAFA0A
:10424000280704D420462021FDF7B4FA03E02046D5
:104250002021FDF7B1FA20460821FDF7ADFA2046EE
:104260000821FDF7A7FA680704D420462021FDF7AE
:10427000A1FA03E020462021FDF79EFA20460821FE
:10428000FDF79AFA20460821FDF794FAA80704D40E
:1042900020462021FDF78EFA03E020462021FDF77D
:1042A0008BFA20460821FDF787FA20460821FDF702
:1042B00081FAE80704D120462021FDF77BFA03E0CC
:1042C00020462021FDF778FA20460821FDF774FAF0
:1042D00020460221BDE8B040FDF76EBA242200213D
:1042E0000228C4F200020AD0042806D003284FF0A6
:1042F000000006D102F5806201E002F5006210883C
:10430000118000B270470000B0B58AB011200121C1
:104310000124FEF7E7F8012001F0B2F94820ADF8DA
:104320001C4007A909900320089041F20000C4F244
:104330000100FDF791F8022000210025FDF772F839
:104340000C20CDE90345CDE9050403A8FDF73AF8B3
:1043500004208DF8060040F20620ADF8040001A804
:104360000294FEF763F80AB0B0BD000010B500F08B
:10437000BBF941F600041021C4F201042046FDF708
:1043800019FA642001F04EF920461021FDF714FAC5
:10439000642001F047F920464021FDF70DFA642022
:1043A00001F040F920460421FDF704FA1120FFF73F
:1043B000EBFE20460421FDF7FFF9782001F032F9E9
:1043C00020460421FDF7F6F93620FFF7DDFE2046F2
:1043D0000421FDF7F1F90020FFF7D6FE2046042165
:1043E000FDF7E8F93A20FFF7CFFE20460421FDF75C
:1043F000E3F90520FFF7C8FE20460421FDF7DAF9AE
:10440000B220FFF7C1FE20460421FDF7D5F90C20AC
:10441000FFF7BAFE0C20FFF7B7FE0020FFF7B4FE4F
:104420003320FFF7B1FE3320FFF7AEFE2046042114
:10443000FDF7C0F9B720FFF7A7FE20460421FDF7DE
:10444000BBF93520FFF7A0FE20460421FDF7B2F9A5
:10445000BB20FFF799FE20460421FDF7ADF932207D
:10446000FFF792FE20460421FDF7A4F9C220FFF7D2
:104470008BFE20460421FDF79FF90120FFF784FE03
:1044800020460421FDF796F9C320FFF77DFE204664
:104490000421FDF791F91520FFF776FE204604214F
:1044A000FDF788F9C420FFF76FFE20460421FDF7D1
:1044B00083F92020FFF768FE20460421FDF77AF9F2
:1044C000C620FFF761FE20460421FDF775F90F2095
:1044D000FFF75AFE20460421FDF76CF9D020FFF7C4
:1044E00053FE20460421FDF767F9A420FFF74CFE98
:1044F000A120FFF749FE20460421FDF75BF9E020EB
:10450000FFF742FE20460421FDF756F9D020FFF7C1
:104510003BFE0820FFF738FE0E20FFF735FE09208E
:10452000FFF732FE0920FFF72FFE0520FFF72CFED4
:104530003120FFF729FE3320FFF726FE4820FFF742
:1045400023FE1720FFF720FE1420FFF71DFE152085
:10455000FFF71AFE3120FFF717FE3420FFF714FE95
:1045600020460421FDF726F9E120FFF70DFE204645
:104570000421FDF721F9D020FFF706FE0820FFF700
:1045800003FE0E20FFF700FE0920FFF7FDFD0920C6
:10459000FFF7FAFD1520FFF7F7FD3120FFF7F4FDD7
:1045A0003320FFF7F1FD4820FFF7EEFD1720FFF75E
:1045B000EBFD1420FFF7E8FD1520FFF7E5FD3120A6
:1045C000FFF7E2FD3420FFF7DFFD20460421FDF771
:1045D000F1F82120FFF7D8FD20460421FDF7ECF883
:1045E00020460421FDF7E6F82920FFF7CDFD2046FF
:1045F0000421BDE81040FDF7DFB80000F0B58BB036
:1046000041F218000124C4F20200016841F04501A2
:104610000160012001F034F808200121FDF74AFF74
:1046200045200121FDF75EFF40200121FDF75AFFE3
:10463000102008AE03270A90ADF8204040F6004451
:1046400031460997C4F2000404F586352846FCF784
:1046500003FF28460121FDF7AFF804200121FDF7F3
:1046600041FF182031460A900F20ADF8200004F5D4
:104670007C400997FCF7F0FE4FF47A7005A906908C
:10468000472005902046FEF77FFF002001ADADF8E2
:104690000C0060202946C0F2010001902046FEF780
:1046A0006FFE20460821FEF7A5FE20462946FEF7AC
:1046B000A7FE20460821FEF7E1FE20462946FEF728
:1046C000E5FE20460821FEF71FFF20462946FEF79B
:1046D00021FF20460821FEF74DFF20460121FEF76D
:1046E000A1FB0BB0F0BD000070B584B040200121EB
:1046F000FDF7F8FE41F600041026022001AD0396F6
:10470000ADF804000320C4F20104294602902046BB
:10471000FCF7A2FE20460221FDF74EF8282029468C
:10472000ADF804002046FCF797FE20462821FDF74F
:1047300043F844202946ADF804002046FCF78CFEDF
:10474000204648F22001FDF737F820462946ADF80B
:104750000460FCF781FE20461021FDF72DF804B01F
:1047600070BD0000704700002DE9F04F83B00D468A
:1047700011789B460646B1B1DDE90C9ADDF8388028
:10478000571C4FEA5A0400BFCAB2B0B229465B4672
:10479000CDE9009ACDF80880FFF74EFC17F8011B11
:1047A00026440029F0D103B0BDE8F08F7047000027
:1047B000B0B584B070200121FDF794FE102041F6C1
:1047C000000401AD03904FF44160C4F20104294696
:1047D000ADF8040003200290A4F58060FCF73CFED5
:1047E0004FF480502946ADF80400A4F50060FCF7B2
:1047F00033FE4FF480602946ADF804002046FCF7F4
:104800002BFE20464FF48061FCF7D6FF04B0B0BD0C
:104810002DE9F04141F600040E4605460421984674
:104820001746C4F201042046FCF7C4FF2A20FFF714
:10483000ABFC20460421FCF7BFFF280AFFF7A4FCCD
:10484000E8B2FFF7A1FC380AFFF79EFCF8B2FFF7C9
:104850009BFC20460421FCF7ADFF2B20FFF794FCC6
:1048600020460421FCF7A8FF300AFFF78DFCF0B2C8
:10487000FFF78AFC4FEA1820FFF786FC5FFA88F002
:10488000FFF782FC20460421FCF794FF2C20FFF761
:104890007BFC20460421BDE8F041FCF78DBF000001
:1048A000F0B58BB041F21800C4F20200016841F487
:1048B00000610160012000F0E3FE42F63C46012069
:1048C0000027C4F201063780B78000F0D9FEC0206F
:1048D0000121C0F21600FCF72FFF4FF40060012108
:1048E000FDF700FE41200121FDF7FCFD032042F60B
:1048F000004408A909901820C4F201040A904FF45A
:10490000C040ADF82000A4F5A050FCF7A5FD41F68D
:104910001F4005A9CDE905702046FEF735FE602051
:1049200001ADC0F20100294601902046CDF80A7081
:10493000FEF7ACFD20460821FEF7E6FD204629469D
:10494000FEF7E8FD20460821FEF714FE204601216F
:10495000FEF772FA20460121FEF752FA20460121A5
:10496000FEF760FA3780B7800BB0F0BD10B540F6A7
:1049700000444FF40071C4F201042046FCF71CFF10
:10498000142000F07DFE20464FF40071FCF712FF6A
:10499000002010BDB0B58AB002200121FDF78AFDCC
:1049A00010200121FDF79EFD40F600400121C0F2DC
:1049B0001A00FCF7C1FE40F20044042001A9039054
:1049C000C020C4F20004ADF8040004F58630FCF702
:1049D00043FD07AD2846FEF72DFE4FF6FF70294632
:1049E0000890002007902046FEF7CEFD20460321C8
:1049F00000220023FEF744FB04AD2846FEF7B2FC7C
:104A00000A202946ADF818002046FEF761FB204633
:104A10000121FEF7FFF9204601210122FEF7A8FC43
:104A200020460021FEF7AEFD20460121FEF7FAF9EF
:104A30000AB0B0BDB0B58AB0042001210424FDF74E
:104A400039FD20200121FDF74DFD4FF4805001215B
:104A5000FCF772FE039440F600044FF4405001A9A5
:104A6000C4F20004ADF8040004F58630FCF7F4FC51
:104A700007AD2846FEF7DEFD4FF6FF702946089089
:104A8000002007902046FEF77FFD204603210022EC
:104A90000023FEF7F5FA04AD2846FEF763FC0A2072
:104AA0002946ADF818002046FEF712FB20460121EA
:104AB000FEF7B0F9204601210122FEF759FC2046FD
:104AC0000021FEF75FFD20460121FEF7ABF90AB099
:104AD000B0BD000048F2A81141F65832C4F22221BC
:104AE00090420EDC4EF2A842CFF6FF72904205DAF9
:104AF0000120524248600020086006E001280ADBDD
:104B00000246002048600120086042F63C40C4F2A2
:104B100001000280704700280246E9D100224A6065
:104B20000A60F2E740F2B01148F2901241F65833B1
:104B3000C4F22221C4F2222298420EDC4EF2A84393
:104B4000CFF6FF73984205DA01205B421060002027
:104B5000086006E001280ADB0346002010600120FF
:104B6000086042F64040C4F201000380704700280C
:104B70000346E9D1002313600B60F2E72DE9F0470B
:104B800098B000200021EF22EF230024FFF740FE21
:104B9000002500BF4FF6FF70FFF744FA0135A8B2B9
:104BA000F028F7D30134A0B2F028F1D342F220006C
:104BB00043F672214AF60C7900254D240DF12008A8
:104BC0000A9042F23A00C2F22001C0F60009C2F295
:104BD0002000069146F26511099046F64D70C6F226
:104BE0006451C6F26450059147F24931089042F28F
:104BF0002000C4F65F41C0F220000790CDE9030118
:104C000043F66420C2F22000029047F25300C6F23D
:104C10006550019045F00701A8B20F2300278AB222
:104C20000021FFF7F5FDA4F12000C0B209EB00144C
:104C3000E65D16F0010F0CBF4FF6FF704FF47840A1
:104C4000FFF7F0F9B00754BF4FF6FF704FF478400C
:104C5000FFF7E8F9700754BF4FF6FF704FF4784044
:104C6000FFF7E0F9300754BF4FF6FF704FF478407C
:104C7000FFF7D8F9F00654BF4FF6FF704FF47840B5
:104C8000FFF7D0F9B00654BF4FF6FF704FF47840ED
:104C9000FFF7C8F9700654BF4FF6FF704FF4784025
:104CA000FFF7C0F9300654BF4FF6FF704FF478405D
:104CB000FFF7B8F90137102FBAD118F8014F0835AE
:104CC000002CA7D1002549240DF1100845F007015B
:104CD000A8B21F238AB21021FFF79AFDA4F1200089
:104CE0000024C0B209EB00173E5D16F0010F0CBFA7
:104CF0004FF6FF704FF47840FFF794F9B00754BFB8
:104D00004FF6FF704FF47840FFF78CF9700754BFEF
:104D10004FF6FF704FF47840FFF784F9300754BF27
:104D20004FF6FF704FF47840FFF77CF9F00654BF60
:104D30004FF6FF704FF47840FFF774F9B00654BF98
:104D40004FF6FF704FF47840FFF76CF9700654BFD0
:104D50004FF6FF704FF47840FFF764F9300654BF08
:104D60004FF6FF704FF47840FFF75CF90134102CD8
:104D7000BAD118F8014F0835002CA7D100255324CB
:104D80000DF1040845F00701A8B22F238AB22021B3
:104D9000FFF73EFDA4F120000024C0B209EB00178C
:104DA0003E5D16F0010F0CBF4FF6FF704FF47840D8
:104DB000FFF738F9B00754BF4FF6FF704FF4784053
:104DC000FFF730F9700754BF4FF6FF704FF478408B
:104DD000FFF728F9300754BF4FF6FF704FF47840C3
:104DE000FFF720F9F00654BF4FF6FF704FF47840FC
:104DF000FFF718F9B00654BF4FF6FF704FF4784034
:104E0000FFF710F9700654BF4FF6FF704FF478406B
:104E1000FFF708F9300654BF4FF6FF704FF47840A3
:104E2000FFF700F90134102CBAD118F8014F0835FA
:104E3000002CA7D10120FFF795FC3A2000256C2417
:104E40000DF12C08ADF8300046F26C50C7F2664008
:104E50000B9000BF45F00701A8B23F238AB2302172
:104E6000FFF7D6FCA4F120000024C0B209EB001724
:104E70003E5D16F0010F0CBF4FF6FF704FF4784007
:104E8000FFF7D0F8B00754BF4FF6FF704FF47840EB
:104E9000FFF7C8F8700754BF4FF6FF704FF4784023
:104EA000FFF7C0F8300754BF4FF6FF704FF478405B
:104EB000FFF7B8F8F00654BF4FF6FF704FF4784094
:104EC000FFF7B0F8B00654BF4FF6FF704FF47840CC
:104ED000FFF7A8F8700654BF4FF6FF704FF4784004
:104EE000FFF7A0F8300654BF4FF6FF704FF478403C
:104EF000FFF798F80134102CBAD118F8014F083593
:104F0000002CA7D143F67420002572240DF12C0843
:104F1000ADF8300046F672108DF83250C6F66700D4
:104F20000B9000BF45F00701A8B24F238AB2402181
:104F3000FFF76EFCA4F120000024C0B209EB0017BB
:104F40003E5D16F0010F0CBF4FF6FF704FF4784036
:104F5000FFF768F8B00754BF4FF6FF704FF4784082
:104F6000FFF760F8700754BF4FF6FF704FF47840BA
:104F7000FFF758F8300754BF4FF6FF704FF47840F2
:104F8000FFF750F8F00654BF4FF6FF704FF478402B
:104F9000FFF748F8B00654BF4FF6FF704FF4784063
:104FA000FFF740F8700654BF4FF6FF704FF478409B
:104FB000FFF738F8300654BF4FF6FF704FF47840D3
:104FC000FFF730F80134102CBAD118F8014F08352A
:104FD000002CA7D146F6674845F64C7000264C24B5
:104FE0000DF12C0AC3F66528C6F661608DF83460B1
:104FF000CDF830800B9000BF46F00701B0B25F23C0
:105000008AB25021FFF704FCA4F120000024C0B2B2
:1050100009EB00152F5D17F0010F0CBF4FF6FF7065
:105020004FF47840FEF7FEFFB80754BF4FF6FF700D
:105030004FF47840FEF7F6FF780754BF4FF6FF7045
:105040004FF47840FEF7EEFF380754BF4FF6FF707D
:105050004FF47840FEF7E6FFF80654BF4FF6FF70B6
:105060004FF47840FEF7DEFFB80654BF4FF6FF70EE
:105070004FF47840FEF7D6FF780654BF4FF6FF7026
:105080004FF47840FEF7CEFF380654BF4FF6FF705E
:105090004FF47840FEF7C6FF0134102CBAD11AF84D
:1050A000014F0836002CA7D145F652700026CDF8E6
:1050B000308052240DF12C08C6F661608DF8346002
:1050C0000B9000BF46F00701B0B26F238AB2602197
:1050D000FFF79EFBA4F120000024C0B209EB0017EB
:1050E0003D5D15F0010F0CBF4FF6FF704FF4784097
:1050F000FEF798FFA80754BF4FF6FF704FF47840B3
:10510000FEF790FF680754BF4FF6FF704FF47840EA
:10511000FEF788FF280754BF4FF6FF704FF4784022
:10512000FEF780FFE80654BF4FF6FF704FF478405B
:10513000FEF778FFA80654BF4FF6FF704FF4784093
:10514000FEF770FF680654BF4FF6FF704FF47840CB
:10515000FEF768FF280654BF4FF6FF704FF4784003
:10516000FEF760FF0134102CBAD118F8014F083651
:10517000002CA7D143F64D2000254C240DF12C081E
:10518000ADF8300045F64C708DF83250C5F25070D5
:105190000B9000BF45F00701A8B27F238AB27021AF
:1051A000FFF736FBA4F120000024C0B209EB001782
:1051B0003E5D16F0010F0CBF4FF6FF704FF47840C4
:1051C000FEF730FFB00754BF4FF6FF704FF4784042
:1051D000FEF728FF700754BF4FF6FF704FF478407A
:1051E000FEF720FF300754BF4FF6FF704FF47840B2
:1051F000FEF718FFF00654BF4FF6FF704FF47840EB
:10520000FEF710FFB00654BF4FF6FF704FF4784022
:10521000FEF708FF700654BF4FF6FF704FF478405A
:10522000FEF700FF300654BF4FF6FF704FF4784092
:10523000FEF7F8FE0134102CBAD118F8014F0835EA
:10524000002CA7D143F64D20002552240DF12C0847
:10525000ADF8300045F652708DF83250C5F25070FE
:105260000B9000BF45F00701A8B28F238AB28021BE
:10527000FFF7CEFAA4F120000024C0B209EB00171A
:105280003E5D16F0010F0CBF4FF6FF704FF47840F3
:10529000FEF7C8FEB00754BF4FF6FF704FF47840DA
:1052A000FEF7C0FE700754BF4FF6FF704FF4784012
:1052B000FEF7B8FE300754BF4FF6FF704FF478404A
:1052C000FEF7B0FEF00654BF4FF6FF704FF4784083
:1052D000FEF7A8FEB00654BF4FF6FF704FF47840BB
:1052E000FEF7A0FE700654BF4FF6FF704FF47840F3
:1052F000FEF798FE300654BF4FF6FF704FF478402B
:10530000FEF790FE0134102CBAD118F8014F083581
:10531000002CA7D13A20782556240DF12C08ADF8A1
:10532000300044F25640C4F244100B9008E000BF35
:1053300018F8014F0835002C04BF18B0BDE8F087FD
:1053400045F00701A8B20F2300278AB20021FFF71A
:105350005FFAA4F12000C0B209EB0014E65D16F07C
:10536000010F0CBF4FF6FF704FF47840FEF75AFE66
:10537000B00754BF4FF6FF704FF47840FEF752FE6F
:10538000700754BF4FF6FF704FF47840FEF74AFEA7
:10539000300754BF4FF6FF704FF47840FEF742FEDF
:1053A000F00654BF4FF6FF704FF47840FEF73AFE18
:1053B000B00654BF4FF6FF704FF47840FEF732FE50
:1053C000700654BF4FF6FF704FF47840FEF72AFE88
:1053D000300654BF4FF6FF704FF47840FEF722FEC0
:1053E0000137102FBAD1A3E710B584B004200121F2
:1053F000FDF778F8102040F6000401A9039008207A
:10540000C4F20104ADF80400032002902046FCF72A
:1054100023F820460821FCF7CDF904B010BD0000A8
:105420002DE9F04F85B0049104F0FEFF054640F2EF
:10543000381040F23414C2F20000C2F200040168D5
:10544000056020680391294604F024FE8046206010
:1054500040F2AC20C2F2000001680091416880680F
:10546000019102900420FEF739FF40F2EC07C2F2EE
:10547000000738600320FEF731FF40F2141140426C
:10548000C2F20001086004F0E8FA00230022C4F22E
:10549000690304F0F9FA46F200060022C4F2980605
:1054A000334604F017F945F2EC194EF6853AC1F689
:1054B000B869C3F6B17A4A46534604F0E5FA48F2B1
:1054C0001F5B41F6B864C5F2EB1BC4F209045A46EF
:1054D000234604F0D9FA04F00FF840F218113F689F
:1054E000C2F200010860C820784304F0B6FA002236
:1054F000334604F0EFF84A4653464E46D14604F090
:10550000C3FA5A462346DA46A34604F0BDFA03F02E
:10551000F3FF40F2F001C2F2000108600098294652
:1055200005F016F804460198414605F011F80146C9
:10553000204604F0AFFD03990446284605F0D4F850
:105540000146029805F004F80146204604F0A2FD49
:1055500004F02EFF0546049804F070FD52465B46A9
:1055600004F0B8F832464B4604F0B4F846F20003B3
:105570000022C4F2980304F087FA41F27B4247F616
:10558000E123C4F2AE72C3F6747304F07DFA04F042
:1055900035FA0446C01B04F047FFFEF751FC461BDA
:1055A00040F21410C2F200000068201A04F03CFF20
:1055B000FEF746FC40F2E40440F20C112844C2F22B
:1055C0000004C2F2000126600860FFF7ABFA206811
:1055D00005B0BDE8F04FFFF77DBA0000704700004E
:1055E00080B56FF00400FDF719F940F204004DF6A4
:1055F000836140F21E22C2F20000C4F21B31C2F2EB
:1056000000020068A0FB0101480D1070C1F3475073
:105610004FF47A71484340F21C21C2F20001088025
:1056200080BD000040F21C21C2F200010988414304
:105630004EF21000CEF2000041600021816001684E
:1056400041F00101016000BF016801F00111012971
:105650000ED1016801F00111012909D1016801F0A1
:105660000111012904D1016801F001110129EBD0D8
:10567000016821F001010160002181607047000094
:1056800040F21E21C2F20001097841434EF210009F
:10569000CEF20000416000218160016841F001010B
:1056A000016000BF016801F0011101290ED10168FC
:1056B00001F00111012909D1016801F0011101294D
:1056C00004D1016801F001110129EBD0016821F03A
:1056D0000101016000218160704700002DE9F04167
:1056E00086B004464CF602200DF102050421C0F6F6
:1056F000E3102A46CDF80200682002F09DFEA320A8
:1057000014F040066FF05C026FF05C018DF802004F
:1057100018BF6FF03F028DF803206FF05C0218BFD6
:105720006FF037028DF804206FF05C0218BF6FF045
:105730003D0214F4C0778DF805206FF05C0218BFAD
:105740006FF03B028DF806206FF05C0218BF6FF01F
:1057500033028DF8072018BF6FF039012A468DF803
:1057600008104AF2A331ADF809108DF80B0040F68D
:10577000A7200A2102F060FE14F003086FF0270052
:105780004FF001012A4618BF20208DF8020040F694
:10579000B62002F051FE14F0200F0CD1C7208DF876
:1057A000140048F6B000CCF2C35004904AF6B8207A
:1057B000CAF6AA200AE05D20059049F6B400C3F2BB
:1057C0000D5004904AF6B820C8F6B350039003AACF
:1057D0004FF49760092102F02FFE1FB314F480707C
:1057E0006FF074010DF1020208BF6FF07F01002815
:1057F0008DF803104FF0B00141EAD0118DF802107E
:105800004FF0B40141EAD01140F6A2208DF8041007
:105810006FF0640108BF6FF06F018DF8051004216F
:1058200002F00AFEE00708D1D8200DF102020121A2
:105830008DF802004FF40B6051E0F8200DF10202E8
:1058400001218DF802004FF40B6002F0F5FD0720F6
:10585000FA2100F017FB3F2003AA01218DF80C006C
:105860004FF4A47002F0E8FD002003AA01218DF896
:105870000C0040F24F1002F0DFFD4FF4A05003ADDA
:105880000221ADF80C004FF4EF702A4602F0D4FD6F
:105890004FF4C84002212A46ADF80C004FF4ED70D9
:1058A00002F0CAFD48F6006003AA0421C9F2F9001B
:1058B00003904FF4AE7002F0BFFD4FF40060022180
:1058C0002A46ADF80C004FF4AD7002F0B5FD4FF470
:1058D000007002212A46ADF80C004FF4AC7002F0C3
:1058E000ABFD60086C210DF1020261F35F00012144
:1058F0008DF8020040F23D7002F09EFD600703AAA1
:105900004FF0040152BF4FF08B304CF2C020CCF26C
:10591000C460039040F6982002F08EFD01F056FE20
:10592000E00603AA4FF0040152BF4FF0A33042F645
:105930002000C3F63000039040F69E2002F07CFD6C
:1059400001F044FE40F20C2144F00800002EC2F2A7
:105950000001088018BF0626002F18BF063614F075
:10596000140F18BF46F01006B8F1000F18BF043628
:1059700001F02CFE40F21220C2F20000067000205E
:1059800006B0BDE8F08100004DF69C6140F6F630AF
:105990004FF48062C823C0F6000101F021BC000072
:1059A0002DE9F04F89B0DDF848908246002014467A
:1059B0000DF1040B139A88461E465946A9F80000BB
:1059C00040F21220C2F20000007801F0A9FD20B1DF
:1059D0004FF0FF3009B0BDE8F08F40F20C20C2F26A
:1059E0000000B0F800C01CF0140F52D09DF8052044
:1059F0009DF804109DF80630B6469DF80760120425
:105A000042EA016141EA03220914324322609DF80F
:105A100009309DF808209DF80A609DF80B501B0482
:105A200043EA026242EA062312142B4352436360A4
:105A300001FB01219DF80D609DF80C309DF80E5082
:105A40009DF80F00360446EA036343EA05261A145C
:105A5000304302FB0211A0609DF811609DF8100018
:105A60009DF812509DF81370360446EA006040EA33
:105A70000526001400FB0010374300F17140E76079
:105A8000B0F1007F79D901F0A1FD0020A9F8000054
:105A90009EE700215FEA4C602AD5C8B241F00601BA
:105AA00040F001031BF800201BF8033043EA0222F8
:105AB00040F00303A8F8002040F002021BF8022087
:105AC0001BF8033043EA0222A8F8022040F0040247
:105AD00040F005001BF802201BF8000040EA0220FD
