:020000040800F2
:10000000F8070020F9010008B5150008851500085B
:10001000B115000805100008D928000800000000EC
:100020000000000000000000000000000B020008BB
:1000300009100008000000000F020008110200086B
:10004000130200081302000813020008130200083C
:1000500013020008130200080D1000081302000824
:10006000130200081302000813020008130200081C
:10007000130200081302000813020008130200080C
:1000800013020008130200081302000813020008FC
:1000900013020008130200081302000845100008AC
:1000A00013020008130200081302000813020008DC
:1000B000D5190008111A0008251A000813020008B3
:1000C00013020008130200081302000813020008BC
:1000D00013020008AD22000813020008D52600080C
:1000E000130200081302000813020008130200089C
:1000F000130200081302000813020008130200088C
:100100001302000813020008391A0008130200083D
:10011000130200081302000813020008130200086B
:10012000130200081302000813020008130200085B
:1001300000F002F800F050F80AA090E8000C8244A9
:100140008344AAF10107DA4501D100F045F8AFF286
:10015000090EBAE80F0013F0010F18BFFB1A43F0A5
:100160000103184780900000A0900000103A24BFBF
:1001700078C878C1FAD8520724BF30C830C144BF0C
:1001800004680C607047000000230024002500264E
:10019000103A28BF78C1FBD8520728BF30C148BFEA
:1001A0000B607047662905F0AE85642900F08280F7
:1001B000002070471FB500F05BFC04000020002108
:1001C00004F0F2FE401C60600020002104F0D6FE26
:1001D000E0601FBD10B510BD00F096FD1146FFF7A1
:1001E000E9FF04F035F800F0C2FD03B4FFF7F2FFB9
:1001F00003BC03F005FF0000094880470948004799
:10020000FEE7FEE7FEE7FEE7FEE7FEE7FEE7FEE7C6
:10021000FEE7FEE704480549054A064B7047000023
:100220007D18000831010008F8010020F8070020BF
:10023000F8030020F8030020704700000FB41CB53D
:10024000074B06AA7B4469460090059800F0B3FB73
:100250000020694600F0C2FB1CBC5DF814FB0000E6
:100260009507000070B5044685690068C10601D590
:10027000302600E02026C00707D070BDD4E9012158
:1002800030469047206A401C20626D1EF6D570BD36
:1002900070B5044685690078C00707D170BDD4E900
:1002A000012120209047206A401C20626D1EF6D557
:1002B00070BD00002DE9F041064600241068752944
:1002C000314616A510D0AFF30080002802DA404274
:1002D00013A507E031688A0701D512A502E0490796
:1002E00004D511A5012401E0AFF3008000210A220A
:1002F00006F1240709E0B0FBF2FCB0FBF2F302FBCD
:100300001C00303078541846491C0028F3D123468D
:100310002A463046BDE8F04100F0E0B80000000099
:100320002D0000002B000000200000002DE9F05FF0
:10033000894604464FF0000ADFF824B1FB44C0F8B8
:1003400020A02046E168884700287DD0252806D0D7
:10035000D4E901219047206A401C2062F1E7002582
:100360005F462046E16888472028064607DB312E95
:1003700005D2B81910F8200C08B10543F1E7A80719
:1003800001D525F00405C4F81CA00027C4F818A066
:100390002A2E09D0304604F0E9FD38B304EB870873
:1003A000303EC8F8186019E059F8041B204604EBE9
:1003B00087029161E1688847012F064618D1E069FC
:1003C000002820DA25F020051DE0D8F8180000EB01
:1003D000800006EB40003038C8F818002046E1687D
:1003E0008847064604F0C2FD0028EED1012F0AD04E
:1003F0002E2E08D12046E16888477F1C0646022F32
:1004000045F02005C4DBA069002803DA404245F02E
:100410000105A061E80701D025F01005A6B1A6F1FD
:100420004100192802D8203645F400654A46314675
:10043000204625604D46FFF7B5FE60B1012807D084
:10044000ED1D25F0070000E007E000F1080978E75E
:1004500005F1040975E730467AE7206ABDE8F09FA8
:10046000CA59000070B5064600F034F80468054625
:1004700030460A22002100F0B6FA2C6070BD4FF021
:10048000000200B5134694469646203922BFA0E8E4
:100490000C50A0E80C50B1F12001BFF4F7AF0907F0
:1004A00028BFA0E80C5048BF0CC05DF804EB8900E1
:1004B00028BF40F8042B08BF704748BF20F8022B24
:1004C00011F0804F18BF00F8012B7047704770473C
:1004D0007047704700487047100000202DE9F04732
:1004E0000D4699469246044600F1240801688806A4
:1004F00004D5E06921F01001216000E00120A8424C
:1005000001DD471B00E00027A1697A1902EB090011
:10051000081AA0612078C00602D42046FFF7A2FE88
:10052000002608E0D4E901211AF806009047206A65
:10053000401C761C20624E45F4DB2078C0060AD5AC
:100540002046FFF78FFE06E0D4E9012130209047D6
:10055000206A401C2062381EA7F10107F4DC07E086
:10056000D4E9012118F805009047206A401C206258
:10057000281EA5F10105F3DC2046FFF789FE20784F
:10058000000602D50220BDE8F0870120FBE72DE937
:10059000FF4F0C461E464FF0FF378BB0D2E90001EB
:1005A000DDF860800A908A46C1F30A5505B93D46D8
:1005B000002108464FF00000BAF1000F00F440009F
:1005C00005DA00EB80004FF4400101EA50004FEAE9
:1005D0009059B9F1010F00DDB9460A9850EA4A0076
:1005E0000ED044F61050A5F2FF3545432F14B8F154
:1005F000000F1ED07542291E1EDDC9F100021CE04D
:10060000B8F1010F4FF0000001D0302103E0F243B8
:1006100005E02154401CB042FBDB304600220021A3
:1006200021540B99C1F80880C1E900200FB0BDE842
:10063000F08FBD1B6D1CDEE74A4600DA694206A852
:1006400000F0F0FA06AB93E8070003AB83E807007D
:1006500050460A9904F0AEF88DE80700A0F5005066
:100660001F3800900398002D0ADD42F21F014A4610
:100670000844002303A90390684604F017FB09E02F
:10068000A0F500504A461F38002303A9039068468E
:1006900004F021FB8DE807000004000C03D04FF0AC
:1006A000FF30410800E01046B8F1000F03D00022EF
:1006B000009215461EE0751E05D400F0DDF93032BB
:1006C00062556D1EF9D5B3460122084302D00022BF
:1006D0007F1C04E02078302801D100227F1E002AF0
:1006E000099784D01DE0112D07DA00F0C5F93032EA
:1006F00062556D1C50EA0102F5D1084302D0009802
:10070000C8B10EE00021681E05E0235C625C635402
:100710002254401E491C8142F7DBAB46A81B401EF9
:100720000990002004F80B000B98099AC0F8088083
:10073000C0E9002B7AE711264FF0000857E72DE9B2
:10074000F04F88460446D21D22F0070191B0D1E94E
:100750000001CDE90A0104F0F5FB02460B98C00F39
:1007600001D02D2007E02068810701D52B2002E071
:10077000202101EAC000032A099001D0072A05DBE5
:1007800003464146204600F0BDF90BE12078800683
:1007900001D5E06900E00620B8F1650F814606D07A
:1007A000B8F1660F18D0B8F1670F70D131E00020B2
:1007B000B9F1110F009001DB112301E009F10103F0
:1007C0000AAA01A90CA8FFF7E2FEDDE90C700026D9
:1007D00009F10105834647E001204B4600904FF0A8
:1007E00000470AAA01A90CA8FFF7D1FEDDE90DB068
:1007F0000C995D46002610B909F101000D18B9EBFE
:10080000050003D4C0F1FF3609F10105A5EB09008D
:100810002BE0B9F1010F01DA4FF001090020B9F125
:10082000110F0090484601DD112300E003460AAA9B
:1008300001A90CA8FFF7ABFEDDE90C704D460026C0
:100840008346207800070AD4AB4500DA5D4601A84C
:10085000012D04DD411911F8011C302907D04F4545
:1008600002DA17F1040F04DA012082460FE06D1E50
:10087000EEE7002F02DCED1B3E4403E0781CA842AB
:1008800000DD7D1CB81B00F1010A4FF00047207805
:10089000000703D4AA4501DB4FF0FF3A0021B7F16E
:1008A000004F0DF143088DF8431024D002202B2374
:1008B000002F01DA7F422D230A21021EA0F1010040
:1008C00000DC5FB197FBF1FC97FBF1F201FB1C7CB4
:1008D00017460CF1300C08F801CDEEE7A8F1010045
:1008E00003702188090501D5452100E06521A0F1AB
:1008F000010800F8011C09980FA9A1EB0807FF1DCA
:1009000000B10120411901EBEA70A1693844081ACD
:10091000401EA0612078C00602D42046FFF7A2FC4A
:10092000099828B1D4E901219047206A401C20622F
:100930002078C00622D52046FFF794FC1EE0002E4A
:1009400004DBB34502DD01A8805D00E03020D4E97E
:1009500001219047206A401C2062761CAAF1010008
:100960005FEA000A0AD100F083F8C0680168405CC1
:10097000D4E901219047206A401C2062281EA5F17D
:100980000105DCDC07E0D4E9012118F8010B9047F0
:10099000206A401C2062381EA7F10107F3DC2046C4
:1009A000FFF776FC032011B041E6000001694A1C04
:1009B00002610878704700B58FB0CDE901310021A0
:1009C000059105497944CDE9031011466846FFF7C2
:1009D000ADFC0FB000BD0000E5FFFFFF0A6802F8A4
:1009E000010B0A6070472DE9F04791460F4680469B
:1009F0000446002614F8015B2DB100F031F80068C0
:100A0000405DC007F6D12B2D02D02D2D18D0641ECD
:100A10004A463946204600F0B5F827B13968A14268
:100A200001D1C7F800804FF0020471050BD5404298
:100A3000002803DDFFF74EFD0460A007BDE8F08746
:100A400046F48066E4E70028F8DAFFF743FD046027
:100A50006FF00040F2E700000048704710000020EF
:100A600010B500F005F8001D10BD00BF3D450000A9
:100A7000004870473000002030B5B0F10A0271F133
:100A800000034FEA900E4EEA817EB0EB0E0061EB60
:100A900091014FEA101E4EEA017E10EB0E0041EB71
:100AA00011114FEA102E4EEA016E10EB0E0041EBD1
:100AB00011214FEA104E4EEA014E10EB0E0041EBB1
:100AC0001141401841F100014FEAD00040EA417065
:100AD0004FEAD1014FEA810444EA907410EB80059B
:100AE00044EB01046D1944EB0404521BA3414FF085
:100AF000000348BF0A3200D530BD401C41F100015F
:100B000030BD00002DE9F0411F4604460326016870
:100B1000072A01F4006004DB08B116A505E016A55C
:100B200003E008B115A500E015A521F01000206034
:100B3000A069C01EA0610FB1401EA0612046FFF752
:100B400091FB4FB1D4E9012138469047206A401CFF
:100B50002062C01C206206E0206AFAE7D4E9012185
:100B600015F8010B9047761EF8D22046FFF790FB50
:100B7000BDE8F0814E414E006E616E00494E460068
:100B8000696E66002DE9F05F824615468B460027A8
:100B90000AF10104B9460078302801D09DB113E074
:100BA00014F8010B0127782803D0582801D045B14B
:100BB0000AE00DB1102D07D1002714F8010B102504
:100BC00002E0082500E00A250026B0460EE005FBFD
:100BD000080005FB06F101271FFA80F801EB10461B
:100BE000B6F5803F00D3B94614F8010B294600F052
:100BF000B0F80028EBDABBF1000F05D00FB1641E8E
:100C000000E05446CBF80040B9F1000F06D0FFF7E2
:100C100061FC02210160C81EBDE8F09F48EA064061
:100C2000FAE700002DE9F047814616468AB03548BC
:100C300078440DC88DE80D0032487844801C03AC20
:100C40000DC884E80D0041F69B300844372190FB25
:100C5000F1F290FBF1F5A5F1800501FB12041B3CBC
:100C600002D56442012000E00020DFF898A0804611
:100C70000027FA44AAF1BE0A0EE0E0070AD0324685
:100C8000684607EB470101230AEB810104F023F8D2
:100C90008DE8070064107F1C002CEED1194F7F44B3
:100CA000AE3F19E0E80715D007EB04100DF1180A64
:100CB00090E80E008AE80E00C068F04201D1981951
:100CC00008903246012306A903A804F004F803ABF8
:100CD00083E807006D10641C002DE3D14FF0010381
:100CE00032466946B8F1000F03A802D003F0DEFFD8
:100CF00001E003F0F0FFC9E90001C9F808200AB0DB
:100D0000BDE8F087645100007546FFF7A5FEAE46CA
:100D100005006946534620F00700854618B020B507
:100D2000FFF778FABDE820404FF000064FF00007CB
:100D30004FF000084FF0000BAC46ACE8C009ACE83F
:100D4000C009ACE8C009ACE8C00921F007018D4634
:100D500070473A2800D2303820F02002412A01D3CF
:100D6000A2F13700884201D34FF0FF30704710B531
:100D70000446AFF300802046BDE81040FFF735BAC7
:100D80004FF0013C50F8042B51F8043B9A4221D11A
:100D9000A2EB0C03934313EACC1317D150F8042BA6
:100DA00051F8043B9A4215D1A2EB0C03934313EA8A
:100DB000CC130BD150F8042B51F8043B9A4209D1C3
:100DC000A2EB0C03934313EACC13DBD04FF00000EB
:100DD000704700BFD01A01BAB1FA81F101F01801D1
:100DE00022FA01F0CB40DBB2C0B2C01AC1F120013F
:100DF0002CFA01F3D11A914311EAC311E6D17047DD
:100E00008268002942F0010308BF22F001038360D9
:100E10007047000080B543F60041C4F201018842EA
:100E200014D042F60001C4F20101884216D042F209
:100E30000041C4F20101884218BF80BD4FF4007028
:100E4000012100F021FC4FF400700EE04FF400404F
:100E5000012100F019FC4FF4004006E04FF48060DF
:100E6000012100F011FC4FF480600021BDE88040BA
:100E700000F00ABC8068C0F380007047C06C80B28C
:100E8000704700000068084018BF0120704700004C
:100E90008068C0F3C000704780B54FF6FF634268BA
:100EA000CFF6F07302EA030CD1E9003243EA0C03F7
:100EB00043EA02224FF2FD734260CFF6F17382687B
:100EC00002EA030ED1E902C30A6942EA0E021A439A
:100ED00042EA4C028260C26A097D013922F4700242
:100EE000C9B242EA0151C16280BD000010B501EBF8
:100EF000410C092988BFACF11E0C092903FA0CFE2C
:100F00004FF0070303FA0CFC4FF0100388BF0C23CB
:100F1000062AC45824EA0C0444EA0E04C45003D838
:100F200034306FF0040307E00C2A87BF2C306FF0D9
:100F3000400330306FF0220302EB82021A441F2379
:100F4000914003FA02F2036823EA020211430160AE
:100F500010BD0000816841F0080181607047000009
:100F60008268002942F4A00308BF22F4A003836032
:100F700070470000816841F0040181607047000003
:100F800070B58AB04FF401700121012500F070FBAB
:100F90004FF4004000F04AFB42F2004400260420D7
:100FA00001A9C4F201040396ADF80400A4F5A05011
:100FB00000F0F8F82046FFF72DFF4FF46020CDE950
:100FC0000466069604A9CDE9070620468DF824504C
:100FD000FFF762FF20460121FFF712FF2046FFF7CF
:100FE000B9FF00BF2046FFF753FF0028FAD1204683
:100FF000FFF7C0FF2046FFF73DFF0028FAD10AB0F7
:1010000070BD0000FEE700007047000080B5322090
:1010100003F01AF841F200000121C4F2010000F0CF
:1010200069FA30B940F20810C2F2000001680131DB
:101030000160012000F058F80120BDE8804003F075
:1010400031B80000B0B54FF4807000F053F80028BC
:1010500008BFB0BD40F600444FF48071C4F20004F4
:1010600004F5803000F046FA012804D12046012121
:1010700000F00CFD31E02046002100F007FD204685
:1010800000F04EFE40F2C801C2F200010968C1EB57
:101090000141084440F2CC11C2F20001086000EBAB
:1010A000001004F050F944F200030022C4F28F0350
:1010B00003F0C2FF03F08EFF0021054604F002FB9F
:1010C000002840F204104FF0000118BF0025C2F2C2
:1010D00000000560204601F089F84FF48070BDE8FB
:1010E000B04000F001B8000040F21441C4F2010128
:1010F0000860704740F20041C4F201010A680240F2
:1011000018BF01224969084018BF012010407047EC
:10111000C26840F20041C4F20101F2B102680B68FA
:1011200093430B604B6893434B60D0F804C05CF86A
:1011300001301A434CF8012002688B6893438B609E
:10114000CB689343CB60806810280DD1886810432A
:101150008860C8681043C8607047D0E900204358D1
:1011600023EA02024250704743581A4342507047E4
:1011700080B50C2240F2080E0F2302EA810201F032
:10118000FC01C4F2010E03FA02FC51F80E3090404B
:1011900023EA0C0341F80E3051F80E20104341F8B9
:1011A0000E0080BD80B5D1F808E00EF00F0C1EF0E7
:1011B000100F1CBF4B684CEA030C098811F0FF0F9D
:1011C00000F0A4800368CA070BD023F00F02BEF121
:1011D000480F42EA0C0315D0BEF1280F01D10122BD
:1011E00042618A0712D523F0F002BEF1280F42EACD
:1011F0000C131CD0BEF1480F08D1022202614A072D
:1012000006D418E0012202618A07ECD44A0712D5FD
:1012100023F47062BEF1280F42EA0C231CD0BEF109
:10122000480F08D1042202610A0719D505E00222FD
:1012300042614A07ECD40A0712D523F47042BEF18A
:10124000280F42EA0C331CD0BEF1480F08D1082207
:101250000261CA0606D418E0042242610A07ECD4EF
:10126000CA0612D523F47022BEF1280F42EA0C43BD
:101270001CD0BEF1480F08D1102202618A0619D590
:1012800005E008224261CA06ECD48A0612D523F48E
:101290007002BEF1280F42EA0C531CD0BEF1480F79
:1012A00008D1202202614A0606D418E010224261C9
:1012B0008A06ECD44A0612D523F07062BEF1280FDC
:1012C00042EA0C631AD0BEF1480F08D140220261F5
:1012D0000A061AD505E0202242614A06ECD40A0625
:1012E00013D523F07042BEF1280F42EA0C730AD0E6
:1012F000BEF1480F09D18022026106E0402242611E
:101300000A06EED401E0802242610360B1F5807FDD
:1013100038BF80BD4368CA050CD523F00F02BEF16B
:10132000480F42EA0C0317D0BEF1280F02D14FF448
:10133000807242618A0514D523F0F002BEF1280FB5
:1013400042EA0C131FD0BEF1480F0AD14FF40072CD
:1013500002614A0507D41BE04FF4807202618A05DE
:10136000EAD44A0514D523F47062BEF1280F42EA8C
:101370000C231FD0BEF1480F0AD14FF480620261E6
:101380000A051CD506E04FF4007242614A05EAD412
:101390000A0514D523F47042BEF1280F42EA0C333B
:1013A0001FD0BEF1480F0AD14FF400620261CA0497
:1013B00007D41BE04FF4806242610A05EAD4CA04F4
:1013C00014D523F47022BEF1280F42EA0C431FD03B
:1013D000BEF1480F0AD14FF4805202618A041CD535
:1013E00006E04FF400624261CA04EAD48A0414D5CC
:1013F00023F47002BEF1280F42EA0C531FD0BEF155
:10140000480F0AD14FF4005202614A0407D41BE08E
:101410004FF4805242618A04EAD44A0414D523F07E
:101420007062BEF1280F42EA0C631ED0BEF1480F75
:101430000AD14FF48042026109041BD506E04FF443
:10144000005242614A04EAD4090413D523F07041E2
:10145000BEF1280F41EA0C730ED0BEF1480F09D13E
:101460004FF400410161436080BD4FF4804242610E
:101470000904EBD4436080BD4FF4004141614360F7
:1014800080BD000010B50422002800F440141FFAAB
:1014900080FCC4F201021346B8BF43F01803B4F550
:1014A000401F1B68C0F3034E07D1146823F070631C
:1014B00024F07064146081B916E0C40206D447F6C3
:1014C000F07404EA50440CFA04F402E0032404FA31
:1014D0000EF4A34343F0706331B147F6F07101EAB3
:1014E00050410CFA01F10B430028B8BF18321360C9
:1014F00010BD00008068084018BF01207047000040
:1015000041617047016170472DE9F04381B0894620
:10151000804671B342F2004600240027C4F201065F
:101520003046414601220723FFF7E0FC3046012107
:10153000FFF716FD30460221FFF7A4FC0028F9D082
:101540003046FFF79BFC0546052002F07DFD28464E
:1015500004F01CFA0546384604F018FA294604F04F
:1015600033F804F0DBF901340746E0B24845D7D33D
:1015700000E00027B7FBF9F004F008FA01B0BDE87D
:10158000F0830000FEE7000041F21801C4F20201FE
:101590000A6842F001020A600421C4F201010A68EB
:1015A00022F0E0620A600A6842EA40600860704720
:1015B000FEE700007047000042684EF20011CEF2D4
:1015C0000001EAB110B54EF60C520723CEF200022C
:1015D000126890F801E0847890F800C023EA1222A3
:1015E0000F23D340C2F1040223400EFA02F21A4341
:1015F00001EB0C03120183F80023BDE8104000E06A
:1016000080310078012300F01F02C0F3421003FA7A
:1016100002F241F82020704740F080604EF60C51F5
:1016200040F0FD70CEF200010860704741F2040105
:10163000C4F202010A6822F4404210430860704775
:1016400041F21C020029C4F2020211680CBF21EA17
:10165000000008431060704741F210020029C4F2F4
:10166000020211680CBF21EA0000084310607047B5
:1016700041F218020029C4F2020211680CBF21EAEB
:10168000000008431060704741F20C020029C4F2C8
:10169000020211680CBF21EA000008431060704785
:1016A00080B541F2040EC4F2020EDEF8002002F012
:1016B0000C0341F20022C0F27A02082B1FD1DEF89F
:1016C0000030C3F3834303F1020CDEF8003013F45F
:1016D000803F06D140F60012C0F23D020CFB02F240
:1016E0000DE0DEF8003013F4003F02D10CFB02F2F3
:1016F00005E040F60012C0F23D020CFB02F202606F
:1017000045F6B451DEF80030C0F60001C3F3031310
:10171000CB5CDA404260DEF80030C3F30223CB5CDE
:1017200022FA03F38360DEF80030C3F3C223C95CFE
:1017300045F6B053C0F6000322FA01F1C160DEF8AD
:101740000020C2F381329A5CB1FBF2F1016180BDED
:1017500041F2000100221423C4F202010A61CA60AE
:101760004B618A61CA610B6843F001030B6000237F
:10177000D1F804C0CFF6FF0303EA0C034B604FF629
:10178000FF73D1F800C0CFF6F66303EA0C034EF600
:10179000085C0B60CEF2000C0B6823F480230B6016
:1017A0004B6823F4FE034B604FF000638A60CCF873
:1017B00000300B6843F480330B6000BF0B68B3F557
:1017C000003F0BD20B68B2EB534F07D10B68B2EB63
:1017D000534F03D10B68B3F5003FEFD34FF4806252
:1017E00002384A60C0B24A6842EA804048604868AD
:1017F00040F4803048604FF480500A5842F0320282
:101800000A50086840F08070086000200A68B2F151
:10181000007F0BD20A68B0EB526F07D10A68B0EBB9
:10182000526F03D10A68B2F1007FEFD3486840F0ED
:1018300002004860486800F00C0008280FD0486893
:1018400000F00C0008280AD0486800F00C000828B6
:1018500008BF7047486800F00C000828EAD17047BC
:101860004EF210010428CEF200010A6822F00403AF
:1018700008BF42F004030B607047000082B041F2E1
:1018800004000022C4F20200CFF6FF0250F8041C4C
:1018900041F0010140F8041C016811404FF6FF724D
:1018A0000160CFF6F66250F8041C114040F8041CA9
:1018B00050F8041C21F4802140F8041C016821F434
:1018C000FE0101604FF41F01416000210191009170
:1018D00050F8041C41F4803140F8041C50F8041CFA
:1018E00001F400310091019901310191009919B978
:1018F0000199B1F5A06FF1D150F8041C11F4003F2B
:101900000CBF0021012100910099012958D1D0F884
:10191000FC1F41F01001C0F8FC1FD0F8FC1F21F0A3
:101920000301C0F8FC1FD0F8FC1F41F00201C0F811
:10193000FC1F0168016001680160016841F4806179
:101940000160016821F47C110160016841F4E81133
:10195000016050F8041C41F0807140F8041C00BF85
:1019600050F8041C11F0007F0ED150F8041C11F047
:10197000007F09D150F8041C11F0007F04D150F809
:10198000041C11F0007FEBD0016821F0030101601D
:10199000016841F002010160016801F00C010829B1
:1019A0000ED0016801F00C01082909D0016801F08E
:1019B0000C01082904D0016801F00C010829EBD1C1
:1019C0004EF608504FF00061CEF20000016002B008
:1019D0007047000080B54FF08040012100F0A2F96F
:1019E000002808BF80BD4FF08040012100F04AF878
:1019F00040F20C00C2F20000016840F27800C2F22E
:101A0000000000685A38BDE8804002F01BBA0000B0
:101A100040F21040C4F200000188018821F0010169
:101A20000180704740F61000C4F200000188018870
:101A300021F001010180704710B540F600440121FA
:101A4000C4F20004204600F06DF9002808BF10BD64
:101A50002046012100F016F840F2C800C2F2000052
:101A600001680131016010BD0288002942F0800345
:101A700008BF22F08003038070470000C943018241
:101A800070470000C94301827047000002880029A6
:101A900042F0010308BF22F00103038070470000F9
:101AA000B0F84420002913466FF3DF3318BF42F427
:101AB0000043A0F84430704780B541F6FF71C4F28E
:101AC0000001884228DD44F2FF31C4F2010188425E
:101AD0003FDD44F6FF31C4F2010188426EDD44F679
:101AE0000041C4F20101884200F0B58045F20001D6
:101AF000C4F20101884200F0B68045F20041C4F210
:101B00000101884218BF80BD4FF400100121FFF78A
:101B1000BBFD4FF40010D7E040F6FF71C4F20001A6
:101B2000884232DC40F2FF71C4F2000188425ADC84
:101B3000B0F1804F00F09F8040F20041C4F20001FC
:101B4000884240F0D08002200121FFF785FD02206D
:101B5000C4E043F2FF31C4F20101884255DC42F295
:101B60000001C4F20001884200F08B8042F600417F
:101B7000C4F20101884240F0B6804FF400600121B8
:101B8000FFF782FD4FF400609EE041F2FF71C4F266
:101B9000000188424DDC41F20001C4F2000188429C
:101BA00077D041F20041C4F20001884240F09B80AE
:101BB00020200121FFF750FD20208FE044F200415A
:101BC000C4F2010188426AD044F60001C4F2010166
:101BD000884240F088804FF480200121FFF754FDB7
:101BE0004FF4802070E040F60001C4F2000188420A
:101BF0005DD040F60041C4F20001884273D1082054
:101C00000121FFF729FD082068E043F20041C4F2FA
:101C10000101884251D044F20001C4F2010188421E
:101C200061D14FF480300121FFF72EFD4FF4803059
:101C30004AE041F60001C4F20001884249D041F671
:101C40000041C4F2000188424DD180200121FFF7FC
:101C500003FD802042E04FF400200121FFF714FD36
:101C60004FF4002030E04FF480100121FFF70CFD0D
:101C70004FF4801028E001200121FFF7EDFC012046
:101C80002CE04FF480700121FFF7E6FC4FF48070E8
:101C900024E010200121FFF7DFFC10201EE04FF4AC
:101CA00000300121FFF7F0FC4FF400300CE004207D
:101CB0000121FFF7D1FC042010E04FF40050012176
:101CC000FFF7E2FC4FF400500021BDE88040FFF731
:101CD000DBBC40200121FFF7BFFC40200021BDE814
:101CE0008040FFF7B9BC80BD80B5B0F808C02CF0CB
:101CF000070C41EA0C01B0F818C0B0F820E00181EF
:101D00004FF6FC410CEA010C40F2011141EA0C01D2
:101D1000018342EA03112EF022021143018480BDA7
:101D2000808C7047028A0A4018BF012280890840CF
:101D300018BF01201040704770B50B88042B2AD0C3
:101D4000002B56D1B1F802C00A898B88068C40F668
:101D5000FF354FF6FC74C4F2000526F0010643EA95
:101D600002130246A842068432F8186FB0F820E049
:101D700026F0F30643EA06036DDCB0F1804F7DD018
:101D800040F20045C4F20005A84277D040F60005B5
:101D9000C4F200056FE00E894B888A88058C40F6F6
:101DA000FF44360325F0100546EA02260584024664
:101DB00032F8185FB0F820E0254046EA050C40F6FE
:101DC000FF356FF00306C4F20005A6F1AD04A8428A
:101DD00062DCB0F1804F71D040F20045C4F20005E2
:101DE000A8426BD040F60005C4F20005A84265D0B9
:101DF00068E00A898C884E88058C082B71D125F4FF
:101E00008073038444EA0213024632F81C5FB0F880
:101E100020E025F0F30543EA050C6FF4405303F589
:101E2000145440F6FF33C4F20003984200F381805B
:101E3000B0F1804F00F08F8040F20043C4F2000305
:101E4000984200F0888040F60003C4F200039842F4
:101E500000F0818084E040F60045C4F20005A8420D
:101E60000CD042F60045C4F20105A84206D043F268
:101E70000045C4F20105A84218BF083C03830EEADE
:101E8000040343EA0C0343F001030384C988038B72
:101E900023F00C03038394E040F60045C4F20005F0
:101EA000A8420BD043F20045C4F20105A84205D078
:101EB00042F60045C4F20105A84203D14FF6FC7476
:101EC0001B012D3C0EEA0406A0F818C0334343F072
:101ED00010030384C988038B23F44063090203833E
:101EE0006FE025F480531203038442EA0423024680
:101EF00040F6FF4432F81C5FB0F820C0254046F69B
:101F0000FF5443EA050E40F6FF33C4F20003984243
:101F100034DCB0F1804F43D040F20043C4F2000300
:101F200098423DD040F60003C4F20003984237D0F7
:101F300039E040F60043C4F2000398420BD043F26C
:101F40000043C4F20103984205D042F60043C4F2B4
:101F50000103984204D14CF6FF73360203F5345462
:101F60000EEA0403A0F81CC0334343F480730384D7
:101F7000C988838B23F00C03838322E040F600435F
:101F8000C4F2000398420BD043F20043C4F20103B1
:101F9000984205D042F60043C4F20103984202D1B0
:101FA00036034CF6FF740CEA0403A0F81CE033433C
:101FB00043F480530384C988838B23F4406309026C
:101FC000838310880843108070BD00000021012227
:101FD0000160426001817047002A82890CBF22EAB9
:101FE000010111438181704710B5028C22F001027A
:101FF0000284048CB0F804E0038B0A8823F0730396
:1020000043EA020C0B8924F002021A434B881A435C
:10201000A0F18043A3F596334FEAB323072B14D8DE
:10202000012404FA03F313F0E50F0ED08C892EF48B
:10203000407322F00C022343CC8943EA040E4B89FF
:1020400023F004031A438B881A43A0F804E0A0F895
:1020500018C0C9888186028410BD0000028B22F05E
:10206000080211430183704710B5028C22F0100260
:102070000284048CB0F804E0038B0A8823F4E6435E
:1020800043EA022C0B8924F0200242EA03124B8817
:1020900042EA031243F20043C4F20103984205D01E
:1020A00042F60043C4F20103984212D18B892EF408
:1020B000406422F0C00244EA8303CC8943EA840EE0
:1020C0004B896FF04F0404EA03131A438B8842EAEA
:1020D0000312A0F804E0A0F818C0C98801870284A0
:1020E00010BD0000028B22F4006242EA012101834C
:1020F0007047000010B5028C22F480720284048CB8
:10210000B0F804E0838B0A8823F0730343EA020CDF
:102110000B8924F4007242EA03224B8842EA03222C
:1021200043F20043C4F20103984205D042F6004353
:10213000C4F20103984212D18B892EF4405422F448
:10214000406244EA0313CC8943EA041E4B8940F2FF
:10215000FF441B02A3431A438B8842EA0322A0F8E0
:1021600004E0A0F81CC0C9888187028410BD00006B
:10217000828B22F0080211438183704710B5028CD4
:1021800022F480520284048CB0F804E0828B0B8825
:1021900022F4E64242EA032C0B8924F4005242EA7C
:1021A00003324B8842EA033343F20042C4F2010295
:1021B000904205D042F60042C4F20102904204D19E
:1021C0008A892EF4804444EA821EA0F804E0A0F834
:1021D0001CC0C988A0F84010038410BD828B22F473
:1021E000006242EA012181837047000081847047C8
:1021F00040F6FF33B0F800C0C4F2000398420FDC91
:10220000B0F1804F1ED040F20043C4F20003984268
:1022100018D040F60003C4F20003984212D016E032
:1022200040F60043C4F2000398420BD043F200434F
:10223000C4F20103984205D042F60043C4F2010300
:10224000984204D14B882CF0700243EA020C41F210
:10225000004240F48063C4F20002934204D0CB8871
:102260002CF4407243EA020CA0F800C08A888285F0
:102270000A880285A0F18042A2F596324FEAB22286
:10228000072A07D8012303FA02F212F0E50F1CBF58
:10229000097A018601218182704700004FF6FF71A3
:1022A00041600021016001727047000070B543F683
:1022B000000440F22551C4F20104204600F078FAEF
:1022C000002800F07F80204600F002FB044640F228
:1022D000EC10C2F20000A4F1580304602046252B44
:1022E0001ED859210222DFE803F013151B1B1B1B0C
:1022F0001B1B1B1B1B1B1B1B1B1B1B1B1B1B1B1B2E
:102300001B1B1B1B1B1B1B1B1B1B1B1B1B451B6EA0
:102310005821012240F20000C2F20000027008467B
:1023200040F20011C2F200010978B1B13A2870D030
:10233000232840F0908040F2F01100200122C2F2E8
:102340000001087040F2BC01C2F200010A7040F2C4
:102350003011C2F200010870D3E040F2FC00C2F27A
:1023600000000268511C016040F23110C2F200000E
:102370008454D5E040F2F00000210122C2F20000B6
:10238000016040F20010C2F20000027040F2F01052
:10239000C2F20000027040F2BC00C2F20000017004
:1023A00040F23010C2F20000027040F2FC00C2F2B3
:1023B000000001684A1C026040F23110C2F20000C5
:1023C0004454D5E070BD40F2001040F2F0160025F4
:1023D000C2F20000C2F200060570307800284ED02C
:1023E00040F2C400C2F20000016840F2BD00C2F237
:1023F00000004554FEF736F840F2F00140F2CC02FE
:102400003570C2F20001C2F20002096842F82100F0
:1024100042E040F2C40540F2BD000022C2F20005D5
:10242000C2F2000029684254FEF71CF840F2301254
:1024300040F2F011C2F20002C2F2000116780B78ED
:10244000A6B3002B41D00021117040F2F001C2F27E
:10245000000108604CE0A0F13001092924D840F2C5
:10246000C402C2F200021168052944DC4B1C13604F
:1024700040F2BD02C2F200025054002041E040F29E
:10248000BC00C2F20000007830B140F2F000C2F2AD
:10249000000001680131016040F2C4000021C2F275
:1024A0000000016001202CE000202AE06BB140F226
:1024B000F00240F2CC03C2F20002C2F20003126842
:1024C00043F822000020087012E040F2BC01C2F282
:1024D0000001097861B140F2F001C2F200010A681E
:1024E000531C0B6040F2CC01C2F2000141F8220003
:1024F0000020286005E040F2BD010020C2F200018A
:10250000887140F2FC020028C2F20002136803F155
:102510000101116040F23112C2F20002D4540AD01B
:1025200040F231100022C2F20000425440F2FC009E
:10253000C2F2000002600B2C38BF70BDA4F1410054
:10254000262815D8DFE800F0714848487E5F5F5FB5
:10255000141414141414141414141414141414143B
:1025600014881414141414149EA6ABB0B5BABF008A
:1025700040F270000021C2F20000017040F27200CF
:10258000C2F20000017040F27100C2F2000001705E
:1025900040F27300C2F20000017040F2E010C2F29B
:1025A0000000016040F2E410C2F20000016040F25D
:1025B000D010C2F20000016040F2D410C2F200005C
:1025C000016040F2D810C2F20000016040F2DC105D
:1025D000C2F200000160F5E640F270000021C2F294
:1025E0000000017040F27200C2F20000017040F27F
:1025F0007100C2F20000017040F273000121C2F2CA
:102600000000017070BD40F2700000210122C2F292
:102610000000017040F27200C2F20000017040F24E
:102620007100C2F20000027026E040F2700000214A
:102630000122C2F20000017040F27200C2F20000FA
:10264000027014E040F270000121C2F2000001703B
:1026500040F27200002107E040F270000021C2F257
:102660000000017040F27200C2F20000017040F2FE
:102670007100C2F20000017040F27300C2F200006B
:10268000017070BD40F2CC002821C2F20000FDF7BD
:10269000F6FE70BD40F2E010C2F2000017E040F21A
:1026A000E410C2F2000012E040F2D010C2F20000CA
:1026B0000DE040F2D410C2F2000008E040F2D81061
:1026C000C2F2000003E040F2DC10C2F2000001217F
:1026D000016070BD10B544F6000440F22551C4F20B
:1026E0000004204600F064F8D8B3204600F0F0F86B
:1026F00040F2E81140F2901E5B28C2F20001C2F2E3
:10270000000E086040F29411DEF80030C2F20001C1
:102710000C6801BF53EA04020120086010BD5B2869
:1027200008BF012C1ED040F2F40C012BC2F2000CA9
:10273000DCF8004008BF5D281BD0012B08BF5D28D6
:102740001ED0012B18BF10BD40F2201140F20C1317
:10275000C2F20001C2F200030A6843F82200501CD2
:10276000086010BD002B02BF0120CEF8000010BD94
:10277000D9E7002C02BF0120CCF8000010BDDCE737
:10278000012CDED10020086040F22011CCF80000BE
:10279000CEF80000C2F20001086010BD8289002955
:1027A00042F4005308BF22F40053838170470000B5
:1027B00001F01F02012303FA02F2C1F34213022BBC
:1027C00006D0012B14BF00F1140300F10C0301E04B
:1027D00000F110031B88090A1A404FF0010318BFCB
:1027E0000122008803FA01F1084018BF01201040BF
:1027F0007047000001F01F0C012303FA0CFCC1F329
:1028000042131421022B08BF1021012B08BF0C21F9
:10281000002A42580CBF22EA0C0242EA0C02425043
:102820007047000070B586B00446008A0D46C9881E
:1028300001AE20F4405008434EF6F3112082A089E7
:102840000840A98808432989084369890843A08169
:10285000A08AA98920F440700843A0823046FEF780
:102860001FFF43F6000106F108000222C4F2010135
:102870008C424FF0190108BF06F10C0004260068D5
:102880004843A189A2EBD1312A6802FA01F1B0FBD9
:10289000F1F048F21F51C5F2EB11A0FB01235A09D8
:1028A0006FF0630302FB0300A389A6EBD336B040AD
:1028B0003230A0FB0101072040EA133080F008000D
:1028C00000EA511040EA0210208106B070BD0000FD
:1028D00080886FF35F207047FEE700002DE9F04F1E
:1028E00081B0044640F2B000C2F20000016804600A
:1028F00040F2AC00C2F2000000680091214602F0F4
:1029000063FE074640F28410C2F200003946D0E967
:1029100000A6D0F80890304603F0B4F84CF2000B53
:102920000546C4F2DA5B594602F0BEFE80465846C0
:10293000314602F0E1FE40F2AC01B8F1000F08BFF1
:102940003846C2F2000108605046214603F09AF86A
:10295000294602F039FE00990546204603F05EF94B
:102960000146484603F08EF80146284602F02CFE48
:1029700002F0B8FF01B0BDE8F08F00002DE9F0478C
:102980008CB0082001214FF00108FEF771FE0820ED
:102990000121FEF755FE40F600444FF0030909AE51
:1029A0004FF400704FF0100AC4F20004CDF82890E4
:1029B000ADF824003146CDF82CA004F5803528462A
:1029C000FEF7F0FB28464FF40071FEF799FD4FF437
:1029D000807704203146ADF824700B902846FEF72E
:1029E000E1FB01200821FEF7C3FB0020CDE90270C6
:1029F00002A8CDE904A8FEF78BFB17208DF8029002
:102A0000ADF800006846CDF80480FEF7D5FD2046FD
:102A1000FFF752F84FF6FF7006A90790472006907F
:102A20002046FFF7E5FB20460121FFF727F8204667
:102A300001210122FFF7D0FA20460021FFF726F8F6
:102A40000CB0BDE8F087000010B50446000A00F0A5
:102A5000ADF8E0B2BDE8104000F0A8B82DE9F04FA5
:102A600087B0119E074690461C460D46069100EB26
:102A70005600013882B28819013883B2384600F016
:102A8000D9FB07210122300911EA560F18BF02EBCA
:102A9000161070430028049000F08480A6F10C000A
:102AA00075083E464FF0000BC0F385015FFA85F9CB
:102AB00041EA8011A8F12000CBB246F23821C2B21F
:102AC0000020C0F600010292039301EB0211019174
:102AD00047F60821C0F6000101EB821100220091A7
:102AE000052B5FD80592DFE803F0030D5D0F5D193C
:102AF000029945F6C452C0F6000201EB410102EB17
:102B000081010CE001990AE0029946F63802C0F60C
:102B1000000201EB410102EB011100E000990844C1
:102B20004FF0000890F800A00120129900FA08F078
:102B300000EA0A0081B148B10699B0B2024689B2F2
:102B40000B4600F077FB2046FFF77EFF0136B0B260
:102B5000C01BA8420FD115E000280CBF10982046DA
:102B6000FFF772FF0BF1010B5FFA8BF0B0FBF9F18D
:102B700001FB190058B108F10108B8F1080FD3D3CF
:102B800008E000BF06983E460130069002E04FF094
:102B9000000B00BF059A0499039B013290B2814259
:102BA0003FF69EAF07B0BDE8F08F0000B0B541F62C
:102BB000000405460221C4F201042046FEF7A0FCF1
:102BC00020460821FEF79CFC68B2B0F1FF3F04DD0F
:102BD00020462021FEF794FC03E020462021FEF74A
:102BE00091FC20460821FEF78DFC20460821FEF7C7
:102BF00087FC680604D420462021FEF781FC03E010
:102C000020462021FEF77EFC20460821FEF77AFCB4
:102C100020460821FEF774FCA80604D42046202193
:102C2000FEF76EFC03E020462021FEF76BFC2046F9
:102C30000821FEF767FC20460821FEF761FCE80644
:102C400004D420462021FEF75BFC03E0204620212F
:102C5000FEF758FC20460821FEF754FC20460821C8
:102C6000FEF74EFC280704D420462021FEF748FC3E
:102C700003E020462021FEF745FC20460821FEF710
:102C800041FC20460821FEF73BFC680704D420469F
:102C90002021FEF735FC03E020462021FEF732FC20
:102CA00020460821FEF72EFC20460821FEF728FCCE
:102CB000A80704D420462021FEF722FC03E020468A
:102CC0002021FEF71FFC20460821FEF71BFC2046B2
:102CD0000821FEF715FCE80704D120462021FEF765
:102CE0000FFC03E020462021FEF70CFC20460821C3
:102CF000FEF708FC20460221BDE8B040FEF702BC0A
:102D0000242200210228C4F200020AD0042806D09E
:102D100003284FF0000006D102F5806201E002F5C1
:102D200000621088118000B270470000B0B58AB010
:102D3000112001210124FEF79BFC012001F0B2F9D2
:102D40004820ADF81C4007A909900320089041F2E3
:102D50000000C4F20100FEF725FA02200021002540
:102D6000FEF706FA0C20CDE90345CDE9050403A8DA
:102D7000FEF7CEF904208DF8060040F20620ADF8EB
:102D8000040001A80294FEF717FC0AB0B0BD0000D1
:102D900010B500F0BBF941F600041021C4F20104A3
:102DA0002046FEF7ADFB642001F04EF920461021CD
:102DB000FEF7A8FB642001F047F920464021FEF70A
:102DC000A1FB642001F040F920460421FEF798FBA6
:102DD0001120FFF7EBFE20460421FEF793FB78203D
:102DE00001F032F920460421FEF78AFB3620FFF776
:102DF000DDFE20460421FEF785FB0020FFF7D6FE0E
:102E000020460421FEF77CFB3A20FFF7CFFE204648
:102E10000421FEF777FB0520FFF7C8FE20460421BA
:102E2000FEF76EFBB220FFF7C1FE20460421FEF73D
:102E300069FB0C20FFF7BAFE0C20FFF7B7FE00205D
:102E4000FFF7B4FE3320FFF7B1FE3320FFF7AEFEED
:102E500020460421FEF754FBB720FFF7A7FE2046CB
:102E60000421FEF74FFB3520FFF7A0FE204604218A
:102E7000FEF746FBBB20FFF799FE20460421FEF734
:102E800041FB3220FFF792FE20460421FEF738FB7B
:102E9000C220FFF78BFE20460421FEF733FB012002
:102EA000FFF784FE20460421FEF72AFBC320FFF72C
:102EB0007DFE20460421FEF725FB1520FFF776FE58
:102EC00020460421FEF71CFBC420FFF76FFE2046BE
:102ED0000421FEF717FB2020FFF768FE204604219F
:102EE000FEF70EFBC620FFF761FE20460421FEF729
:102EF00009FB0F20FFF75AFE20460421FEF700FBD6
:102F0000D020FFF753FE20460421FEF7FBFAA42051
:102F1000FFF74CFEA120FFF749FE20460421FEF7F3
:102F2000EFFAE020FFF742FE20460421FEF7EAFA1E
:102F3000D020FFF73BFE0820FFF738FE0E20FFF7FA
:102F400035FE0920FFF732FE0920FFF72FFE05208E
:102F5000FFF72CFE3120FFF729FE3320FFF726FE76
:102F60004820FFF723FE1720FFF720FE1420FFF76D
:102F70001DFE1520FFF71AFE3120FFF717FE342043
:102F8000FFF714FE20460421FEF7BAFAE120FFF70E
:102F90000DFE20460421FEF7B5FAD020FFF706FE0D
:102FA0000820FFF703FE0E20FFF700FE0920FFF7C1
:102FB000FDFD0920FFF7FAFD1520FFF7F7FD312091
:102FC000FFF7F4FD3320FFF7F1FD4820FFF7EEFD9A
:102FD0001720FFF7EBFD1420FFF7E8FD1520FFF7A2
:102FE000E5FD3120FFF7E2FD3420FFF7DFFD20464D
:102FF0000421FEF785FA2120FFF7D8FD20460421A1
:10300000FEF780FA20460421FEF77AFA2920FFF71E
:10301000CDFD20460421BDE81040FEF773BA000044
:10302000F0B58BB041F218000124C4F2020001682F
:1030300041F045010160012001F034F80820012130
:10304000FEF7FEFA45200121FEF712FB4020012188
:10305000FEF70EFB102008AE03270A90ADF82040C3
:1030600040F6004431460997C4F2000404F5863561
:103070002846FEF797F828460121FEF743FA042078
:103080000121FEF7F5FA182031460A900F20ADF81D
:10309000200004F57C400997FEF784F84FF47A701D
:1030A00005A90690472005902046FFF7A1F80020CB
:1030B00001ADADF80C0060202946C0F2010001907E
:1030C0002046FEF791FF20460821FEF7C7FF204665
:1030D0002946FEF7C9FF20460821FFF703F82046DE
:1030E0002946FFF707F820460821FFF741F8204658
:1030F0002946FFF743F820460821FFF76FF82046DE
:103100000121FEF7C3FC0BB0F0BD000070B584B028
:1031100040200121FEF7ACFA41F6000410260220FF
:1031200001AD0396ADF804000320C4F20104294662
:1031300002902046FEF736F820460221FEF7E2F91B
:1031400028202946ADF804002046FEF72BF820463B
:103150002821FEF7D7F944202946ADF8040020467F
:10316000FEF720F8204648F22001FEF7CBF9204672
:103170002946ADF80460FEF715F820461021FEF749
:10318000C1F904B070BD0000704700002DE9F04F98
:1031900083B00D4611789B460646B1B1DDE90C9A25
:1031A000DDF83880571C4FEA5A0400BFCAB2B0B2EB
:1031B00029465B46CDE9009ACDF80880FFF74EFC22
:1031C00017F8011B26440029F0D103B0BDE8F08FA9
:1031D00070470000B0B584B070200121FEF748FAB6
:1031E000102041F6000401AD03904FF44160C4F299
:1031F00001042946ADF8040003200290A4F5806084
:10320000FDF7D0FF4FF480502946ADF80400A4F537
:103210000060FDF7C7FF4FF480602946ADF8040059
:103220002046FDF7BFFF20464FF48061FEF76AF9A4
:1032300004B0B0BD2DE9F04141F600040E4605464C
:10324000042198461746C4F201042046FEF758F9B7
:103250002A20FFF7ABFC20460421FEF753F9280A89
:10326000FFF7A4FCE8B2FFF7A1FC380AFFF79EFCC9
:10327000F8B2FFF79BFC20460421FEF741F92B2012
:10328000FFF794FC20460421FEF73CF9300AFFF7D3
:103290008DFCF0B2FFF78AFC4FEA1820FFF786FC9E
:1032A0005FFA88F0FFF782FC20460421FEF728F938
:1032B0002C20FFF77BFC20460421BDE8F041FEF7FF
:1032C00021B90000F0B58BB041F21800C4F2020041
:1032D000016841F400610160012000F0E3FE42F664
:1032E0003C4601200027C4F201063780B78000F079
:1032F000D9FEC0200121C0F21600FEF7C3F84FF43A
:1033000000600121FEF7B4F941200121FEF7B0F978
:10331000032042F6004408A909901820C4F20104D1
:103320000A904FF4C040ADF82000A4F5A050FDF77E
:1033300039FF41F61F4005A9CDE905702046FEF78B
:1033400057FF602001ADC0F20100294601902046E0
:10335000CDF80A70FEF7CEFE20460821FEF708FFE2
:1033600020462946FEF70AFF20460821FEF736FFD1
:1033700020460121FEF794FB20460121FEF774FB55
:1033800020460121FEF782FB3780B7800BB0F0BDED
:1033900010B540F600444FF40071C4F20104204619
:1033A000FEF7B0F8142000F07DFE20464FF40071C7
:1033B000FEF7A6F8002010BDB0B58AB002200121AA
:1033C000FEF73EF910200121FEF752F940F60040C9
:1033D0000121C0F21A00FEF755F840F20044042023
:1033E00001A90390C020C4F20004ADF8040004F564
:1033F0008630FDF7D7FE07AD2846FEF74FFF4FF6A4
:10340000FF7029460890002007902046FEF7F0FE46
:103410002046032100220023FEF766FC04AD284667
:10342000FEF7D4FD0A202946ADF818002046FEF725
:1034300083FC20460121FEF721FB204601210122C9
:10344000FEF7CAFD20460021FEF7D0FE20460121EE
:10345000FEF71CFB0AB0B0BDB0B58AB00420012154
:103460000424FEF7EDF820200121FEF701F94FF4C6
:1034700080500121FEF706F8039440F600044FF453
:10348000405001A9C4F20004ADF8040004F58630F0
:10349000FDF788FE07AD2846FEF700FF4FF6FF70E8
:1034A00029460890002007902046FEF7A1FE2046FE
:1034B000032100220023FEF717FC04AD2846FEF787
:1034C00085FD0A202946ADF818002046FEF734FC99
:1034D00020460121FEF7D2FA204601210122FEF703
:1034E0007BFD20460021FEF781FE20460121FEF7EC
:1034F000CDFA0AB0B0BD000048F2A81141F658322A
:10350000C4F2222190420EDC4EF2A842CFF6FF72A6
:10351000904205DA0120524248600020086006E02F
:1035200001280ADB0246002048600120086042F6BC
:103530003C40C4F201000280704700280246E9D1F5
:1035400000224A600A60F2E740F2B01148F290129D
:1035500041F65833C4F22221C4F2222298420EDCF2
:103560004EF2A843CFF6FF73984205DA01205B4282
:1035700010600020086006E001280ADB03460020F6
:1035800010600120086042F64040C4F20100038050
:10359000704700280346E9D1002313600B60F2E76F
:1035A0002DE9F04798B000200021EF22EF230024FE
:1035B000FFF740FE002500BF4FF6FF70FFF744FA0B
:1035C0000135A8B2F028F7D30134A0B2F028F1D326
:1035D00042F2200043F6722146F2382900254D249C
:1035E0000DF120080A9042F23A00C2F22001C0F622
:1035F0000009C2F22000069146F26511099046F6D4
:103600004D70C6F26451C6F26450059147F24931DB
:10361000089042F22000C4F65F41C0F220000790FB
:10362000CDE9030143F66420C2F22000029047F284
:103630005300C6F26550019045F00701A8B20F2370
:1036400000278AB20021FFF7F5FDA4F12000C0B2E7
:1036500009EB0014E65D16F0010F0CBF4FF6FF708A
:103660004FF47840FFF7F0F9B00754BF4FF6FF7002
:103670004FF47840FFF7E8F9700754BF4FF6FF703A
:103680004FF47840FFF7E0F9300754BF4FF6FF7072
:103690004FF47840FFF7D8F9F00654BF4FF6FF70AB
:1036A0004FF47840FFF7D0F9B00654BF4FF6FF70E3
:1036B0004FF47840FFF7C8F9700654BF4FF6FF701B
:1036C0004FF47840FFF7C0F9300654BF4FF6FF7053
:1036D0004FF47840FFF7B8F90137102FBAD118F836
:1036E000014F0835002CA7D1002549240DF1100801
:1036F00045F00701A8B21F238AB21021FFF79AFDF7
:10370000A4F120000024C0B209EB00173E5D16F0C2
:10371000010F0CBF4FF6FF704FF47840FFF794F99C
:10372000B00754BF4FF6FF704FF47840FFF78CF9A5
:10373000700754BF4FF6FF704FF47840FFF784F9DD
:10374000300754BF4FF6FF704FF47840FFF77CF915
:10375000F00654BF4FF6FF704FF47840FFF774F94E
:10376000B00654BF4FF6FF704FF47840FFF76CF986
:10377000700654BF4FF6FF704FF47840FFF764F9BE
:10378000300654BF4FF6FF704FF47840FFF75CF9F6
:103790000134102CBAD118F8014F0835002CA7D1EC
:1037A000002553240DF1040845F00701A8B22F238A
:1037B0008AB22021FFF73EFDA4F120000024C0B210
:1037C00009EB00173E5D16F0010F0CBF4FF6FF70BE
:1037D0004FF47840FFF738F9B00754BF4FF6FF7049
:1037E0004FF47840FFF730F9700754BF4FF6FF7081
:1037F0004FF47840FFF728F9300754BF4FF6FF70B9
:103800004FF47840FFF720F9F00654BF4FF6FF70F1
:103810004FF47840FFF718F9B00654BF4FF6FF7029
:103820004FF47840FFF710F9700654BF4FF6FF7061
:103830004FF47840FFF708F9300654BF4FF6FF7099
:103840004FF47840FFF700F90134102CBAD118F882
:10385000014F0835002CA7D10120FFF795FC3A2035
:1038600000256C240DF12C08ADF8300046F26C50A8
:10387000C7F266400B9000BF45F00701A8B23F2396
:103880008AB23021FFF7D6FCA4F120000024C0B298
:1038900009EB00173E5D16F0010F0CBF4FF6FF70ED
:1038A0004FF47840FFF7D0F8B00754BF4FF6FF70E1
:1038B0004FF47840FFF7C8F8700754BF4FF6FF7019
:1038C0004FF47840FFF7C0F8300754BF4FF6FF7051
:1038D0004FF47840FFF7B8F8F00654BF4FF6FF708A
:1038E0004FF47840FFF7B0F8B00654BF4FF6FF70C2
:1038F0004FF47840FFF7A8F8700654BF4FF6FF70FA
:103900004FF47840FFF7A0F8300654BF4FF6FF7031
:103910004FF47840FFF798F80134102CBAD118F81A
:10392000014F0835002CA7D143F6742000257224DE
:103930000DF12C08ADF8300046F672108DF83250BB
:10394000C6F667000B9000BF45F00701A8B24F23F1
:103950008AB24021FFF76EFCA4F120000024C0B21F
:1039600009EB00173E5D16F0010F0CBF4FF6FF701C
:103970004FF47840FFF768F8B00754BF4FF6FF7078
:103980004FF47840FFF760F8700754BF4FF6FF70B0
:103990004FF47840FFF758F8300754BF4FF6FF70E8
:1039A0004FF47840FFF750F8F00654BF4FF6FF7021
:1039B0004FF47840FFF748F8B00654BF4FF6FF7059
:1039C0004FF47840FFF740F8700654BF4FF6FF7091
:1039D0004FF47840FFF738F8300654BF4FF6FF70C9
:1039E0004FF47840FFF730F80134102CBAD118F8B2
:1039F000014F0835002CA7D146F6674845F64C70B4
:103A000000264C240DF12C0AC3F66528C6F6616029
:103A10008DF83460CDF830800B9000BF46F0070180
:103A2000B0B25F238AB25021FFF704FCA4F120005A
:103A30000024C0B209EB00152F5D17F0010F0CBF79
:103A40004FF6FF704FF47840FEF7FEFFB80754BF03
:103A50004FF6FF704FF47840FEF7F6FF780754BF3B
:103A60004FF6FF704FF47840FEF7EEFF380754BF73
:103A70004FF6FF704FF47840FEF7E6FFF80654BFAC
:103A80004FF6FF704FF47840FEF7DEFFB80654BFE4
:103A90004FF6FF704FF47840FEF7D6FF780654BF1C
:103AA0004FF6FF704FF47840FEF7CEFF380654BF54
:103AB0004FF6FF704FF47840FEF7C6FF0134102C2C
:103AC000BAD11AF8014F0836002CA7D145F652702A
:103AD0000026CDF8308052240DF12C08C6F6616026
:103AE0008DF834600B9000BF46F00701B0B26F2331
:103AF0008AB26021FFF79EFBA4F120000024C0B22F
:103B000009EB00173D5D15F0010F0CBF4FF6FF707C
:103B10004FF47840FEF798FFA80754BF4FF6FF70A8
:103B20004FF47840FEF790FF680754BF4FF6FF70E0
:103B30004FF47840FEF788FF280754BF4FF6FF7018
:103B40004FF47840FEF780FFE80654BF4FF6FF7051
:103B50004FF47840FEF778FFA80654BF4FF6FF7089
:103B60004FF47840FEF770FF680654BF4FF6FF70C1
:103B70004FF47840FEF768FF280654BF4FF6FF70F9
:103B80004FF47840FEF760FF0134102CBAD118F8DA
:103B9000014F0836002CA7D143F64D2000254C24B8
:103BA0000DF12C08ADF8300045F64C708DF8325010
:103BB000C5F250700B9000BF45F00701A8B27F23FB
:103BC0008AB27021FFF736FBA4F120000024C0B2B6
:103BD00009EB00173E5D16F0010F0CBF4FF6FF70AA
:103BE0004FF47840FEF730FFB00754BF4FF6FF7038
:103BF0004FF47840FEF728FF700754BF4FF6FF7070
:103C00004FF47840FEF720FF300754BF4FF6FF70A7
:103C10004FF47840FEF718FFF00654BF4FF6FF70E0
:103C20004FF47840FEF710FFB00654BF4FF6FF7018
:103C30004FF47840FEF708FF700654BF4FF6FF7050
:103C40004FF47840FEF700FF300654BF4FF6FF7088
:103C50004FF47840FEF7F8FE0134102CBAD118F872
:103C6000014F0835002CA7D143F64D2000255224E2
:103C70000DF12C08ADF8300045F652708DF8325039
:103C8000C5F250700B9000BF45F00701A8B28F231A
:103C90008AB28021FFF7CEFAA4F120000024C0B23E
:103CA00009EB00173E5D16F0010F0CBF4FF6FF70D9
:103CB0004FF47840FEF7C8FEB00754BF4FF6FF70D0
:103CC0004FF47840FEF7C0FE700754BF4FF6FF7008
:103CD0004FF47840FEF7B8FE300754BF4FF6FF7040
:103CE0004FF47840FEF7B0FEF00654BF4FF6FF7079
:103CF0004FF47840FEF7A8FEB00654BF4FF6FF70B1
:103D00004FF47840FEF7A0FE700654BF4FF6FF70E8
:103D10004FF47840FEF798FE300654BF4FF6FF7020
:103D20004FF47840FEF790FE0134102CBAD118F809
:103D3000014F0835002CA7D13A20782556240DF1E3
:103D40002C08ADF8300044F25640C4F244100B90F9
:103D500008E000BF18F8014F0835002C04BF18B068
:103D6000BDE8F08745F00701A8B20F2300278AB20B
:103D70000021FFF75FFAA4F12000C0B209EB0014A4
:103D8000E65D16F0010F0CBF4FF6FF704FF4784060
:103D9000FEF75AFEB00754BF4FF6FF704FF478405D
:103DA000FEF752FE700754BF4FF6FF704FF4784095
:103DB000FEF74AFE300754BF4FF6FF704FF47840CD
:103DC000FEF742FEF00654BF4FF6FF704FF4784006
:103DD000FEF73AFEB00654BF4FF6FF704FF478403E
:103DE000FEF732FE700654BF4FF6FF704FF4784076
:103DF000FEF72AFE300654BF4FF6FF704FF47840AE
:103E0000FEF722FE0137102FBAD1A3E710B584B018
:103E100004200121FDF72CFC102040F6000401A92C
:103E200003900820C4F20104ADF8040003200290BE
:103E30002046FDF7B7F920460821FDF761FB04B0E5
:103E400010BD00002DE9F04F85B0049101F086FD12
:103E5000054640F2B80040F2B404C2F20000C2F2DB
:103E600000040168056020680391294601F0ACFB5D
:103E70008046206040F22410C2F2000001680091E8
:103E800041688068019102900420FEF739FF40F2FA
:103E90007C07C2F2000738600320FEF731FF40F2D2
:103EA000A0014042C2F20001086001F04CFA002378
:103EB0000022C4F2690301F05DFA46F20006002216
:103EC000C4F29806334601F0B7F845F2EC194EF605
:103ED000853AC1F6B869C3F6B17A4A46534601F04D
:103EE00049FA48F21F5B41F6B864C5F2EB1BC4F215
:103EF00009045A46234601F03DFA01F06BF840F2FE
:103F0000A4013F68C2F200010860C820784301F0B4
:103F10001AFA0022334601F08FF84A4653464E46BD
:103F2000D14601F027FA5A462346DA46A34601F065
:103F300021FA01F04FF840F28001C2F2000108605E
:103F40000098294601F09EFD04460198414601F083
:103F500099FD0146204601F037FB039904462846A7
:103F600001F05CFE0146029801F08CFD01462046FE
:103F700001F02AFB01F0B6FC0546049801F0F8FABE
:103F800052465B4601F058F832464B4601F054F871
:103F900046F200030022C4F2980301F0EBF941F26B
:103FA0007B4247F6E123C4F2AE72C3F6747301F0AC
:103FB000E1F901F099F90446C01B01F0CFFCFEF7CE
:103FC0008DFC461B40F2A000C2F200000068201ADF
:103FD00001F0C4FCFEF782FC40F2740440F2980148
:103FE0002844C2F20004C2F2000126600860FFF714
:103FF000ABFA206805B0BDE8F04FFFF77DBA0000CE
:104000007047000080B56FF00400FDF729FC40F216
:1040100004004DF6836140F2FA02C2F20000C4F2DD
:104020001B31C2F200020068A0FB0101480D1070B4
:10403000C1F347504FF47A71484340F2F801C2F29D
:104040000001088080BD000040F2F801C2F20001CA
:10405000098841434EF21000CEF200004160002179
:104060008160016841F00101016000BF016801F059
:10407000011101290ED1016801F00111012909D1B5
:10408000016801F00111012904D1016801F0011159
:104090000129EBD0016821F001010160002181605C
:1040A0007047000040F2FA01C2F200010978414372
:1040B0004EF21000CEF200004160002181600168E4
:1040C00041F00101016000BF016801F00111012907
:1040D0000ED1016801F00111012909D1016801F037
:1040E0000111012904D1016801F001110129EBD06E
:1040F000016821F00101016000218160704700002A
:104100002DE9F04389B00446042001214FF0040951
:104110004FF00108FDF7ACFA4FF480400121FDF7A4
:10412000A7FA43F60005032006AF07904FF400708E
:10413000C4F201053946ADF818001820A5F540561F
:1041400008903046FDF72EF84FF48060CDF82090AF
:104150003946ADF818003046FDF724F805208DF8F3
:1041600002002520ADF800006846CDF80480FDF778
:1041700023FA0020029402A90390ADF814004FF432
:10418000402004902846FEF74DFB284640F225517A
:104190000122FEF72FFB28460121FEF7FFFA09B0A6
:1041A000BDE8F0832DE9F0418AB004464FF4802049
:1041B00001214FF00108FDF743FA20200121FDF70E
:1041C00057FA30200121C0F21400FDF75BF944F6E4
:1041D0000005022007AF08904FF48070C4F200057C
:1041E0003946ADF81C00182005F54C4609903046BC
:1041F000FCF7D8FF0420394609904FF40070ADF861
:104200001C003046FCF7CEFF002627208DF8066004
:10421000ADF8040001A8CDF80880FDF7CDF94FF402
:104220004020CDE90346ADF8186003A90590284663
:10423000FEF7F8FA284640F225510122FEF7DAFA95
:1042400028460121FEF7AAFA0AB0BDE8F081000075
:104250002DE9F04F89B0FDF711FB0920FDF778FA41
:10426000FFF7D0FE01200124FDF78EF940F2840013
:10427000C2F20000FDF714FA4FF44070FDF7CCF9DC
:10428000FEF7CEFEFFF7C2FDFEF7A2FFFEF780FDB0
:10429000FFF786F9FEF74AFDFCF772FE4FF4165061
:1042A000FFF72EFFFFF788F8FFF7D6F8FFF70AF8B9
:1042B000FEF790FF01200121FDF7C2F9312006A988
:1042C000079041F61F4006904FF08040FDF790FFA9
:1042D0004FF0804001210122FDF77EFE03208DF882
:1042E00012004FF48E70ADF8100004A80594FDF78D
:1042F00063F94FF080400121FDF7C8FBFEF790FE07
:10430000FEF746FDFEF712FDFEF738FB4FF41650A0
:10431000FFF748FF40F28411002040F29818002275
:104320001027C2F20008C2F20001C4F2C820C1E99D
:10433000000200BF40F20C1040F2780240F2CC0ABA
:10434000C2F20000C2F20002C2F2000A0146006896
:104350004968106040F29C00C2F2000001609AE8D7
:104360002108DAF80C9000F0EEFF00230022C4F2DE
:10437000240300F061FE00F02DFE40F22411C2F291
:104380000001086028460E4600F0DDFF48F60003F5
:104390000022C4F2C30300F04FFE00F01BFE706069
:1043A000584600F0D0FF00240022C4F259042346EE
:1043B00000F042FE00F00EFEB060484600F0C3FF81
:1043C0000022234600F038FE00F004FE40F20C0903
:1043D000C2F20009C9F80000DAF8180000F0B3FFD3
:1043E0000022234600F028FE00F0F4FD40F2841580
:1043F000C2F200052860DAF81C00AB4600F0A3FF0B
:104400000022234600F018FE00F0E4FD6860DAF8B0
:10441000200000F098FF0022234600F00DFE00F07F
:10442000D9FDA8600C200521FDF76EF801F0A0F879
:1044300046F266634FF06632C4F20A0300F09AFF58
:1044400000230022C4F2260300F094FF49F69A12DA
:1044500049F69913C9F69912C3F6F17300F08AFF71
:1044600000230022C3F6307300F084FF00F0B2FD99
:1044700040F2A80A49F2C815C2F2000AC0F60005C7
:10448000CAF8000040F208102946C2F20000026893
:104490004046FBF7D3FE4FF6FF7A00242820002188
:1044A00042461F23CDE900A70294FEF76FFE40F2BB
:1044B00008002946C2F2000002684046FBF7BEFE33
:1044C0005020102142461F23CDE900A70294FEF799
:1044D0005DFED9F8000001F04BF802460B4640465D
:1044E000B0A1FBF7ABFE3020202142461F23CDE9CF
:1044F00000A70294FEF74AFE40F27C0049F2CF1575
:10450000C2F20000C0F60005026840462946FBF7EB
:1045100095FE3020302142461F23CDE900A70294AA
:10452000FEF734FE40F2A0002946C2F20000026805
:104530004046FBF783FE3020402142461F23CDE951
:1045400000A70294FEF722FE40F28000C2F20000B3
:10455000006801F00DF849F2DD1502460B464046B1
:10456000C0F600052946FBF769FE78203021424657
:104570001F23CDE900A70294FEF708FE40F2A40035
:10458000C2F20000006800F0F3FF02460B4640460E
:104590002946FBF753FE7820402142461F23CDE9F0
:1045A00000A70294FEF7F2FD40F2780049F2CB1525
:1045B000C2F20000C0F60005026840462946FBF73B
:1045C0003DFE4020502142461F23CDE900A7029422
:1045D000FEF7DCFD40F29C002946C2F200000268B2
:1045E0004046FBF72BFE4020602142461F23CDE9C9
:1045F00000A70294FEF7CAFD40F2740049F2D315F9
:10460000C2F20000C0F60005026840462946FBF7EA
:1046100015FE3020702142461F23CDE900A70294E9
:10462000FEF7B4FD40F298002946C2F2000002688D
:104630004046FBF703FE3020802142461F23CDE990
:1046400000A70294FEF7A2FD306800F091FF49F246
:10465000D71502460B464046C0F600052946FBF733
:10466000EDFD0020902142461F23CDE900A70294D2
:10467000FEF78CFD706800F07BFF02460B4640465B
:104680002946FBF7DBFD5020902142461F23CDE950
:1046900000A70294FEF77AFDB06800F069FF0246B9
:1046A0000B4640462946FBF7C9FDA0209021424613
:1046B0001F23CDE900A70294FEF768FDDBF8000098
:1046C00000F056FF02460B4640462946FBF7B6FD72
:1046D0000020A02142461F23CDE900A70294FEF747
:1046E00055FDDBF8040000F043FF02460B46404650
:1046F0002946FBF7A3FD5020A02142461F23CDE908
:1047000000A70294FEF742FDDBF8080000F030FF3E
:1047100002460B4640462946FBF790FDA020A0210B
:1047200042461F23CDE900A70294FEF72FFD40F279
:10473000A800C2F20000006800F01AFF02460B4613
:1047400040461AA1FBF77AFDA020002142461F2314
:10475000CDE900A70294FEF719FD40F231120020C6
:10476000D0211F23CDE900A70294C2F20002FEF778
:104770000DFDFEF70DFE40F20410C2F200000068CD
:1047800000F0F6FE02460B4640462946FBF756FD72
:104790000020E02142461F23CDE900A70294FEF746
:1047A000F5FCC7E525332E316600000025322E3298
:1047B000660000005FEA400C08BF91F0000F4FEA6E
:1047C0008C234FEAC12243EA51514FEA1C5018BFD3
:1047D00000F5F0404FEA300018BF41F000415FEAB9
:1047E0006C5C00F02980BCF1FF3F08BF40F08040C6
:1047F0007047130C06BF12044FF0100C4FF0000C62
:10480000130E04BF12020CF1080C130F04BF1201A7
:104810000CF1040C930F04BF92000CF1020CD30FA7
:1048200004BF52000CF1010C11464FF00002A0F140
:104830001F00A0EB0C00704711F0004F08BF70473D
:1048400031F000413FF4D5AF0B0C06BF09044FF027
:10485000100C4FF0000C0B0E04BF09020CF1080CF9
:104860000B0F04BF09010CF1040C8B0F04BF89006E
:104870000CF1020CCB0F04BF49000CF1010CCCF180
:10488000200322FA03F341EA030102FA0CF2A0EB3F
:104890000C0000F10100704723F07F4720F07F4CAF
:1048A00080EA030000F00040ACEB070303F57C5303
:1048B00003F1FF032DE9804909B44FEA144324EAC8
:1048C00003484FEA154B25EA0B4E0FF2042606EB80
:1048D00013273E7803FB0667C7F5000707FB06F6BC
:1048E0004FEAD64606F102064FEA543707FB066C3C
:1048F000CCF1005C4FEA1C472CEA074C0CFB06F598
:1049000007FB06F404EB15464FEA961649085FEAE2
:10491000320234BF00204FF000404FEAD13706FB8F
:1049200007FC4FEA1C4C0CFB0BF7D21B03FB0CF7EC
:1049300061EB07010CFB0EF7B0EB074072EB17427F
:104940000CFB08F734BFA2EB0742B2EB074261EB66
:1049500017414FEA0C444FEA910706FB07FC4FEA68
:104960001C4C0CFB0BF7B0EBC74072EB573203FB50
:104970000CF734BFA2EBC742B2EBC74261EB573131
:104980000CFB0EF7B0EBC70072EB57720CFB08F78D
:1049900034BFA2EBC702B2EBC70261EB57714FEA1B
:1049A000816141EA92114FEA826242EA90124FEA33
:1049B000806004EBCC04039F4FEAD13706FB07FC71
:1049C0004FEA1C4C0CFB0BF7D21B03FB0CF761EB03
:1049D00007010CFB0EF7B0EB074072EB17420CFB24
:1049E00008F734BFA2EB0742B2EB074261EB174175
:1049F0004FEA8C5504EB9C244FEA910706FB07FC19
:104A00004FEA1C4C0CFB0BF7B0EBC74072EB573274
:104A100003FB0CF734BFA2EBC742B2EBC74261EB1A
:104A200057310CFB0EF7B0EBC70072EB57720CFB63
:104A300008F734BFA2EBC702B2EBC70261EB5771B4
:104A40004FEA816141EA92114FEA826242EA901292
:104A50004FEA806015EB4C2544F100044FEAD13752
:104A600006FB07FC4FEA1C4C0CFB0BF7D21B03FBAD
:104A70000CF761EB07010CFB0EF7B0EB074072EB94
:104A800017420CFB08F734BFA2EB0742B2EB074218
:104A900061EB17414FEA813141EA92414FEA82329C
:104AA00042EA90424FEA80304FEA0C7615EB1C1533
:104AB00044F1000448EA03434EEA0B484FF0000E6D
:104AC000B2EB080C71EB030724BF624639464EEB8C
:104AD0000E0E4FF0000B0018524149414BEB0B0BEF
:104AE000B2EB080C71EB03077BF1000B24BF6246AD
:104AF00039464EEB0E0E4FF0000B00185241494163
:104B00004BEB0B0BB2EB080C71EB03077BF1000BCB
:104B100024BF624639464EEB0E0E51EA020718BF1B
:104B200046F0010616EB0E7655F1000254F1000135
:104B300003D5BDE88901BDE80088BDE88901BDE86D
:104B40000048B619524141EB0101A3F1010370473E
:104B500080807F7E7D7C7B7A7978777676757473BA
:104B6000727171706F6E6E6D6C6C6B6A6A69686879
:104B7000676666656464636362616160605F5F5E0F
:104B80005E5D5D5C5C5B5B5A5A5959585857575685
:104B900056555555545453535252525151505050EA
:104BA0004F4F4F4E4E4D4D4D4C4C4C4B4B4B4A4A3C
:104BB0004A49494948484847474747464646454580
:104BC00045444444444343434342424242414141B9
:104BD0009C46002B30D477002BD04FEA37071CB50A
:104BE00003B44FF010004FF01001BAF1000F06D0DF
:104BF000BCF1000FDCBF40F0080040F008014FF0AE
:104C000000000FBCBDE810400BF1010BBBF1010F20
:104C100008BF5FEA170722BF12F1010211F101017B
:104C20004FF0004143F1000300F0004043EA000070
:104C30007047F9D35708D0E746EA06464FEA1646CA
:104C400013F1400F1FDD13F1200FDFBF16430A469B
:104C5000002120335B42BED0C3F1200746EA06465E
:104C60004FEA164602FA07F746EA070622FA03F267
:104C7000C3F1200701FA07F742EA070221FA03F11C
:104C80004FF00003A7E746EA020646EA06464FEA67
:104C9000164646EA0106BCBF46EA0646360C4FF009
:104CA00000034FF000024FF0000194E72DE9804C23
:104CB00070B49A46934691E8380007C831EA400C30
:104CC00048BF34EA430C03D5FFF7E6FDFFF780FF4A
:104CD000F0BCBDE8008C2DE9804C70B49A46934638
:104CE00091E8380007C810F0804F08BF13F0804FDC
:104CF00003D100F005F8FFF76BFFF0BCBDE8008CB6
:104D000020F07F4723F07F4C80EA030000F0004052
:104D100007EB0C03A3F57C53A3F1FE0392F0000F05
:104D200000F0B38095F0000F00F077802DE9014985
:104D30004FEA114021EA00484FEA144624EA0647A8
:104D400000FB06FC08FB06F607FB08F818EB064814
:104D50004CEB164C00FB07F718EB07484CEB1740E1
:104D60004FEA124B22EA0B4E4FEA154625EA064758
:104D70000BFB06FC0EFB06F607FB0EFE1EEB064EBB
:104D80004CEB164C0BFB07F71EEB074E4CEB174B8F
:104D900018EB0B0840F1000018EB0E0B58EB000865
:104DA00040F100008F1A4FF000014FF000063CBFA9
:104DB000C943661B14BFB5EB040C00213CBFC943BB
:104DC000F61B4FEA174427EA04454FEA1C472CEA32
:104DD000074C04FB076205FB07F70CFB05F616EB17
:104DE000074642EB174204FB0CFC16EB0C4642EB69
:104DF0001C421BEB060658EB020241414EEA8E0EA6
:104E000046EA9E0601D5BDE80189B619524141EB3B
:104E10000101A3F10103BDE801894FEA144524EA29
:104E200005464FEA114721EA074C05FB07F406FB4C
:104E300007F70CFB06F111EB074144EB174405FBA8
:104E40000CFC11EB0C4144EB1C444FEA124722EAE4
:104E5000074C05FB07F206FB07F70CFB06F616EB03
:104E6000074642EB174205FB0CFC16EB0C4642EBE7
:104E70001C456A1854F1000148BF7047B6195241E9
:104E800041EB0101A3F10103704795F0000F37D00A
:104E90004FEA114221EA02464FEA144724EA074C3E
:104EA00002FB07F106FB07F70CFB06F414EB0744C3
:104EB00041EB174102FB0CFC14EB0C4441EB1C4191
:104EC0004FEA154725EA074C02FB07F506FB07F7F3
:104ED0000CFB06F616EB074645EB174502FB0CFCF0
:104EE00016EB0C4645EB1C42121951F1000148BF6C
:104EF0007047B619524141EB0101A3F1010370471C
:104F00004FEA144524EA05464FEA114721EA074CC7
:104F100005FB07F106FB07F70CFB06F212EB074255
:104F200041EB174105FB0CFC12EB0C4251EB1C4111
:104F30004FF0000648BF7047921841EB0101A3F102
:104F400001037047490050EAC12018BF04204A0DF0
:104F500018BF40F0010040F2FF72B2EB515F08BF92
:104F600040F00200012808BF0520704730380A28A9
:104F700001D20120704700207047000010B50029C1
:104F80000AD00878002807D005487844FBF7F8FED7
:104F9000002801D0002010BD0248784410BD000058
:104FA0007A4200007242000010B500290AD0087849
:104FB000002807D005487844FBF7E2FE002801D01E
:104FC000002010BD0248784410BD00006A42000075
:104FD0006242000021F0004201F00043A2F1605261
:104FE000B2F5801F28BFD2F17F6C0BD95FEA001C9D
:104FF00043EAC20242EB507018BF704728BF20F04E
:1050000001007047B2F5801FBCBF184670474FEAD9
:10501000410C1CF5001F02D2084600F0FABD70B525
:1050200000F052FA00000089FFF7F6BF4FF0004091
:10503000A0F58000704700002DE9C04130B4DFF8D2
:10504000A0C23CEA111418BF3CEA131400F0EC8033
:105050001CEA111481EA030544EAD57418BF1CEA5E
:10506000131500F0C780A4EB050404F17F7404F568
:1050700000344FF0004545EAC12145EAC32341EA27
:10508000505143EA52534FEAC0204FEAC22299429C
:1050900008BF904200F09C804FEA13650FF2401663
:1050A000765D4FEA134506FB05F7C7F1807706FBEF
:1050B00007F74FEAD737A7FB03687642A7FB06CE70
:1050C000C8F5803838BFA8F1010807FB08E6A6FB41
:1050D000028C4FF0000EE6FB03CEDCF1000CCEF1AB
:1050E000004E38BFAEF1010EA6FB0C584FF0000782
:1050F000E6FB0E87A1FB08C6A0FB07CE16EB0E064B
:105100004FF0000545F10005E1FB076515F1E04EA4
:105110007EBFA4F580345FEA46066D4116F1800734
:1051200045F100054FEA172747EA05674FEA1525BD
:105130004FEA0666A6F1DE46B6F1805F1FD9384613
:1051400005EBC47124F0010C01EB0C11BCF1FE6FF6
:1051500002D8F0BCBDE8008124425CBF01F5801E8E
:105160009EEAC47F02D4F0BCBDE80081244238D45A
:10517000A1F1C041F0BCBDE8004100F0F3B94FEA35
:10518000D02040EA41504FEAD1214FEAD22242EAF0
:1051900043524FEAD323A7FB028607FB036605FBB6
:1051A00002661EEA0E0F58BFA6EB0056B6EB00567D
:1051B0004FEA520E4EEAC37E18EB0E0E56EB530E1C
:1051C000BDD518EB02085E417F1C55F10005B6E71E
:1051D0004FF480154FF000074FF000064FF0000825
:1051E000ADE701F1C04101F000414FF00000F0BC1B
:1051F000BDE800810CEA131511EA0C1F00D00CE089
:1052000013EA0C1F00F025804FF0000081EA030133
:1052100001F00041F0BCBDE80081F0BCBDE80041F8
:1052200081EA030100F09EB9F0BCBDE8004170B511
:1052300000F04AF9097EFC3E00F007B84FF000008C
:1052400081EA030101F00041704781EA030100F0A7
:1052500089B9F0BCBDE8004122494FF00000704719
:10526000FFFDFBF9F7F5F4F2F0EEEDEBE9E8E6E42B
:10527000E3E1E0DEDDDBDAD8D7D5D4D3D1D0CFCDB2
:10528000CCCBCAC8C7C6C5C4C2C1C0BFBEBDBCBBEB
:10529000BAB9B8B7B6B5B4B3B2B1B0AFAEADACABE6
:1052A000AAA9A8A8A7A6A5A4A3A3A2A1A09F9F9EC0
:1052B0009D9C9C9B9A999998979796959594939372
:1052C000929191908F8F8E8E8D8C8C8B8B8A898909
:1052D000888887878685858484838382828181808C
:1052E0000000FF070000F87F4FEA41034FEA5353E5
:1052F000A3F58063D3F11E03C8BFD3F1210C0CDDED
:105300004FF0004242EAC12242EA505232FA03FC14
:105310008CEAE17CACEBE1707047102BC4BF00203D
:10532000704703F5787CBCF1FF3F04D06FF000427A
:1053300082EA2100704770B500F0C6F849922480D7
:1053400000207047F2E710F0004248BF4042B0FA38
:1053500080F310FA03F10AD0C3F11D0303F5806353
:1053600002EB03524FEA415002EBD12170474FF05C
:105370000000704770B5DFF848C11CEA111E1EBF5F
:105380001CEA13159EEA0C0F95EA0C0F00F06F80D3
:1053900081EA03044EEAD47EAE4421EA4C1123EAAA
:1053A0004C1341F4801143F48013AEF17F7EA1FBD6
:1053B000024CA0FB0365361955EB0C05A1FB034C11
:1053C0004CF10003A0FB021C16EB0C06654153F1E7
:1053D0000003094218BF46F0010613F4007F0BD109
:1053E0004FEA03314FEA053041EA155140EA1650C1
:1053F00034036FF003020AE04FEAC3214FEAC520ED
:1054000041EA555140EA5650F4026FF0020202EBB5
:105410002E4201EB025585EACE710AD05FEA440CB8
:1054200018BF24F0004450F1000041F1000120EACF
:10543000D47040F2FE7C624500D270BDA84214BF19
:105440004FF080444FF04044002E08BF0024BEF1CE
:10545000806FA8BFA1F1C041BDE8704080F282809A
:1054600001F1C04101F000414FF0000070470CEA2B
:1054700013159EEA0C0F18BF95EA0C0F06D081EAAF
:10548000030E4FF000000EF0004170BD00F01CF85C
:105490008900013E00F007B800F009B84FEA430C5C
:1054A0005FEA5C5C08D081EA030100F05BB84FEA78
:1054B000410C5FEA5C5CF6D102494FF00000704796
:1054C0000000FF070000F87F0EF1020E2EF0030E21
:1054D0005EF8046B364205D4012A43EB030515F54B
:1054E000001F12D8012841EB010C1CF5001F0CD83D
:1054F0000ED14FEAD17C0CEB4C0C0CF1020C15F5E3
:10550000001F08BF4CEBD37C04E04FF0080C01E017
:105510004FEAD37C0CEB4C0526FA05F606F007069D
:10552000B6F1040C06D20EEB860CBDE870404CF0D0
:10553000010C6047DFE80CF0090B02024FF000415C
:10554000A1F500214FF0000070BD1946104601285A
:1055500051EB010418BFD4F5001484BF002001F002
:10556000004170BD0808A0F500114FEA31017047F5
:1055700043004FEAD30C4FEA3C0C43401FBF4007A7
:105580000CF1605113F0FE4F70471CF0006F03D117
:105590000CF00041002070470CF0004343EA5070CB
:1055A00040EACC0010B500F0EEFA00BF0000009217
:1055B0004FEA0001FFF7D6BF4FF00041A1F50021EF
:1055C0004FF000007047000090EA010F48BF81F0E3
:1055D000004100F12A83421A3CBF801A89184FEA21
:1055E000D052A2EBD1534FF07F4C1CEA410F18BFB1
:1055F0009CEA026F00F03B804FF0004C4CEA002028
:105600004CEA012121FA03FC10EB0C0C1ED202F132
:10561000FF325FEA1C2040EBC25038BF70471CF0DD
:105620007F0F4FEA400C18BFBCF17F4F38BF704767
:10563000C3F12003994008BF20F00100BCF17F4F67
:1056400038BF7047A0F1C04000F0E3BA4FEA3C0019
:10565000000A40EBC25028BF1CF0FF0F4FEA400C7D
:10566000E6D018BFBCF17F4F38BF7047EAE79CEA2D
:10567000026F05D010EA5C0F08BF00F000407047D1
:1056800010B500F080FA00BF64FBBE3E10B500F01C
:10569000F5F80CBF0120002010BD10B500F0EEF8A9
:1056A00014BF0120002010BD10B500F083F98CBF9D
:1056B0000120002010BD10B500F07CF92CBF0120A6
:1056C000002010BD10B500F0A9F994BF0120002002
:1056D00010BD10B500F0A2F934BF0120002010BDAC
:1056E000401058BFC0F14040491058BFC1F140417F
:1056F0008142EFF3008070474FF47F0C1CEAD01218
:105700001EBF1CEAD11392EA0C0F93EA0C0F00F0B3
:10571000858090EA010F48BF42F4807240F4000C8B
:1057200041F400002CF07F4120F07F4000B5A2EB57
:10573000030281420FF2081CACEB504E9EF800E0D1
:10574000C0F100004FEA4E0E00FB0EFC38BF4900CE
:105750004FEA2C1C0CFB0EF34FEACE1E0EEB635EE1
:105760004FEA112C0EFB0CFC4FEAC1214FEA1C53EF
:1057700000FB031102F5FA024FEA112C0EFB0CFCA0
:105780004FEA01314FEADC4C00FB0C1142EB2242A4
:10579000C14228BF09184CEB03335DF804EB10EB52
:1057A000410143EBC250B2F57C0F38BF704729D599
:1057B00012F0F00F1CBF00F1C04000F00040704735
:1057C000008182838485868788898B8C8D8E8F91DA
:1057D0009293959697999A9C9D9FA0A2A3A5A7A8FE
:1057E000AAACAEB0B2B3B5B7B9BCBEC0C2C5C7C92A
:1057F000CCCED1D4D7D9DCDFE2E6E9ECF0F3F7FA8E
:10580000FE0000004FEA400C0CF1807CBCF17E4FA2
:1058100028BF7047B0F1C04000F0FBB90CEAD113CB
:1058200090EA010F48BF42F48072624538BF634579
:1058300007D213F47F0F16D080EA010000F0004079
:10584000704710B500F09FF9097EFC3E00F005B8E6
:1058500080EA010000F00040704780EA010000F09B
:10586000004000F0D6B912F47F0F04BF0248704721
:1058700080EA010000F0CDB90000C07F50EA010CC1
:1058800000F113801CF5000F58BFBCF5000F01D4C8
:105890008842704707D710F5000F58BF11F5000F69
:1058A00015D488427047894270471CF5000F04D513
:1058B000BCF5000FF7D5814270474FF0807C1CEBA0
:1058C000400F38BF1CEB410F01D28142704710B529
:1058D00000F059F9922449004FF000504FF08051E8
:1058E000FFF7FEBE41000B0ED3F19E0208D950F423
:1058F00000034FEA032323FA02F048BF40427047F7
:1059000010B500F040F900BF499224800020704794
:105910006FF0004282EA200070470000C10DD1F113
:105920009E0206DB4FEA002343F0004323FA02F015
:105930007047004207D54FEA4001B1F1FE4F02D255
:105940004FF00000704710B500F01DF94992248017
:10595000002070476FEA20007047000010F00041FF
:1059600048BF4042B0FA80F310FA03F2C3F19D033E
:105970000BD051EAC35101EB1220530638BF7047D8
:1059800000F1010008BF20F001007047B0FA80F379
:1059900010FA03F2C3F19D030AD0D90501EB1220DE
:1059A000530638BF704700F1010008BF20F0010026
:1059B0007047000050EA010C00F113801CF5000F45
:1059C00058BFBCF5000F01D48842704707D710F5C7
:1059D000000F58BF11F5000F15D488427047894257
:1059E00070471CF5000F04D5BCF5000FF7D58142B8
:1059F00070474FF0807C1CEB400F38BF1CEB410F11
:105A000001D28142704710B500F0BDF892244900E0
:105A10004FF080504FF00051FFF762BE50EA010C8A
:105A200000F113801CF5000F58BFBCF5000F01D426
:105A30008842704707D710F5000F58BF11F5000FC7
:105A400015D488427047894270471CF5000F04D571
:105A5000BCF5000FF7D5814270474FF0807C1CEBFE
:105A6000400F38BF1CEB410F01D28142704710B587
:105A700000F089F8922449004FF000504FF0805117
:105A8000FFF72EBE4FF47F0C1CEAD0121EBF1CEA9B
:105A9000D11392EA0C0F93EA0C0F00F0478090EAC2
:105AA000010F48BF42F480724FF0004C4CEA0020D6
:105AB0004CEA012102EB0302A0FB0113A2F5000254
:105AC000002918BF43F001035B0028BF4FEA3303EE
:105AD00042EB22425FEA132C4CEBC2502EBFBCEBD0
