:020000040800F2
:1000000018080020F9010008B91500088915000832
:10001000B515000805100008B52C00080000000008
:100020000000000000000000000000000B020008BB
:1000300009100008000000000F020008110200086B
:10004000130200081302000813020008130200083C
:1000500013020008130200080D1000081302000824
:10006000130200081302000813020008130200081C
:10007000130200081302000813020008130200080C
:1000800013020008130200081302000813020008FC
:1000900013020008130200081302000849100008A8
:1000A00013020008130200081302000813020008DC
:1000B000D9190008A11D0008B51D00081302000889
:1000C00013020008130200081302000813020008BC
:1000D000130200083D26000813020008B12A000898
:1000E000130200081302000813020008130200089C
:1000F000130200081302000813020008130200088C
:100100001302000813020008C91D000813020008AA
:10011000130200081302000813020008130200086B
:10012000130200081302000813020008130200085B
:1001300000F002F800F050F80AA090E8000C8244A9
:100140008344AAF10107DA4501D100F045F8AFF286
:10015000090EBAE80F0013F0010F18BFFB1A43F0A5
:10016000010318473C9400005C940000103A24BF3F
:1001700078C878C1FAD8520724BF30C830C144BF0C
:1001800004680C607047000000230024002500264E
:10019000103A28BF78C1FBD8520728BF30C148BFEA
:1001A0000B607047662905F08C87642900F0828017
:1001B000002070471FB500F05BFC04000020002108
:1001C00005F0D0F8401C60600020002105F0B4F874
:1001D000E0601FBD10B510BD00F096FD1146FFF7A1
:1001E000E9FF04F023FA00F0C2FD03B4FFF7F2FFC9
:1001F00003BC04F0F3F800000948804709480047B1
:10020000FEE7FEE7FEE7FEE7FEE7FEE7FEE7FEE7C6
:10021000FEE7FEE704480549054A064B7047000023
:100220008118000831010008180200201808002079
:100230001804002018040020704700000FB41CB5FB
:10024000074B06AA7B4469460090059800F0B3FB73
:100250000020694600F0C2FB1CBC5DF814FB0000E6
:100260009507000070B5044685690068C10601D590
:10027000302600E02026C00707D070BDD4E9012158
:1002800030469047206A401C20626D1EF6D570BD36
:1002900070B5044685690078C00707D170BDD4E900
:1002A000012120209047206A401C20626D1EF6D557
:1002B00070BD00002DE9F041064600241068752944
:1002C000314616A510D0AFF30080002802DA404274
:1002D00013A507E031688A0701D512A502E0490796
:1002E00004D511A5012401E0AFF3008000210A220A
:1002F00006F1240709E0B0FBF2FCB0FBF2F302FBCD
:100300001C00303078541846491C0028F3D123468D
:100310002A463046BDE8F04100F0E0B80000000099
:100320002D0000002B000000200000002DE9F05FF0
:10033000894604464FF0000ADFF824B1FB44C0F8B8
:1003400020A02046E168884700287DD0252806D0D7
:10035000D4E901219047206A401C2062F1E7002582
:100360005F462046E16888472028064607DB312E95
:1003700005D2B81910F8200C08B10543F1E7A80719
:1003800001D525F00405C4F81CA00027C4F818A066
:100390002A2E09D0304604F0C7FF38B304EB870893
:1003A000303EC8F8186019E059F8041B204604EBE9
:1003B00087029161E1688847012F064618D1E069FC
:1003C000002820DA25F020051DE0D8F8180000EB01
:1003D000800006EB40003038C8F818002046E1687D
:1003E0008847064604F0A0FF0028EED1012F0AD06E
:1003F0002E2E08D12046E16888477F1C0646022F32
:1004000045F02005C4DBA069002803DA404245F02E
:100410000105A061E80701D025F01005A6B1A6F1FD
:100420004100192802D8203645F400654A46314675
:10043000204625604D46FFF7B5FE60B1012807D084
:10044000ED1D25F0070000E007E000F1080978E75E
:1004500005F1040975E730467AE7206ABDE8F09FA8
:10046000865D000070B5064600F034F80468054665
:1004700030460A22002100F0B6FA2C6070BD4FF021
:10048000000200B5134694469646203922BFA0E8E4
:100490000C50A0E80C50B1F12001BFF4F7AF0907F0
:1004A00028BFA0E80C5048BF0CC05DF804EB8900E1
:1004B00028BF40F8042B08BF704748BF20F8022B24
:1004C00011F0804F18BF00F8012B7047704770473C
:1004D0007047704700487047100000202DE9F04732
:1004E0000D4699469246044600F1240801688806A4
:1004F00004D5E06921F01001216000E00120A8424C
:1005000001DD471B00E00027A1697A1902EB090011
:10051000081AA0612078C00602D42046FFF7A2FE88
:10052000002608E0D4E901211AF806009047206A65
:10053000401C761C20624E45F4DB2078C0060AD5AC
:100540002046FFF78FFE06E0D4E9012130209047D6
:10055000206A401C2062381EA7F10107F4DC07E086
:10056000D4E9012118F805009047206A401C206258
:10057000281EA5F10105F3DC2046FFF789FE20784F
:10058000000602D50220BDE8F0870120FBE72DE937
:10059000FF4F0C461E464FF0FF378BB0D2E90001EB
:1005A000DDF860800A908A46C1F30A5505B93D46D8
:1005B000002108464FF00000BAF1000F00F440009F
:1005C00005DA00EB80004FF4400101EA50004FEAE9
:1005D0009059B9F1010F00DDB9460A9850EA4A0076
:1005E0000ED044F61050A5F2FF3545432F14B8F154
:1005F000000F1ED07542291E1EDDC9F100021CE04D
:10060000B8F1010F4FF0000001D0302103E0F243B8
:1006100005E02154401CB042FBDB304600220021A3
:1006200021540B99C1F80880C1E900200FB0BDE842
:10063000F08FBD1B6D1CDEE74A4600DA694206A852
:1006400000F0F0FA06AB93E8070003AB83E807007D
:1006500050460A9904F08CFA8DE80700A0F5005086
:100660001F3800900398002D0ADD42F21F014A4610
:100670000844002303A90390684604F0F5FC09E050
:10068000A0F500504A461F38002303A9039068468E
:1006900004F0FFFC8DE807000004000C03D04FF0CD
:1006A000FF30410800E01046B8F1000F03D00022EF
:1006B000009215461EE0751E05D400F0DDF93032BB
:1006C00062556D1EF9D5B3460122084302D00022BF
:1006D0007F1C04E02078302801D100227F1E002AF0
:1006E000099784D01DE0112D07DA00F0C5F93032EA
:1006F00062556D1C50EA0102F5D1084302D0009802
:10070000C8B10EE00021681E05E0235C625C635402
:100710002254401E491C8142F7DBAB46A81B401EF9
:100720000990002004F80B000B98099AC0F8088083
:10073000C0E9002B7AE711264FF0000857E72DE9B2
:10074000F04F88460446D21D22F0070191B0D1E94E
:100750000001CDE90A0104F0D3FD02460B98C00F59
:1007600001D02D2007E02068810701D52B2002E071
:10077000202101EAC000032A099001D0072A05DBE5
:1007800003464146204600F0BDF90BE12078800683
:1007900001D5E06900E00620B8F1650F814606D07A
:1007A000B8F1660F18D0B8F1670F70D131E00020B2
:1007B000B9F1110F009001DB112301E009F10103F0
:1007C0000AAA01A90CA8FFF7E2FEDDE90C700026D9
:1007D00009F10105834647E001204B4600904FF0A8
:1007E00000470AAA01A90CA8FFF7D1FEDDE90DB068
:1007F0000C995D46002610B909F101000D18B9EBFE
:10080000050003D4C0F1FF3609F10105A5EB09008D
:100810002BE0B9F1010F01DA4FF001090020B9F125
:10082000110F0090484601DD112300E003460AAA9B
:1008300001A90CA8FFF7ABFEDDE90C704D460026C0
:100840008346207800070AD4AB4500DA5D4601A84C
:10085000012D04DD411911F8011C302907D04F4545
:1008600002DA17F1040F04DA012082460FE06D1E50
:10087000EEE7002F02DCED1B3E4403E0781CA842AB
:1008800000DD7D1CB81B00F1010A4FF00047207805
:10089000000703D4AA4501DB4FF0FF3A0021B7F16E
:1008A000004F0DF143088DF8431024D002202B2374
:1008B000002F01DA7F422D230A21021EA0F1010040
:1008C00000DC5FB197FBF1FC97FBF1F201FB1C7CB4
:1008D00017460CF1300C08F801CDEEE7A8F1010045
:1008E00003702188090501D5452100E06521A0F1AB
:1008F000010800F8011C09980FA9A1EB0807FF1DCA
:1009000000B10120411901EBEA70A1693844081ACD
:10091000401EA0612078C00602D42046FFF7A2FC4A
:10092000099828B1D4E901219047206A401C20622F
:100930002078C00622D52046FFF794FC1EE0002E4A
:1009400004DBB34502DD01A8805D00E03020D4E97E
:1009500001219047206A401C2062761CAAF1010008
:100960005FEA000A0AD100F083F8C0680168405CC1
:10097000D4E901219047206A401C2062281EA5F17D
:100980000105DCDC07E0D4E9012118F8010B9047F0
:10099000206A401C2062381EA7F10107F3DC2046C4
:1009A000FFF776FC032011B041E6000001694A1C04
:1009B00002610878704700B58FB0CDE901310021A0
:1009C000059105497944CDE9031011466846FFF7C2
:1009D000ADFC0FB000BD0000E5FFFFFF0A6802F8A4
:1009E000010B0A6070472DE9F04791460F4680469B
:1009F0000446002614F8015B2DB100F031F80068C0
:100A0000405DC007F6D12B2D02D02D2D18D0641ECD
:100A10004A463946204600F0B5F827B13968A14268
:100A200001D1C7F800804FF0020471050BD5404298
:100A3000002803DDFFF74EFD0460A007BDE8F08746
:100A400046F48066E4E70028F8DAFFF743FD046027
:100A50006FF00040F2E700000048704710000020EF
:100A600010B500F005F8001D10BD00BFF9480000EA
:100A7000004870473000002030B5B0F10A0271F133
:100A800000034FEA900E4EEA817EB0EB0E0061EB60
:100A900091014FEA101E4EEA017E10EB0E0041EB71
:100AA00011114FEA102E4EEA016E10EB0E0041EBD1
:100AB00011214FEA104E4EEA014E10EB0E0041EBB1
:100AC0001141401841F100014FEAD00040EA417065
:100AD0004FEAD1014FEA810444EA907410EB80059B
:100AE00044EB01046D1944EB0404521BA3414FF085
:100AF000000348BF0A3200D530BD401C41F100015F
:100B000030BD00002DE9F0411F4604460326016870
:100B1000072A01F4006004DB08B116A505E016A55C
:100B200003E008B115A500E015A521F01000206034
:100B3000A069C01EA0610FB1401EA0612046FFF752
:100B400091FB4FB1D4E9012138469047206A401CFF
:100B50002062C01C206206E0206AFAE7D4E9012185
:100B600015F8010B9047761EF8D22046FFF790FB50
:100B7000BDE8F0814E414E006E616E00494E460068
:100B8000696E66002DE9F05F824615468B460027A8
:100B90000AF10104B9460078302801D09DB113E074
:100BA00014F8010B0127782803D0582801D045B14B
:100BB0000AE00DB1102D07D1002714F8010B102504
:100BC00002E0082500E00A250026B0460EE005FBFD
:100BD000080005FB06F101271FFA80F801EB10461B
:100BE000B6F5803F00D3B94614F8010B294600F052
:100BF000B0F80028EBDABBF1000F05D00FB1641E8E
:100C000000E05446CBF80040B9F1000F06D0FFF7E2
:100C100061FC02210160C81EBDE8F09F48EA064061
:100C2000FAE700002DE9F047814616468AB03548BC
:100C300078440DC88DE80D0032487844801C03AC20
:100C40000DC884E80D0041F69B300844372190FB25
:100C5000F1F290FBF1F5A5F1800501FB12041B3CBC
:100C600002D56442012000E00020DFF898A0804611
:100C70000027FA44AAF1BE0A0EE0E0070AD0324685
:100C8000684607EB470101230AEB810104F001FAF2
:100C90008DE8070064107F1C002CEED1194F7F44B3
:100CA000AE3F19E0E80715D007EB04100DF1180A64
:100CB00090E80E008AE80E00C068F04201D1981951
:100CC00008903246012306A903A804F0E2F903AB19
:100CD00083E807006D10641C002DE3D14FF0010381
:100CE00032466946B8F1000F03A802D004F0BCF9FF
:100CF00001E004F0CEF9C9E90001C9F808200AB002
:100D0000BDE8F087205500007546FFF7A5FEAE460A
:100D100005006946534620F00700854618B020B507
:100D2000FFF778FABDE820404FF000064FF00007CB
:100D30004FF000084FF0000BAC46ACE8C009ACE83F
:100D4000C009ACE8C009ACE8C00921F007018D4634
:100D500070473A2800D2303820F02002412A01D3CF
:100D6000A2F13700884201D34FF0FF30704710B531
:100D70000446AFF300802046BDE81040FFF735BAC7
:100D80004FF0013C50F8042B51F8043B9A4221D11A
:100D9000A2EB0C03934313EACC1317D150F8042BA6
:100DA00051F8043B9A4215D1A2EB0C03934313EA8A
:100DB000CC130BD150F8042B51F8043B9A4209D1C3
:100DC000A2EB0C03934313EACC13DBD04FF00000EB
:100DD000704700BFD01A01BAB1FA81F101F01801D1
:100DE00022FA01F0CB40DBB2C0B2C01AC1F120013F
:100DF0002CFA01F3D11A914311EAC311E6D17047DD
:100E00008268002942F0010308BF22F001038360D9
:100E10007047000080B543F60041C4F201018842EA
:100E200014D042F60001C4F20101884216D042F209
:100E30000041C4F20101884218BF80BD4FF4007028
:100E4000012100F023FC4FF400700EE04FF400404D
:100E5000012100F01BFC4FF4004006E04FF48060DD
:100E6000012100F013FC4FF480600021BDE88040B8
:100E700000F00CBC8068C0F380007047C06C80B28A
:100E8000704700000068084018BF0120704700004C
:100E90008068C0F3C000704780B54FF6FF634268BA
:100EA000CFF6F07302EA030CD1E9003243EA0C03F7
:100EB00043EA02224FF2FD734260CFF6F17382687B
:100EC00002EA030ED1E902C30A6942EA0E021A439A
:100ED00042EA4C028260C26A097D013922F4700242
:100EE000C9B242EA0151C16280BD000010B501EBF8
:100EF000410C092988BFACF11E0C092903FA0CFE2C
:100F00004FF0070303FA0CFC4FF0100388BF0C23CB
:100F1000062AC45824EA0C0444EA0E04C45003D838
:100F200034306FF0040307E00C2A87BF2C306FF0D9
:100F3000400330306FF0220302EB82021A441F2379
:100F4000914003FA02F2036823EA020211430160AE
:100F500010BD0000816841F0080181607047000009
:100F60008268002942F4A00308BF22F4A003836032
:100F700070470000816841F0040181607047000003
:100F800070B58AB04FF401700121012500F072FBA9
:100F90004FF4004000F04CFB42F2004400260420D5
:100FA00001A9C4F201040396ADF80400A4F5A05011
:100FB00000F0FAF82046FFF72DFF4FF46020CDE94E
:100FC0000466069604A9CDE9070620468DF824504C
:100FD000FFF762FF20460121FFF712FF2046FFF7CF
:100FE000B9FF00BF2046FFF753FF0028FAD1204683
:100FF000FFF7C0FF2046FFF73DFF0028FAD10AB0F7
:1010000070BD0000FEE700007047000080B5322090
:1010100003F008FA41F200000121C4F2010000F0DF
:101020006BFA48B940F228100022C2F200000168B1
:101030000329B8BF4A1C0260012000F057F80120C4
:10104000BDE8804003F01CBAB0B54FF4807000F0EA
:1010500053F8002808BFB0BD40F600444FF480713B
:10106000C4F2000404F5803000F046FA012804D1EF
:101070002046012100F0D2FE31E02046002100F0A0
:10108000CDFE204601F014F840F2D801C2F2000172
:101090000968C1EB0141084440F2EC11C2F20001C1
:1010A000086000EB001004F02CFB44F20003002267
:1010B000C4F28F0304F09EF904F06AF9002105469A
:1010C00004F0DEFC002840F224104FF0000118BFAD
:1010D0000025C2F200000560204601F04FFA4FF4EF
:1010E0008070BDE8B04000F001B8000040F214414B
:1010F000C4F201010860704740F20041C4F20101EE
:101100000A68024018BF01224969084018BF01203F
:1011100010407047C26840F20041C4F20101F2B1D0
:1011200002680B6893430B604B6893434B60D0F8A5
:1011300004C05CF801301A434CF8012002688B6847
:1011400093438B60CB689343CB60806810280DD1AC
:10115000886810438860C8681043C8607047D0E949
:101160000020435823EA02024250704743581A4372
:101170004250704780B50C2240F2080E0F2302EA5D
:10118000810201F0FC01C4F2010E03FA02FC51F8E5
:101190000E30904023EA0C0341F80E3051F80E2037
:1011A000104341F80E0080BD80B5D1F808E00EF084
:1011B0000F0C1EF0100F1CBF4B684CEA030C098883
:1011C00011F0FF0F00F0A4800368CA070BD023F0D2
:1011D0000F02BEF1480F42EA0C0315D0BEF1280FF2
:1011E00001D1012242618A0712D523F0F002BEF13B
:1011F000280F42EA0C131CD0BEF1480F08D102227E
:1012000002614A0706D418E0012202618A07ECD481
:101210004A0712D523F47062BEF1280F42EA0C236C
:101220001CD0BEF1480F08D1042202610A0719D56B
:1012300005E0022242614A07ECD40A0712D523F4E2
:101240007042BEF1280F42EA0C331CD0BEF1480FA9
:1012500008D108220261CA0606D418E004224261BD
:101260000A07ECD4CA0612D523F47022BEF1280F67
:1012700042EA0C431CD0BEF1480F08D11022026193
:101280008A0619D505E008224261CA06ECD48A060E
:1012900012D523F47002BEF1280F42EA0C531CD081
:1012A000BEF1480F08D1202202614A0606D418E098
:1012B000102242618A06ECD44A0612D523F07062ED
:1012C000BEF1280F42EA0C631AD0BEF1480F08D1D4
:1012D000402202610A061AD505E0202242614A0630
:1012E000ECD40A0613D523F07042BEF1280F42EA6F
:1012F0000C730AD0BEF1480F09D18022026106E0CA
:10130000402242610A06EED401E08022426103607D
:10131000B1F5807F38BF80BD4368CA050CD523F086
:101320000F02BEF1480F42EA0C0317D0BEF1280F9E
:1013300002D14FF4807242618A0514D523F0F00285
:10134000BEF1280F42EA0C131FD0BEF1480F0AD19C
:101350004FF4007202614A0507D41BE04FF480721B
:1013600002618A05EAD44A0514D523F47062BEF1FD
:10137000280F42EA0C231FD0BEF1480F0AD14FF4C8
:10138000806202610A051CD506E04FF400724261DA
:101390004A05EAD40A0514D523F47042BEF1280F99
:1013A00042EA0C331FD0BEF1480F0AD14FF400625D
:1013B0000261CA0407D41BE04FF4806242610A054F
:1013C000EAD4CA0414D523F47022BEF1280F42EAED
:1013D0000C431FD0BEF1480F0AD14FF48052026176
:1013E0008A041CD506E04FF400624261CA04EAD4C4
:1013F0008A0414D523F47002BEF1280F42EA0C537C
:101400001FD0BEF1480F0AD14FF4005202614A04C6
:1014100007D41BE04FF4805242618A04EAD44A04A4
:1014200014D523F07062BEF1280F42EA0C631ED07F
:10143000BEF1480F0AD14FF48042026109041BD566
:1014400006E04FF4005242614A04EAD4090413D57D
:1014500023F07041BEF1280F41EA0C730ED0BEF1AB
:10146000480F09D14FF400410161436080BD4FF442
:10147000804242610904EBD4436080BD4FF40041D7
:101480004161436080BD000010B50422002800F4D3
:1014900040141FFA80FCC4F201021346B8BF43F0A7
:1014A0001803B4F5401F1B68C0F3034E07D114683E
:1014B00023F0706324F07064146081B916E0C402F4
:1014C00006D447F6F07404EA50440CFA04F402E03F
:1014D000032404FA0EF4A34343F0706331B147F6DA
:1014E000F07101EA50410CFA01F10B430028B8BF3A
:1014F0001832136010BD00008068084018BF01203A
:101500007047000041617047016170472DE9F04369
:1015100081B08946804671B342F20046002400271C
:10152000C4F201063046414601220723FFF7DEFCE4
:1015300030460121FFF714FD30460221FFF7A2FCDF
:101540000028F9D03046FFF799FC0546052002F047
:1015500069FF284604F0F8FB0546384604F0F4FB22
:10156000294604F00FFA04F0B7FB01340746E0B255
:101570004845D7D300E00027B7FBF9F004F0E4FBBF
:1015800001B0BDE8F0830000FEE7000041F2180161
:10159000C4F202010A6842F001020A600421C4F2A6
:1015A00001010A6822F0E0620A600A6842EA4060CB
:1015B00008607047FEE700007047000042684EF286
:1015C0000011CEF20001EAB110B54EF60C5207231D
:1015D000CEF20002126890F801E0847890F800C022
:1015E00023EA12220F23D340C2F1040223400EFA51
:1015F00002F21A4301EB0C03120183F80023BDE849
:10160000104000E080310078012300F01F02C0F399
:10161000421003FA02F241F82020704740F0806047
:101620004EF60C5140F0FD70CEF20001086070479C
:1016300041F20401C4F202010A6822F4404210435C
:101640000860704741F21C020029C4F202021168CE
:101650000CBF21EA000008431060704741F21002FD
:101660000029C4F2020211680CBF21EA00000843FD
:101670001060704741F218020029C4F2020211689A
:101680000CBF21EA000008431060704741F20C02D1
:101690000029C4F2020211680CBF21EA00000843CD
:1016A0001060704780B541F2040EC4F2020EDEF8FD
:1016B000002002F00C0341F20022C0F27A02082B53
:1016C0001FD1DEF80030C3F3834303F1020CDEF8D0
:1016D000003013F4803F06D140F60012C0F23D0204
:1016E0000CFB02F20DE0DEF8003013F4003F02D1F3
:1016F0000CFB02F205E040F60012C0F23D020CFBCA
:1017000002F2026046F27011DEF80030C0F600010D
:10171000C3F30313CB5CDA404260DEF80030C3F35E
:101720000223CB5C22FA03F38360DEF80030C3F3BC
:10173000C223C95C46F26C13C0F6000322FA01F121
:10174000C160DEF80020C2F381329A5CB1FBF2F195
:10175000016180BD41F2000100221423C4F20201A4
:101760000A61CA604B618A61CA610B6843F0010378
:101770000B600023D1F804C0CFF6FF0303EA0C038B
:101780004B604FF6FF73D1F800C0CFF6F66303EA63
:101790000C034EF6085C0B60CEF2000C0B6823F4D1
:1017A00080230B604B6823F4FE034B604FF0006313
:1017B0008A60CCF800300B6843F480330B6000BFC4
:1017C0000B68B3F5003F0BD20B68B2EB534F07D158
:1017D0000B68B2EB534F03D10B68B3F5003FEFD367
:1017E0004FF4806202384A60C0B24A6842EA8040E0
:1017F0004860486840F4803048604FF480500A5890
:1018000042F032020A50086840F080700860002000
:101810000A68B2F1007F0BD20A68B0EB526F07D1B1
:101820000A68B0EB526F03D10A68B2F1007FEFD3C0
:10183000486840F002004860486800F00C00082842
:101840000FD0486800F00C0008280AD0486800F063
:101850000C00082808BF7047486800F00C000828F2
:10186000EAD170474EF210010428CEF200010A6856
:1018700022F0040308BF42F004030B60704700002D
:1018800082B041F204000022C4F20200CFF6FF024F
:1018900050F8041C41F0010140F8041C016811409B
:1018A0004FF6FF720160CFF6F66250F8041C11404B
:1018B00040F8041C50F8041C21F4802140F8041C5A
:1018C000016821F4FE0101604FF41F014160002115
:1018D0000191009150F8041C41F4803140F8041C3F
:1018E00050F8041C01F4003100910199013101917B
:1018F000009919B90199B1F5A06FF1D150F8041C04
:1019000011F4003F0CBF0021012100910099012931
:1019100058D1D0F8FC1F41F01001C0F8FC1FD0F8DE
:10192000FC1F21F00301C0F8FC1FD0F8FC1F41F0A0
:101930000201C0F8FC1F01680160016801600168D4
:1019400041F480610160016821F47C11016001684B
:1019500041F4E811016050F8041C41F0807140F836
:10196000041C00BF50F8041C11F0007F0ED150F889
:10197000041C11F0007F09D150F8041C11F0007F05
:1019800004D150F8041C11F0007FEBD0016821F065
:1019900003010160016841F002010160016801F08A
:1019A0000C0108290ED0016801F00C01082909D0AA
:1019B000016801F00C01082904D0016801F00C0154
:1019C0000829EBD14EF608504FF00061CEF200002E
:1019D000016002B0704700002DE9F04F81B04FF078
:1019E0008040012100F066FB002800F098814FF054
:1019F0008040012100F00EFA40F22C1340F27801F1
:101A000040F2080BC2F20003C2F20001C2F2000B66
:101A1000D3E90025D8680A6040F29C01C2F20001B7
:101A20000D60DBF80010012906D140F214171B6984
:101A3000C2F20007386021E040F2C007C2F200079E
:101A40003C68A0422746B8BF074654EA000618BFC4
:101A50000126002CD8BF3746002840F21410D8BF0A
:101A60003746C2F200000760186940F2C403C2F2B0
:101A700000031B680343384618BF012340F21819BE
:101A8000A5F15A0AA2F15A08AA42C2F20009C9F8FD
:101A9000003040F2DC03C2F200031F6812D140F2B2
:101AA0000C14A2EB0505C2F2000418BF0125B7F51E
:101AB000967F226811DD82B97DB900221A60012269
:101AC00022601EE0551B40F20C1207F10107C2F222
:101AD00000021F6018BF01251268B7F5967F10DD60
:101AE000012A0ED16DB900221A6040F20C13C2F225
:101AF00000031A6040F2D403C2F200031F680137EA
:101B00001F6040F228150129C2F2000533D129686F
:101B100089BB40F20C0149F69A130328C2F2000176
:101B2000C3F699630B6040F2D401C2F20001096868
:101B300008BF01290FD0022808BF012911D00128B0
:101B400008BF012913D049F69A11012AC3F69961F9
:101B50000BD140460DE04CF6CD415046C3F64C61EA
:101B600007E04CF6CD41C3F6CC51504601E00020D1
:101B7000002102F055FBDBF8000001283BD128686A
:101B8000012838D140F20C004FF07C51C2F2000025
:101B9000016040F2141140F2D400C2F20001C2F21E
:101BA000000009680068032908BF022813D0022931
:101BB00008BF022815D0012908BF022817D040F21B
:101BC0000C104FF07C51C2F200000068012814BFD5
:101BD000504640460DE04CF6CD415046C3F64C61B0
:101BE00007E04CF6CD415046C3F6CC5101E0002051
:101BF000002102F015FBDBF80000012836D128682F
:101C0000022833D140F20C004FF07C51C2F20000A8
:101C1000016040F2141140F2D400C2F20001C2F29D
:101C2000000009680068032908BF03280ED00229B4
:101C300008BF032810D0012908BF032812D00228AA
:101C40004FF07C5114BF504640460DE04CF6CD415C
:101C50005046C3F64C6107E04CF6CD415046C3F602
:101C6000CC5101E00020002102F0DAFADBF800009C
:101C700001284FD1286800284CD140F20C004FF0C9
:101C80007E51C2F20000016040F2141140F2D40013
:101C9000C2F20001C2F2000009680068032908BF0F
:101CA00001281BD0022908BF01281DD0012908BF27
:101CB00001281FD0D9F8000001281ED140F21424B9
:101CC000C2F200042068B0F57A7F16DC0020002103
:101CD00002F0A6FA2068013020601BE04CF6CD41EE
:101CE0005046C3F64C6113E04CF6CD415046C3F666
:101CF000CC510DE0002000210AE040F20C104FF022
:101D00007E51C2F200000068012814BF50464046D0
:101D100002F086FADBF800002968084302D001B01F
:101D2000BDE8F08F40F20C0049F69A11C2F20000B3
:101D3000C3F69961016040F2141140F2D400C2F27E
:101D40000001C2F2000009680068032908BF0128E9
:101D500014D0022908BF012815D0012908BF012885
:101D60001BD040F20C1049F69A11C2F20000C3F6E3
:101D70009961006801280AD1404609E04CF6CD413E
:101D8000C3F64C6103E04CF6CD41C3F6CC5150464E
:101D900001B0BDE8F04F02F043BA00200021F7E7A0
:101DA00040F21040C4F200000188018821F00101D6
:101DB0000180704740F61000C4F2000001880188DD
:101DC00021F001010180704710B540F60044012167
:101DD000C4F20004204600F06DF9002808BF10BDD1
:101DE0002046012100F016F840F2D800C2F20000AF
:101DF00001680131016010BD0288002942F08003B2
:101E000008BF22F08003038070470000C9430182AD
:101E100070470000C9430182704700000288002912
:101E200042F0010308BF22F0010303807047000065
:101E3000B0F84420002913466FF3DF3318BF42F493
:101E40000043A0F84430704780B541F6FF71C4F2FA
:101E50000001884228DD44F2FF31C4F201018842CA
:101E60003FDD44F6FF31C4F2010188426EDD44F6E5
:101E70000041C4F20101884200F0B58045F2000142
:101E8000C4F20101884200F0B68045F20041C4F27C
:101E90000101884218BF80BD4FF400100121FFF7F7
:101EA000F5FB4FF40010D7E040F6FF71C4F20001DB
:101EB000884232DC40F2FF71C4F2000188425ADCF1
:101EC000B0F1804F00F09F8040F20041C4F2000169
:101ED000884240F0D08002200121FFF7BFFB0220A2
:101EE000C4E043F2FF31C4F20101884255DC42F202
:101EF0000001C4F20001884200F08B8042F60041EC
:101F0000C4F20101884240F0B6804FF40060012124
:101F1000FFF7BCFB4FF400609EE041F2FF71C4F29A
:101F2000000188424DDC41F20001C4F20001884208
:101F300077D041F20041C4F20001884240F09B801A
:101F400020200121FFF78AFB20208FE044F200418E
:101F5000C4F2010188426AD044F60001C4F20101D2
:101F6000884240F088804FF480200121FFF78EFBEB
:101F70004FF4802070E040F60001C4F20001884276
:101F80005DD040F60041C4F20001884273D10820C0
:101F90000121FFF763FB082068E043F20041C4F22F
:101FA0000101884251D044F20001C4F2010188428B
:101FB00061D14FF480300121FFF768FB4FF480308E
:101FC0004AE041F60001C4F20001884249D041F6DE
:101FD0000041C4F2000188424DD180200121FFF769
:101FE0003DFB802042E04FF400200121FFF74EFB33
:101FF0004FF4002030E04FF480100121FFF746FB42
:102000004FF4801028E001200121FFF727FB012079
:102010002CE04FF480700121FFF720FB4FF480701B
:1020200024E010200121FFF719FB10201EE04FF4DF
:1020300000300121FFF72AFB4FF400300CE00420B0
:102040000121FFF70BFB042010E04FF400500121A9
:10205000FFF71CFB4FF400500021BDE88040FFF764
:1020600015BB40200121FFF7F9FA40200021BDE80F
:102070008040FFF7F3BA80BD80B5B0F808C02CF0FF
:10208000070C41EA0C01B0F818C0B0F820E001815B
:102090004FF6FC410CEA010C40F2011141EA0C013F
:1020A000018342EA03112EF022021143018480BD14
:1020B000808C7047028A0A4018BF0122808908403C
:1020C00018BF01201040704770B50B88042B2AD030
:1020D000002B56D1B1F802C00A898B88068C40F6D5
:1020E000FF354FF6FC74C4F2000526F0010643EA02
:1020F00002130246A842068432F8186FB0F820E0B6
:1021000026F0F30643EA06036DDCB0F1804F7DD084
:1021100040F20045C4F20005A84277D040F6000521
:10212000C4F200056FE00E894B888A88058C40F662
:10213000FF44360325F0100546EA022605840246D0
:1021400032F8185FB0F820E0254046EA050C40F66A
:10215000FF356FF00306C4F20005A6F1AD04A842F6
:1021600062DCB0F1804F71D040F20045C4F200054E
:10217000A8426BD040F60005C4F20005A84265D025
:1021800068E00A898C884E88058C082B71D125F46B
:102190008073038444EA0213024632F81C5FB0F8ED
:1021A00020E025F0F30543EA050C6FF4405303F5F6
:1021B000145440F6FF33C4F20003984200F38180C8
:1021C000B0F1804F00F08F8040F20043C4F2000372
:1021D000984200F0888040F60003C4F20003984261
:1021E00000F0818084E040F60045C4F20005A8427A
:1021F0000CD042F60045C4F20105A84206D043F2D5
:102200000045C4F20105A84218BF083C03830EEA4A
:10221000040343EA0C0343F001030384C988038BDE
:1022200023F00C03038394E040F60045C4F200055C
:10223000A8420BD043F20045C4F20105A84205D0E4
:1022400042F60045C4F20105A84203D14FF6FC74E2
:102250001B012D3C0EEA0406A0F818C0334343F0DE
:1022600010030384C988038B23F4406309020383AA
:102270006FE025F480531203038442EA04230246EC
:1022800040F6FF4432F81C5FB0F820C0254046F607
:10229000FF5443EA050E40F6FF33C4F200039842B0
:1022A00034DCB0F1804F43D040F20043C4F200036D
:1022B00098423DD040F60003C4F20003984237D064
:1022C00039E040F60043C4F2000398420BD043F2D9
:1022D0000043C4F20103984205D042F60043C4F221
:1022E0000103984204D14CF6FF73360203F53454CF
:1022F0000EEA0403A0F81CC0334343F48073038444
:10230000C988838B23F00C03838322E040F60043CB
:10231000C4F2000398420BD043F20043C4F201031D
:10232000984205D042F60043C4F20103984202D11C
:1023300036034CF6FF740CEA0403A0F81CE03343A8
:1023400043F480530384C988838B23F440630902D8
:10235000838310880843108070BD00000021012293
:102360000160426001817047002A82890CBF22EA25
:10237000010111438181704710B5028C22F00102E6
:102380000284048CB0F804E0038B0A8823F0730302
:1023900043EA020C0B8924F002021A434B881A43C9
:1023A000A0F18043A3F596334FEAB323072B14D84B
:1023B000012404FA03F313F0E50F0ED08C892EF4F8
:1023C000407322F00C022343CC8943EA040E4B896C
:1023D00023F004031A438B881A43A0F804E0A0F802
:1023E00018C0C9888186028410BD0000028B22F0CB
:1023F000080211430183704710B5028C22F01002CD
:102400000284048CB0F804E0038B0A8823F4E643CA
:1024100043EA022C0B8924F0200242EA03124B8883
:1024200042EA031243F20043C4F20103984205D08A
:1024300042F60043C4F20103984212D18B892EF474
:10244000406422F0C00244EA8303CC8943EA840E4C
:102450004B896FF04F0404EA03131A438B8842EA56
:102460000312A0F804E0A0F818C0C988018702840C
:1024700010BD0000028B22F4006242EA01210183B8
:102480007047000010B5028C22F480720284048C24
:10249000B0F804E0838B0A8823F0730343EA020C4C
:1024A0000B8924F4007242EA03224B8842EA032299
:1024B00043F20043C4F20103984205D042F60043C0
:1024C000C4F20103984212D18B892EF4405422F4B5
:1024D000406244EA0313CC8943EA041E4B8940F26C
:1024E000FF441B02A3431A438B8842EA0322A0F84D
:1024F00004E0A0F81CC0C9888187028410BD0000D8
:10250000828B22F0080211438183704710B5028C40
:1025100022F480520284048CB0F804E0828B0B8891
:1025200022F4E64242EA032C0B8924F4005242EAE8
:1025300003324B8842EA033343F20042C4F2010201
:10254000904205D042F60042C4F20102904204D10A
:102550008A892EF4804444EA821EA0F804E0A0F8A0
:102560001CC0C988A0F84010038410BD828B22F4DF
:10257000006242EA01218183704700008184704734
:1025800040F6FF33B0F800C0C4F2000398420FDCFD
:10259000B0F1804F1ED040F20043C4F200039842D5
:1025A00018D040F60003C4F20003984212D016E09F
:1025B00040F60043C4F2000398420BD043F20043BC
:1025C000C4F20103984205D042F60043C4F201036D
:1025D000984204D14B882CF0700243EA020C41F27D
:1025E000004240F48063C4F20002934204D0CB88DE
:1025F0002CF4407243EA020CA0F800C08A8882855D
:102600000A880285A0F18042A2F596324FEAB222F2
:10261000072A07D8012303FA02F212F0E50F1CBFC4
:10262000097A018601218182704700004FF6FF710F
:1026300041600021016001727047000070B543F6EF
:10264000000440F22551C4F20104204600F09EFA35
:10265000002800F07F80204600F028FB044640F26E
:102660000C20C2F20000A4F1580304602046252B80
:102670001ED859210222DFE803F013151B1B1B1B78
:102680001B1B1B1B1B1B1B1B1B1B1B1B1B1B1B1B9A
:102690001B1B1B1B1B1B1B1B1B1B1B1B1B451B6E0D
:1026A0005821012240F20000C2F2000002700846E8
:1026B00040F22011C2F200010978B1B13A2870D07D
:1026C000232840F0908040F2102100200122C2F225
:1026D0000001087040F2BC01C2F200010A7040F231
:1026E0005011C2F200010870D3E040F21C10C2F297
:1026F00000000268511C016040F25110C2F200005B
:102700008454D5E040F2041000210122C2F20000FE
:10271000016040F22010C2F20000027040F210206E
:10272000C2F20000027040F2BC00C2F20000017070
:1027300040F25010C2F20000027040F21C10C2F2CF
:10274000000001684A1C026040F25110C2F2000011
:102750004454EAE070BD40F2201040F210260025FB
:10276000C2F20000C2F200060570307800284ED098
:1027700040F2D000C2F20000016840F2C800C2F28C
:1027800000004554FDF76EFE40F2041140F2E002F5
:102790003570C2F20001C2F20002096842F821005D
:1027A00042E040F2D00540F2C8000022C2F200052B
:1027B000C2F2000029684254FDF754FE40F2501264
:1027C00040F21021C2F20002C2F2000116780B782A
:1027D000A6B3002B41D00021117040F20411C2F2C7
:1027E000000108604CE0A0F13001092924D840F232
:1027F000D002C2F200021168052944DC4B1C1360B0
:1028000040F2C802C2F200025054002041E040F2FF
:10281000BC00C2F20000007830B140F20410C2F2F5
:10282000000001680131016040F2D0000021C2F2D5
:102830000000016001202CE000202AE06BB140F292
:10284000041240F2E003C2F20002C2F20003126876
:1028500043F822000020087012E040F2BC01C2F2EE
:102860000001097861B140F20411C2F200010A6866
:10287000531C0B6040F2E001C2F2000141F822005B
:102880000020286005E040F2C8010020C2F20001EB
:10289000887140F21C120028C2F20002136803F192
:1028A0000101116040F25112C2F20002D4540AD068
:1028B00040F251100022C2F20000425440F21C10BB
:1028C000C2F2000002600B2C38BF70BDA4F14100C1
:1028D00028282AD8DFE810F086005D005D005D0042
:1028E0009300740074007400290029002900290055
:1028F0002900290029002900290029002900290090
:10290000290029002900290029009D00290029000B
:102910002900290029002900B300BB00C200C7001C
:10292000CC00D100D800DF00E40040F270000021AC
:10293000C2F20000017040F27200C2F200000170A9
:1029400040F27100C2F20000017040F27300C2F266
:102950000000017040F20020C2F20000016040F26D
:102960000420C2F20000016040F2F010C2F2000048
:10297000016040F2F410C2F20000016040F2F81071
:10298000C2F20000016040F2FC10C2F200000160DF
:10299000E0E640F270000021C2F20000017040F257
:1029A0007200C2F20000017040F27100C2F2000039
:1029B000017040F273000121C2F20000017070BD8D
:1029C00040F2700000210122C2F20000017040F2CA
:1029D0007200C2F20000017040F27100C2F2000009
:1029E000027026E040F2700000210122C2F20000D5
:1029F000017040F27200C2F20000027014E040F276
:102A000070000121C2F20000017040F2720000214A
:102A100007E040F270000021C2F20000017040F2B5
:102A20007200C2F20000017040F27100C2F20000B8
:102A3000017040F27300C2F20000017070BD40F2FC
:102A4000E0002821C2F20000FDF719FD70BD40F240
:102A500028100021C2F20000016070BD40F2281071
:102A6000C2F2000020E040F22810C2F200000FE0A5
:102A700040F22810C2F2000003E040F2C000C2F2AF
:102A800000000321016070BD40F2C000C2F20000EE
:102A90000221016070BD40F2C000C2F2000003E0FC
:102AA00040F2C400C2F200000121016070BD0000CC
:102AB00010B544F6000440F22551C4F2000420464B
:102AC00000F064F8D8B3204600F0F0F840F2082196
:102AD00040F2B01E5B28C2F20001C2F2000E086094
:102AE00040F2B411DEF80030C2F200010C6801BF00
:102AF00053EA04020120086010BD5B2808BF012CC6
:102B00001ED040F2081C012BC2F2000CDCF8004081
:102B100008BF5D281BD0012B08BF5D281ED0012BEC
:102B200018BF10BD40F2401140F22C13C2F2000158
:102B3000C2F200030A6843F82200501C086010BD6E
:102B4000002B02BF0120CEF8000010BDD9E7002CF9
:102B500002BF0120CCF8000010BDDCE7012CDED163
:102B60000020086040F24011CCF80000CEF80000D0
:102B7000C2F20001086010BD8289002942F40053AE
:102B800008BF22F4005383817047000001F01F0248
:102B9000012303FA02F2C1F34213022B06D0012BE8
:102BA00014BF00F1140300F10C0301E000F1100365
:102BB0001B88090A1A404FF0010318BF0122008840
:102BC00003FA01F1084018BF0120104070470000CF
:102BD00001F01F0C012303FA0CFCC1F34213142172
:102BE000022B08BF1021012B08BF0C21002A4258DC
:102BF0000CBF22EA0C0242EA0C024250704700006D
:102C000070B586B00446008A0D46C98801AE20F42E
:102C1000405008434EF6F3112082A0890840A9884D
:102C200008432989084369890843A081A08AA989A2
:102C300020F440700843A0823046FEF733FD43F68F
:102C4000000106F108000222C4F201018C424FF09B
:102C5000190108BF06F10C00042600684843A18949
:102C6000A2EBD1312A6802FA01F1B0FBF1F048F28F
:102C70001F51C5F2EB11A0FB01235A096FF063034A
:102C800002FB0300A389A6EBD336B0403230A0FB91
:102C90000101072040EA133080F0080000EA5110DB
:102CA00040EA0210208106B070BD000080886FF3FA
:102CB0005F207047FEE700002DE9F04F81B0044629
:102CC00040F2B000C2F200000168046040F2AC00C3
:102CD000C2F2000000680091214602F053FE074650
:102CE00040F2A410C2F200003946D0E900A6D0F8A4
:102CF0000890304603F0A4F84CF2000B0546C4F2ED
:102D0000DA5B594602F0AEFE80465846314602F084
:102D1000D1FE40F2AC01B8F1000F08BF3846C2F254
:102D2000000108605046214603F08AF8294602F067
:102D300029FE00990546204603F04EF90146484613
:102D400003F07EF80146284602F01CFE02F0A8FFC0
:102D500001B0BDE8F08F00002DE9F0478CB00820ED
:102D600001214FF00108FEF785FC08200121FEF744
:102D700069FC40F600444FF0030909AE4FF40070BF
:102D80004FF0100AC4F20004CDF82890ADF82400EA
:102D90003146CDF82CA004F580352846FEF704FA1C
:102DA00028464FF40071FEF7ADFB4FF48077042006
:102DB0003146ADF824700B902846FEF7F5F9012056
:102DC0000821FEF7D7F90020CDE9027002A8CDE96D
:102DD00004A8FEF79FF917208DF80290ADF80000C7
:102DE0006846CDF80480FEF7E9FB2046FFF72CF893
:102DF0004FF6FF7006A90790472006902046FFF780
:102E0000BFFB20460121FFF701F8204601210122E6
:102E1000FFF7AAFA20460021FFF700F80CB0BDE842
:102E2000F087000010B50446000A00F0ADF8E0B2EB
:102E3000BDE8104000F0A8B82DE9F04F87B0119E12
:102E4000074690461C460D46069100EB5600013899
:102E500082B28819013883B2384600F0D9FB0721C5
:102E60000122300911EA560F18BF02EB1610704309
:102E70000028049000F08480A6F10C0075083E46FE
:102E80004FF0000BC0F385015FFA85F941EA80112C
:102E9000A8F12000CBB246F2F451C2B20020C0F635
:102EA00000010292039301EB0211019147F6C45114
:102EB000C0F6000101EB821100220091052B5FD8C2
:102EC0000592DFE803F0030D5D0F5D19029946F2EC
:102ED0008012C0F6000201EB410102EB81010CE01F
:102EE00001990AE0029946F6F432C0F6000201EBBD
:102EF000410102EB011100E0009908444FF0000885
:102F000090F800A00120129900FA08F000EA0A00E7
:102F100081B148B10699B0B2024689B20B4600F0C1
:102F200077FB2046FFF77EFF0136B0B2C01BA842F8
:102F30000FD115E000280CBF10982046FFF772FF54
:102F40000BF1010B5FFA8BF0B0FBF9F101FB1900FB
:102F500058B108F10108B8F1080FD3D308E000BF59
:102F600006983E460130069002E04FF0000B00BF8D
:102F7000059A0499039B013290B281423FF69EAFBD
:102F800007B0BDE8F08F0000B0B541F6000405467B
:102F90000221C4F201042046FEF7B4FA20460821BB
:102FA000FEF7B0FA68B2B0F1FF3F04DD2046202101
:102FB000FEF7A8FA03E020462021FEF7A5FA2046F6
:102FC0000821FEF7A1FA20460821FEF79BFA6806C1
:102FD00004D420462021FEF795FA03E02046202164
:102FE000FEF792FA20460821FEF78EFA20460821C5
:102FF000FEF788FAA80604D420462021FEF782FABC
:1030000003E020462021FEF77FFA20460821FEF744
:103010007BFA20460821FEF775FAE80604D420461C
:103020002021FEF76FFA03E020462021FEF76CFA1C
:1030300020460821FEF768FA20460821FEF762FACA
:10304000280704D420462021FEF75CFA03E020463E
:103050002021FEF759FA20460821FEF755FA2046AE
:103060000821FEF74FFA680704D420462021FEF716
:1030700049FA03E020462021FEF746FA20460821BF
:10308000FEF742FA20460821FEF73CFAA80704D4CE
:1030900020462021FEF736FA03E020462021FEF7E5
:1030A00033FA20460821FEF72FFA20460821FEF7C2
:1030B00029FAE80704D120462021FEF723FA03E08D
:1030C00020462021FEF720FA20460821FEF71CFAB0
:1030D00020460221BDE8B040FEF716BA24220021A6
:1030E0000228C4F200020AD0042806D003284FF0B8
:1030F000000006D102F5806201E002F5006210884E
:10310000118000B270470000B0B58AB011200121D3
:103110000124FEF7AFFA012001F0B2F94820ADF822
:103120001C4007A909900320089041F20000C4F256
:103130000100FEF739F8022000210025FEF71AF8F9
:103140000C20CDE90345CDE9050403A8FDF7E2FF16
:1031500004208DF8060040F20620ADF8040001A816
:103160000294FEF72BFA0AB0B0BD000010B500F0D3
:10317000BBF941F600041021C4F201042046FEF719
:10318000C1F9642001F04EF920461021FEF7BCF988
:10319000642001F047F920464021FEF7B5F964208C
:1031A00001F040F920460421FEF7ACF91120FFF7A9
:1031B000EBFE20460421FEF7A7F9782001F032F952
:1031C00020460421FEF79EF93620FFF7DDFE20465B
:1031D0000421FEF799F90020FFF7D6FE20460421CE
:1031E000FEF790F93A20FFF7CFFE20460421FEF7C4
:1031F0008BF90520FFF7C8FE20460421FEF782F96F
:10320000B220FFF7C1FE20460421FEF77DF90C2015
:10321000FFF7BAFE0C20FFF7B7FE0020FFF7B4FE61
:103220003320FFF7B1FE3320FFF7AEFE2046042126
:10323000FEF768F9B720FFF7A7FE20460421FEF746
:1032400063F93520FFF7A0FE20460421FEF75AF966
:10325000BB20FFF799FE20460421FEF755F93220E6
:10326000FFF792FE20460421FEF74CF9C220FFF73B
:103270008BFE20460421FEF747F90120FFF784FE6C
:1032800020460421FEF73EF9C320FFF77DFE2046CD
:103290000421FEF739F91520FFF776FE20460421B8
:1032A000FEF730F9C420FFF76FFE20460421FEF739
:1032B0002BF92020FFF768FE20460421FEF722F9B3
:1032C000C620FFF761FE20460421FEF71DF90F20FE
:1032D000FFF75AFE20460421FEF714F9D020FFF72D
:1032E00053FE20460421FEF70FF9A420FFF74CFE01
:1032F000A120FFF749FE20460421FEF703F9E02054
:10330000FFF742FE20460421FEF7FEF8D020FFF72B
:103310003BFE0820FFF738FE0E20FFF735FE0920A0
:10332000FFF732FE0920FFF72FFE0520FFF72CFEE6
:103330003120FFF729FE3320FFF726FE4820FFF754
:1033400023FE1720FFF720FE1420FFF71DFE152097
:10335000FFF71AFE3120FFF717FE3420FFF714FEA7
:1033600020460421FEF7CEF8E120FFF70DFE2046AF
:103370000421FEF7C9F8D020FFF706FE0820FFF76A
:1033800003FE0E20FFF700FE0920FFF7FDFD0920D8
:10339000FFF7FAFD1520FFF7F7FD3120FFF7F4FDE9
:1033A0003320FFF7F1FD4820FFF7EEFD1720FFF770
:1033B000EBFD1420FFF7E8FD1520FFF7E5FD3120B8
:1033C000FFF7E2FD3420FFF7DFFD20460421FEF782
:1033D00099F82120FFF7D8FD20460421FEF794F844
:1033E00020460421FEF78EF82920FFF7CDFD204668
:1033F0000421BDE81040FEF787B80000F0B58BB09F
:1034000041F218000124C4F20200016841F04501B4
:103410000160012001F034F808200121FEF712F9C3
:1034200045200121FEF726F940200121FEF722F96F
:10343000102008AE03270A90ADF8204040F6004463
:1034400031460997C4F2000404F586352846FDF795
:10345000ABFE28460121FEF757F804200121FEF7B4
:1034600009F9182031460A900F20ADF8200004F524
:103470007C400997FDF798FE4FF47A7005A90690F5
:10348000472005902046FFF77BF8002001ADADF8FE
:103490000C0060202946C0F2010001902046FEF792
:1034A0006BFF20460821FEF7A1FF20462946FEF7C4
:1034B000A3FF20460821FEF7DDFF20462946FEF740
:1034C000E1FF20460821FFF71BF820462946FFF7B9
:1034D0001DF820460821FFF749F820460121FEF794
:1034E0009DFC0BB0F0BD000070B584B04020012100
:1034F000FEF7C0F841F600041026022001AD039645
:10350000ADF804000320C4F20104294602902046CD
:10351000FDF74AFE20460221FDF7F6FF2820294646
:10352000ADF804002046FDF73FFE20462821FDF7B8
:10353000EBFF44202946ADF804002046FDF734FE99
:10354000204648F22001FDF7DFFF20462946ADF86E
:103550000460FDF729FE20461021FDF7D5FF04B0D9
:1035600070BD0000704700002DE9F04F83B00D469C
:1035700011789B460646B1B1DDE90C9ADDF838803A
:10358000571C4FEA5A0400BFCAB2B0B229465B4684
:10359000CDE9009ACDF80880FFF74EFC17F8011B23
:1035A00026440029F0D103B0BDE8F08F7047000039
:1035B000B0B584B070200121FEF75CF8102041F610
:1035C000000401AD03904FF44160C4F201042946A8
:1035D000ADF8040003200290A4F58060FDF7E4FD3F
:1035E0004FF480502946ADF80400A4F50060FDF7C3
:1035F000DBFD4FF480602946ADF804002046FDF75E
:10360000D3FD20464FF48061FDF77EFF04B0B0BDCE
:103610002DE9F04141F600040E4605460421984686
:103620001746C4F201042046FDF76CFF2A20FFF77D
:10363000ABFC20460421FDF767FF280AFFF7A4FC36
:10364000E8B2FFF7A1FC380AFFF79EFCF8B2FFF7DB
:103650009BFC20460421FDF755FF2B20FFF794FC2F
:1036600020460421FDF750FF300AFFF78DFCF0B231
:10367000FFF78AFC4FEA1820FFF786FC5FFA88F014
:10368000FFF782FC20460421FDF73CFF2C20FFF7CA
:103690007BFC20460421BDE8F041FDF735BF00006A
:1036A000F0B58BB041F21800C4F20200016841F499
:1036B00000610160012000F0E3FE42F63C4601207B
:1036C0000027C4F201063780B78000F0D9FEC02081
:1036D0000121C0F21600FDF7D7FE4FF40060012172
:1036E000FDF7C8FF41200121FDF7C4FF032042F68A
:1036F000004408A909901820C4F201040A904FF46C
:10370000C040ADF82000A4F5A050FDF74DFD41F6F6
:103710001F4005A9CDE905702046FEF731FF602066
:1037200001ADC0F20100294601902046CDF80A7093
:10373000FEF7A8FE20460821FEF7E2FE20462946B5
:10374000FEF7E4FE20460821FEF710FF2046012187
:10375000FEF76EFB20460121FEF74EFB20460121BD
:10376000FEF75CFB3780B7800BB0F0BD10B540F6BC
:1037700000444FF40071C4F201042046FDF7C4FE7A
:10378000142000F07DFE20464FF40071FDF7BAFED4
:10379000002010BDB0B58AB002200121FDF752FF14
:1037A00010200121FDF766FF40F600400121C0F224
:1037B0001A00FDF769FE40F20044042001A90390BD
:1037C000C020C4F20004ADF8040004F58630FDF713
:1037D000EBFC07AD2846FEF729FF4FF6FF702946A0
:1037E0000890002007902046FEF7CAFE20460321DD
:1037F00000220023FEF740FC04AD2846FEF7AEFD94
:103800000A202946ADF818002046FEF75DFC204648
:103810000121FEF7FBFA204601210122FEF7A4FD5B
:1038200020460021FEF7AAFE20460121FEF7F6FA07
:103830000AB0B0BDB0B58AB0042001210424FDF760
:1038400001FF20200121FDF715FF4FF480500121D9
:10385000FDF71AFE039440F600044FF4405001A90E
:10386000C4F20004ADF8040004F58630FDF79CFCBA
:1038700007AD2846FEF7DAFE4FF6FF70294608909E
:10388000002007902046FEF77BFE20460321002201
:103890000023FEF7F1FB04AD2846FEF75FFD0A208A
:1038A0002946ADF818002046FEF70EFC20460121FF
:1038B000FEF7ACFA204601210122FEF755FD204615
:1038C0000021FEF75BFE20460121FEF7A7FA0AB0B1
:1038D000B0BD000048F2A81141F65832C4F22221CE
:1038E00090420EDC4EF2A842CFF6FF72904205DA0B
:1038F0000120524248600020086006E001280ADBEF
:103900000246002048600120086042F63C40C4F2B4
:1039100001000280704700280246E9D100224A6077
:103920000A60F2E740F2B01148F2901241F65833C3
:10393000C4F22221C4F2222298420EDC4EF2A843A5
:10394000CFF6FF73984205DA01205B421060002039
:10395000086006E001280ADB034600201060012011
:10396000086042F64040C4F201000380704700281E
:103970000346E9D1002313600B60F2E72DE9F0471D
:1039800098B000200021EF22EF230024FFF740FE33
:10399000002500BF4FF6FF70FFF744FA0135A8B2CB
:1039A000F028F7D30134A0B2F028F1D342F220007E
:1039B00043F6722146F2F45900254D240DF12008FA
:1039C0000A9042F23A00C2F22001C0F60009C2F2A7
:1039D0002000069146F26511099046F64D70C6F238
:1039E0006451C6F26450059147F24931089042F2A1
:1039F0002000C4F65F41C0F220000790CDE903012A
:103A000043F66420C2F22000029047F25300C6F24F
:103A10006550019045F00701A8B20F2300278AB234
:103A20000021FFF7F5FDA4F12000C0B209EB00145E
:103A3000E65D16F0010F0CBF4FF6FF704FF47840B3
:103A4000FFF7F0F9B00754BF4FF6FF704FF478401E
:103A5000FFF7E8F9700754BF4FF6FF704FF4784056
:103A6000FFF7E0F9300754BF4FF6FF704FF478408E
:103A7000FFF7D8F9F00654BF4FF6FF704FF47840C7
:103A8000FFF7D0F9B00654BF4FF6FF704FF47840FF
:103A9000FFF7C8F9700654BF4FF6FF704FF4784037
:103AA000FFF7C0F9300654BF4FF6FF704FF478406F
:103AB000FFF7B8F90137102FBAD118F8014F0835C0
:103AC000002CA7D1002549240DF1100845F007016D
:103AD000A8B21F238AB21021FFF79AFDA4F120009B
:103AE0000024C0B209EB00173E5D16F0010F0CBFB9
:103AF0004FF6FF704FF47840FFF794F9B00754BFCA
:103B00004FF6FF704FF47840FFF78CF9700754BF01
:103B10004FF6FF704FF47840FFF784F9300754BF39
:103B20004FF6FF704FF47840FFF77CF9F00654BF72
:103B30004FF6FF704FF47840FFF774F9B00654BFAA
:103B40004FF6FF704FF47840FFF76CF9700654BFE2
:103B50004FF6FF704FF47840FFF764F9300654BF1A
:103B60004FF6FF704FF47840FFF75CF90134102CEA
:103B7000BAD118F8014F0835002CA7D100255324DD
:103B80000DF1040845F00701A8B22F238AB22021C5
:103B9000FFF73EFDA4F120000024C0B209EB00179E
:103BA0003E5D16F0010F0CBF4FF6FF704FF47840EA
:103BB000FFF738F9B00754BF4FF6FF704FF4784065
:103BC000FFF730F9700754BF4FF6FF704FF478409D
:103BD000FFF728F9300754BF4FF6FF704FF47840D5
:103BE000FFF720F9F00654BF4FF6FF704FF478400E
:103BF000FFF718F9B00654BF4FF6FF704FF4784046
:103C0000FFF710F9700654BF4FF6FF704FF478407D
:103C1000FFF708F9300654BF4FF6FF704FF47840B5
:103C2000FFF700F90134102CBAD118F8014F08350C
:103C3000002CA7D10120FFF795FC3A2000256C2429
:103C40000DF12C08ADF8300046F26C50C7F266401A
:103C50000B9000BF45F00701A8B23F238AB2302184
:103C6000FFF7D6FCA4F120000024C0B209EB001736
:103C70003E5D16F0010F0CBF4FF6FF704FF4784019
:103C8000FFF7D0F8B00754BF4FF6FF704FF47840FD
:103C9000FFF7C8F8700754BF4FF6FF704FF4784035
:103CA000FFF7C0F8300754BF4FF6FF704FF478406D
:103CB000FFF7B8F8F00654BF4FF6FF704FF47840A6
:103CC000FFF7B0F8B00654BF4FF6FF704FF47840DE
:103CD000FFF7A8F8700654BF4FF6FF704FF4784016
:103CE000FFF7A0F8300654BF4FF6FF704FF478404E
:103CF000FFF798F80134102CBAD118F8014F0835A5
:103D0000002CA7D143F67420002572240DF12C0855
:103D1000ADF8300046F672108DF83250C6F66700E6
:103D20000B9000BF45F00701A8B24F238AB2402193
:103D3000FFF76EFCA4F120000024C0B209EB0017CD
:103D40003E5D16F0010F0CBF4FF6FF704FF4784048
:103D5000FFF768F8B00754BF4FF6FF704FF4784094
:103D6000FFF760F8700754BF4FF6FF704FF47840CC
:103D7000FFF758F8300754BF4FF6FF704FF4784004
:103D8000FFF750F8F00654BF4FF6FF704FF478403D
:103D9000FFF748F8B00654BF4FF6FF704FF4784075
:103DA000FFF740F8700654BF4FF6FF704FF47840AD
:103DB000FFF738F8300654BF4FF6FF704FF47840E5
:103DC000FFF730F80134102CBAD118F8014F08353C
:103DD000002CA7D146F6674845F64C7000264C24C7
:103DE0000DF12C0AC3F66528C6F661608DF83460C3
:103DF000CDF830800B9000BF46F00701B0B25F23D2
:103E00008AB25021FFF704FCA4F120000024C0B2C4
:103E100009EB00152F5D17F0010F0CBF4FF6FF7077
:103E20004FF47840FEF7FEFFB80754BF4FF6FF701F
:103E30004FF47840FEF7F6FF780754BF4FF6FF7057
:103E40004FF47840FEF7EEFF380754BF4FF6FF708F
:103E50004FF47840FEF7E6FFF80654BF4FF6FF70C8
:103E60004FF47840FEF7DEFFB80654BF4FF6FF7000
:103E70004FF47840FEF7D6FF780654BF4FF6FF7038
:103E80004FF47840FEF7CEFF380654BF4FF6FF7070
:103E90004FF47840FEF7C6FF0134102CBAD11AF85F
:103EA000014F0836002CA7D145F652700026CDF8F8
:103EB000308052240DF12C08C6F661608DF8346014
:103EC0000B9000BF46F00701B0B26F238AB26021A9
:103ED000FFF79EFBA4F120000024C0B209EB0017FD
:103EE0003D5D15F0010F0CBF4FF6FF704FF47840A9
:103EF000FEF798FFA80754BF4FF6FF704FF47840C5
:103F0000FEF790FF680754BF4FF6FF704FF47840FC
:103F1000FEF788FF280754BF4FF6FF704FF4784034
:103F2000FEF780FFE80654BF4FF6FF704FF478406D
:103F3000FEF778FFA80654BF4FF6FF704FF47840A5
:103F4000FEF770FF680654BF4FF6FF704FF47840DD
:103F5000FEF768FF280654BF4FF6FF704FF4784015
:103F6000FEF760FF0134102CBAD118F8014F083663
:103F7000002CA7D143F64D2000254C240DF12C0830
:103F8000ADF8300045F64C708DF83250C5F25070E7
:103F90000B9000BF45F00701A8B27F238AB27021C1
:103FA000FFF736FBA4F120000024C0B209EB001794
:103FB0003E5D16F0010F0CBF4FF6FF704FF47840D6
:103FC000FEF730FFB00754BF4FF6FF704FF4784054
:103FD000FEF728FF700754BF4FF6FF704FF478408C
:103FE000FEF720FF300754BF4FF6FF704FF47840C4
:103FF000FEF718FFF00654BF4FF6FF704FF47840FD
:10400000FEF710FFB00654BF4FF6FF704FF4784034
:10401000FEF708FF700654BF4FF6FF704FF478406C
:10402000FEF700FF300654BF4FF6FF704FF47840A4
:10403000FEF7F8FE0134102CBAD118F8014F0835FC
:10404000002CA7D143F64D20002552240DF12C0859
:10405000ADF8300045F652708DF83250C5F2507010
:104060000B9000BF45F00701A8B28F238AB28021D0
:10407000FFF7CEFAA4F120000024C0B209EB00172C
:104080003E5D16F0010F0CBF4FF6FF704FF4784005
:10409000FEF7C8FEB00754BF4FF6FF704FF47840EC
:1040A000FEF7C0FE700754BF4FF6FF704FF4784024
:1040B000FEF7B8FE300754BF4FF6FF704FF478405C
:1040C000FEF7B0FEF00654BF4FF6FF704FF4784095
:1040D000FEF7A8FEB00654BF4FF6FF704FF47840CD
:1040E000FEF7A0FE700654BF4FF6FF704FF4784005
:1040F000FEF798FE300654BF4FF6FF704FF478403D
:10410000FEF790FE0134102CBAD118F8014F083593
:10411000002CA7D13A20782556240DF12C08ADF8B3
:10412000300044F25640C4F244100B9008E000BF47
:1041300018F8014F0835002C04BF18B0BDE8F0870F
:1041400045F00701A8B20F2300278AB20021FFF72C
:104150005FFAA4F12000C0B209EB0014E65D16F08E
:10416000010F0CBF4FF6FF704FF47840FEF75AFE78
:10417000B00754BF4FF6FF704FF47840FEF752FE81
:10418000700754BF4FF6FF704FF47840FEF74AFEB9
:10419000300754BF4FF6FF704FF47840FEF742FEF1
:1041A000F00654BF4FF6FF704FF47840FEF73AFE2A
:1041B000B00654BF4FF6FF704FF47840FEF732FE62
:1041C000700654BF4FF6FF704FF47840FEF72AFE9A
:1041D000300654BF4FF6FF704FF47840FEF722FED2
:1041E0000137102FBAD1A3E710B584B00420012104
:1041F000FDF740FA102040F6000401A903900820C2
:10420000C4F20104ADF80400032002902046FCF73C
:10421000CBFF20460821FDF775F904B010BD000062
:104220002DE9F04F85B0049101F076FD054640F28E
:10423000B80040F2B404C2F20000C2F20004016807
:10424000056020680391294601F09CFB80462060B0
:1042500040F24410C2F20000016800914168806899
:10426000019102900420FEF739FF40F27C07C2F270
:10427000000738600320FEF731FF40F2A001404202
:10428000C2F20001086001F03CFA00230022C4F2EF
:10429000690301F04DFA46F200060022C4F29806C6
:1042A000334601F0A7F845F2EC194EF6853AC1F60F
:1042B000B869C3F6B17A4A46534601F039FA48F272
:1042C0001F5B41F6B864C5F2EB1BC4F209045A4601
:1042D000234601F02DFA01F05BF840F2A4013F689B
:1042E000C2F200010860C820784301F00AFA0022F7
:1042F000334601F07FF84A4653464E46D14601F018
:1043000017FA5A462346DA46A34601F011FA01F09D
:104310003FF840F28001C2F200010860009829468F
:1043200001F08EFD04460198414601F089FD0146E9
:10433000204601F027FB03990446284601F04CFE75
:104340000146029801F07CFD0146204601F01AFB6F
:1043500001F0A6FC0546049801F0E8FA52465B46D7
:1043600001F048F832464B4601F044F846F20003AB
:104370000022C4F2980301F0DBF941F27B4247F6D8
:10438000E123C4F2AE72C3F6747301F0D1F901F007
:1043900089F90446C01B01F0BFFCFEF78DFC461BEB
:1043A00040F2A000C2F200000068201A01F0B4FC44
:1043B000FEF782FC40F2740440F298012844C2F2F5
:1043C0000004C2F2000126600860FFF7ABFA206823
:1043D00005B0BDE8F04FFFF77DBA00007047000060
:1043E00080B56FF00400FDF73DFA40F204004DF691
:1043F000836140F21212C2F20000C4F21B31C2F219
:1044000000020068A0FB0101480D1070C1F3475085
:104410004FF47A71484340F21011C2F20001088053
:1044200080BD000040F21011C2F200010988414332
:104430004EF21000CEF20000416000218160016860
:1044400041F00101016000BF016801F00111012983
:104450000ED1016801F00111012909D1016801F0B3
:104460000111012904D1016801F001110129EBD0EA
:10447000016821F0010101600021816070470000A6
:1044800040F21211C2F20001097841434EF21000CD
:10449000CEF20000416000218160016841F001011D
:1044A000016000BF016801F0011101290ED101680E
:1044B00001F00111012909D1016801F0011101295F
:1044C00004D1016801F001110129EBD0016821F04C
:1044D0000101016000218160704700002DE9F04377
:1044E00089B00446042001214FF004094FF001086F
:1044F000FDF7C0F84FF480400121FDF7BBF843F60B
:104500000005032006AF07904FF40070C4F20105C8
:104510003946ADF818001820A5F5405608903046E9
:10452000FCF742FE4FF48060CDF820903946ADF89C
:1045300018003046FCF738FE05208DF802002520D3
:10454000ADF800006846CDF80480FDF737F800208C
:10455000029402A90390ADF814004FF44020049097
:104560002846FEF74DFB284640F225510122FEF772
:104570002FFB28460121FEF7FFFA09B0BDE8F083C2
:104580002DE9F0418AB004464FF4802001214FF01C
:104590000108FDF757F820200121FDF76BF83020C6
:1045A0000121C0F21400FCF76FFF44F60005022061
:1045B00007AF08904FF48070C4F200053946ADF89B
:1045C0001C00182005F54C4609903046FCF7ECFD20
:1045D0000420394609904FF40070ADF81C003046B5
:1045E000FCF7E2FD002627208DF80660ADF80400F8
:1045F00001A8CDF80880FCF7E1FF4FF44020CDE999
:104600000346ADF8186003A905902846FEF7F8FAAE
:10461000284640F225510122FEF7DAFA2846012108
:10462000FEF7AAFA0AB0BDE8F08100002DE9F04FCC
:1046300089B0FDF725F90920FDF78CF8FFF7D0FECA
:1046400001200124FCF7A2FF40F28400C2F2000026
:10465000FDF728F84FF44070FCF7E0FFFEF7CEFEC0
:10466000FFF7C2FDFEF7A2FFFEF780FDFFF786F918
:10467000FEF74AFDFCF784FC4FF41650FFF72EFFBF
:10468000FFF788F8FFF7D6F8FFF70AF8FEF790FF74
:1046900001200121FCF7D6FF312006A9079041F641
:1046A0001F4006904FF08040FDF76AFF4FF08040BA
:1046B00001210122FDF758FE03208DF812004FF46E
:1046C0008E70ADF8100004A80594FCF777FF4FF04A
:1046D00080400121FDF7A2FBFEF790FEFEF746FDAC
:1046E000FEF712FDFEF738FB4FF41650FFF748FFB8
:1046F00040F2A411002040F2B81800221027C2F2A4
:104700000008C2F20001C4F2C820C1E9000200BFE3
:1047100040F2E00AC2F2000A9AE82108DAF80C90A6
:1047200000F0EFFF00230022C4F2240300F062FE39
:1047300000F02EFE40F24411C2F20001086028464B
:104740000E4600F0DEFF48F600030022C4F2C30369
:1047500000F050FE00F01CFE7060584600F0D1FFE3
:1047600000240022C4F25904234600F043FE00F066
:104770000FFEB060484600F0C4FF0022234600F060
:1047800039FE00F005FE40F20C09C2F20009C9F83A
:104790000000DAF8180000F0B4FF0022234600F011
:1047A00029FE00F0F5FD40F2A415C2F200052860D4
:1047B000DAF81C00AB4600F0A4FF0022234600F00C
:1047C00019FE00F0E5FD6860DAF8200000F099FFBE
:1047D0000022234600F00EFE00F0DAFDA8600C2057
:1047E0000521FCF793FE01F0A1F846F266634FF055
:1047F0006632C4F20A0300F09BFF00230022C4F2D9
:10480000260300F095FF49F69A1249F69913C9F666
:104810009912C3F6F17300F08BFF00230022C3F658
:10482000307300F085FF00F0B3FD40F2A80A49F2B2
:104830008455C2F2000AC0F60005CAF8000040F232
:1048400028102946C2F2000002684046FBF7F6FC39
:104850004FF6FF7A00242820002142461F23CDE98D
:1048600000A70294FEF780FE40F208002946C2F23B
:10487000000002684046FBF7E1FC50201021424650
:104880001F23CDE900A70294FEF76EFED9F80000C1
:1048900001F04CF802460B464046B1A1FBF7CEFCB6
:1048A0003020202142461F23CDE900A70294FEF7C5
:1048B0005BFE40F27C0049F28B55C2F20000C0F66C
:1048C0000005026840462946FBF7B8FC302030213D
:1048D00042461F23CDE900A70294FEF745FE40F2B1
:1048E000A0002946C2F2000002684046FBF7A6FC81
:1048F0003020402142461F23CDE900A70294FEF755
:1049000033FE40F28000C2F20000006801F00EF8B1
:1049100049F2995502460B464046C0F60005294625
:10492000FBF78CFC7820302142461F23CDE900A7FD
:104930000294FEF719FE40F2A400C2F200000068E3
:1049400000F0F4FF02460B4640462946FBF776FC92
:104950007820402142461F23CDE900A70294FEF7AC
:1049600003FE40F2780049F28755C2F20000C0F61B
:104970000005026840462946FBF760FC40205021B4
:1049800042461F23CDE900A70294FEF7EDFD40F259
:104990009C002946C2F2000002684046FBF74EFC2C
:1049A0004020602142461F23CDE900A70294FEF774
:1049B000DBFD40F2740049F28F55C2F20000C0F6F0
:1049C0000005026840462946FBF738FC302070217C
:1049D00042461F23CDE900A70294FEF7C5FD40F231
:1049E00098002946C2F2000002684046FBF726FC08
:1049F0003020802142461F23CDE900A70294FEF714
:104A0000B3FD306800F092FF49F2935502460B4621
:104A10004046C0F600052946FBF710FC0020902117
:104A200042461F23CDE900A70294FEF79DFD706862
:104A300000F07CFF02460B4640462946FBF7FEFB92
:104A40005020902142461F23CDE900A70294FEF793
:104A50008BFDB06800F06AFF02460B4640462946CF
:104A6000FBF7ECFBA020902142461F23CDE900A7D5
:104A70000294FEF779FDDBF8000000F057FF0246D4
:104A80000B4640462946FBF7D9FB0020A0214246B1
:104A90001F23CDE900A70294FEF766FDDBF80400B2
:104AA00000F044FF02460B4640462946FBF7C6FB92
:104AB0005020A02142461F23CDE900A70294FEF713
:104AC00053FDDBF8080000F031FF02460B4640467C
:104AD0002946FBF7B3FBA020A02142461F23CDE9C6
:104AE00000A70294FEF740FD40F2A800C2F20000C9
:104AF000006800F01BFF02460B4640461AA1FBF778
:104B00009DFBA020002142461F23CDE900A702946F
:104B1000FEF72AFD40F251120020D0211F23CDE9DB
:104B200000A70294C2F20002FEF71EFDFEF71EFE71
:104B300040F22410C2F20000006800F0F7FE0246C6
:104B40000B4640462946FBF779FB0020E021424610
:104B50001F23CDE900A70294FEF706FDD8E500BFAC
:104B600025332E316600000025322E32660000000B
:104B70005FEA400C08BF91F0000F4FEA8C234FEA28
:104B8000C12243EA51514FEA1C5018BF00F5F040D2
:104B90004FEA300018BF41F000415FEA6C5C00F062
:104BA0002980BCF1FF3F08BF40F080407047130CE4
:104BB00006BF12044FF0100C4FF0000C130E04BF90
:104BC00012020CF1080C130F04BF12010CF1040CBB
:104BD000930F04BF92000CF1020CD30F04BF5200DC
:104BE0000CF1010C11464FF00002A0F11F00A0EBE8
:104BF0000C00704711F0004F08BF704731F00041C2
:104C00003FF4D5AF0B0C06BF09044FF0100C4FF06A
:104C1000000C0B0E04BF09020CF1080C0B0F04BFB3
:104C200009010CF1040C8B0F04BF89000CF1020C7C
:104C3000CB0F04BF49000CF1010CCCF1200322FA88
:104C400003F341EA030102FA0CF2A0EB0C0000F1BD
:104C50000100704723F07F4720F07F4C80EA03007B
:104C600000F00040ACEB070303F57C5303F1FF03B6
:104C70002DE9804909B44FEA144324EA03484FEA76
:104C8000154B25EA0B4E0FF2042606EB13273E7850
:104C900003FB0667C7F5000707FB06F64FEAD64693
:104CA00006F102064FEA543707FB066CCCF1005CB4
:104CB0004FEA1C472CEA074C0CFB06F507FB06F4F1
:104CC00004EB15464FEA961649085FEA320234BFF4
:104CD00000204FF000404FEAD13706FB07FC4FEAB7
:104CE0001C4C0CFB0BF7D21B03FB0CF761EB070111
:104CF0000CFB0EF7B0EB074072EB17420CFB08F70A
:104D000034BFA2EB0742B2EB074261EB17414FEA17
:104D10000C444FEA910706FB07FC4FEA1C4C0CFBC6
:104D20000BF7B0EBC74072EB573203FB0CF734BF05
:104D3000A2EBC742B2EBC74261EB57310CFB0EF757
:104D4000B0EBC70072EB57720CFB08F734BFA2EB55
:104D5000C702B2EBC70261EB57714FEA816141EACA
:104D600092114FEA826242EA90124FEA806004EBAD
:104D7000CC04039F4FEAD13706FB07FC4FEA1C4CDB
:104D80000CFB0BF7D21B03FB0CF761EB07010CFBD1
:104D90000EF7B0EB074072EB17420CFB08F734BF7D
:104DA000A2EB0742B2EB074261EB17414FEA8C5589
:104DB00004EB9C244FEA910706FB07FC4FEA1C4CCE
:104DC0000CFB0BF7B0EBC74072EB573203FB0CF751
:104DD00034BFA2EBC742B2EBC74261EB57310CFBC9
:104DE0000EF7B0EBC70072EB57720CFB08F734BF3D
:104DF000A2EBC702B2EBC70261EB57714FEA8161C8
:104E000041EA92114FEA826242EA90124FEA8060D0
:104E100015EB4C2544F100044FEAD13706FB07FCA3
:104E20004FEA1C4C0CFB0BF7D21B03FB0CF761EB9E
:104E300007010CFB0EF7B0EB074072EB17420CFBBF
:104E400008F734BFA2EB0742B2EB074261EB174110
:104E50004FEA813141EA92414FEA823242EA90427E
:104E60004FEA80304FEA0C7615EB1C1544F1000434
:104E700048EA03434EEA0B484FF0000EB2EB080C31
:104E800071EB030724BF624639464EEB0E0E4FF01E
:104E9000000B0018524149414BEB0B0BB2EB080CD5
:104EA00071EB03077BF1000B24BF624639464EEBE2
:104EB0000E0E4FF0000B0018524149414BEB0B0B0B
:104EC000B2EB080C71EB03077BF1000B24BF6246C9
:104ED00039464EEB0E0E51EA020718BF46F00106A6
:104EE00016EB0E7655F1000254F1000103D5BDE832
:104EF0008901BDE80088BDE88901BDE80048B61910
:104F0000524141EB0101A3F10103704780807F7E94
:104F10007D7C7B7A7978777676757473727171702F
:104F20006F6E6E6D6C6C6B6A6A69686867666665E1
:104F30006464636362616160605F5F5E5E5D5D5C6F
:104F40005C5B5B5A5A5959585857575656555555E0
:104F50005454535352525251515050504F4F4F4E40
:104F60004E4D4D4D4C4C4C4B4B4B4A4A4A4949498E
:104F700048484847474747464646454545444444D0
:104F80004443434343424242424141419C46002BF9
:104F900030D477002BD04FEA37071CB503B44FF05D
:104FA00010004FF01001BAF1000F06D0BCF1000F55
:104FB000DCBF40F0080040F008014FF000000FBCDB
:104FC000BDE810400BF1010BBBF1010F08BF5FEA18
:104FD000170722BF12F1010211F101014FF0004148
:104FE00043F1000300F0004043EA00007047F9D3AA
:104FF0005708D0E746EA06464FEA164613F1400F37
:105000001FDD13F1200FDFBF16430A4600212033B6
:105010005B42BED0C3F1200746EA06464FEA164679
:1050200002FA07F746EA070622FA03F2C3F120075D
:1050300001FA07F742EA070221FA03F14FF00003F1
:10504000A7E746EA020646EA06464FEA164646EA59
:105050000106BCBF46EA0646360C4FF000034FF08F
:1050600000024FF0000194E72DE9804C70B49A469D
:10507000934691E8380007C831EA400C48BF34EA4B
:10508000430C03D5FFF7E6FDFFF780FFF0BCBDE85A
:10509000008C2DE9804C70B49A46934691E8380014
:1050A00007C810F0804F08BF13F0804F03D100F005
:1050B00005F8FFF76BFFF0BCBDE8008C20F07F47E0
:1050C00023F07F4C80EA030000F0004007EB0C0364
:1050D000A3F57C53A3F1FE0392F0000F00F0B38020
:1050E00095F0000F00F077802DE901494FEA11405B
:1050F00021EA00484FEA144624EA064700FB06FC72
:1051000008FB06F607FB08F818EB06484CEB164CB4
:1051100000FB07F718EB07484CEB17404FEA124B20
:1051200022EA0B4E4FEA154625EA06470BFB06FC22
:105130000EFB06F607FB0EFE1EEB064E4CEB164C66
:105140000BFB07F71EEB074E4CEB174B18EB0B084E
:1051500040F1000018EB0E0B58EB000840F1000086
:105160008F1A4FF000014FF000063CBFC943661B89
:1051700014BFB5EB040C00213CBFC943F61B4FEA3A
:10518000174427EA04454FEA1C472CEA074C04FB66
:10519000076205FB07F70CFB05F616EB074642EB2B
:1051A000174204FB0CFC16EB0C4642EB1C421BEBBB
:1051B000060658EB020241414EEA8E0E46EA9E0672
:1051C00001D5BDE80189B619524141EB0101A3F1B6
:1051D0000103BDE801894FEA144524EA05464FEA78
:1051E000114721EA074C05FB07F406FB07F70CFB08
:1051F00006F111EB074144EB174405FB0CFC11EBE6
:105200000C4144EB1C444FEA124722EA074C05FBD1
:1052100007F206FB07F70CFB06F616EB074642EB18
:10522000174205FB0CFC16EB0C4642EB1C456A18BA
:1052300054F1000148BF7047B619524141EB0101DA
:10524000A3F10103704795F0000F37D04FEA1142E8
:1052500021EA02464FEA144724EA074C02FB07F111
:1052600006FB07F70CFB06F414EB074441EB174170
:1052700002FB0CFC14EB0C4441EB1C414FEA1547BC
:1052800025EA074C02FB07F506FB07F70CFB06F6C1
:1052900016EB074645EB174502FB0CFC16EB0C46DC
:1052A00045EB1C42121951F1000148BF7047B61975
:1052B000524141EB0101A3F1010370474FEA14454C
:1052C00024EA05464FEA114721EA074C05FB07F19E
:1052D00006FB07F70CFB06F212EB074241EB174106
:1052E00005FB0CFC12EB0C4251EB1C414FF000068D
:1052F00048BF7047921841EB0101A3F101037047C9
:10530000490050EAC12018BF04204A0D18BF40F0E0
:10531000010040F2FF72B2EB515F08BF40F00200A3
:10532000012808BF0520704730380A2801D2012023
:10533000704700207047000010B500290AD0087897
:10534000002807D005487844FBF71AFD002801D053
:10535000002010BD0248784410BD00007A420000D1
:105360007242000010B500290AD00878002807D042
:1053700005487844FBF704FD002801D0002010BD4B
:105380000248784410BD00006A42000062420000FA
:1053900021F0004201F00043A2F16052B2F5801FFB
:1053A00028BFD2F17F6C0BD95FEA001C43EAC2022E
:1053B00042EB507018BF704728BF20F001007047C3
:1053C000B2F5801FBCBF184670474FEA410C1CF570
:1053D000001F02D2084600F0FABD70B500F052FA84
:1053E00000000089FFF7F6BF4FF00040A0F58000F5
:1053F000704700002DE9C04130B4DFF8A0C23CEA9C
:10540000111418BF3CEA131400F0EC801CEA1114CC
:1054100081EA030544EAD57418BF1CEA131500F0AD
:10542000C780A4EB050404F17F7404F500344FF049
:10543000004545EAC12145EAC32341EA505143EA08
:1054400052534FEAC0204FEAC222994208BF90420D
:1054500000F09C804FEA13650FF24016765D4FEA2C
:10546000134506FB05F7C7F1807706FB07F74FEA00
:10547000D737A7FB03687642A7FB06CEC8F580386E
:1054800038BFA8F1010807FB08E6A6FB028C4FF025
:10549000000EE6FB03CEDCF1000CCEF1004E38BF6F
:1054A000AEF1010EA6FB0C584FF00007E6FB0E878D
:1054B000A1FB08C6A0FB07CE16EB0E064FF00005B9
:1054C00045F10005E1FB076515F1E04E7EBFA4F54F
:1054D00080345FEA46066D4116F1800745F100050C
:1054E0004FEA172747EA05674FEA15254FEA066690
:1054F000A6F1DE46B6F1805F1FD9384605EBC471D0
:1055000024F0010C01EB0C11BCF1FE6F02D8F0BCD1
:10551000BDE8008124425CBF01F5801E9EEAC47F85
:1055200002D4F0BCBDE80081244238D4A1F1C041CE
:10553000F0BCBDE8004100F0F3B94FEAD02040EAEA
:1055400041504FEAD1214FEAD22242EA43524FEA78
:10555000D323A7FB028607FB036605FB02661EEA50
:105560000E0F58BFA6EB0056B6EB00564FEA520E90
:105570004EEAC37E18EB0E0E56EB530EBDD518EB5C
:1055800002085E417F1C55F10005B6E74FF4801517
:105590004FF000074FF000064FF00008ADE701F1B3
:1055A000C04101F000414FF00000F0BCBDE80081B7
:1055B0000CEA131511EA0C1F00D00CE013EA0C1FC3
:1055C00000F025804FF0000081EA030101F0004166
:1055D000F0BCBDE80081F0BCBDE8004181EA0301F8
:1055E00000F09EB9F0BCBDE8004170B500F04AF98A
:1055F000097EFC3E00F007B84FF0000081EA03018D
:1056000001F00041704781EA030100F089B9F0BC64
:10561000BDE8004122494FF000007047FFFDFBF953
:10562000F7F5F4F2F0EEEDEBE9E8E6E4E3E1E0DED5
:10563000DDDBDAD8D7D5D4D3D1D0CFCDCCCBCAC847
:10564000C7C6C5C4C2C1C0BFBEBDBCBBBAB9B8B76E
:10565000B6B5B4B3B2B1B0AFAEADACABAAA9A8A861
:10566000A7A6A5A4A3A3A2A1A09F9F9E9D9C9C9B2F
:105670009A999998979796959594939392919190DA
:105680008F8F8E8E8D8C8C8B8B8A8989888887876B
:105690008685858484838382828181800000FF07E0
:1056A0000000F87F4FEA41034FEA5353A3F58063AC
:1056B000D3F11E03C8BFD3F1210C0CDD4FF0004223
:1056C00042EAC12242EA505232FA03FC8CEAE17CFF
:1056D000ACEBE1707047102BC4BF0020704703F59E
:1056E000787CBCF1FF3F04D06FF0004282EA2100D9
:1056F000704770B500F0C6F84992248000207047CA
:10570000F2E710F0004248BF4042B0FA80F310FACE
:1057100003F10AD0C3F11D0303F5806302EB0352CA
:105720004FEA415002EBD12170474FF00000704723
:1057300070B5DFF848C11CEA111E1EBF1CEA131524
:105740009EEA0C0F95EA0C0F00F06F8081EA0304CB
:105750004EEAD47EAE4421EA4C1123EA4C1341F4C4
:10576000801143F48013AEF17F7EA1FB024CA0FBBD
:105770000365361955EB0C05A1FB034C4CF10003F6
:10578000A0FB021C16EB0C06654153F10003094215
:1057900018BF46F0010613F4007F0BD14FEA033126
:1057A0004FEA053041EA155140EA165034036FF0D4
:1057B00003020AE04FEAC3214FEAC52041EA5551EE
:1057C00040EA5650F4026FF0020202EB2E4201EB67
:1057D000025585EACE710AD05FEA440C18BF24F066
:1057E000004450F1000041F1000120EAD47040F281
:1057F000FE7C624500D270BDA84214BF4FF08044C9
:105800004FF04044002E08BF0024BEF1806FA8BFB7
:10581000A1F1C041BDE8704080F2828001F1C04139
:1058200001F000414FF0000070470CEA13159EEAAA
:105830000C0F18BF95EA0C0F06D081EA030E4FF04B
:1058400000000EF0004170BD00F01CF88900013E20
:1058500000F007B800F009B84FEA430C5FEA5C5C5F
:1058600008D081EA030100F05BB84FEA410C5FEA1F
:105870005C5CF6D102494FF0000070470000FF0762
:105880000000F87F0EF1020E2EF0030E5EF8046B9E
:10589000364205D4012A43EB030515F5001F12D843
:1058A000012841EB010C1CF5001F0CD80ED14FEA6A
:1058B000D17C0CEB4C0C0CF1020C15F5001F08BF51
:1058C0004CEBD37C04E04FF0080C01E04FEAD37CB2
:1058D0000CEB4C0526FA05F606F00706B6F1040CAB
:1058E00006D20EEB860CBDE870404CF0010C604710
:1058F000DFE80CF0090B02024FF00041A1F5002196
:105900004FF0000070BD19461046012851EB01040C
:1059100018BFD4F5001484BF002001F0004170BD11
:105920000808A0F500114FEA3101704743004FEA23
:10593000D30C4FEA3C0C43401FBF40070CF16051B1
:1059400013F0FE4F70471CF0006F03D10CF00041C4
:10595000002070470CF0004343EA507040EACC004E
:1059600010B500F0EEFA00BF000000924FEA00010F
:10597000FFF7D6BF4FF00041A1F500214FF0000026
:105980007047000090EA010F48BF81F0004100F12C
:105990002A83421A3CBF801A89184FEAD052A2EBE0
:1059A000D1534FF07F4C1CEA410F18BF9CEA026FA5
:1059B00000F03B804FF0004C4CEA00204CEA012103
:1059C00021FA03FC10EB0C0C1ED202F1FF325FEA4D
:1059D0001C2040EBC25038BF70471CF07F0F4FEACD
:1059E000400C18BFBCF17F4F38BF7047C3F1200394
:1059F000994008BF20F00100BCF17F4F38BF7047CD
:105A0000A0F1C04000F0E3BA4FEA3C00000A40EBCE
:105A1000C25028BF1CF0FF0F4FEA400CE6D018BF61
:105A2000BCF17F4F38BF7047EAE79CEA026F05D0B0
:105A300010EA5C0F08BF00F00040704710B500F09E
:105A400080FA00BF64FBBE3E10B500F0F5F80CBF55
:105A50000120002010BD10B500F0EEF814BF0120A9
:105A6000002010BD10B500F083F98CBF012000208C
:105A700010BD10B500F07CF92CBF0120002010BD36
:105A800010B500F0A9F994BF0120002010BD10B599
:105A900000F0A2F934BF0120002010BD401058BF13
:105AA000C0F14040491058BFC1F140418142EFF37D
:105AB000008070474FF47F0C1CEAD0121EBF1CEA16
:105AC000D11392EA0C0F93EA0C0F00F0858090EA54
:105AD000010F48BF42F4807240F4000C41F4000012
