:020000040800F2
:1000000088070020F9010008A914000879140008E5
:10001000A5140008B90F00082D27000800000000F3
:100020000000000000000000000000000B020008BB
:10003000BD0F0008000000000F02000811020008B8
:10004000130200081302000813020008130200083C
:100050001302000813020008C10F00081302000871
:10006000130200081302000813020008130200081C
:10007000130200081302000813020008130200080C
:1000800013020008130200081302000813020008FC
:1000900013020008130200081302000813020008EC
:1000A00013020008130200081302000813020008DC
:1000B000C918000841190008551900081302000862
:1000C00013020008130200081302000813020008BC
:1000D00013020008D92100081302000813020008C7
:1000E000130200081302000813020008130200089C
:1000F000130200081302000813020008130200088C
:10010000130200081302000869190008130200080E
:10011000130200081302000813020008130200086B
:10012000130200081302000813020008130200085B
:1001300000F002F800F050F80AA090E8000C8244A9
:100140008344AAF10107DA4501D100F045F8AFF286
:10015000090EBAE80F0013F0010F18BFFB1A43F0A5
:1001600001031847A8810000C8810000103A24BF8D
:1001700078C878C1FAD8520724BF30C830C144BF0C
:1001800004680C607047000000230024002500264E
:10019000103A28BF78C1FBD8520728BF30C148BFEA
:1001A0000B607047662904F04A86642900F082805B
:1001B000002070471FB500F035FC0400002000212E
:1001C00004F076FB401C60600020002104F05AFB24
:1001D000E0601FBD10B510BD00F070FD1146FFF7C7
:1001E000E9FF03F0A5FD00F09CFD03B4FFF7F2FF6B
:1001F00003BC03F0CBFC00000948804709480047D6
:10020000FEE7FEE7FEE7FEE7FEE7FEE7FEE7FEE7C6
:10021000FEE7FEE704480549054A064B7047000023
:1002200071170008310100088801002088070020AC
:100230008803002088030020704700000FB41CB51D
:10024000074B06AA7B4469460090059800F08DFB99
:100250000020694600F09CFB1CBC5DF814FB00000C
:100260004907000070B5044685690068C10601D5DC
:10027000302600E02026C00707D070BDD4E9012158
:1002800030469047206A401C20626D1EF6D570BD36
:1002900070B5044685690078C00707D170BDD4E900
:1002A000012120209047206A401C20626D1EF6D557
:1002B00070BD00002DE9F041064600241068752944
:1002C000314616A510D0AFF30080002802DA404274
:1002D00013A507E031688A0701D512A502E0490796
:1002E00004D511A5012401E0AFF3008000210A220A
:1002F00006F1240709E0B0FBF2FCB0FBF2F302FBCD
:100300001C00303078541846491C0028F3D123468D
:100310002A463046BDE8F04100F0BAB800000000BF
:100320002D0000002B000000200000002DE9F05FF0
:10033000894604464FF0000ADFF824B1FB44C0F8B8
:1003400020A02046E168884700287DD0252806D0D7
:10035000D4E901219047206A401C2062F1E7002582
:100360005F462046E16888472028064607DB312E95
:1003700005D2B81910F8200C08B10543F1E7A80719
:1003800001D525F00405C4F81CA00027C4F818A066
:100390002A2E09D0304604F06DFA38B304EB8708F2
:1003A000303EC8F8186019E059F8041B204604EBE9
:1003B00087029161E1688847012F064618D1E069FC
:1003C000002820DA25F020051DE0D8F8180000EB01
:1003D000800006EB40003038C8F818002046E1687D
:1003E0008847064604F046FA0028EED1012F0AD0CD
:1003F0002E2E08D12046E16888477F1C0646022F32
:1004000045F02005C4DBA069002803DA404245F02E
:100410000105A061E80701D025F01005A6B1A6F1FD
:100420004100192802D8203645F400654A46314675
:10043000204625604D46FFF7B5FE60B1012807D084
:10044000ED1D25F0070000E007E000F1080978E75E
:1004500005F1040975E730467AE7206ABDE8F09FA8
:10046000024B000070B5064600F00EF80468054621
:1004700030460A22002100F090FA2C6070BD7047CF
:100480007047704770470000004870471800002010
:100490002DE9F0470D4699469246044600F124089E
:1004A0000168880604D5E06921F01001216000E0B0
:1004B0000120A84201DD471B00E00027A1697A194D
:1004C00002EB0900081AA0612078C00602D4204679
:1004D000FFF7C8FE002608E0D4E901211AF806005B
:1004E0009047206A401C761C20624E45F4DB207841
:1004F000C0060AD52046FFF7B5FE06E0D4E9012183
:1005000030209047206A401C2062381EA7F1010766
:10051000F4DC07E0D4E9012118F805009047206ACF
:10052000401C2062281EA5F10105F3DC2046FFF7E0
:10053000AFFE2078000602D50220BDE8F08701203A
:10054000FBE72DE9FF4F0C461E464FF0FF378BB0FF
:10055000D2E90001DDF860800A908A46C1F30A55AD
:1005600005B93D46002108464FF00000BAF1000FE2
:1005700000F4400005DA00EB80004FF4400101EA8E
:1005800050004FEA9059B9F1010F00DDB9460A98C1
:1005900050EA4A000ED044F61050A5F2FF3545430C
:1005A0002F14B8F1000F1ED07542291E1EDDC9F1AF
:1005B00000021CE0B8F1010F4FF0000001D0302123
:1005C00003E0F24305E02154401CB042FBDB30461F
:1005D0000022002121540B99C1F80880C1E90020B4
:1005E0000FB0BDE8F08FBD1B6D1CDEE74A4600DA98
:1005F000694206A800F0F0FA06AB93E8070003ABE7
:1006000083E8070050460A9903F058FD8DE807007B
:10061000A0F500501F3800900398002D0ADD42F22B
:100620001F014A460844002303A90390684603F0CB
:10063000C1FF09E0A0F500504A461F38002303A976
:100640000390684603F0CBFF8DE807000004000C20
:1006500003D04FF0FF30410800E01046B8F1000F22
:1006600003D00022009215461EE0751E05D400F04E
:10067000DDF9303262556D1EF9D5B34601220843CB
:1006800002D000227F1C04E02078302801D1002213
:100690007F1E002A099784D01DE0112D07DA00F093
:1006A000C5F9303262556D1C50EA0102F5D108439C
:1006B00002D00098C8B10EE00021681E05E0235C5E
:1006C000625C63542254401E491C8142F7DBAB46F6
:1006D000A81B401E0990002004F80B000B98099AF3
:1006E000C0F80880C0E9002B7AE711264FF0000817
:1006F00057E72DE9F04F88460446D21D22F0070146
:1007000091B0D1E90001CDE90A0104F09FF8024659
:100710000B98C00F01D02D2007E02068810701D57C
:100720002B2002E0202101EAC000032A099001D019
:10073000072A05DB03464146204600F0BDF90BE1E0
:100740002078800601D5E06900E00620B8F1650F49
:10075000814606D0B8F1660F18D0B8F1670F70D196
:1007600031E00020B9F1110F009001DB112301E00D
:1007700009F101030AAA01A90CA8FFF7E2FEDDE9CD
:100780000C70002609F10105834647E001204B4625
:1007900000904FF000470AAA01A90CA8FFF7D1FE6C
:1007A000DDE90DB00C995D46002610B909F1010094
:1007B0000D18B9EB050003D4C0F1FF3609F10105AE
:1007C000A5EB09002BE0B9F1010F01DA4FF00109A7
:1007D0000020B9F1110F0090484601DD112300E01F
:1007E00003460AAA01A90CA8FFF7ABFEDDE90C70CD
:1007F0004D4600268346207800070AD4AB4500DA30
:100800005D4601A8012D04DD411911F8011C3029B4
:1008100007D04F4502DA17F1040F04DA01208246AF
:100820000FE06D1EEEE7002F02DCED1B3E4403E0FF
:10083000781CA84200DD7D1CB81B00F1010A4FF0B6
:1008400000472078000703D4AA4501DB4FF0FF3AA8
:100850000021B7F1004F0DF143088DF8431024D06B
:1008600002202B23002F01DA7F422D230A21021EB2
:10087000A0F1010000DC5FB197FBF1FC97FBF1F206
:1008800001FB1C7C17460CF1300C08F801CDEEE79B
:10089000A8F1010003702188090501D5452100E078
:1008A0006521A0F1010800F8011C09980FA9A1EB2E
:1008B0000807FF1D00B10120411901EBEA70A16991
:1008C0003844081A401EA0612078C00602D4204691
:1008D000FFF7C8FC099828B1D4E901219047206AA4
:1008E000401C20622078C00622D52046FFF7BAFCC3
:1008F0001EE0002E04DBB34502DD01A8805D00E0B0
:100900003020D4E901219047206A401C2062761CE7
:10091000AAF101005FEA000A0AD100F083F8C0687A
:100920000168405CD4E901219047206A401C2062A4
:10093000281EA5F10105DCDC07E0D4E9012118F847
:10094000010B9047206A401C2062381EA7F1010766
:10095000F3DC2046FFF79CFC032011B041E60000C9
:1009600001694A1C02610878704700B58FB0CDE973
:1009700001310021059105497944CDE90310114663
:100980006846FFF7D3FC0FB000BD0000E5FFFFFF96
:100990000A6802F8010B0A6070472DE9F04791469A
:1009A0000F4680460446002614F8015B2DB100F086
:1009B00031F80068405DC007F6D12B2D02D02D2DF7
:1009C00018D0641E4A463946204600F0B5F827B1D3
:1009D0003968A14201D1C7F800804FF002047105C7
:1009E0000BD54042002803DDFFF74EFD0460A00751
:1009F000BDE8F08746F48066E4E70028F8DAFFF700
:100A000043FD04606FF00040F2E7000000487047CB
:100A10001800002010B500F005F8001D10BD00BF43
:100A2000913E0000004870473800002030B5B0F11A
:100A30000A0271F100034FEA900E4EEA817EB0EB9C
:100A40000E0061EB91014FEA101E4EEA017E10EBA1
:100A50000E0041EB11114FEA102E4EEA016E10EB21
:100A60000E0041EB11214FEA104E4EEA014E10EB01
:100A70000E0041EB1141401841F100014FEAD00056
:100A800040EA41704FEAD1014FEA810444EA907490
:100A900010EB800544EB01046D1944EB0404521B78
:100AA000A3414FF0000348BF0A3200D530BD401CBF
:100AB00041F1000130BD00002DE9F0411F46044620
:100AC00003260168072A01F4006004DB08B116A5BB
:100AD00005E016A503E008B115A500E015A521F075
:100AE00010002060A069C01EA0610FB1401EA0616F
:100AF0002046FFF7B7FB4FB1D4E9012138469047B4
:100B0000206A401C2062C01C206206E0206AFAE7CE
:100B1000D4E9012115F8010B9047761EF8D2204642
:100B2000FFF7B6FBBDE8F0814E414E006E616E00EE
:100B3000494E4600696E66002DE9F05F8246154613
:100B40008B4600270AF10104B9460078302801D00D
:100B50009DB113E014F8010B0127782803D0582821
:100B600001D045B10AE00DB1102D07D1002714F8CE
:100B7000010B102502E0082500E00A250026B046FA
:100B80000EE005FB080005FB06F101271FFA80F8BF
:100B900001EB1046B6F5803F00D3B94614F8010BBF
:100BA000294600F0B0F80028EBDABBF1000F05D0C1
:100BB0000FB1641E00E05446CBF80040B9F1000FBD
:100BC00006D0FFF761FC02210160C81EBDE8F09F5E
:100BD00048EA0640FAE700002DE9F047814616464C
:100BE0008AB0354878440DC88DE80D003248784405
:100BF000801C03AC0DC884E80D0041F69B3008440E
:100C0000372190FBF1F290FBF1F5A5F1800501FB96
:100C100012041B3C02D56442012000E00020DFF8F2
:100C200098A080460027FA44AAF1BE0A0EE0E00729
:100C30000AD03246684607EB470101230AEB8101DF
:100C400003F0CDFC8DE8070064107F1C002CEED172
:100C5000194F7F44AE3F19E0E80715D007EB0410A9
:100C60000DF1180A90E80E008AE80E00C068F04204
:100C700001D1981908903246012306A903A803F070
:100C8000AEFC03AB83E807006D10641C002DE3D1BC
:100C90004FF0010332466946B8F1000F03A802D0B5
:100CA00003F088FC01E003F09AFCC9E90001C9F8EF
:100CB00008200AB0BDE8F087E84200007546FFF75B
:100CC000A5FEAE4605006946534620F0070085465E
:100CD00018B020B5FFF79EFABDE820404FF000069F
:100CE0004FF000074FF000084FF0000BAC46ACE8A7
:100CF000C009ACE8C009ACE8C009ACE8C00921F003
:100D000007018D4670473A2800D2303820F0200283
:100D1000412A01D3A2F13700884201D34FF0FF30BE
:100D2000704710B50446AFF300802046BDE8104080
:100D3000FFF75BBA4FF0013C50F8042B51F8043B2D
:100D40009A4221D1A2EB0C03934313EACC1317D19F
:100D500050F8042B51F8043B9A4215D1A2EB0C0336
:100D6000934313EACC130BD150F8042B51F8043BF6
:100D70009A4209D1A2EB0C03934313EACC13DBD0C4
:100D80004FF00000704700BFD01A01BAB1FA81F1EC
:100D900001F0180122FA01F0CB40DBB2C0B2C01A58
:100DA000C1F120012CFA01F3D11A914311EAC311C8
:100DB000E6D170478268002942F0010308BF22F0A3
:100DC000010383607047000080B543F60041C4F220
:100DD0000101884214D042F60001C4F201018842A8
:100DE00016D042F20041C4F20101884218BF80BD12
:100DF0004FF40070012100F0C1FB4FF400700EE0D1
:100E00004FF40040012100F0B9FB4FF4004006E030
:100E10004FF48060012100F0B1FB4FF480600021AD
:100E2000BDE8804000F0AABB8068C0F38000704736
:100E3000C06C80B2704700000068084018BF0120F5
:100E4000704700008068C0F3C000704780B54FF65F
:100E5000FF634268CFF6F07302EA030CD1E9003277
:100E600043EA0C0343EA02224FF2FD734260CFF6DD
:100E7000F173826802EA030ED1E902C30A6942EA09
:100E80000E021A4342EA4C028260C26A097D0139AD
:100E900022F47002C9B242EA0151C16280BD000071
:100EA00010B501EB410C092988BFACF11E0C0929D2
:100EB00003FA0CFE4FF0070303FA0CFC4FF010038B
:100EC00088BF0C23062AC45824EA0C0444EA0E0402
:100ED000C45003D834306FF0040307E00C2A87BFF6
:100EE0002C306FF0400330306FF0220302EB8202AF
:100EF0001A441F23914003FA02F2036823EA020214
:100F00001143016010BD0000816841F0080181605B
:100F1000704700008268002942F4A00308BF22F451
:100F2000A003836070470000816841F00401816084
:100F30007047000070B58AB04FF40170012101259F
:100F400000F010FB4FF4004000F0EAFA42F20044D7
:100F50000026042001A9C4F201040396ADF80400A0
:100F6000A4F5A05000F098F82046FFF72DFF4FF4AD
:100F70006020CDE90466069604A9CDE9070620465F
:100F80008DF82450FFF762FF20460121FFF712FF82
:100F90002046FFF7B9FF00BF2046FFF753FF0028A8
:100FA000FAD12046FFF7C0FF2046FFF73DFF00289B
:100FB000FAD10AB070BD0000FEE7000070470000E3
:100FC00080B5322002F006FE41F200000121C4F299
:100FD000010000F009FA30B940F21400C2F200003A
:100FE000016801310160012000F006F80120BDE830
:100FF000804002F01DBE000040F21441C4F2010125
:1010000008607047C26840F20041C4F20101F2B1C9
:1010100002680B6893430B604B6893434B60D0F8B6
:1010200004C05CF801301A434CF8012002688B6858
:1010300093438B60CB689343CB60806810280DD1BD
:10104000886810438860C8681043C8607047D0E95A
:101050000020435823EA02024250704743581A4383
:101060004250704780B50C2240F2080E0F2302EA6E
:10107000810201F0FC01C4F2010E03FA02FC51F8F6
:101080000E30904023EA0C0341F80E3051F80E2048
:10109000104341F80E0080BD80B5D1F808E00EF095
:1010A0000F0C1EF0100F1CBF4B684CEA030C098894
:1010B00011F0FF0F00F0A4800368CA070BD023F0E3
:1010C0000F02BEF1480F42EA0C0315D0BEF1280F03
:1010D00001D1012242618A0712D523F0F002BEF14C
:1010E000280F42EA0C131CD0BEF1480F08D102228F
:1010F00002614A0706D418E0012202618A07ECD493
:101100004A0712D523F47062BEF1280F42EA0C237D
:101110001CD0BEF1480F08D1042202610A0719D57C
:1011200005E0022242614A07ECD40A0712D523F4F3
:101130007042BEF1280F42EA0C331CD0BEF1480FBA
:1011400008D108220261CA0606D418E004224261CE
:101150000A07ECD4CA0612D523F47022BEF1280F78
:1011600042EA0C431CD0BEF1480F08D110220261A4
:101170008A0619D505E008224261CA06ECD48A061F
:1011800012D523F47002BEF1280F42EA0C531CD092
:10119000BEF1480F08D1202202614A0606D418E0A9
:1011A000102242618A06ECD44A0612D523F07062FE
:1011B000BEF1280F42EA0C631AD0BEF1480F08D1E5
:1011C000402202610A061AD505E0202242614A0641
:1011D000ECD40A0613D523F07042BEF1280F42EA80
:1011E0000C730AD0BEF1480F09D18022026106E0DB
:1011F000402242610A06EED401E08022426103608F
:10120000B1F5807F38BF80BD4368CA050CD523F097
:101210000F02BEF1480F42EA0C0317D0BEF1280FAF
:1012200002D14FF4807242618A0514D523F0F00296
:10123000BEF1280F42EA0C131FD0BEF1480F0AD1AD
:101240004FF4007202614A0507D41BE04FF480722C
:1012500002618A05EAD44A0514D523F47062BEF10E
:10126000280F42EA0C231FD0BEF1480F0AD14FF4D9
:10127000806202610A051CD506E04FF400724261EB
:101280004A05EAD40A0514D523F47042BEF1280FAA
:1012900042EA0C331FD0BEF1480F0AD14FF400626E
:1012A0000261CA0407D41BE04FF4806242610A0560
:1012B000EAD4CA0414D523F47022BEF1280F42EAFE
:1012C0000C431FD0BEF1480F0AD14FF48052026187
:1012D0008A041CD506E04FF400624261CA04EAD4D5
:1012E0008A0414D523F47002BEF1280F42EA0C538D
:1012F0001FD0BEF1480F0AD14FF4005202614A04D8
:1013000007D41BE04FF4805242618A04EAD44A04B5
:1013100014D523F07062BEF1280F42EA0C631ED090
:10132000BEF1480F0AD14FF48042026109041BD577
:1013300006E04FF4005242614A04EAD4090413D58E
:1013400023F07041BEF1280F41EA0C730ED0BEF1BC
:10135000480F09D14FF400410161436080BD4FF453
:10136000804242610904EBD4436080BD4FF40041E8
:101370004161436080BD000010B50422002800F4E4
:1013800040141FFA80FCC4F201021346B8BF43F0B8
:101390001803B4F5401F1B68C0F3034E07D114684F
:1013A00023F0706324F07064146081B916E0C40205
:1013B00006D447F6F07404EA50440CFA04F402E050
:1013C000032404FA0EF4A34343F0706331B147F6EB
:1013D000F07101EA50410CFA01F10B430028B8BF4B
:1013E0001832136010BD00008068084018BF01204B
:1013F0007047000041617047016170472DE9F0437B
:1014000081B08946804671B342F20046002400272D
:10141000C4F201063046414601220723FFF740FD92
:1014200030460121FFF776FD30460221FFF704FD2B
:101430000028F9D03046FFF7FBFC0546052002F0F6
:10144000C9FB284603F028FC0546384603F024FC77
:10145000294603F09FFB03F0FFFB01340746E0B28F
:101460004845D7D300E00027B7FBF9F003F014FCA0
:1014700001B0BDE8F0830000FEE7000041F2180172
:10148000C4F202010A6842F001020A600421C4F2B7
:1014900001010A6822F0E0620A600A6842EA4060DC
:1014A00008607047FEE700007047000042684EF297
:1014B0000011CEF20001EAB110B54EF60C5207232E
:1014C000CEF20002126890F801E0847890F800C033
:1014D00023EA12220F23D340C2F1040223400EFA62
:1014E00002F21A4301EB0C03120183F80023BDE85A
:1014F000104000E080310078012300F01F02C0F3AB
:10150000421003FA02F241F82020704740F0806058
:101510004EF60C5140F0FD70CEF2000108607047AD
:1015200041F20401C4F202010A6822F4404210436D
:101530000860704741F21C020029C4F202021168DF
:101540000CBF21EA000008431060704741F210020E
:101550000029C4F2020211680CBF21EA000008430E
:101560001060704741F218020029C4F202021168AB
:101570000CBF21EA000008431060704741F20C02E2
:101580000029C4F2020211680CBF21EA00000843DE
:101590001060704780B541F2040EC4F2020EDEF80E
:1015A000002002F00C0341F20022C0F27A02082B64
:1015B0001FD1DEF80030C3F3834303F1020CDEF8E1
:1015C000003013F4803F06D140F60012C0F23D0215
:1015D0000CFB02F20DE0DEF8003013F4003F02D104
:1015E0000CFB02F205E040F60012C0F23D020CFBDB
:1015F00002F2026044F6EC61DEF80030C0F6000151
:10160000C3F30313CB5CDA404260DEF80030C3F36F
:101610000223CB5C22FA03F38360DEF80030C3F3CD
:10162000C223C95C44F6E863C0F6000322FA01F164
:10163000C160DEF80020C2F381329A5CB1FBF2F1A6
:10164000016180BD41F2000100221423C4F20201B5
:101650000A61CA604B618A61CA610B6843F0010389
:101660000B600023D1F804C0CFF6FF0303EA0C039C
:101670004B604FF6FF73D1F800C0CFF6F66303EA74
:101680000C034EF6085C0B60CEF2000C0B6823F4E2
:1016900080230B604B6823F4FE034B604FF0006324
:1016A0008A60CCF800300B6843F480330B6000BFD5
:1016B0000B68B3F5003F0BD20B68B2EB534F07D169
:1016C0000B68B2EB534F03D10B68B3F5003FEFD378
:1016D0004FF4806202384A60C0B24A6842EA8040F1
:1016E0004860486840F4803048604FF480500A58A1
:1016F00042F032020A50086840F080700860002012
:101700000A68B2F1007F0BD20A68B0EB526F07D1C2
:101710000A68B0EB526F03D10A68B2F1007FEFD3D1
:10172000486840F002004860486800F00C00082853
:101730000FD0486800F00C0008280AD0486800F074
:101740000C00082808BF7047486800F00C00082803
:10175000EAD170474EF210010428CEF200010A6867
:1017600022F0040308BF42F004030B60704700003E
:1017700082B041F204000022C4F20200CFF6FF0260
:1017800050F8041C41F0010140F8041C01681140AC
:101790004FF6FF720160CFF6F66250F8041C11405C
:1017A00040F8041C50F8041C21F4802140F8041C6B
:1017B000016821F4FE0101604FF41F014160002126
:1017C0000191009150F8041C41F4803140F8041C50
:1017D00050F8041C01F4003100910199013101918C
:1017E000009919B90199B1F5A06FF1D150F8041C15
:1017F00011F4003F0CBF0021012100910099012943
:1018000058D1D0F8FC1F41F01001C0F8FC1FD0F8EF
:10181000FC1F21F00301C0F8FC1FD0F8FC1F41F0B1
:101820000201C0F8FC1F01680160016801600168E5
:1018300041F480610160016821F47C11016001685C
:1018400041F4E811016050F8041C41F0807140F847
:10185000041C00BF50F8041C11F0007F0ED150F89A
:10186000041C11F0007F09D150F8041C11F0007F16
:1018700004D150F8041C11F0007FEBD0016821F076
:1018800003010160016841F002010160016801F09B
:101890000C0108290ED0016801F00C01082909D0BB
:1018A000016801F00C01082904D0016801F00C0165
:1018B0000829EBD14EF608504FF00061CEF200003F
:1018C000016002B07047000080B54FF080400121F8
:1018D00000F0BEF9002808BF80BD4FF08040012114
:1018E00000F068F840F20800C2F20000006801F061
:1018F000CFFC40F20400C2F20000006801F0A0FC3E
:10190000042001F0B5F840F27C01C2F20001086049
:1019100040F28001C2F200010A681044086003200E
:1019200001F0A6F840F29801C2F20001086040F20E
:101930009C01C2F200010A681044086080BD0000EA
:1019400040F21040C4F200000188018821F001013A
:101950000180704740F61000C4F200000188018841
:1019600021F001010180704710B540F600440121CB
:10197000C4F20004204600F06BF9002808BF10BD37
:101980002046012100F016F840F2B000C2F200003B
:1019900001680131016010BD0288002942F0800316
:1019A00008BF22F08003038070470000C943018212
:1019B00070470000C9430182704700000288002977
:1019C00042F0010308BF22F00103038070470000CA
:1019D000B0F84420002913466FF3DF3318BF42F4F8
:1019E0000043A0F84430704780B541F6FF71C4F25F
:1019F0000001884228DD44F2FF31C4F2010188422F
:101A00003FDD44F6FF31C4F2010188426EDD44F649
:101A10000041C4F20101884200F0B58045F20001A6
:101A2000C4F20101884200F0B68045F20041C4F2E0
:101A30000101884218BF80BD4FF400100121FFF75B
:101A40009DFD4FF40010D7E040F6FF71C4F2000195
:101A5000884232DC40F2FF71C4F2000188425ADC55
:101A6000B0F1804F00F09F8040F20041C4F20001CD
:101A7000884240F0D08002200121FFF767FD02205C
:101A8000C4E043F2FF31C4F20101884255DC42F266
:101A90000001C4F20001884200F08B8042F6004150
:101AA000C4F20101884240F0B6804FF40060012189
:101AB000FFF764FD4FF400609EE041F2FF71C4F255
:101AC000000188424DDC41F20001C4F2000188426D
:101AD00077D041F20041C4F20001884240F09B807F
:101AE00020200121FFF732FD20208FE044F2004149
:101AF000C4F2010188426AD044F60001C4F2010137
:101B0000884240F088804FF480200121FFF736FDA5
:101B10004FF4802070E040F60001C4F200018842DA
:101B20005DD040F60041C4F20001884273D1082024
:101B30000121FFF70BFD082068E043F20041C4F2E9
:101B40000101884251D044F20001C4F201018842EF
:101B500061D14FF480300121FFF710FD4FF4803048
:101B60004AE041F60001C4F20001884249D041F642
:101B70000041C4F2000188424DD180200121FFF7CD
:101B8000E5FC802042E04FF400200121FFF7F6FC45
:101B90004FF4002030E04FF480100121FFF7EEFCFD
:101BA0004FF4801028E001200121FFF7CFFC012035
:101BB0002CE04FF480700121FFF7C8FC4FF48070D7
:101BC00024E010200121FFF7C1FC10201EE04FF49B
:101BD00000300121FFF7D2FC4FF400300CE004206C
:101BE0000121FFF7B3FC042010E04FF40050012165
:101BF000FFF7C4FC4FF400500021BDE88040FFF720
:101C0000BDBC40200121FFF7A1FC40200021BDE820
:101C10008040FFF79BBC80BD80B5B0F808C02CF0B9
:101C2000070C41EA0C01B0F818C0B0F820E00181BF
:101C30004FF6FC410CEA010C40F2011141EA0C01A3
:101C4000018342EA03112EF022021143018480BD78
:101C5000028A0A4018BF01228089084018BF01206B
:101C60001040704770B50B88042B2AD0002B56D13A
:101C7000B1F802C00A898B88068C40F6FF354FF612
:101C8000FC74C4F2000526F0010643EA0213024682
:101C9000A842068432F8186FB0F820E026F0F30668
:101CA00043EA06036DDCB0F1804F7DD040F2004581
:101CB000C4F20005A84277D040F60005C4F2000542
:101CC0006FE00E894B888A88058C40F6FF44360306
:101CD00025F0100546EA02260584024632F8185F10
:101CE000B0F820E0254046EA050C40F6FF356FF0DD
:101CF0000306C4F20005A6F1AD04A84262DCB0F10F
:101D0000804F71D040F20045C4F20005A8426BD06C
:101D100040F60005C4F20005A84265D068E00A89D3
:101D20008C884E88058C082B71D125F48073038430
:101D300044EA0213024632F81C5FB0F820E025F0B6
:101D4000F30543EA050C6FF4405303F5145440F6D1
:101D5000FF33C4F20003984200F38180B0F1804F5A
:101D600000F08F8040F20043C4F20003984200F07C
:101D7000888040F60003C4F20003984200F081809E
:101D800084E040F60045C4F20005A8420CD042F6BB
:101D90000045C4F20105A84206D043F20045C4F252
:101DA0000105A84218BF083C03830EEA040343EA76
:101DB0000C0343F001030384C988038B23F00C0355
:101DC000038394E040F60045C4F20005A8420BD01E
:101DD00043F20045C4F20105A84205D042F6004591
:101DE000C4F20105A84203D14FF6FC741B012D3C3F
:101DF0000EEA0406A0F818C0334343F0100303842E
:101E0000C988038B23F44063090203836FE025F440
:101E100080531203038442EA0423024640F6FF443F
:101E200032F81C5FB0F820C0254046F6FF5443EA64
:101E3000050E40F6FF33C4F20003984234DCB0F1E3
:101E4000804F43D040F20043C4F2000398423DD09B
:101E500040F60003C4F20003984237D039E040F660
:101E60000043C4F2000398420BD043F20043C4F293
:101E70000103984205D042F60043C4F201039842A0
:101E800004D14CF6FF73360203F534540EEA040312
:101E9000A0F81CC0334343F480730384C988838B48
:101EA00023F00C03838322E040F60043C4F20003D6
:101EB00098420BD043F20043C4F20103984205D08C
:101EC00042F60043C4F20103984202D136034CF6B5
:101ED000FF740CEA0403A0F81CE0334343F480537E
:101EE0000384C988838B23F44063090283831088A9
:101EF0000843108070BD0000002101220160426093
:101F000001817047002A82890CBF22EA0101114336
:101F10008181704710B5028C22F001020284048C8A
:101F2000B0F804E0038B0A8823F0730343EA020C41
:101F30000B8924F002021A434B881A43A0F1804314
:101F4000A3F596334FEAB323072B14D8012404FAE0
:101F500003F313F0E50F0ED08C892EF4407322F0BA
:101F60000C022343CC8943EA040E4B8923F004037B
:101F70001A438B881A43A0F804E0A0F818C0C98857
:101F80008186028410BD0000028B22F008021143FA
:101F90000183704710B5028C22F010020284048C79
:101FA000B0F804E0038B0A8823F4E64343EA022CEA
:101FB0000B8924F0200242EA03124B8842EA031202
:101FC00043F20043C4F20103984205D042F60043B5
:101FD000C4F20103984212D18B892EF4406422F09E
:101FE000C00244EA8303CC8943EA840E4B896FF034
:101FF0004F0404EA03131A438B8842EA0312A0F841
:1020000004E0A0F818C0C9880187028410BD000050
:10201000028B22F4006242EA012101837047000032
:1020200010B5028C22F480720284048CB0F804E0B3
:10203000838B0A8823F0730343EA020C0B8924F490
:10204000007242EA03224B8842EA032243F2004331
:10205000C4F20103984205D042F60043C4F20103E2
:10206000984212D18B892EF4405422F4406244EA03
:102070000313CC8943EA041E4B8940F2FF441B0240
:10208000A3431A438B8842EA0322A0F804E0A0F895
:102090001CC0C9888187028410BD0000828B22F099
:1020A000080211438183704710B5028C22F48052DC
:1020B0000284048CB0F804E0828B0B8822F4E642A0
:1020C00042EA032C0B8924F4005242EA03324B8883
:1020D00042EA033343F20042C4F20102904205D0C7
:1020E00042F60042C4F20102904204D18A892EF4E1
:1020F000804444EA821EA0F804E0A0F81CC0C9880D
:10210000A0F84010038410BD828B22F4006242EAE2
:1021100001218183704700008184704740F6FF33BE
:10212000B0F800C0C4F2000398420FDCB0F1804F59
:102130001ED040F20043C4F20003984218D040F68B
:102140000003C4F20003984212D016E040F60043A8
:10215000C4F2000398420BD043F20043C4F20103DF
:10216000984205D042F60043C4F20103984204D1DC
:102170004B882CF0700243EA020C41F2004240F41A
:102180008063C4F20002934204D0CB882CF44072E6
:1021900043EA020CA0F800C08A8882850A8802857A
:1021A000A0F18042A2F596324FEAB222072A07D860
:1021B000012303FA02F212F0E50F1CBF097A01862F
:1021C00001218182704700004FF6FF7141600021BC
:1021D000016001727047000070B543F6000440F2E0
:1021E0002551C4F20104204600F00CFA002800F04A
:1021F0007F80204600F096FA044640F28010C2F23A
:102200000000A4F1580304602046252B1ED8592154
:102210000222DFE803F013151B1B1B1B1B1B1B1BE0
:102220001B1B1B1B1B1B1B1B1B1B1B1B1B1B1B1BFE
:102230001B1B1B1B1B1B1B1B1B451B6E5821012241
:1022400040F20000C2F200000270084640F2E401D1
:10225000C2F200010978B1B13A2870D0232840F0C9
:10226000908040F2841100200122C2F20001087027
:1022700040F2A401C2F200010A7040F2E501C2F28C
:1022800000010870D3E040F2E000C2F200000268F2
:10229000511C016040F2E600C2F200008454D5E017
:1022A00040F2D80000210122C2F20000016040F299
:1022B000E400C2F20000027040F28410C2F200009A
:1022C000027040F2A400C2F20000017040F2E5008A
:1022D000C2F20000027040F2E000C2F200000168A9
:1022E0004A1C026040F2E600C2F200004454D5E00D
:1022F00070BD40F2E40040F284160025C2F20000F6
:10230000C2F200060570307800284ED040F2AC00D2
:10231000C2F20000016840F2A500C2F2000045547C
:10232000FEF7A0F840F2D80140F2B4023570C2F2D4
:102330000001C2F20002096842F8210042E040F2C6
:10234000AC0540F2A5000022C2F20005C2F2000076
:1023500029684254FEF786F840F2E50240F2841103
:10236000C2F20002C2F2000116780B78A6B3002B6D
:1023700041D00021117040F2D801C2F20001086082
:102380004CE0A0F13001092924D840F2AC02C2F29D
:1023900000021168052944DC4B1C136040F2A502C1
:1023A000C2F200025054002041E040F2A400C2F208
:1023B0000000007830B140F2D800C2F2000001689D
:1023C0000131016040F2AC000021C2F20000016066
:1023D00001202CE000202AE06BB140F2D80240F24C
:1023E000B403C2F20002C2F20003126843F82200F2
:1023F0000020087012E040F2A401C2F20001097846
:1024000061B140F2D801C2F200010A68531C0B60AE
:1024100040F2B401C2F2000141F82200002028601D
:1024200005E040F2A5010020C2F20001887140F2EF
:10243000E0020028C2F20002136803F101011160FA
:1024400040F2E602C2F20002D4540AD040F2E600A2
:102450000022C2F20000425440F2E000C2F200004A
:1024600002600B2C38BF70BDA4F14100262815D89E
:10247000DFE800F0714848487E5F5F5F1414141471
:102480001414141414141414141414141488141498
:1024900014141414149EA3A8ADB2B70040F278002F
:1024A0000021C2F20000017040F27A00C2F2000086
:1024B000017040F27900C2F20000017040F27B002E
:1024C000C2F20000017040F27810C2F20000016018
:1024D00040F27C10C2F20000016040F26810C2F2CB
:1024E0000000016040F26C10C2F20000016040F296
:1024F0007010C2F20000016040F27410C2F20000DD
:102500000160F5E640F278000021C2F2000001709F
:1025100040F27A00C2F20000017040F27900C2F28B
:102520000000017040F27B000121C2F20000017046
:1025300070BD40F2780000210122C2F2000001705B
:1025400040F27A00C2F20000017040F27900C2F25B
:102550000000027026E040F2780000210122C2F261
:102560000000017040F27A00C2F20000027014E034
:1025700040F278000121C2F20000017040F27A00BE
:10258000002107E040F278000021C2F20000017053
:1025900040F27A00C2F20000017040F27900C2F20B
:1025A0000000017040F27B00C2F20000017070BDBB
:1025B00040F27810C2F2000017E040F27C10C2F244
:1025C000000012E040F26810C2F200000DE040F29C
:1025D0006C10C2F2000008E040F27010C2F200007D
:1025E00003E040F27410C2F200000121016070BDEE
:1025F0008289002942F4005308BF22F400538381EA
:102600007047000001F01F02012303FA02F2C1F338
:102610004213022B06D0012B14BF00F1140300F16A
:102620000C0301E000F110031B88090A1A404FF067
:10263000010318BF0122008803FA01F1084018BF06
:10264000012010407047000001F01F0C012303FA25
:102650000CFCC1F342131421022B08BF1021012BE3
:1026600008BF0C21002A42580CBF22EA0C0242EAA1
:102670000C0242507047000070B586B00446008AD4
:102680000D46C98801AE20F4405008434EF6F311C0
:102690002082A0890840A9880843298908436989BC
:1026A0000843A081A08AA98920F440700843A08231
:1026B0003046FEF76FFF43F6000106F108000222E4
:1026C000C4F201018C424FF0190108BF06F10C0061
:1026D000042600684843A189A2EBD1312A6802FA96
:1026E00001F1B0FBF1F048F21F51C5F2EB11A0FB74
:1026F00001235A096FF0630302FB0300A389A6EBD1
:10270000D336B0403230A0FB0101072040EA13303D
:1027100080F0080000EA511040EA0210208106B063
:1027200070BD000080886FF35F207047FEE70000F7
:10273000F0B587B0102001211024FEF713FF04200C
:1027400001210427FEF7F6FE032004AE0590402089
:102750003146ADF81000069440F60044C4F200047F
:1027600004F582352846FEF797FC28464021FEF7FF
:1027700041FE80203146ADF8100028460697FEF74E
:102780008BFC2046FFF730F94FF6FF7001A902904D
:10279000472001902046FFF7C1FC20460121FFF7AA
:1027A00005F9204601210122FFF7ACFB204600215C
:1027B000FFF704F907B0F0BD10B50446000A00F0B9
:1027C000ADF8E0B2BDE8104000F0A8B82DE9F04F38
:1027D00087B0119E074690461C460D46069100EBB9
:1027E0005600013882B28819013883B2384600F0A9
:1027F000D9FB07210122300911EA560F18BF02EB5D
:10280000161070430028049000F08480A6F10C009C
:1028100075083E464FF0000BC0F385015FFA85F95D
:1028200041EA8011A8F12000CBB245F27031C2B26A
:102830000020C0F600010292039301EB0211019106
:1028400046F64031C0F6000101EB821100220091F2
:10285000052B5FD80592DFE803F0030D5D0F5D19CE
:10286000029944F6FC62C0F6000201EB410102EB62
:1028700081010CE001990AE0029945F67012C0F658
:10288000000201EB410102EB011100E00099084454
:102890004FF0000890F800A00120129900FA08F00B
:1028A00000EA0A0081B148B10699B0B2024689B285
:1028B0000B4600F077FB2046FFF77EFF0136B0B2F3
:1028C000C01BA8420FD115E000280CBF109820466D
:1028D000FFF772FF0BF1010B5FFA8BF0B0FBF9F120
:1028E00001FB190058B108F10108B8F1080FD3D362
:1028F00008E000BF06983E460130069002E04FF027
:10290000000B00BF059A0499039B013290B28142EB
:102910003FF69EAF07B0BDE8F08F0000B0B541F6BE
:10292000000405460221C4F201042046FEF762FDC0
:1029300020460821FEF75EFD68B2B0F1FF3F04DDDE
:1029400020462021FEF756FD03E020462021FEF719
:1029500053FD20460821FEF74FFD20460821FEF7D3
:1029600049FD680604D420462021FEF743FD03E01C
:1029700020462021FEF740FD20460821FEF73CFDC1
:1029800020460821FEF736FDA80604D42046202163
:10299000FEF730FD03E020462021FEF72DFD204606
:1029A0000821FEF729FD20460821FEF723FDE80651
:1029B00004D420462021FEF71DFD03E020462021FF
:1029C000FEF71AFD20460821FEF716FD20460821D5
:1029D000FEF710FD280704D420462021FEF70AFD4B
:1029E00003E020462021FEF707FD20460821FEF7E0
:1029F00003FD20460821FEF7FDFC680704D42046AD
:102A00002021FEF7F7FC03E020462021FEF7F4FC2E
:102A100020460821FEF7F0FC20460821FEF7EAFCDC
:102A2000A80704D420462021FEF7E4FC03E020465A
:102A30002021FEF7E1FC20460821FEF7DDFC2046C0
:102A40000821FEF7D7FCE80704D120462021FEF735
:102A5000D1FC03E020462021FEF7CEFC20460821D1
:102A6000FEF7CAFC20460221BDE8B040FEF7C4BC18
:102A7000242200210228C4F200020AD0042806D031
:102A800003284FF0000006D102F5806201E002F554
:102A900000621088118000B270470000B0B58AB0A3
:102AA000112001210124FEF75DFD012001F0C0F895
:102AB0004820ADF81C4007A909900320089041F276
:102AC0000000C4F20100FEF7E7FA02200021002511
:102AD000FEF7C8FA0C20CDE90345CDE9050403A8AB
:102AE000FEF790FA04208DF8060040F20620ADF8BB
:102AF000040001A80294FEF7D9FC0AB0B0BD0000A2
:102B000010B500F0BBF941F600041021C4F2010435
:102B10002046FEF76FFC642001F05CF8204610218F
:102B2000FEF76AFC642001F055F820464021FEF7CC
:102B300063FC642001F04EF820460421FEF75AFCA5
:102B40001120FFF7EBFE20460421FEF755FC78200C
:102B500001F040F820460421FEF74CFC3620FFF738
:102B6000DDFE20460421FEF747FC0020FFF7D6FEDD
:102B700020460421FEF73EFC3A20FFF7CFFE204618
:102B80000421FEF739FC0520FFF7C8FE204604218A
:102B9000FEF730FCB220FFF7C1FE20460421FEF70D
:102BA0002BFC0C20FFF7BAFE0C20FFF7B7FE00202D
:102BB000FFF7B4FE3320FFF7B1FE3320FFF7AEFE80
:102BC00020460421FEF716FCB720FFF7A7FE20469B
:102BD0000421FEF711FC3520FFF7A0FE204604215A
:102BE000FEF708FCBB20FFF799FE20460421FEF704
:102BF00003FC3220FFF792FE20460421FEF7FAFB89
:102C0000C220FFF78BFE20460421FEF7F5FB0120D2
:102C1000FFF784FE20460421FEF7ECFBC320FFF7FC
:102C20007DFE20460421FEF7E7FB1520FFF776FE28
:102C300020460421FEF7DEFBC420FFF76FFE20468E
:102C40000421FEF7D9FB2020FFF768FE204604216F
:102C5000FEF7D0FBC620FFF761FE20460421FEF7F9
:102C6000CBFB0F20FFF75AFE20460421FEF7C2FBE4
:102C7000D020FFF753FE20460421FEF7BDFBA42021
:102C8000FFF74CFEA120FFF749FE20460421FEF786
:102C9000B1FBE020FFF742FE20460421FEF7ACFB2B
:102CA000D020FFF73BFE0820FFF738FE0E20FFF78D
:102CB00035FE0920FFF732FE0920FFF72FFE052021
:102CC000FFF72CFE3120FFF729FE3320FFF726FE09
:102CD0004820FFF723FE1720FFF720FE1420FFF700
:102CE0001DFE1520FFF71AFE3120FFF717FE3420D6
:102CF000FFF714FE20460421FEF77CFBE120FFF7DE
:102D00000DFE20460421FEF777FBD020FFF706FEDC
:102D10000820FFF703FE0E20FFF700FE0920FFF753
:102D2000FDFD0920FFF7FAFD1520FFF7F7FD312023
:102D3000FFF7F4FD3320FFF7F1FD4820FFF7EEFD2C
:102D40001720FFF7EBFD1420FFF7E8FD1520FFF734
:102D5000E5FD3120FFF7E2FD3420FFF7DFFD2046DF
:102D60000421FEF747FB2120FFF7D8FD2046042170
:102D7000FEF742FB20460421FEF73CFB2920FFF72B
:102D8000CDFD20460421BDE81040FEF735BB000014
:102D9000F0B58BB041F218000124C4F202000168C2
:102DA00041F045010160012000F042FF08200121AF
:102DB000FEF7C0FB45200121FEF7D4FB4020012196
:102DC000FEF7D0FB102008AE03270A90ADF8204094
:102DD00040F6004431460997C4F2000404F58635F4
:102DE0002846FEF759F928460121FEF705FB042085
:102DF0000121FEF7B7FB182031460A900F20ADF8ED
:102E0000200004F57C400997FEF746F94FF47A70EC
:102E100005A90690472005902046FFF77FF900207E
:102E200001ADADF80C0060202946C0F20100019010
:102E30002046FFF76FF820460821FFF7A5F8204647
:102E40002946FFF7A7F820460821FFF7E1F82046BA
:102E50002946FFF7E5F820460821FFF71FF920462D
:102E60002946FFF721F920460821FFF74DF92046B2
:102E70000121FEF7A3FD0BB0F0BD000070B584B0DA
:102E800040200121FEF76EFB41F6000410260220CF
:102E900001AD0396ADF804000320C4F201042946F5
:102EA00002902046FEF7F8F820460221FEF7A4FA29
:102EB00028202946ADF804002046FEF7EDF820460C
:102EC0002821FEF799FA44202946ADF8040020464F
:102ED000FEF7E2F8204648F22001FEF78DFA204680
:102EE0002946ADF80460FEF7D7F820461021FEF71A
:102EF00083FA04B070BD0000704700002DE9F04F68
:102F000083B00D4611789B460646B1B1DDE90C9AB7
:102F1000DDF83880571C4FEA5A0400BFCAB2B0B27D
:102F200029465B46CDE9009ACDF80880FFF74EFCB4
:102F300017F8011B26440029F0D103B0BDE8F08F3B
:102F400070470000B0B584B070200121FEF70AFB85
:102F5000102041F6000401AD03904FF44160C4F22B
:102F600001042946ADF8040003200290A4F5806016
:102F7000FEF792F84FF480502946ADF80400A4F50E
:102F80000060FEF789F84FF480602946ADF8040030
:102F90002046FEF781F820464FF48061FEF72CFAB8
:102FA00004B0B0BD2DE9F04141F600040E460546DF
:102FB000042198461746C4F201042046FEF71AFA87
:102FC0002A20FFF7ABFC20460421FEF715FA280A59
:102FD000FFF7A4FCE8B2FFF7A1FC380AFFF79EFC5C
:102FE000F8B2FFF79BFC20460421FEF703FA2B20E2
:102FF000FFF794FC20460421FEF7FEF9300AFFF7A4
:103000008DFCF0B2FFF78AFC4FEA1820FFF786FC30
:103010005FFA88F0FFF782FC20460421FEF7EAF908
:103020002C20FFF77BFC20460421BDE8F041FEF791
:10303000E3B90000F0B58BB041F21800C4F2020011
:10304000016841F400610160012000F0F1FD42F6E9
:103050003C4601200027C4F201063780B78000F00B
:10306000E7FDC0200121C0F21600FEF785F94FF4FC
:1030700000600121FEF776FA41200121FEF772FA85
:10308000032042F6004408A909901820C4F2010464
:103090000A904FF4C040ADF82000A4F5A050FDF711
:1030A000FBFF41F61F4005A9CDE905702046FFF75B
:1030B00035F8602001ADC0F201002946019020469C
:1030C000CDF80A70FEF7ACFF20460821FEF7E6FFB8
:1030D00020462946FEF7E8FF20460821FFF714F8AE
:1030E00020460121FEF774FC20460121FEF754FC26
:1030F00020460121FEF762FC3780B7800BB0F0BD9F
:10310000B0B58AB002200121FEF714FA1020012187
:10311000FEF728FA40F600400121C0F21A00FEF73F
:103120002BF940F20044042001A90390C020C4F20E
:103130000004ADF8040004F58630FDF7ADFF07ADDF
:103140002846FFF741F84FF6FF7029460890002007
:1031500007902046FEF7E2FF2046032100220023CD
:10316000FEF75AFD04AD2846FEF7C6FE0A202946A2
:10317000ADF818002046FEF775FD20460121FEF748
:1031800015FC204601210122FEF7BCFE204600214D
:10319000FEF7C2FF20460121FEF710FC0AB0B0BDC9
:1031A000B0B58AB0042001210424FEF7C3F9202021
:1031B0000121FEF7D7F94FF480500121FEF7DCF82A
:1031C000039440F600044FF4405001A9C4F20004F7
:1031D000ADF8040004F58630FDF75EFF07AD284624
:1031E000FEF7F2FF4FF6FF70294608900020079087
:1031F0002046FEF793FF2046032100220023FEF71E
:103200000BFD04AD2846FEF777FE0A202946ADF8EF
:1032100018002046FEF726FD20460121FEF7C6FBDA
:10322000204601210122FEF76DFE20460021FEF717
:1032300073FF20460121FEF7C1FB0AB0B0BD0000BC
:1032400048F2A81141F65832C4F2222190420EDC15
:103250004EF2A842CFF6FF72904205DA01205242A8
:1032600048600020086006E001280ADB02460020D2
:1032700048600120086042F63C40C4F20100028030
:10328000704700280246E9D100224A600A60F2E74E
:1032900040F2B01148F2901241F65833C4F22221A4
:1032A000C4F2222298420EDC4EF2A843CFF6FF73FE
:1032B000984205DA01205B4210600020086006E0B9
:1032C00001280ADB0346002010600120086042F656
:1032D0004040C4F201000380704700280346E9D152
:1032E000002313600B60F2E72DE9F04397B0002054
:1032F0000021EF22EF230024FFF754FE002500BF3A
:103300004FF6FF70FFF758FA0135A8B2F028F7D34F
:103310000134A0B2F028F1D342F2200045F2703817
:1033200000254D240DF11C09099042F23A00C0F627
:103330000008C2F22000089046F64D70C6F26450B4
:10334000079042F22000C0F22000069043F672205F
:10335000C2F22000059046F26510C6F26450049057
:1033600047F24930C4F65F400390202002904FF0AE
:103370002030019046F25910C3F67720009000BF2C
:1033800045F00701A8B20F2300278AB20021FFF7FA
:1033900009FEA4F12000C0B208EB0014E65D16F0AF
:1033A000010F0CBF4FF6FF704FF47840FFF704FA9F
:1033B000B00754BF4FF6FF704FF47840FFF7FCF9A9
:1033C000700754BF4FF6FF704FF47840FFF7F4F9E1
:1033D000300754BF4FF6FF704FF47840FFF7ECF919
:1033E000F00654BF4FF6FF704FF47840FFF7E4F952
:1033F000B00654BF4FF6FF704FF47840FFF7DCF98A
:10340000700654BF4FF6FF704FF47840FFF7D4F9C1
:10341000300654BF4FF6FF704FF47840FFF7CCF9F9
:103420000137102FBAD119F8014F0835002CA7D158
:10343000002549240DF10C0945F00701A8B21F230E
:103440008AB21021FFF7AEFDA4F120000024C0B223
:1034500008EB00173E5D16F0010F0CBF4FF6FF7032
:103460004FF47840FFF7A8F9B00754BF4FF6FF704C
:103470004FF47840FFF7A0F9700754BF4FF6FF7084
:103480004FF47840FFF798F9300754BF4FF6FF70BC
:103490004FF47840FFF790F9F00654BF4FF6FF70F5
:1034A0004FF47840FFF788F9B00654BF4FF6FF702D
:1034B0004FF47840FFF780F9700654BF4FF6FF7065
:1034C0004FF47840FFF778F9300654BF4FF6FF709D
:1034D0004FF47840FFF770F90134102CBAD119F885
:1034E000014F0835002CA7D100255924E94600BF1B
:1034F00045F00701A8B22F238AB22021FFF752FD21
:10350000A4F120000024C0B208EB00173E5D16F0C5
:10351000010F0CBF4FF6FF704FF47840FFF74CF9E6
:10352000B00754BF4FF6FF704FF47840FFF744F9EF
:10353000700754BF4FF6FF704FF47840FFF73CF927
:10354000300754BF4FF6FF704FF47840FFF734F95F
:10355000F00654BF4FF6FF704FF47840FFF72CF998
:10356000B00654BF4FF6FF704FF47840FFF724F9D0
:10357000700654BF4FF6FF704FF47840FFF71CF908
:10358000300654BF4FF6FF704FF47840FFF714F940
:103590000134102CBAD119F8014F0835002CA7D1ED
:1035A0000120FFF7A9FC3A2000256C240DF1280921
:1035B000ADF82C0046F26C50C7F266400A9000BF8E
:1035C00045F00701A8B23F238AB23021FFF7EAFC99
:1035D000A4F120000024C0B208EB00173E5D16F0F5
:1035E000010F0CBF4FF6FF704FF47840FFF7E4F87F
:1035F000B00754BF4FF6FF704FF47840FFF7DCF888
:10360000700754BF4FF6FF704FF47840FFF7D4F8BF
:10361000300754BF4FF6FF704FF47840FFF7CCF8F7
:10362000F00654BF4FF6FF704FF47840FFF7C4F830
:10363000B00654BF4FF6FF704FF47840FFF7BCF868
:10364000700654BF4FF6FF704FF47840FFF7B4F8A0
:10365000300654BF4FF6FF704FF47840FFF7ACF8D8
:103660000134102CBAD119F8014F0835002CA7D11C
:1036700043F67420002572240DF12809ADF82C00C2
:1036800046F672108DF82E50C6F667000A9000BFFD
:1036900045F00701A8B24F238AB24021FFF782FC10
:1036A000A4F120000024C0B208EB00173E5D16F024
:1036B000010F0CBF4FF6FF704FF47840FFF77CF816
:1036C000B00754BF4FF6FF704FF47840FFF774F81F
:1036D000700754BF4FF6FF704FF47840FFF76CF857
:1036E000300754BF4FF6FF704FF47840FFF764F88F
:1036F000F00654BF4FF6FF704FF47840FFF75CF8C8
:10370000B00654BF4FF6FF704FF47840FFF754F8FF
:10371000700654BF4FF6FF704FF47840FFF74CF837
:10372000300654BF4FF6FF704FF47840FFF744F86F
:103730000134102CBAD119F8014F0835002CA7D14B
:1037400043F6742000254C240DF12809ADF82C0017
:1037500045F64C708DF82E50C6F663600A9000BF97
:1037600045F00701A8B25F238AB25021FFF71AFC87
:10377000A4F120000024C0B208EB00173E5D16F053
:10378000010F0CBF4FF6FF704FF47840FFF714F8AD
:10379000B00754BF4FF6FF704FF47840FFF70CF8B6
:1037A000700754BF4FF6FF704FF47840FFF704F8EE
:1037B000300754BF4FF6FF704FF47840FEF7FCFF20
:1037C000F00654BF4FF6FF704FF47840FEF7F4FF59
:1037D000B00654BF4FF6FF704FF47840FEF7ECFF91
:1037E000700654BF4FF6FF704FF47840FEF7E4FFC9
:1037F000300654BF4FF6FF704FF47840FEF7DCFF01
:103800000134102CBAD119F8014F0835002CA7D17A
:1038100043F67420002552240DF12809ADF82C0040
:1038200045F652708DF82E50C6F663600A9000BFC0
:1038300045F00701A8B26F238AB26021FFF7B2FBFF
:10384000A4F120000024C0B208EB00173E5D16F082
:10385000010F0CBF4FF6FF704FF47840FEF7ACFF3E
:10386000B00754BF4FF6FF704FF47840FEF7A4FF47
:10387000700754BF4FF6FF704FF47840FEF79CFF7F
:10388000300754BF4FF6FF704FF47840FEF794FFB7
:10389000F00654BF4FF6FF704FF47840FEF78CFFF0
:1038A000B00654BF4FF6FF704FF47840FEF784FF28
:1038B000700654BF4FF6FF704FF47840FEF77CFF60
:1038C000300654BF4FF6FF704FF47840FEF774FF98
:1038D0000134102CBAD119F8014F0835002CA7D1AA
:1038E00043F64D2000254C240DF12809ADF82C009D
:1038F00045F64C708DF82E50C5F250700A9000BFFE
:1039000045F00701A8B27F238AB27021FFF74AFB76
:10391000A4F120000024C0B208EB00173E5D16F0B1
:10392000010F0CBF4FF6FF704FF47840FEF744FFD5
:10393000B00754BF4FF6FF704FF47840FEF73CFFDE
:10394000700754BF4FF6FF704FF47840FEF734FF16
:10395000300754BF4FF6FF704FF47840FEF72CFF4E
:10396000F00654BF4FF6FF704FF47840FEF724FF87
:10397000B00654BF4FF6FF704FF47840FEF71CFFBF
:10398000700654BF4FF6FF704FF47840FEF714FFF7
:10399000300654BF4FF6FF704FF47840FEF70CFF2F
:1039A0000134102CBAD119F8014F0835002CA7D1D9
:1039B00043F64D20002552240DF12809ADF82C00C6
:1039C00045F652708DF82E50C5F250700A9000BF27
:1039D00045F00701A8B28F238AB28021FFF7E2FAEF
:1039E000A4F120000024C0B208EB00173E5D16F0E1
:1039F000010F0CBF4FF6FF704FF47840FEF7DCFE6E
:103A0000B00754BF4FF6FF704FF47840FEF7D4FE76
:103A1000700754BF4FF6FF704FF47840FEF7CCFEAE
:103A2000300754BF4FF6FF704FF47840FEF7C4FEE6
:103A3000F00654BF4FF6FF704FF47840FEF7BCFE1F
:103A4000B00654BF4FF6FF704FF47840FEF7B4FE57
:103A5000700654BF4FF6FF704FF47840FEF7ACFE8F
:103A6000300654BF4FF6FF704FF47840FEF7A4FEC7
:103A70000134102CBAD119F8014F0835002CA7D108
:103A80003A20782556240DF12809ADF82C0044F28F
:103A90005640C4F244100A9008E000BF19F8014FE4
:103AA0000835002C04BF17B0BDE8F08345F00701CE
:103AB000A8B20F2300278AB20021FFF773FAA4F1FE
:103AC0002000C0B208EB0014E65D16F0010F0CBF39
:103AD0004FF6FF704FF47840FEF76EFEB00754BF0C
:103AE0004FF6FF704FF47840FEF766FE700754BF44
:103AF0004FF6FF704FF47840FEF75EFE300754BF7C
:103B00004FF6FF704FF47840FEF756FEF00654BFB4
:103B10004FF6FF704FF47840FEF74EFEB00654BFEC
:103B20004FF6FF704FF47840FEF746FE700654BF24
:103B30004FF6FF704FF47840FEF73EFE300654BF5C
:103B40004FF6FF704FF47840FEF736FE0137102F26
:103B5000BAD1A3E710B584B004200121FDF702FD1E
:103B6000102040F6000401A903900820C4F20104CB
:103B7000ADF80400032002902046FDF78DFA2046A0
:103B80000821FDF737FC04B010BD000070470000AD
:103B900080B56FF00400FDF7DDFD40F20C004DF63E
:103BA000836140F2DE02C2F20000C4F21B31C2F2B5
:103BB00000020068A0FB0101480D1070C1F34750DE
:103BC0004FF47A71484340F2DC01C2F200010880F0
:103BD00080BD000040F2DC01C2F2000109884143CF
:103BE0004EF21000CEF200004160002181600168B9
:103BF00041F00101016000BF016801F001110129DC
:103C00000ED1016801F00111012909D1016801F00B
:103C10000111012904D1016801F001110129EBD042
:103C2000016821F0010101600021816070470000FE
:103C300040F2DE01C2F20001097841434EF2100069
:103C4000CEF20000416000218160016841F0010175
:103C5000016000BF016801F0011101290ED1016866
:103C600001F00111012909D1016801F001110129B7
:103C700004D1016801F001110129EBD0016821F0A4
:103C80000101016000218160704700002DE9F043CF
:103C900089B00446042001214FF004094FF00108C7
:103CA000FDF760FC4FF480400121FDF75BFC43F61B
:103CB0000005032006AF07904FF40070C4F2010521
:103CC0003946ADF818001820A5F540560890304642
:103CD000FDF7E2F94FF48060CDF820903946ADF859
:103CE00018003046FDF7D8F905208DF80200252090
:103CF000ADF800006846CDF80480FDF7D7FB002042
:103D0000029402A90390ADF814004FF440200490EF
:103D10002846FEF7B1FC284640F225510122FEF765
:103D200093FC28460121FEF763FC09B0BDE8F0834F
:103D30002DE9F04F89B0FDF71BFD0920FDF782FC4E
:103D4000FFF726FF01200124FDF798FB40F28400D5
:103D5000C2F20000FDF71EFC4FF44070FDF7D6FBE9
:103D6000FFF716F8FFF7F6FEFFF7EAF8FEF7C8FED2
:103D7000FFF7BAFAFEF792FEFDF7DCF84FF41650A3
:103D8000FFF784FFFFF7BCF9FFF70AFAFFF752F9D4
:103D9000FFF7D8F801200121FDF7CCFB312006A95F
:103DA000079041F61F4006904FF08040FEF7B6F9AD
:103DB0004FF0804001210122FEF7A4F803208DF886
:103DC00012004FF48E70ADF8100004A80594FDF7B2
:103DD0006DFB4FF080400121FDF7F0FDFEF7D8FFAD
:103DE000FEF78EFEFEF75AFEFEF7A2FC40F2A00799
:103DF00040F2361548F2003648F2033848F20739E7
:103E00004FF6FF7B00244FF0100AC2F20007C2F207
:103E10000005C0F60006C0F60008C0F6000900BFA5
:103E20000C200521FDF7EAFA00F088FE46F26663F1
:103E30004FF06632C4F20A0300F082FD0023002234
:103E4000C4F2260300F07CFD49F69A1249F6991354
:103E5000C9F69912C3F6F17300F072FD0023002237
:103E6000C3F6307300F06CFD00F038FD386040F2AE
:103E700014003146C2F2000002682846FCF7DEF961
:103E8000282000212A461F23CDE900BA0294FFF71B
:103E900035F840F210003146C2F2000002682846B0
:103EA000FCF7CCF9502010212A461F23CDE900BA97
:103EB0000294FFF723F8284677A100220023FCF79D
:103EC000BDF9282020212A461F23CDE900BA0294FB
:103ED000FFF714F840F27C004146C2F2000002688D
:103EE0002846FCF7ABF9302030212A461F23CDE9C4
:103EF00000BA0294FFF702F840F298004146C2F27D
:103F00000000006842422846FCF798F93020402122
:103F10002A461F23CDE900BA0294FEF7EFFF40F2D4
:103F200080004946C2F2000002682846FCF786F984
:103F3000302050212A461F23CDE900BA0294FEF713
:103F4000DDFF40F29C004946C2F2000002682846AC
:103F5000FCF774F9302060212A461F23CDE900BA0E
:103F60000294FEF7CBFF28464DA100220023FCF768
:103F700065F9002090212A461F23CDE900BA02945A
:103F8000FEF7BCFF284649460022FCF757F90020FF
:103F9000A0212A461F23CDE900BA0294FEF7AEFF06
:103FA000284649460022FCF749F97820A0212A46F4
:103FB0001F23CDE900BA0294FEF7A0FF2846494628
:103FC0000022FCF73BF90020B0212A461F23CDE94F
:103FD00000BA0294FEF792FF284632A10022002385
:103FE000FCF72CF97820B0212A461F23CDE900BA2E
:103FF0000294FEF783FF40F204004946C2F200003B
:1040000002682846FCF71AF9302070212A461F233F
:10401000CDE900BA0294FEF771FF40F2080049466C
:10402000C2F2000002682846FCF708F9302080211F
:104030002A461F23CDE900BA0294FEF75FFF3868D5
:1040400000F07CFD02460B46284618A1FCF7F6F866
:10405000A02000212A461F23CDE900BA0294FEF7D2
:104060004DFF40F2E6020020D0211F23CDE900BA27
:104070000294C2F20002FEF741FF28460DA1FCF7B0
:10408000DDF80020E0212A461F23CDE900BA029482
:10409000FEF734FFC4E600BF25332E316600000072
:1040A0002536660025362E326600000025322E3277
:1040B0006600000025342E32660000005FEA400CE6
:1040C00008BF91F0000F4FEA8C234FEAC12243EA68
:1040D00051514FEA1C5018BF00F5F0404FEA300034
:1040E00018BF41F000415FEA6C5C00F02980BCF130
:1040F000FF3F08BF40F080407047130C06BF12041A
:104100004FF0100C4FF0000C130E04BF12020CF114
:10411000080C130F04BF12010CF1040C930F04BF21
:1041200092000CF1020CD30F04BF52000CF1010CF1
:1041300011464FF00002A0F11F00A0EB0C007047E9
:1041400011F0004F08BF704731F000413FF4D5AF88
:104150000B0C06BF09044FF0100C4FF0000C0B0EB7
:1041600004BF09020CF1080C0B0F04BF09010CF18C
:10417000040C8B0F04BF89000CF1020CCB0F04BFA1
:1041800049000CF1010CCCF1200322FA03F341EABF
:10419000030102FA0CF2A0EB0C0000F101007047E1
:1041A00023F07F4720F07F4C80EA030000F00040BE
:1041B000ACEB070303F57C5303F1FF032DE98049C2
:1041C00009B44FEA144324EA03484FEA154B25EAA1
:1041D0000B4E0FF2042606EB13273E7803FB06670F
:1041E000C7F5000707FB06F64FEAD64606F10206BA
:1041F0004FEA543707FB066CCCF1005C4FEA1C47D2
:104200002CEA074C0CFB06F507FB06F404EB1546FD
:104210004FEA961649085FEA320234BF00204FF099
:1042200000404FEAD13706FB07FC4FEA1C4C0CFB61
:104230000BF7D21B03FB0CF761EB07010CFB0EF72E
:10424000B0EB074072EB17420CFB08F734BFA2EB50
:104250000742B2EB074261EB17414FEA0C444FEAC9
:10426000910706FB07FC4FEA1C4C0CFB0BF7B0EB6D
:10427000C74072EB573203FB0CF734BFA2EBC742C7
:10428000B2EBC74261EB57310CFB0EF7B0EBC70046
:1042900072EB57720CFB08F734BFA2EBC702B2EB0C
:1042A000C70261EB57714FEA816141EA92114FEA0F
:1042B000826242EA90124FEA806004EBCC04039FD2
:1042C0004FEAD13706FB07FC4FEA1C4C0CFB0BF7FF
:1042D000D21B03FB0CF761EB07010CFB0EF7B0EBF5
:1042E000074072EB17420CFB08F734BFA2EB074202
:1042F000B2EB074261EB17414FEA8C5504EB9C246B
:104300004FEA910706FB07FC4FEA1C4C0CFB0BF72E
:10431000B0EBC74072EB573203FB0CF734BFA2EB94
:10432000C742B2EBC74261EB57310CFB0EF7B0EB63
:10433000C70072EB57720CFB08F734BFA2EBC70241
:10434000B2EBC70261EB57714FEA816141EA92110A
:104350004FEA826242EA90124FEA806015EB4C25E8
:1043600044F100044FEAD13706FB07FC4FEA1C4C2E
:104370000CFB0BF7D21B03FB0CF761EB07010CFBEB
:104380000EF7B0EB074072EB17420CFB08F734BF97
:10439000A2EB0742B2EB074261EB17414FEA8131D2
:1043A00041EA92414FEA823242EA90424FEA80303B
:1043B0004FEA0C7615EB1C1544F1000448EA034360
:1043C0004EEA0B484FF0000EB2EB080C71EB0307FE
:1043D00024BF624639464EEB0E0E4FF0000B00181C
:1043E000524149414BEB0B0BB2EB080C71EB03074D
:1043F0007BF1000B24BF624639464EEB0E0E4FF0A8
:10440000000B0018524149414BEB0B0BB2EB080C6F
:1044100071EB03077BF1000B24BF624639464EEB7C
:104420000E0E51EA020718BF46F0010616EB0E7693
:1044300055F1000254F1000103D5BDE88901BDE842
:104440000088BDE88901BDE80048B619524141EB3A
:104450000101A3F10103704780807F7E7D7C7B7A20
:104460007978777676757473727171706F6E6E6D20
:104470006C6C6B6A6A6968686766666564646363C6
:1044800062616160605F5F5E5E5D5D5C5C5B5B5A4C
:104490005A595958585757565655555554545353B9
:1044A00052525251515050504F4F4F4E4E4D4D4D14
:1044B0004C4C4C4B4B4B4A4A4A494949484848475F
:1044C000474747464646454545444444444343439D
:1044D00043424242424141419C46002B30D4770046
:1044E0002BD04FEA37071CB503B44FF010004FF044
:1044F0001001BAF1000F06D0BCF1000FDCBF40F094
:10450000080040F008014FF000000FBCBDE810406B
:104510000BF1010BBBF1010F08BF5FEA170722BFC8
:1045200012F1010211F101014FF0004143F10003CA
:1045300000F0004043EA00007047F9D35708D0E785
:1045400046EA06464FEA164613F1400F1FDD13F107
:10455000200FDFBF16430A46002120335B42BED046
:10456000C3F1200746EA06464FEA164602FA07F765
:1045700046EA070622FA03F2C3F1200701FA07F719
:1045800042EA070221FA03F14FF00003A7E746EAE7
:10459000020646EA06464FEA164646EA0106BCBF50
:1045A00046EA0646360C4FF000034FF000024FF08B
:1045B000000194E72DE9804C70B49A46934691E847
:1045C000380007C831EA400C48BF34EA430C03D531
:1045D000FFF7E6FDFFF780FFF0BCBDE8008C2DE99A
:1045E000804C70B49A46934691E8380007C810F0A2
:1045F000804F08BF13F0804F03D100F005F8FFF79C
:104600006BFFF0BCBDE8008C20F07F4723F07F4CAF
:1046100080EA030000F0004007EB0C03A3F57C5395
:10462000A3F1FE0392F0000F00F0B38095F0000FAD
:1046300000F077802DE901494FEA114021EA004856
:104640004FEA144624EA064700FB06FC08FB06F680
:1046500007FB08F818EB06484CEB164C00FB07F775
:1046600018EB07484CEB17404FEA124B22EA0B4E6F
:104670004FEA154625EA06470BFB06FC0EFB06F63D
:1046800007FB0EFE1EEB064E4CEB164C0BFB07F722
:104690001EEB074E4CEB174B18EB0B0840F10000DC
:1046A00018EB0E0B58EB000840F100008F1A4FF08A
:1046B00000014FF000063CBFC943661B14BFB5EBB9
:1046C000040C00213CBFC943F61B4FEA174427EAFC
:1046D00004454FEA1C472CEA074C04FB076205FB24
:1046E00007F70CFB05F616EB074642EB174204FBF7
:1046F0000CFC16EB0C4642EB1C421BEB060658EB7F
:10470000020241414EEA8E0E46EA9E0601D5BDE800
:104710000189B619524141EB0101A3F10103BDE842
:1047200001894FEA144524EA05464FEA114721EA78
:10473000074C05FB07F406FB07F70CFB06F111EB32
:10474000074144EB174405FB0CFC11EB0C4144EB17
:104750001C444FEA124722EA074C05FB07F206FB0E
:1047600007F70CFB06F616EB074642EB174205FB74
:104770000CFC16EB0C4642EB1C456A1854F1000188
:1047800048BF7047B619524141EB0101A3F1010343
:10479000704795F0000F37D04FEA114221EA0246E8
:1047A0004FEA144724EA074C02FB07F106FB07F720
:1047B0000CFB06F414EB074441EB174102FB0CFC25
:1047C00014EB0C4441EB1C414FEA154725EA074C1A
:1047D00002FB07F506FB07F70CFB06F616EB074690
:1047E00045EB174502FB0CFC16EB0C4645EB1C4257
:1047F000121951F1000148BF7047B619524141EBFF
:104800000101A3F1010370474FEA144524EA05466C
:104810004FEA114721EA074C05FB07F106FB07F7B2
:104820000CFB06F212EB074241EB174105FB0CFCB7
:1048300012EB0C4251EB1C414FF0000648BF704791
:10484000921841EB0101A3F101037047490050EABE
:10485000C12018BF04204A0D18BF40F0010040F2EB
:10486000FF72B2EB515F08BF40F00200012808BFA1
:104870000520704730380A2801D2012070470020F7
:104880007047000010B500290AD00878002807D02A
:1048900005487844FCF74EFA002801D0002010BDEE
:1048A0000248784410BD00009A3A0000923A000095
:1048B00010B500290AD00878002807D005487844A8
:1048C000FCF738FA002801D0002010BD02487844D7
:1048D00010BD00008A3A0000823A000021F0004238
:1048E00001F00043A2F16052B2F5801F28BFD2F15F
:1048F0007F6C0BD95FEA001C43EAC20242EB5070A6
:1049000018BF704728BF20F001007047B2F5801F24
:10491000BCBF184670474FEA410C1CF5001F02D27D
:10492000084600F012BA70B500F0B4F80000008933
:10493000FFF7F6BF4FF00040A0F580007047000081
:1049400070B5DFF848C11CEA111E1EBF1CEA131522
:104950009EEA0C0F95EA0C0F00F06F8081EA0304C9
:104960004EEAD47EAE4421EA4C1123EA4C1341F4C2
:10497000801143F48013AEF17F7EA1FB024CA0FBBB
:104980000365361955EB0C05A1FB034C4CF10003F4
:10499000A0FB021C16EB0C06654153F10003094213
:1049A00018BF46F0010613F4007F0BD14FEA033124
:1049B0004FEA053041EA155140EA165034036FF0D2
:1049C00003020AE04FEAC3214FEAC52041EA5551EC
:1049D00040EA5650F4026FF0020202EB2E4201EB65
:1049E000025585EACE710AD05FEA440C18BF24F064
:1049F000004450F1000041F1000120EAD47040F27F
:104A0000FE7C624500D270BDA84214BF4FF08044C6
:104A10004FF04044002E08BF0024BEF1806FA8BFB5
:104A2000A1F1C041BDE8704080F2828001F1C04137
:104A300001F000414FF0000070470CEA13159EEAA8
:104A40000C0F18BF95EA0C0F06D081EA030E4FF049
:104A500000000EF0004170BD00F01CF88900013E1E
:104A600000F007B800F009B84FEA430C5FEA5C5C5D
:104A700008D081EA030100F05BB84FEA410C5FEA1D
:104A80005C5CF6D102494FF0000070470000FF0760
:104A90000000F87F0EF1020E2EF0030E5EF8046B9C
:104AA000364205D4012A43EB030515F5001F12D841
:104AB000012841EB010C1CF5001F0CD80ED14FEA68
:104AC000D17C0CEB4C0C0CF1020C15F5001F08BF4F
:104AD0004CEBD37C04E04FF0080C01E04FEAD37CB0
:104AE0000CEB4C0526FA05F606F00706B6F1040CA9
:104AF00006D20EEB860CBDE870404CF0010C60470E
:104B0000DFE80CF0090B02024FF00041A1F5002193
:104B10004FF0000070BD19461046012851EB01040A
:104B200018BFD4F5001484BF002001F0004170BD0F
:104B30000808A0F500114FEA3101704743004FEA21
:104B4000D30C4FEA3C0C43401FBF40070CF16051AF
:104B500013F0FE4F70471CF0006F03D10CF00041C2
:104B6000002070470CF0004343EA507040EACC004C
:104B700010B500F0A4F800BF000000924FEA000159
:104B8000FFF7D6BF4FF00041A1F500214FF0000024
:104B90007047000090EA010F48BF81F0004100F12A
:104BA000E080421A3CBF801A89184FEAD052A2EB2B
:104BB000D1534FF07F4C1CEA410F18BF9CEA026FA3
:104BC00000F03B804FF0004C4CEA00204CEA012101
:104BD00021FA03FC10EB0C0C1ED202F1FF325FEA4B
:104BE0001C2040EBC25038BF70471CF07F0F4FEACB
:104BF000400C18BFBCF17F4F38BF7047C3F1200392
:104C0000994008BF20F00100BCF17F4F38BF7047CA
:104C1000A0F1C04000F099B84FEA3C00000A40EB18
:104C2000C25028BF1CF0FF0F4FEA400CE6D018BF5F
:104C3000BCF17F4F38BF7047EAE79CEA026F05D0AE
:104C400010EA5C0F08BF00F00040704710B500F09C
:104C500036F800BF64FBBE3EC10DD1F19E0206DBFB
:104C60004FEA002343F0004323FA02F0704700426A
:104C700007D54FEA4001B1F1FE4F02D24FF00000DC
:104C8000704710B500F01BF849922480002070474F
:104C90006FEA200070470000B0FA80F310FA03F2C8
:104CA000C3F19D030AD0D90501EB1220530638BF8A
:104CB000704700F1010008BF20F0010070470EF1BD
:104CC000020E2EF0030E5EF8044B244204D44FEA89
:104CD0004102B2F17F4F11D84FEA4003B3F17F4F49
:104CE0000CD80ED14FEAD07C0CEB4C0C0CF1020C22
:104CF000B2F17F4F08BF4CEBD17C04E04FF0080CC1
:104D000001E04FEAD17C0CEB4C0324FA03F404F0ED
:104D10000704B4F1040C06D20EEB840CBDE810407D
:104D20004CF0010C6047DFE80CF0070802024FF07E
:104D30000040A0F5800010BD0846420018BFD2F127
:104D4000807288BF00F0004010BDFF2141EAD050C2
:104D5000C005704790EA010F48BF81F000413FF560
:104D600020AF421A04D882F00042A0EB02001144A6
:104D70004FEAD052A2EBD1534FF07F4C1CEA410FC7
:104D800018BF9CEA026F4AD04FF0004C4CEA00205A
:104D90004CEA012121FA03FCB0EB0C0C0FD412F009
:104DA000FE0F36D05FEA4C001DD5001240EBC2501A
:104DB00038BF70471CF03F0F18BF70470BE05FEA29
:104DC0001C20A2F1010240EBC25038BF70471CF01A
:104DD0007F0F18BF7047C3F12003994014BF401ED6
:104DE00020F0010070474FEA1223800808BF704787
:104DF000B0FA80FCA2EB0C02CCF1280C60FA0CF0AB
:104E000093EA122F04BF00EBC25070474FEAC37001
:104E10007047130A5FEADC1008BF7047F6E79CEAA8
:104E2000026F04D010EA5C0F08BF0020704710B575
:104E3000FFF745FF40DFF63E81F000407047FBF78B
:104E400058BC04000008000000000000000200013F
:104E50000000100002400000000000A00000000060
:104E600005400000000000C8000000000C400000E9
:104E70000000409C00000000194000000020BCBE63
:104E80000000000034400000BFC91B8E0000000479
:104E9000B5400000504BCFD06607E2CF01000000C4
:104EA0006C4100003E8251AADFEEA73401000000F1
:104EB000D9420000DCB5A0E23A301F97FFFFFFFFA8
:104EC000B4450000FD25A0C8E9A3C14FFFFFFFFFC7
:104ED000FF3F00000000008000000000FF3F0000D6
:104EE000000000800000000002040608000000002E
:104EF0000102030401020304060708090000000080
:104F0000000000000000000000000404040404008D
:104F10000004000014140A0000000000000000005B
:104F200000000A0A1F0A0A1F0A0A000000040E15E0
:104F300005060C14150E0400000012150D152E2C7C
:104F40002A1200000000040A0A361515291600006E
:104F50000202010000000000000000001008080428
:104F600004040404080810000204040808080808DF
:104F70000404020000000004150E0E1504000000D9
:104F800000000008083E08080000000000000000C3
:104F9000000000000202010000000000003F0000CD
:104FA00000000000000000000000000000020000FF
:104FB00000201010080804040202010000000E1175
:104FC00011111111110E0000000004060404040464
:104FD000040E000000000E1111080402011F000061
:104FE00000000E11100C1010110E00000000080C33
:104FF0000C0A091F081C000000001F01010F1110FE
:10500000110E000000000C12010D1311110E000012
:1050100000001E10080804040404000000000E1123
:10502000110E1111110E000000000E1111191610B1
:105030000906000000000000040000000004000059
:10504000000000000004000000040400000010083C
:105050000402020408100000000000003F003F00AE
:105060000000000000000204081010080402000004
:1050700000000E11110804040004000000001C22AE
:10508000292D2D1D221C0000000004040C0A0A1EFC
:105090001233000000000F12120E1212120F000045
:1050A00000001E1101010101110E000000000F128D
:1050B00012121212120F000000001F120A0E0A0232
:1050C000121F000000001F120A0E0A020207000051
:1050D00000001C1201013911120C000000003312F3
:1050E000121E12121233000000001F0404040404F4
:1050F000041F000000003E08080808080808090707
:10510000000037120A060A121237000000000702D8
:1051100002020202223F000000003B1B1B1B151570
:105120001535000000003B1216161A1A121700005F
:1051300000000E1111111111110E000000000F12CC
:10514000120E02020207000000000E1111111117C9
:10515000190E180000000F12120E0A12123700006A
:1051600000001E1101060810110F000000001F159D
:1051700004040404040E0000000033121212121280
:10518000120C000000003312120A0A0C0404000082
:105190000000151515150E0A0A0A000000001B0A6A
:1051A0000A04040A0A1B000000001B0A0A0A04047D
:1051B000040E000000001F0908040402121F000072
:1051C0001C0404040404040404041C00000202047B
:1051D00004040808081010000E0808080808080849
:1051E00008080E00040A0000000000000000000093
:1051F00000000000000000000000003F020400006A
:10520000000000000000000000000000000C121C64
:10521000123C000000030202020E1212120E0000E5
:1052200000000000001C1202120C000000181010F8
:10523000101C1212123C000000000000000C121E94
:10524000021C000000182404041E0404041E0000B4
:1052500000000000003C120C021C221C0003020291
:10526000020E1212123700000004040000060404AB
:10527000040E000000080800000C080808080807D1
:1052800000030202021A0A060A13000000070404BF
:1052900004040404041F000000000000000F1515A2
:1052A0001515000000000000000F12121237000058
:1052B00000000000000C1212120C000000000000A0
:1052C000000F1212120E020700000000001C121242
:1052D000121C103800000000001B0602020700002C
:1052E00000000000001E020C101E00000000000460
:1052F000041E0404041C000000000000001B121225
:10530000123C000000000000001B0A0A0404000018
:10531000000000000015150E0A0A00000000000041
:10532000001B0A040A1B00000000000000331212D8
:105330000C08040300000000001E0804041E000006
:1053400018080808080C08080808180008080808C1
:1053500008080808080808080604040404080404E7
:105360000404060016090000000000000000000010
:10537000000000000000000000000000000000002D
:1053800000000008080808080808000018180000B5
:1053900000486C2412000000000000000000000023
:1053A0000000002424247F1212127F121212000027
:1053B0000000081C2A2A0A0C1828282A2A1C080877
:1053C00000000022251515152A58545454220000B7
:1053D0000000000C1212120A76252911916E0000AD
:1053E00000060604030000000000000000000000AA
:1053F000004020101008080808080810102040007D
:105400000002040808101010101010080804020010
:105410000000000008086B1C1C6B0808000000005E
:1054200000000000080808087F08080808000000BD
:105430000000000000000000000000000606040359
:105440000000000000000000FE000000000000005E
:105450000000000000000000000000000606000040
:1054600000008040402020101008080404020200C0
:1054700000000018244242424242424224180000E6
:10548000000000080E08080808080808083E000088
:105490000000003C4242422020100804427E0000EE
:1054A0000000003C4242201820404042221C0000E4
:1054B000000000203028242422227E2020780000B2
:1054C0000000007E0202021A26404042221C000018
:1054D000000000382402021A26424242241800002A
:1054E0000000007E222210100808080808080000AA
:1054F0000000003C4242422418244242423C000048
:10550000000000182442424264584040241C00001D
:10551000000000000000181800000000181800002B
:10552000000000000000000800000000000808045F
:105530000000004020100804020408102040000071
:105540000000000000007F0000007F00000000005D
:10555000000000020408102040201008040200008F
:105560000000003C42424640201010001818000085
:105570000000001C225A555555552D42221C000092
:105580000000000808181414243C224242E70000DE
:105590000000001F2222221E22424242221F00003F
:1055A0000000007C4242010101010142221C000076
:1055B0000000001F2242424242424242221F00009B
:1055C0000000003F4212121E12120242423F00002F
:1055D0000000003F4212121E1212020202070000D7
:1055E0000000003C2222010101712122221C000046
:1055F000000000E7424242427E42424242E700004F
:105600000000003E0808080808080808083E0000D6
:105610000000007C10101010101010101010110F4E
:105620000000007722120A0E0A12122222770000CE
:10563000000000070202020202020202427F000092
:1056400000000077363636362A2A2A2A2A6B0000CE
:10565000000000E346464A4A525252626247000046
:105660000000001C2241414141414141221C0000F7
:105670000000003F424242423E0202020207000096
:105680000000001C2241414141414D53321C600049
:105690000000003F4242423E1212222242C7000056
:1056A0000000007C4242020418204042423E0000BA
:1056B0000000007F4908080808080808081C0000C6
:1056C000000000E74242424242424242423C000065
:1056D000000000E7424222242414141808080000A5
:1056E0000000006B494949495555362222220000E5
:1056F000000000E7422424181818242442E7000080
:10570000000000772222141408080808081C000072
:105710000000007E2120101008040442423F0000D7
:105720000078080808080808080808080808780029
:105730000000020204040808081010202020404045
:10574000001E1010101010101010101010101E005D
:1057500000384400000000000000000000000000CD
:10576000000000000000000000000000000000FF3A
:10577000000608000000000000000000000000001B
:10578000000000000000003C4278444242FC00005F
:10579000000000030202021A26424242261A0000BA
:1057A00000000000000000384402020244380000FB
:1057B00000000060404040784442424264D800000B
:1057C000000000000000003C427E0202423C00005B
:1057D000000000F08808087E08080808083E00005D
:1057E000000000000000007C22221C023C42423CDF
:1057F000000000030202023A4642424242E7000031
:105800000000000C0C00000E08080808083E00000C
:105810000000003030000038202020202020221EF0
:105820000000000302020272120A16122277000020
:105830000000000E0808080808080808083E0000D4
:10584000000000000000007F9292929292B7000048
:10585000000000000000003B4642424242E70000D8
:10586000000000000000003C42424242423C000076
:10587000000000000000001B26424242221E0207D8
:10588000000000000000007844424242447840E0BA
:1058900000000000000000774C040404041F000016
:1058A000000000000000007C42023C40423E00003C
:1058B000000000000008083E080808080830000042
:1058C00000000000000000634242424262DC00002F
:1058D00000000000000000E7422424140808000033
:1058E00000000000000000EB49495555222200004D
:1058F000000000000000007624181818246E000034
:1059000000000000000000E74224241418080807E3
:10591000000000000000007E22100808447E000005
:1059200000C0202020202010202020202020C00087
:105930001010101010101010101010101010101067
:1059400000060808080808100808080808080600E3
:105950000C32C20000000000000000000000000047
:10596000000080C04060203010190B0E04000000C1
:105970000000000000000000000000000000000027
:105980000000000000000000000000000000000017
:105990000000000000000000000000000000000007
:1059A0000000000000000000600060006000600077
:1059B0006000600060004000200020002000000027
:1059C00000000000600060006000000000000000B7
:1059D0000000000060066006300398018800440063
:1059E00000000000000000000000000000000000B7
:1059F00000000000000000000000000000000000A7
:105A0000000000000000000010021002100210024E
:105A1000FE07FE0708020801080108010801FE0749
:105A2000FE0704010401040104010000000000005D
:105A300000000000000040004000F00158034C034B
:105A4000CC034C0058007000E000C001C0014003CE
:105A50004C035C034C034801F00040004000000090
:105A600000000000000000000E010A0191009100FA
:105A70009100510051003A00AE03A00250045004BE
:105A80004804480448048402840300000000000025
:105A9000000000000000000038006C006C006C008A
:105AA0006C006C002C0098071C011A0133013301B3
:105AB0006301E300C308C6093C07000000000000C2
:105AC000000000000C001C00100010000800040082
:105AD00000000000000000000000000000000000C6
