:020000040800F2
:1000000080070020F901000891140008611400081D
:100010008D140008B90F000819270008000000001F
:100020000000000000000000000000000B020008BB
:10003000BD0F0008000000000F02000811020008B8
:10004000130200081302000813020008130200083C
:100050001302000813020008C10F00081302000871
:10006000130200081302000813020008130200081C
:10007000130200081302000813020008130200080C
:1000800013020008130200081302000813020008FC
:1000900013020008130200081302000813020008EC
:1000A00013020008130200081302000813020008DC
:1000B000B1180008291900083D19000813020008AA
:1000C00013020008130200081302000813020008BC
:1000D00013020008C52100081302000813020008DB
:1000E000130200081302000813020008130200089C
:1000F000130200081302000813020008130200088C
:100100001302000813020008511900081302000826
:10011000130200081302000813020008130200086B
:10012000130200081302000813020008130200085B
:1001300000F002F800F050F80AA090E8000C8244A9
:100140008344AAF10107DA4501D100F045F8AFF286
:10015000090EBAE80F0013F0010F18BFFB1A43F0A5
:1001600001031847E483000004840000103A24BF10
:1001700078C878C1FAD8520724BF30C830C144BF0C
:1001800004680C607047000000230024002500264E
:10019000103A28BF78C1FBD8520728BF30C148BFEA
:1001A0000B607047662904F06687642900F082803E
:1001B000002070471FB500F035FC0400002000212E
:1001C00004F0F8FB401C60600020002104F0DCFB20
:1001D000E0601FBD10B510BD00F070FD1146FFF7C7
:1001E000E9FF03F019FE00F09CFD03B4FFF7F2FFF6
:1001F00003BC03F03FFD0000094880470948004761
:10020000FEE7FEE7FEE7FEE7FEE7FEE7FEE7FEE7C6
:10021000FEE7FEE704480549054A064B7047000023
:1002200059170008310100088001002080070020D4
:100230008003002080030020704700000FB41CB52D
:10024000074B06AA7B4469460090059800F08DFB99
:100250000020694600F09CFB1CBC5DF814FB00000C
:100260004907000070B5044685690068C10601D5DC
:10027000302600E02026C00707D070BDD4E9012158
:1002800030469047206A401C20626D1EF6D570BD36
:1002900070B5044685690078C00707D170BDD4E900
:1002A000012120209047206A401C20626D1EF6D557
:1002B00070BD00002DE9F041064600241068752944
:1002C000314616A510D0AFF30080002802DA404274
:1002D00013A507E031688A0701D512A502E0490796
:1002E00004D511A5012401E0AFF3008000210A220A
:1002F00006F1240709E0B0FBF2FCB0FBF2F302FBCD
:100300001C00303078541846491C0028F3D123468D
:100310002A463046BDE8F04100F0BAB800000000BF
:100320002D0000002B000000200000002DE9F05FF0
:10033000894604464FF0000ADFF824B1FB44C0F8B8
:1003400020A02046E168884700287DD0252806D0D7
:10035000D4E901219047206A401C2062F1E7002582
:100360005F462046E16888472028064607DB312E95
:1003700005D2B81910F8200C08B10543F1E7A80719
:1003800001D525F00405C4F81CA00027C4F818A066
:100390002A2E09D0304604F0EFFA38B304EB870870
:1003A000303EC8F8186019E059F8041B204604EBE9
:1003B00087029161E1688847012F064618D1E069FC
:1003C000002820DA25F020051DE0D8F8180000EB01
:1003D000800006EB40003038C8F818002046E1687D
:1003E0008847064604F0C8FA0028EED1012F0AD04B
:1003F0002E2E08D12046E16888477F1C0646022F32
:1004000045F02005C4DBA069002803DA404245F02E
:100410000105A061E80701D025F01005A6B1A6F1FD
:100420004100192802D8203645F400654A46314675
:10043000204625604D46FFF7B5FE60B1012807D084
:10044000ED1D25F0070000E007E000F1080978E75E
:1004500005F1040975E730467AE7206ABDE8F09FA8
:100460003A4D000070B5064600F00EF804680546E7
:1004700030460A22002100F090FA2C6070BD7047CF
:100480007047704770470000004870471000002018
:100490002DE9F0470D4699469246044600F124089E
:1004A0000168880604D5E06921F01001216000E0B0
:1004B0000120A84201DD471B00E00027A1697A194D
:1004C00002EB0900081AA0612078C00602D4204679
:1004D000FFF7C8FE002608E0D4E901211AF806005B
:1004E0009047206A401C761C20624E45F4DB207841
:1004F000C0060AD52046FFF7B5FE06E0D4E9012183
:1005000030209047206A401C2062381EA7F1010766
:10051000F4DC07E0D4E9012118F805009047206ACF
:10052000401C2062281EA5F10105F3DC2046FFF7E0
:10053000AFFE2078000602D50220BDE8F08701203A
:10054000FBE72DE9FF4F0C461E464FF0FF378BB0FF
:10055000D2E90001DDF860800A908A46C1F30A55AD
:1005600005B93D46002108464FF00000BAF1000FE2
:1005700000F4400005DA00EB80004FF4400101EA8E
:1005800050004FEA9059B9F1010F00DDB9460A98C1
:1005900050EA4A000ED044F61050A5F2FF3545430C
:1005A0002F14B8F1000F1ED07542291E1EDDC9F1AF
:1005B00000021CE0B8F1010F4FF0000001D0302123
:1005C00003E0F24305E02154401CB042FBDB30461F
:1005D0000022002121540B99C1F80880C1E90020B4
:1005E0000FB0BDE8F08FBD1B6D1CDEE74A4600DA98
:1005F000694206A800F0F0FA06AB93E8070003ABE7
:1006000083E8070050460A9903F0DAFD8DE80700F9
:10061000A0F500501F3800900398002D0ADD42F22B
:100620001F014A460844002303A90390684604F0CA
:1006300043F809E0A0F500504A461F38002303A9FB
:100640000390684604F04DF88DE807000004000CA4
:1006500003D04FF0FF30410800E01046B8F1000F22
:1006600003D00022009215461EE0751E05D400F04E
:10067000DDF9303262556D1EF9D5B34601220843CB
:1006800002D000227F1C04E02078302801D1002213
:100690007F1E002A099784D01DE0112D07DA00F093
:1006A000C5F9303262556D1C50EA0102F5D108439C
:1006B00002D00098C8B10EE00021681E05E0235C5E
:1006C000625C63542254401E491C8142F7DBAB46F6
:1006D000A81B401E0990002004F80B000B98099AF3
:1006E000C0F80880C0E9002B7AE711264FF0000817
:1006F00057E72DE9F04F88460446D21D22F0070146
:1007000091B0D1E90001CDE90A0104F021F90246D6
:100710000B98C00F01D02D2007E02068810701D57C
:100720002B2002E0202101EAC000032A099001D019
:10073000072A05DB03464146204600F0BDF90BE1E0
:100740002078800601D5E06900E00620B8F1650F49
:10075000814606D0B8F1660F18D0B8F1670F70D196
:1007600031E00020B9F1110F009001DB112301E00D
:1007700009F101030AAA01A90CA8FFF7E2FEDDE9CD
:100780000C70002609F10105834647E001204B4625
:1007900000904FF000470AAA01A90CA8FFF7D1FE6C
:1007A000DDE90DB00C995D46002610B909F1010094
:1007B0000D18B9EB050003D4C0F1FF3609F10105AE
:1007C000A5EB09002BE0B9F1010F01DA4FF00109A7
:1007D0000020B9F1110F0090484601DD112300E01F
:1007E00003460AAA01A90CA8FFF7ABFEDDE90C70CD
:1007F0004D4600268346207800070AD4AB4500DA30
:100800005D4601A8012D04DD411911F8011C3029B4
:1008100007D04F4502DA17F1040F04DA01208246AF
:100820000FE06D1EEEE7002F02DCED1B3E4403E0FF
:10083000781CA84200DD7D1CB81B00F1010A4FF0B6
:1008400000472078000703D4AA4501DB4FF0FF3AA8
:100850000021B7F1004F0DF143088DF8431024D06B
:1008600002202B23002F01DA7F422D230A21021EB2
:10087000A0F1010000DC5FB197FBF1FC97FBF1F206
:1008800001FB1C7C17460CF1300C08F801CDEEE79B
:10089000A8F1010003702188090501D5452100E078
:1008A0006521A0F1010800F8011C09980FA9A1EB2E
:1008B0000807FF1D00B10120411901EBEA70A16991
:1008C0003844081A401EA0612078C00602D4204691
:1008D000FFF7C8FC099828B1D4E901219047206AA4
:1008E000401C20622078C00622D52046FFF7BAFCC3
:1008F0001EE0002E04DBB34502DD01A8805D00E0B0
:100900003020D4E901219047206A401C2062761CE7
:10091000AAF101005FEA000A0AD100F083F8C0687A
:100920000168405CD4E901219047206A401C2062A4
:10093000281EA5F10105DCDC07E0D4E9012118F847
:10094000010B9047206A401C2062381EA7F1010766
:10095000F3DC2046FFF79CFC032011B041E60000C9
:1009600001694A1C02610878704700B58FB0CDE973
:1009700001310021059105497944CDE90310114663
:100980006846FFF7D3FC0FB000BD0000E5FFFFFF96
:100990000A6802F8010B0A6070472DE9F04791469A
:1009A0000F4680460446002614F8015B2DB100F086
:1009B00031F80068405DC007F6D12B2D02D02D2DF7
:1009C00018D0641E4A463946204600F0B5F827B1D3
:1009D0003968A14201D1C7F800804FF002047105C7
:1009E0000BD54042002803DDFFF74EFD0460A00751
:1009F000BDE8F08746F48066E4E70028F8DAFFF700
:100A000043FD04606FF00040F2E7000000487047CB
:100A10001000002010B500F005F8001D10BD00BF4B
:100A2000953F0000004870473000002030B5B0F11D
:100A30000A0271F100034FEA900E4EEA817EB0EB9C
:100A40000E0061EB91014FEA101E4EEA017E10EBA1
:100A50000E0041EB11114FEA102E4EEA016E10EB21
:100A60000E0041EB11214FEA104E4EEA014E10EB01
:100A70000E0041EB1141401841F100014FEAD00056
:100A800040EA41704FEAD1014FEA810444EA907490
:100A900010EB800544EB01046D1944EB0404521B78
:100AA000A3414FF0000348BF0A3200D530BD401CBF
:100AB00041F1000130BD00002DE9F0411F46044620
:100AC00003260168072A01F4006004DB08B116A5BB
:100AD00005E016A503E008B115A500E015A521F075
:100AE00010002060A069C01EA0610FB1401EA0616F
:100AF0002046FFF7B7FB4FB1D4E9012138469047B4
:100B0000206A401C2062C01C206206E0206AFAE7CE
:100B1000D4E9012115F8010B9047761EF8D2204642
:100B2000FFF7B6FBBDE8F0814E414E006E616E00EE
:100B3000494E4600696E66002DE9F05F8246154613
:100B40008B4600270AF10104B9460078302801D00D
:100B50009DB113E014F8010B0127782803D0582821
:100B600001D045B10AE00DB1102D07D1002714F8CE
:100B7000010B102502E0082500E00A250026B046FA
:100B80000EE005FB080005FB06F101271FFA80F8BF
:100B900001EB1046B6F5803F00D3B94614F8010BBF
:100BA000294600F0B0F80028EBDABBF1000F05D0C1
:100BB0000FB1641E00E05446CBF80040B9F1000FBD
:100BC00006D0FFF761FC02210160C81EBDE8F09F5E
:100BD00048EA0640FAE700002DE9F047814616464C
:100BE0008AB0354878440DC88DE80D003248784405
:100BF000801C03AC0DC884E80D0041F69B3008440E
:100C0000372190FBF1F290FBF1F5A5F1800501FB96
:100C100012041B3C02D56442012000E00020DFF8F2
:100C200098A080460027FA44AAF1BE0A0EE0E00729
:100C30000AD03246684607EB470101230AEB8101DF
:100C400003F04FFD8DE8070064107F1C002CEED1EF
:100C5000194F7F44AE3F19E0E80715D007EB0410A9
:100C60000DF1180A90E80E008AE80E00C068F04204
:100C700001D1981908903246012306A903A803F070
:100C800030FD03AB83E807006D10641C002DE3D139
:100C90004FF0010332466946B8F1000F03A802D0B5
:100CA00003F00AFD01E003F01CFDC9E90001C9F8E9
:100CB00008200AB0BDE8F087204500007546FFF720
:100CC000A5FEAE4605006946534620F0070085465E
:100CD00018B020B5FFF79EFABDE820404FF000069F
:100CE0004FF000074FF000084FF0000BAC46ACE8A7
:100CF000C009ACE8C009ACE8C009ACE8C00921F003
:100D000007018D4670473A2800D2303820F0200283
:100D1000412A01D3A2F13700884201D34FF0FF30BE
:100D2000704710B50446AFF300802046BDE8104080
:100D3000FFF75BBA4FF0013C50F8042B51F8043B2D
:100D40009A4221D1A2EB0C03934313EACC1317D19F
:100D500050F8042B51F8043B9A4215D1A2EB0C0336
:100D6000934313EACC130BD150F8042B51F8043BF6
:100D70009A4209D1A2EB0C03934313EACC13DBD0C4
:100D80004FF00000704700BFD01A01BAB1FA81F1EC
:100D900001F0180122FA01F0CB40DBB2C0B2C01A58
:100DA000C1F120012CFA01F3D11A914311EAC311C8
:100DB000E6D170478268002942F0010308BF22F0A3
:100DC000010383607047000080B543F60041C4F220
:100DD0000101884214D042F60001C4F201018842A8
:100DE00016D042F20041C4F20101884218BF80BD12
:100DF0004FF40070012100F0B5FB4FF400700EE0DD
:100E00004FF40040012100F0ADFB4FF4004006E03C
:100E10004FF48060012100F0A5FB4FF480600021B9
:100E2000BDE8804000F09EBB8068C0F38000704742
:100E3000C06C80B2704700000068084018BF0120F5
:100E4000704700008068C0F3C000704780B54FF65F
:100E5000FF634268CFF6F07302EA030CD1E9003277
:100E600043EA0C0343EA02224FF2FD734260CFF6DD
:100E7000F173826802EA030ED1E902C30A6942EA09
:100E80000E021A4342EA4C028260C26A097D0139AD
:100E900022F47002C9B242EA0151C16280BD000071
:100EA00010B501EB410C092988BFACF11E0C0929D2
:100EB00003FA0CFE4FF0070303FA0CFC4FF010038B
:100EC00088BF0C23062AC45824EA0C0444EA0E0402
:100ED000C45003D834306FF0040307E00C2A87BFF6
:100EE0002C306FF0400330306FF0220302EB8202AF
:100EF0001A441F23914003FA02F2036823EA020214
:100F00001143016010BD0000816841F0080181605B
:100F1000704700008268002942F4A00308BF22F451
:100F2000A003836070470000816841F00401816084
:100F30007047000070B58AB04FF40170012101259F
:100F400000F004FB4FF4004000F0DEFA42F20044EF
:100F50000026042001A9C4F201040396ADF80400A0
:100F6000A4F5A05000F08CF82046FFF72DFF4FF4B9
:100F70006020CDE90466069604A9CDE9070620465F
:100F80008DF82450FFF762FF20460121FFF712FF82
:100F90002046FFF7B9FF00BF2046FFF753FF0028A8
:100FA000FAD12046FFF7C0FF2046FFF73DFF00289B
:100FB000FAD10AB070BD0000FEE7000070470000E3
:100FC00080B5142002F07AFE41F200000121C4F243
:100FD000010000F0FDF90120BDE88040AFF3008082
:100FE00040F21441C4F2010108607047C26840F247
:100FF0000041C4F20101F2B102680B6893430B6037
:101000004B6893434B60D0F804C05CF801301A433E
:101010004CF8012002688B6893438B60CB68934344
:10102000CB60806810280DD1886810438860C8683C
:101030001043C8607047D0E90020435823EA0202F9
:101040004250704743581A434250704780B50C22B3
:1010500040F2080E0F2302EA810201F0FC01C4F203
:10106000010E03FA02FC51F80E30904023EA0C0303
:1010700041F80E3051F80E20104341F80E0080BDAB
:1010800080B5D1F808E00EF00F0C1EF0100F1CBF59
:101090004B684CEA030C098811F0FF0F00F0A480A4
:1010A0000368CA070BD023F00F02BEF1480F42EAD3
:1010B0000C0315D0BEF1280F01D1012242618A072D
:1010C00012D523F0F002BEF1280F42EA0C131CD017
:1010D000BEF1480F08D1022202614A0706D418E087
:1010E000012202618A07ECD44A0712D523F4706208
:1010F000BEF1280F42EA0C231CD0BEF1480F08D1E4
:10110000042202610A0719D505E0022242614A075A
:10111000ECD40A0712D523F47042BEF1280F42EA3C
:101120000C331CD0BEF1480F08D108220261CA0658
:1011300006D418E0042242610A07ECD4CA0612D58C
:1011400023F47022BEF1280F42EA0C431CD0BEF1FA
:10115000480F08D1102202618A0619D505E008223D
:101160004261CA06ECD48A0612D523F47002BEF19D
:10117000280F42EA0C531CD0BEF1480F08D12022A0
:1011800002614A0606D418E0102242618A06ECD4B5
:101190004A0612D523F07062BEF1280F42EA0C63B2
:1011A0001AD0BEF1480F08D1402202610A061AD5B2
:1011B00005E0202242614A06ECD40A0613D523F04A
:1011C0007042BEF1280F42EA0C730AD0BEF1480FFC
:1011D00009D18022026106E0402242610A06EED473
:1011E00001E0802242610360B1F5807F38BF80BD9D
:1011F0004368CA050CD523F00F02BEF1480F42EA3E
:101200000C0317D0BEF1280F02D14FF48072426157
:101210008A0514D523F0F002BEF1280F42EA0C1320
:101220001FD0BEF1480F0AD14FF4007202614A0587
:1012300007D41BE04FF4807202618A05EAD44A05A4
:1012400014D523F47062BEF1280F42EA0C231FD09C
:10125000BEF1480F0AD14FF4806202610A051CD525
:1012600006E04FF4007242614A05EAD40A0514D53B
:1012700023F47042BEF1280F42EA0C331FD0BEF1B6
:10128000480F0AD14FF400620261CA0407D41BE080
:101290004FF4806242610A05EAD4CA0414D523F4EB
:1012A0007022BEF1280F42EA0C431FD0BEF1480F56
:1012B0000AD14FF4805202618A041CD506E04FF433
:1012C00000624261CA04EAD48A0414D523F470028D
:1012D000BEF1280F42EA0C531FD0BEF1480F0AD1CD
:1012E0004FF4005202614A0407D41BE04FF48052CD
:1012F00042618A04EAD44A0414D523F07062BEF134
:10130000280F42EA0C631ED0BEF1480F0AD14FF4F9
:101310008042026109041BD506E04FF4005242618D
:101320004A04EAD4090413D523F07041BEF1280F12
:1013300041EA0C730ED0BEF1480F09D14FF40041C1
:101340000161436080BD4FF4804242610904EBD4E7
:10135000436080BD4FF400414161436080BD0000A7
:1013600010B50422002800F440141FFA80FCC4F2D7
:1013700001021346B8BF43F01803B4F5401F1B68C1
:10138000C0F3034E07D1146823F0706324F0706437
:10139000146081B916E0C40206D447F6F07404EA7A
:1013A00050440CFA04F402E0032404FA0EF4A343BC
:1013B00043F0706331B147F6F07101EA50410CFA25
:1013C00001F10B430028B8BF1832136010BD0000B4
:1013D0008068084018BF01207047000041617047D5
:1013E000016170472DE9F04381B08946804671B3B1
:1013F00042F2004600240027C4F20106304641466E
:1014000001220723FFF74CFD30460121FFF782FD43
:1014100030460221FFF710FD0028F9D03046FFF7D3
:1014200007FD0546052002F049FC284603F0CEFCE6
:101430000546384603F0CAFC294603F02DFC03F0AC
:101440008DFC01340746E0B24845D7D300E00027C1
:10145000B7FBF9F003F0BAFC01B0BDE8F08300007F
:10146000FEE7000041F21801C4F202010A6842F0EE
:1014700001020A600421C4F201010A6822F0E0625C
:101480000A600A6842EA406008607047FEE70000B0
:101490007047000042684EF20011CEF20001EAB13E
:1014A00010B54EF60C520723CEF20002126890F8E7
:1014B00001E0847890F800C023EA12220F23D34081
:1014C000C2F1040223400EFA02F21A4301EB0C03AC
:1014D000120183F80023BDE8104000E0803100785D
:1014E000012300F01F02C0F3421003FA02F241F898
:1014F0002020704740F080604EF60C5140F0FD70A7
:10150000CEF200010860704741F20401C4F202010A
:101510000A6822F4404210430860704741F21C02FE
:101520000029C4F2020211680CBF21EA000008433E
:101530001060704741F210020029C4F202021168E3
:101540000CBF21EA000008431060704741F2180206
:101550000029C4F2020211680CBF21EA000008430E
:101560001060704741F20C020029C4F202021168B7
:101570000CBF21EA000008431060704780B541F2BB
:10158000040EC4F2020EDEF8002002F00C0341F259
:101590000022C0F27A02082B1FD1DEF80030C3F31C
:1015A000834303F1020CDEF8003013F4803F06D1D0
:1015B00040F60012C0F23D020CFB02F20DE0DEF834
:1015C000003013F4003F02D10CFB02F205E040F6BC
:1015D0000012C0F23D020CFB02F2026045F224113F
:1015E000DEF80030C0F60001C3F30313CB5CDA4031
:1015F0004260DEF80030C3F30223CB5C22FA03F32F
:101600008360DEF80030C3F3C223C95C45F22013C7
:10161000C0F6000322FA01F1C160DEF80020C2F337
:1016200081329A5CB1FBF2F1016180BD41F20001AF
:1016300000221423C4F202010A61CA604B618A616C
:10164000CA610B6843F001030B600023D1F804C0AA
:10165000CFF6FF0303EA0C034B604FF6FF73D1F89C
:1016600000C0CFF6F66303EA0C034EF6085C0B608D
:10167000CEF2000C0B6823F480230B604B6823F43C
:10168000FE034B604FF000638A60CCF800300B68BB
:1016900043F480330B6000BF0B68B3F5003F0BD2FF
:1016A0000B68B2EB534F07D10B68B2EB534F03D12A
:1016B0000B68B3F5003FEFD34FF4806202384A6005
:1016C000C0B24A6842EA80404860486840F48030CE
:1016D00048604FF480500A5842F032020A500868BD
:1016E00040F08070086000200A68B2F1007F0BD2E1
:1016F0000A68B0EB526F07D10A68B0EB526F03D1A2
:101700000A68B2F1007FEFD3486840F002004860F9
:10171000486800F00C0008280FD0486800F00C0062
:1017200008280AD0486800F00C00082808BF704755
:10173000486800F00C000828EAD170474EF210010A
:101740000428CEF200010A6822F0040308BF42F028
:1017500004030B607047000082B041F204000022D5
:10176000C4F20200CFF6FF0250F8041C41F0010160
:1017700040F8041C016811404FF6FF720160CFF67B
:10178000F66250F8041C114040F8041C50F8041C88
:1017900021F4802140F8041C016821F4FE0101605D
:1017A0004FF41F01416000210191009150F8041C89
:1017B00041F4803140F8041C50F8041C01F400315D
:1017C0000091019901310191009919B90199B1F57F
:1017D000A06FF1D150F8041C11F4003F0CBF0021A0
:1017E000012100910099012958D1D0F8FC1F41F046
:1017F0001001C0F8FC1FD0F8FC1F21F00301C0F855
:10180000FC1FD0F8FC1F41F00201C0F8FC1F01686A
:10181000016001680160016841F480610160016854
:1018200021F47C110160016841F4E811016050F875
:10183000041C41F0807140F8041C00BF50F8041CE7
:1018400011F0007F0ED150F8041C11F0007F09D177
:1018500050F8041C11F0007F04D150F8041C11F062
:10186000007FEBD0016821F003010160016841F0C5
:1018700002010160016801F00C0108290ED0016825
:1018800001F00C01082909D0016801F00C010829B8
:1018900004D0016801F00C010829EBD14EF6085084
:1018A0004FF00061CEF20000016002B0704700000E
:1018B00080B54FF08040012100F0C0F9002808BF3A
:1018C00080BD4FF08040012100F068F840F2080030
:1018D000C2F20000006801F063FD40F20400C2F2B1
:1018E0000000006801F034FD042001F0B7F840F278
:1018F0007401C2F20001086040F27801C2F20001F6
:101900000A6810440860032001F0A8F840F2900132
:10191000C2F20001086040F29401C2F200010A68BC
:101920001044086080BD000040F21040C4F2000086
:101930000188018821F001010180704740F6100004
:10194000C4F200000188018821F001010180704784
:1019500010B540F600440121C4F20004204600F016
:101960006DF9002808BF10BD2046012100F016F8CF
:1019700040F2A800C2F2000001680131016010BD10
:101980000288002942F0800308BF22F08003038010
:1019900070470000C943018270470000C9430182BB
:1019A000704700000288002942F0010308BF22F0BE
:1019B0000103038070470000B0F84420002913465B
:1019C0006FF3DF3318BF42F40043A0F84430704790
:1019D00080B541F6FF71C4F20001884228DD44F26F
:1019E000FF31C4F2010188423FDD44F6FF31C4F209
:1019F000010188426EDD44F60041C4F201018842D3
:101A000000F0B58045F20001C4F20101884200F007
:101A1000B68045F20041C4F20101884218BF80BD82
:101A20004FF400100121FFF79DFD4FF40010D7E0A7
:101A300040F6FF71C4F20001884232DC40F2FF71CF
:101A4000C4F2000188425ADCB0F1804F00F09F8060
:101A500040F20041C4F20001884240F0D0800220F0
:101A60000121FFF767FD0220C4E043F2FF31C4F219
:101A70000101884255DC42F20001C4F200018842B3
:101A800000F08B8042F60041C4F20101884240F030
:101A9000B6804FF400600121FFF764FD4FF4006051
:101AA0009EE041F2FF71C4F2000188424DDC41F238
:101AB0000001C4F20001884277D041F20041C4F233
:101AC0000001884240F09B8020200121FFF732FD79
:101AD00020208FE044F20041C4F2010188426AD024
:101AE00044F60001C4F20101884240F088804FF4BE
:101AF00080200121FFF736FD4FF4802070E040F692
:101B00000001C4F2000188425DD040F60041C4F2F9
:101B10000001884273D108200121FFF70BFD082046
:101B200068E043F20041C4F20101884251D044F21E
:101B30000001C4F20101884261D14FF480300121DB
:101B4000FFF710FD4FF480304AE041F60001C4F287
:101B50000001884249D041F60041C4F200018842A8
:101B60004DD180200121FFF7E5FC802042E04FF4B9
:101B700000200121FFF7F6FC4FF4002030E04FF485
:101B800080100121FFF7EEFC4FF4801028E00120C7
:101B90000121FFF7CFFC01202CE04FF480700121E0
:101BA000FFF7C8FC4FF4807024E010200121FFF7FC
:101BB000C1FC10201EE04FF400300121FFF7D2FCE1
:101BC0004FF400300CE004200121FFF7B3FC0420A7
:101BD00010E04FF400500121FFF7C4FC4FF4005017
:101BE0000021BDE88040FFF7BDBC40200121FFF788
:101BF000A1FC40200021BDE88040FFF79BBC80BDD8
:101C000080B5B0F808C02CF0070C41EA0C01B0F820
:101C100018C0B0F820E001814FF6FC410CEA010C3D
:101C200040F2011141EA0C01018342EA03112EF056
:101C300022021143018480BD808C7047028A0A40D1
:101C400018BF01228089084018BF0120104070474A
:101C500070B50B88042B2AD0002B56D1B1F802C0E6
:101C60000A898B88068C40F6FF354FF6FC74C4F267
:101C7000000526F0010643EA02130246A842068444
:101C800032F8186FB0F820E026F0F30643EA0603B6
:101C90006DDCB0F1804F7DD040F20045C4F200050C
:101CA000A84277D040F60005C4F200056FE00E8927
:101CB0004B888A88058C40F6FF44360325F01005D2
:101CC00046EA02260584024632F8185FB0F820E0A2
:101CD000254046EA050C40F6FF356FF00306C4F2D6
:101CE0000005A6F1AD04A84262DCB0F1804F71D0CE
:101CF00040F20045C4F20005A8426BD040F6000552
:101D0000C4F20005A84265D068E00A898C884E8834
:101D1000058C082B71D125F48073038444EA0213E7
:101D2000024632F81C5FB0F820E025F0F30543EAE4
:101D3000050C6FF4405303F5145440F6FF33C4F21E
:101D40000003984200F38180B0F1804F00F08F8053
:101D500040F20043C4F20003984200F0888040F64D
:101D60000003C4F20003984200F0818084E040F652
:101D70000045C4F20005A8420CD042F60045C4F26A
:101D80000105A84206D043F20045C4F20105A8426D
:101D900018BF083C03830EEA040343EA0C0343F034
:101DA00001030384C988038B23F00C03038394E0AD
:101DB00040F60045C4F20005A8420BD043F20045AE
:101DC000C4F20105A84205D042F60045C4F201055F
:101DD000A84203D14FF6FC741B012D3C0EEA040609
:101DE000A0F818C0334343F010030384C988038B61
:101DF00023F44063090203836FE025F48053120348
:101E0000038442EA0423024640F6FF4432F81C5F92
:101E1000B0F820C0254046F6FF5443EA050E40F6D0
:101E2000FF33C4F20003984234DCB0F1804F43D05A
:101E300040F20043C4F2000398423DD040F6000354
:101E4000C4F20003984237D039E040F60043C4F2B0
:101E5000000398420BD043F20043C4F201039842BE
:101E600005D042F60043C4F20103984204D14CF677
:101E7000FF73360203F534540EEA0403A0F81CC0C5
:101E8000334343F480730384C988838B23F00C03AA
:101E9000838322E040F60043C4F2000398420BD053
:101EA00043F20043C4F20103984205D042F60043D6
:101EB000C4F20103984202D136034CF6FF740CEAD7
:101EC0000403A0F81CE0334343F480530384C9881F
:101ED000838B23F4406309028383108808431080B6
:101EE00070BD000000210122016042600181704745
:101EF000002A82890CBF22EA0101114381817047C7
:101F000010B5028C22F001020284048CB0F804E0C7
:101F1000038B0A8823F0730343EA020C0B8924F035
:101F200002021A434B881A43A0F18043A3F596336B
:101F30004FEAB323072B14D8012404FA03F313F058
:101F4000E50F0ED08C892EF4407322F00C0223434F
:101F5000CC8943EA040E4B8923F004031A438B888F
:101F60001A43A0F804E0A0F818C0C988818602844A
:101F700010BD0000028B22F008021143018370475C
:101F800010B5028C22F010020284048CB0F804E038
:101F9000038B0A8823F4E64343EA022C0B8924F0DE
:101FA000200242EA03124B8842EA031243F2004342
:101FB000C4F20103984205D042F60043C4F2010383
:101FC000984212D18B892EF4406422F0C00244EA78
:101FD0008303CC8943EA840E4B896FF04F0404EAF3
:101FE00003131A438B8842EA0312A0F804E0A0F816
:101FF00018C0C9880187028410BD0000028B22F43A
:10200000006242EA012101837047000010B5028C92
:1020100022F480720284048CB0F804E0838B0A8876
:1020200023F0730343EA020C0B8924F4007242EAA2
:1020300003224B8842EA032243F20043C4F2010325
:10204000984205D042F60043C4F20103984212D1EF
:102050008B892EF4405422F4406244EA0313CC8965
:1020600043EA041E4B8940F2FF441B02A3431A4378
:102070008B8842EA0322A0F804E0A0F81CC0C988BB
:102080008187028410BD0000828B22F00802114378
:102090008183704710B5028C22F480520284048C34
:1020A000B0F804E0828B0B8822F4E64242EA032C6B
:1020B0000B8924F4005242EA03324B8842EA03338C
:1020C00043F20042C4F20102904205D042F60042BF
:1020D000C4F20102904204D18A892EF4804444EA79
:1020E000821EA0F804E0A0F81CC0C988A0F8401027
:1020F000038410BD828B22F4006242EA01218183B5
:10210000704700008184704740F6FF33B0F800C08C
:10211000C4F2000398420FDCB0F1804F1ED040F2B1
:102120000043C4F20003984218D040F60003C4F202
:102130000003984212D016E040F60043C4F20003B8
:1021400098420BD043F20043C4F20103984205D0F9
:1021500042F60043C4F20103984204D14B882CF0AC
:10216000700243EA020C41F2004240F48063C4F280
:102170000002934204D0CB882CF4407243EA020C54
:10218000A0F800C08A8882850A880285A0F1804272
:10219000A2F596324FEAB222072A07D8012303FAA2
:1021A00002F212F0E50F1CBF097A0186012181823B
:1021B000704700004FF6FF7141600021016001721D
:1021C0007047000070B543F6000440F22551C4F298
:1021D0000104204600F00CFA002800F07F80204621
:1021E00000F096FA044640F27810C2F20000A4F122
:1021F000580304602046252B1ED859210222DFE80F
:1022000003F013151B1B1B1B1B1B1B1B1B1B1B1B6F
:102210001B1B1B1B1B1B1B1B1B1B1B1B1B1B1B1B0E
:102220001B1B1B1B1B451B6E5821012240F200008B
:10223000C2F200000270084640F2DC01C2F2000166
:102240000978B1B13A2870D0232840F0908040F24C
:102250007C1100200122C2F20001087040F29C01B2
:10226000C2F200010A7040F2DD01C2F20001087002
:10227000D3E040F2D800C2F200000268511C0160B5
:1022800040F2DE00C2F200008454D5E040F2D000FB
:1022900000210122C2F20000016040F2DC00C2F223
:1022A0000000027040F27C10C2F20000027040F2A6
:1022B0009C00C2F20000017040F2DD00C2F200009A
:1022C000027040F2D800C2F2000001684A1C0260AD
:1022D00040F2DE00C2F200004454D5E070BD40F28E
:1022E000DC0040F27C160025C2F20000C2F20006BB
:1022F0000570307800284ED040F2A400C2F20000F1
:10230000016840F29D00C2F200004554FEF7AAF8B1
:1023100040F2D00140F2AC023570C2F20001C2F2CC
:102320000002096842F8210042E040F2A40540F2B0
:102330009D000022C2F20005C2F20000296842544A
:10234000FEF790F840F2DD0240F27C11C2F200028A
:10235000C2F2000116780B78A6B3002B41D0002101
:10236000117040F2D001C2F2000108604CE0A0F10F
:102370003001092924D840F2A402C2F200021168F7
:10238000052944DC4B1C136040F29D02C2F200029E
:102390005054002041E040F29C00C2F2000000785E
:1023A00030B140F2D000C2F200000168013101609A
:1023B00040F2A4000021C2F20000016001202CE0E4
:1023C00000202AE06BB140F2D00240F2AC03C2F22E
:1023D0000002C2F20003126843F8220000200870D5
:1023E00012E040F29C01C2F20001097861B140F2B2
:1023F000D001C2F200010A68531C0B6040F2AC012C
:10240000C2F2000141F822000020286005E040F2FD
:102410009D010020C2F20001887140F2D80200281C
:10242000C2F20002136803F10101116040F2DE0202
:10243000C2F20002D4540AD040F2DE000022C2F2FE
:102440000000425440F2D800C2F2000002600B2C9F
:1024500038BF70BDA4F14100262815D8DFE800F090
:10246000714848487E5F5F5F1414141414141414E8
:1024700014141414141414141488141414141414A8
:10248000149EA3A8ADB2B70040F270000021C2F2C2
:102490000000017040F27200C2F20000017040F2D0
:1024A0007100C2F20000017040F27300C2F200003D
:1024B000017040F27010C2F20000016040F274102E
:1024C000C2F20000016040F26010C2F20000016040
:1024D00040F26410C2F20000016040F26810C2F2E3
:1024E0000000016040F26C10C2F200000160F5E6ED
:1024F00040F270000021C2F20000017040F2720050
:10250000C2F20000017040F27100C2F200000170DE
:1025100040F273000121C2F20000017070BD40F270
:10252000700000210122C2F20000017040F272002E
:10253000C2F20000017040F27100C2F200000270AD
:1025400026E040F2700000210122C2F2000001707A
:1025500040F27200C2F20000027014E040F270001B
:102560000121C2F20000017040F27200002107E078
:1025700040F270000021C2F20000017040F27200CF
:10258000C2F20000017040F27100C2F2000001705E
:1025900040F27300C2F20000017070BD40F2701092
:1025A000C2F2000017E040F27410C2F2000012E024
:1025B00040F26010C2F200000DE040F26410C2F27E
:1025C000000008E040F26810C2F2000003E040F2B0
:1025D0006C10C2F200000121016070BD82890029E7
:1025E00042F4005308BF22F4005383817047000077
:1025F00001F01F02012303FA02F2C1F34213022B7E
:1026000006D0012B14BF00F1140300F10C0301E00C
:1026100000F110031B88090A1A404FF0010318BF8C
:102620000122008803FA01F1084018BF0120104080
:102630007047000001F01F0C012303FA0CFCC1F3EA
:1026400042131421022B08BF1021012B08BF0C21BB
:10265000002A42580CBF22EA0C0242EA0C02425005
:102660007047000070B586B00446008A0D46C988E0
:1026700001AE20F4405008434EF6F3112082A089A9
:102680000840A98808432989084369890843A0812B
:10269000A08AA98920F440700843A0823046FEF742
:1026A0006DFF43F6000106F108000222C4F20101A9
:1026B0008C424FF0190108BF06F10C000426006897
:1026C0004843A189A2EBD1312A6802FA01F1B0FB9B
:1026D000F1F048F21F51C5F2EB11A0FB01235A099A
:1026E0006FF0630302FB0300A389A6EBD336B0406F
:1026F0003230A0FB0101072040EA133080F00800CF
:1027000000EA511040EA0210208106B070BD0000BE
:1027100080886FF35F207047FEE70000F0B587B058
:10272000102001211024FEF711FF042001210427AD
:10273000FEF7F4FE032004AE059040203146ADF8CC
:102740001000069440F60044C4F2000404F58235FB
:102750002846FEF795FC28464021FEF73FFE8020E4
:102760003146ADF8100028460697FEF789FC204652
:10277000FFF72EF94FF6FF7001A902904720019054
:102780002046FFF7C1FC20460121FFF703F9204650
:1027900001210122FFF7ACFB20460021FFF702F9DF
:1027A00007B0F0BD10B50446000A00F0ADF8E0B285
:1027B000BDE8104000F0A8B82DE9F04F87B0119E99
:1027C000074690461C460D46069100EB5600013820
:1027D00082B28819013883B2384600F0D9FB07214C
:1027E0000122300911EA560F18BF02EB1610704390
:1027F0000028049000F08480A6F10C0075083E4685
:102800004FF0000BC0F385015FFA85F941EA8011B2
:10281000A8F12000CBB245F2A851C2B20020C0F608
:1028200000010292039301EB0211019146F67851E7
:10283000C0F6000101EB821100220091052B5FD848
:102840000592DFE803F0030D5D0F5D19029945F273
:102850003412C0F6000201EB410102EB81010CE0F1
:1028600001990AE0029945F6A832C0F6000201EB90
:10287000410102EB011100E0009908444FF000080B
:1028800090F800A00120129900FA08F000EA0A006E
:1028900081B148B10699B0B2024689B20B4600F048
:1028A00077FB2046FFF77EFF0136B0B2C01BA8427F
:1028B0000FD115E000280CBF10982046FFF772FFDB
:1028C0000BF1010B5FFA8BF0B0FBF9F101FB190082
:1028D00058B108F10108B8F1080FD3D308E000BFE0
:1028E00006983E460130069002E04FF0000B00BF14
:1028F000059A0499039B013290B281423FF69EAF44
:1029000007B0BDE8F08F0000B0B541F60004054601
:102910000221C4F201042046FEF760FD2046082192
:10292000FEF75CFD68B2B0F1FF3F04DD20462021D8
:10293000FEF754FD03E020462021FEF751FD20461E
:102940000821FEF74DFD20460821FEF747FD6806E9
:1029500004D420462021FEF741FD03E0204620213B
:10296000FEF73EFD20460821FEF73AFD20460821ED
:10297000FEF734FDA80604D420462021FEF72EFDE4
:1029800003E020462021FEF72BFD20460821FEF71C
:1029900027FD20460821FEF721FDE80604D4204645
:1029A0002021FEF71BFD03E020462021FEF718FD45
:1029B00020460821FEF714FD20460821FEF70EFDF3
:1029C000280704D420462021FEF708FD03E0204616
:1029D0002021FEF705FD20460821FEF701FD2046D7
:1029E0000821FEF7FBFC680704D420462021FEF7EF
:1029F000F5FC03E020462021FEF7F2FC20460821EA
:102A0000FEF7EEFC20460821FEF7E8FCA80704D4F8
:102A100020462021FEF7E2FC03E020462021FEF7BD
:102A2000DFFC20460821FEF7DBFC20460821FEF7EC
:102A3000D5FCE80704D120462021FEF7CFFC03E0B7
:102A400020462021FEF7CCFC20460821FEF7C8FCDA
:102A500020460221BDE8B040FEF7C2BC242200217E
:102A60000228C4F200020AD0042806D003284FF03E
:102A7000000006D102F5806201E002F500621088D4
:102A8000118000B270470000B0B58AB0112001215A
:102A90000124FEF75BFD012001F03EF94820ADF86E
:102AA0001C4007A909900320089041F20000C4F2DD
:102AB0000100FEF7E5FA022000210025FEF7C6FA24
:102AC0000C20CDE90345CDE9050403A8FEF78EFAF5
:102AD00004208DF8060040F20620ADF8040001A89D
:102AE0000294FEF7D7FC0AB0B0BD000010B500F0AC
:102AF000BBF941F600041021C4F201042046FEF7A0
:102B00006DFC642001F0DAF820461021FEF768FC25
:102B1000642001F0D3F820464021FEF761FC6420D8
:102B200001F0CCF820460421FEF758FC1120FFF7F5
:102B3000EBFE20460421FEF753FC782001F0BEF89E
:102B400020460421FEF74AFC3620FFF7DDFE204632
:102B50000421FEF745FC0020FFF7D6FE20460421A5
:102B6000FEF73CFC3A20FFF7CFFE20460421FEF79B
:102B700037FC0520FFF7C8FE20460421FEF72EFC97
:102B8000B220FFF7C1FE20460421FEF729FC0C20ED
:102B9000FFF7BAFE0C20FFF7B7FE0020FFF7B4FEE8
:102BA0003320FFF7B1FE3320FFF7AEFE20460421AD
:102BB000FEF714FCB720FFF7A7FE20460421FEF71E
:102BC0000FFC3520FFF7A0FE20460421FEF706FC8F
:102BD000BB20FFF799FE20460421FEF701FC3220BE
:102BE000FFF792FE20460421FEF7F8FBC220FFF714
:102BF0008BFE20460421FEF7F3FB0120FFF784FE45
:102C000020460421FEF7EAFBC320FFF77DFE2046A5
:102C10000421FEF7E5FB1520FFF776FE2046042190
:102C2000FEF7DCFBC420FFF76FFE20460421FEF711
:102C3000D7FB2020FFF768FE20460421FEF7CEFBDD
:102C4000C620FFF761FE20460421FEF7C9FB0F20D6
:102C5000FFF75AFE20460421FEF7C0FBD020FFF705
:102C600053FE20460421FEF7BBFBA420FFF74CFED9
:102C7000A120FFF749FE20460421FEF7AFFBE0202C
:102C8000FFF742FE20460421FEF7AAFBD020FFF703
:102C90003BFE0820FFF738FE0E20FFF735FE092027
:102CA000FFF732FE0920FFF72FFE0520FFF72CFE6D
:102CB0003120FFF729FE3320FFF726FE4820FFF7DB
:102CC00023FE1720FFF720FE1420FFF71DFE15201E
:102CD000FFF71AFE3120FFF717FE3420FFF714FE2E
:102CE00020460421FEF77AFBE120FFF70DFE204687
:102CF0000421FEF775FBD020FFF706FE0820FFF742
:102D000003FE0E20FFF700FE0920FFF7FDFD09205E
:102D1000FFF7FAFD1520FFF7F7FD3120FFF7F4FD6F
:102D20003320FFF7F1FD4820FFF7EEFD1720FFF7F6
:102D3000EBFD1420FFF7E8FD1520FFF7E5FD31203E
:102D4000FFF7E2FD3420FFF7DFFD20460421FEF708
:102D500045FB2120FFF7D8FD20460421FEF740FB6C
:102D600020460421FEF73AFB2920FFF7CDFD20463F
:102D70000421BDE81040FEF733BB0000F0B58BB076
:102D800041F218000124C4F20200016841F045013B
:102D90000160012000F0C0FF08200121FEF7BEFB0A
:102DA00045200121FEF7D2FB40200121FEF7CEFB9A
:102DB000102008AE03270A90ADF8204040F60044EA
:102DC00031460997C4F2000404F586352846FEF71B
:102DD00057F928460121FEF703FB04200121FEF7E5
:102DE000B5FB182031460A900F20ADF8200004F5FD
:102DF0007C400997FEF744F94FF47A7005A90690D4
:102E0000472005902046FFF77FF9002001ADADF87F
:102E10000C0060202946C0F2010001902046FFF717
:102E20006FF820460821FFF7A5F820462946FFF74E
:102E3000A7F820460821FFF7E1F820462946FFF7CA
:102E4000E5F820460821FFF71FF920462946FFF73D
:102E500021F920460821FFF74DF920460121FEF710
:102E6000A1FD0BB0F0BD000070B584B04020012181
:102E7000FEF76CFB41F600041026022001AD03961C
:102E8000ADF804000320C4F2010429460290204654
:102E9000FEF7F6F820460221FEF7A2FA282029467E
:102EA000ADF804002046FEF7EBF820462821FEF797
:102EB00097FA44202946ADF804002046FEF7E0F8D2
:102EC000204648F22001FEF78BFA20462946ADF84D
:102ED0000460FEF7D5F820461021FEF781FA04B011
:102EE00070BD0000704700002DE9F04F83B00D4623
:102EF00011789B460646B1B1DDE90C9ADDF83880C1
:102F0000571C4FEA5A0400BFCAB2B0B229465B460A
:102F1000CDE9009ACDF80880FFF74EFC17F8011BA9
:102F200026440029F0D103B0BDE8F08F70470000BF
:102F3000B0B584B070200121FEF708FB102041F6E7
:102F4000000401AD03904FF44160C4F2010429462E
:102F5000ADF8040003200290A4F58060FEF790F81D
:102F60004FF480502946ADF80400A4F50060FEF748
:102F700087F84FF480602946ADF804002046FEF73C
:102F80007FF820464FF48061FEF72AFA04B0B0BD06
:102F90002DE9F04141F600040E460546042198460D
:102FA0001746C4F201042046FEF718FA2A20FFF75C
:102FB000ABFC20460421FEF713FA280AFFF7A4FC15
:102FC000E8B2FFF7A1FC380AFFF79EFCF8B2FFF762
:102FD0009BFC20460421FEF701FA2B20FFF794FC0E
:102FE00020460421FEF7FCF9300AFFF78DFCF0B211
:102FF000FFF78AFC4FEA1820FFF786FC5FFA88F09B
:10300000FFF782FC20460421FEF7E8F92C20FFF7A9
:103010007BFC20460421BDE8F041FEF7E1B9000049
:10302000F0B58BB041F21800C4F20200016841F41F
:1030300000610160012000F06FFE42F63C46012075
:103040000027C4F201063780B78000F065FEC0207B
:103050000121C0F21600FEF783F94FF40060012150
:10306000FEF774FA41200121FEF770FA032042F6C0
:10307000004408A909901820C4F201040A904FF4F2
:10308000C040ADF82000A4F5A050FDF7F9FF41F6CF
:103090001F4005A9CDE905702046FFF735F86020EF
:1030A00001ADC0F20100294601902046CDF80A701A
:1030B000FEF7ACFF20460821FEF7E6FF2046294632
:1030C000FEF7E8FF20460821FFF714F8204601210B
:1030D000FEF772FC20460121FEF752FC204601213A
:1030E000FEF760FC3780B7800BB0F0BD2DE9F04FE4
:1030F00081B040F6004B40F2A80944F6D35A0024B0
:103100000026C4F2000BC2F20009C1F2620A0BF5FC
:10311000823500BF28464021FEF762F9142000F0F6
:10312000FBFD28464021FEF759F90A2000F0F4FD86
:1031300028468021FEF74CF90028F9D05846012195
:10314000FEF730FC28468021FEF742F90128F9D02D
:1031500058460021FEF726FC5846FEF76DFD07464F
:103160000020D9F800800021C9F800005846FEF779
:10317000C9FFC8EB0840384400EB001787FB0A0181
:10318000881100EBD17001F009FE0146B7F57A7F96
:103190003046B8BF002101F07FFD01340646082CFF
:1031A000B8D130464FF0785101F024FE01B0BDE8AF
:1031B000F08F0000B0B58AB002200121FEF7AEF911
:1031C00010200121FEF7C2F940F600400121C0F2B3
:1031D0001A00FEF7C5F840F20044042001A903904C
:1031E000C020C4F20004ADF8040004F58630FDF7F9
:1031F00047FF07AD2846FEF7DDFF4FF6FF70294673
:103200000890002007902046FEF77EFF204603210D
:1032100000220023FEF7F4FC04AD2846FEF762FE10
:103220000A202946ADF818002046FEF711FD204679
:103230000121FEF7AFFB204601210122FEF758FED7
:1032400020460021FEF75EFF20460121FEF7AAFB83
:103250000AB0B0BDB0B58AB0042001210424FEF745
:103260005DF920200121FEF771F94FF48050012112
:10327000FEF776F8039440F600044FF4405001A99D
:10328000C4F20004ADF8040004F58630FDF7F8FE42
:1032900007AD2846FEF78EFF4FF6FF7029460890CF
:1032A000002007902046FEF72FFF20460321002232
:1032B0000023FEF7A5FC04AD2846FEF713FE0A2006
:1032C0002946ADF818002046FEF7C2FC2046012131
:1032D000FEF760FB204601210122FEF709FE204691
:1032E0000021FEF70FFF20460121FEF75BFB0AB02D
:1032F000B0BD0000F0B581B040F28C14002501266D
:103300000027C4F2212400BF4FF46F7025602560B0
:1033100000F002FD4FF46F70266000F0FDFC0137F5
:10332000B8B29C28F0D300250126002740F2A46003
:103330002560256000F0F0FC40F2A460266000F0FB
:10334000EBFC0137B8B25828F0D301B0F0BD000053
:1033500048F2A81141F65832C4F2222190420EDC04
:103360004EF2A842CFF6FF72904205DA0120524297
:1033700048600020086006E001280ADB02460020C1
:1033800048600120086042F63C40C4F2010002801F
:10339000704700280246E9D100224A600A60F2E73D
:1033A00040F2B01148F2901241F65833C4F2222193
:1033B000C4F2222298420EDC4EF2A843CFF6FF73ED
:1033C000984205DA01205B4210600020086006E0A8
:1033D00001280ADB0346002010600120086042F645
:1033E0004040C4F201000380704700280346E9D141
:1033F000002313600B60F2E72DE9F04397B0002043
:103400000021EF22EF230024FFF7C2FD002500BFBB
:103410004FF6FF70FFF7C6F90135A8B2F028F7D3D1
:103420000134A0B2F028F1D346F6527220204FF0BA
:10343000203145F2A858002552240DF11C09C3F68D
:103440006C2209900891C0F60008079246F65012C7
:10345000CDE90510C3F674220492CDE9021046F2BC
:103460005910C3F67720019045F00701A8B20F2349
:1034700000278AB20021FFF78BFDA4F12000C0B223
:1034800008EB0014E65D16F0010F0CBF4FF6FF705D
:103490004FF47840FFF786F9B00754BF4FF6FF703E
:1034A0004FF47840FFF77EF9700754BF4FF6FF7076
:1034B0004FF47840FFF776F9300754BF4FF6FF70AE
:1034C0004FF47840FFF76EF9F00654BF4FF6FF70E7
:1034D0004FF47840FFF766F9B00654BF4FF6FF701F
:1034E0004FF47840FFF75EF9700654BF4FF6FF7057
:1034F0004FF47840FFF756F9300654BF4FF6FF708F
:103500004FF47840FFF74EF90137102FBAD119F870
:10351000014F0835002CA7D1002550240DF11009CA
:1035200045F00701A8B21F238AB21021FFF730FD32
:10353000A4F120000024C0B208EB00173E5D16F095
:10354000010F0CBF4FF6FF704FF47840FFF72AF9D8
:10355000B00754BF4FF6FF704FF47840FFF722F9E1
:10356000700754BF4FF6FF704FF47840FFF71AF919
:10357000300754BF4FF6FF704FF47840FFF712F951
:10358000F00654BF4FF6FF704FF47840FFF70AF98A
:10359000B00654BF4FF6FF704FF47840FFF702F9C2
:1035A000700654BF4FF6FF704FF47840FFF7FAF8FB
:1035B000300654BF4FF6FF704FF47840FFF7F2F833
:1035C0000134102CBAD119F8014F0835002CA7D1BD
:1035D000002559240DF1040945F00701A8B22F2355
:1035E0008AB22021FFF7D4FCA4F120000024C0B24D
:1035F00008EB00173E5D16F0010F0CBF4FF6FF7091
:103600004FF47840FFF7CEF8B00754BF4FF6FF7085
:103610004FF47840FFF7C6F8700754BF4FF6FF70BD
:103620004FF47840FFF7BEF8300754BF4FF6FF70F5
:103630004FF47840FFF7B6F8F00654BF4FF6FF702E
:103640004FF47840FFF7AEF8B00654BF4FF6FF7066
:103650004FF47840FFF7A6F8700654BF4FF6FF709E
:103660004FF47840FFF79EF8300654BF4FF6FF70D6
:103670004FF47840FFF796F80134102CBAD119F8BE
:10368000014F0835002CA7D10120FFF72BFC3A2071
:1036900000256C240DF12809ADF82C0046F26C5081
:1036A000C7F266400A9000BF45F00701A8B23F2369
:1036B0008AB23021FFF76CFCA4F120000024C0B2D4
:1036C00008EB00173E5D16F0010F0CBF4FF6FF70C0
:1036D0004FF47840FFF766F8B00754BF4FF6FF701D
:1036E0004FF47840FFF75EF8700754BF4FF6FF7055
:1036F0004FF47840FFF756F8300754BF4FF6FF708D
:103700004FF47840FFF74EF8F00654BF4FF6FF70C5
:103710004FF47840FFF746F8B00654BF4FF6FF70FD
:103720004FF47840FFF73EF8700654BF4FF6FF7035
:103730004FF47840FFF736F8300654BF4FF6FF706D
:103740004FF47840FFF72EF80134102CBAD119F855
:10375000014F0835002CA7D143F6742000257224B0
:103760000DF12809ADF82C0046F672108DF82E5098
:10377000C6F667000A9000BF45F00701A8B24F23C4
:103780008AB24021FFF704FCA4F120000024C0B25B
:1037900008EB00173E5D16F0010F0CBF4FF6FF70EF
:1037A0004FF47840FEF7FEFFB00754BF4FF6FF70AE
:1037B0004FF47840FEF7F6FF700754BF4FF6FF70E6
:1037C0004FF47840FEF7EEFF300754BF4FF6FF701E
:1037D0004FF47840FEF7E6FFF00654BF4FF6FF7057
:1037E0004FF47840FEF7DEFFB00654BF4FF6FF708F
:1037F0004FF47840FEF7D6FF700654BF4FF6FF70C7
:103800004FF47840FEF7CEFF300654BF4FF6FF70FE
:103810004FF47840FEF7C6FF0134102CBAD119F8E6
:10382000014F0835002CA7D143F6742000254C2405
:103830000DF12809ADF82C0045F64C708DF82E508E
:10384000C6F663600A9000BF45F00701A8B25F2387
:103850008AB25021FFF79CFBA4F120000024C0B2E3
:1038600008EB00173E5D16F0010F0CBF4FF6FF701E
:103870004FF47840FEF796FFB00754BF4FF6FF7045
:103880004FF47840FEF78EFF700754BF4FF6FF707D
:103890004FF47840FEF786FF300754BF4FF6FF70B5
:1038A0004FF47840FEF77EFFF00654BF4FF6FF70EE
:1038B0004FF47840FEF776FFB00654BF4FF6FF7026
:1038C0004FF47840FEF76EFF700654BF4FF6FF705E
:1038D0004FF47840FEF766FF300654BF4FF6FF7096
:1038E0004FF47840FEF75EFF0134102CBAD119F87E
:1038F000014F0835002CA7D143F67420002552242F
:103900000DF12809ADF82C0045F652708DF82E50B7
:10391000C6F663600A9000BF45F00701A8B26F23A6
:103920008AB26021FFF734FBA4F120000024C0B26A
:1039300008EB00173E5D16F0010F0CBF4FF6FF704D
:103940004FF47840FEF72EFFB00754BF4FF6FF70DC
:103950004FF47840FEF726FF700754BF4FF6FF7014
:103960004FF47840FEF71EFF300754BF4FF6FF704C
:103970004FF47840FEF716FFF00654BF4FF6FF7085
:103980004FF47840FEF70EFFB00654BF4FF6FF70BD
:103990004FF47840FEF706FF700654BF4FF6FF70F5
:1039A0004FF47840FEF7FEFE300654BF4FF6FF702E
:1039B0004FF47840FEF7F6FE0134102CBAD119F816
:1039C000014F0835002CA7D143F64D2000254C248B
:1039D0000DF12809ADF82C0045F64C708DF82E50ED
:1039E000C5F250700A9000BF45F00701A8B27F23CE
:1039F0008AB27021FFF7CCFAA4F120000024C0B2F3
:103A000008EB00173E5D16F0010F0CBF4FF6FF707C
:103A10004FF47840FEF7C6FEB00754BF4FF6FF7074
:103A20004FF47840FEF7BEFE700754BF4FF6FF70AC
:103A30004FF47840FEF7B6FE300754BF4FF6FF70E4
:103A40004FF47840FEF7AEFEF00654BF4FF6FF701D
:103A50004FF47840FEF7A6FEB00654BF4FF6FF7055
:103A60004FF47840FEF79EFE700654BF4FF6FF708D
:103A70004FF47840FEF796FE300654BF4FF6FF70C5
:103A80004FF47840FEF78EFE0134102CBAD119F8AD
:103A9000014F0835002CA7D143F64D2000255224B4
:103AA0000DF12809ADF82C0045F652708DF82E5016
:103AB000C5F250700A9000BF45F00701A8B28F23ED
:103AC0008AB28021FFF764FAA4F120000024C0B27A
:103AD00008EB00173E5D16F0010F0CBF4FF6FF70AC
:103AE0004FF47840FEF75EFEB00754BF4FF6FF700C
:103AF0004FF47840FEF756FE700754BF4FF6FF7044
:103B00004FF47840FEF74EFE300754BF4FF6FF707B
:103B10004FF47840FEF746FEF00654BF4FF6FF70B4
:103B20004FF47840FEF73EFEB00654BF4FF6FF70EC
:103B30004FF47840FEF736FE700654BF4FF6FF7024
:103B40004FF47840FEF72EFE300654BF4FF6FF705C
:103B50004FF47840FEF726FE0134102CBAD119F844
:103B6000014F0835002CA7D13A20782556240DF1B5
:103B70002809ADF82C0044F25640C4F244100A90D3
:103B800008E000BF19F8014F0835002C04BF17B03A
:103B9000BDE8F08345F00701A8B20F2300278AB2E1
:103BA0000021FFF7F5F9A4F12000C0B208EB0014E2
:103BB000E65D16F0010F0CBF4FF6FF704FF4784032
:103BC000FEF7F0FDB00754BF4FF6FF704FF478409A
:103BD000FEF7E8FD700754BF4FF6FF704FF47840D2
:103BE000FEF7E0FD300754BF4FF6FF704FF478400A
:103BF000FEF7D8FDF00654BF4FF6FF704FF4784043
:103C0000FEF7D0FDB00654BF4FF6FF704FF478407A
:103C1000FEF7C8FD700654BF4FF6FF704FF47840B2
:103C2000FEF7C0FD300654BF4FF6FF704FF47840EA
:103C3000FEF7B8FD0137102FBAD1A3E710B584B055
:103C400004200121FDF782FC102040F6000401A9A8
:103C500003900820C4F20104ADF804000320029090
:103C60002046FDF70DFA20460821FDF7B7FB04B00A
:103C700010BD00007047000080B56FF00400FDF734
:103C80005DFD40F20C004DF6836140F2D602C2F2B7
:103C90000000C4F21B31C2F200020068A0FB010167
:103CA000480D1070C1F347504FF47A71484340F209
:103CB000D401C2F20001088080BD000040F2D401AE
:103CC000C2F20001098841434EF21000CEF200001A
:103CD000416000218160016841F00101016000BF85
:103CE000016801F0011101290ED1016801F00111F3
:103CF000012909D1016801F00111012904D10168EC
:103D000001F001110129EBD0016821F001010160EE
:103D1000002181607047000040F2D601C2F200012C
:103D2000097841434EF21000CEF2000041600021BC
:103D30008160016841F00101016000BF016801F08C
:103D4000011101290ED1016801F00111012909D1E8
:103D5000016801F00111012904D1016801F001118C
:103D60000129EBD0016821F001010160002181608F
:103D7000704700002DE9F04389B00446042001217A
:103D80004FF004094FF00108FDF7E0FB4FF48040CD
:103D90000121FDF7DBFB43F60005032006AF07908A
:103DA0004FF40070C4F201053946ADF81800182030
:103DB000A5F5405608903046FDF762F94FF4806053
:103DC000CDF820903946ADF818003046FDF758F987
:103DD00005208DF802002520ADF800006846CDF8DA
:103DE0000480FDF757FB0020029402A90390ADF870
:103DF00014004FF4402004902846FEF733FC284678
:103E000040F225510122FEF715FC28460121FEF75C
:103E1000E5FB09B0BDE8F0832DE9F04F89B0FDF76F
:103E20009BFC0920FDF702FCFFF726FF012001247F
:103E3000FDF718FB40F27C00C2F20000FDF79EFB8C
:103E40004FF44070FDF756FBFEF798FFFFF7F6FEC4
:103E5000FFF750FAFFF76AF8FEF748FEFFF7CCFAD3
:103E6000FEF712FEFDF766F84FF41650FFF782FFDB
:103E7000FFF7A0F9FFF7EEF9FFF7D2F8FFF758F8D0
:103E800001200121FDF74AFB312006A9079041F6E8
:103E90001F4006904FF08040FEF736F94FF080400B
:103EA00001210122FEF724F803208DF812004FF4BF
:103EB0008E70ADF8100004A80594FDF7EBFA4FF0F2
:103EC00080400121FDF76EFDFEF758FFFEF70EFE64
:103ED000FEF7DAFDFEF722FC40F2980940F22E15BB
:103EE00048F2405648F2385748F23C584FF6FF7BAC
:103EF00000244FF0100AC2F20009C2F20005C0F619
:103F00000006C0F60007C0F6000800BF0C2005211F
:103F1000FDF768FA00F094FE46F266634FF06632F1
:103F2000C4F20A0300F08EFD00230022C4F226032F
:103F300000F088FD49F69A1249F69913C9F69912CC
:103F4000C3F6F17300F07EFD00230022C3F6307348
:103F500000F078FD00F044FDC9F800002846314625
:103F60000022FCF76BF9282000212A461F23CDE907
:103F700000BA0294FEF7B8FF284631460022FCF74B
:103F80005DF9282010212A461F23CDE900BA0294AA
:103F9000FEF7AAFF284631460022FCF74FF92820F9
:103FA00020212A461F23CDE900BA0294FEF79CFF88
:103FB00040F274003946C2F2000002682846FCF75D
:103FC0003DF9302030212A461F23CDE900BA029462
:103FD000FEF78AFF40F290003946C2F20000006806
:103FE00042422846FCF72AF9302040212A461F2366
:103FF000CDE900BA0294FEF777FF40F2780041461F
:10400000C2F2000002682846FCF718F9302050215F
:104010002A461F23CDE900BA0294FEF765FF40F25D
:1040200094004146C2F2000002682846FCF706F9F7
:10403000302060212A461F23CDE900BA0294FEF702
:1040400053FF284656A10022FCF7F8F800209021E3
:104050002A461F23CDE900BA0294FEF745FF284601
:1040600041460022FCF7EAF80020A0212A461F233F
:10407000CDE900BA0294FEF737FF284641460022F8
:10408000FCF7DCF87820A0212A461F23CDE900BAEE
:104090000294FEF729FF284641460022FCF7CEF89D
:1040A0000020B0212A461F23CDE900BA0294FEF772
:1040B0001BFF28463BA10022FCF7C0F87820B02166
:1040C0002A461F23CDE900BA0294FEF70DFF40F205
:1040D00004004146C2F2000002682846FCF7AEF830
:1040E000302070212A461F23CDE900BA0294FEF742
:1040F000FBFE40F208004146C2F20000026828467A
:10410000FCF79CF8302080212A461F23CDE900BA15
:104110000294FEF7E9FED9F8000000F091FD024696
:104120000B46284621A1FCF789F8A02000212A4649
:104130001F23CDE900BA0294FEF7D6FE40F27810B4
:104140001CA1C2F2000002682846FCF777F80020A4
:10415000D0212A461F23CDE900BA0294FEF7C4FEFF
:1041600040F2DE020020D0211F23CDE900BA0294E4
:10417000C2F20002FEF7B8FEFEF7B8FF00F060FDE5
:1041800002460B4628460CA1FCF758F80020E02117
:104190002A461F23CDE900BA0294FEF7A5FEB5E634
:1041A0002536660025362E326600000025322E3276
:1041B000660000002564000025342E3266000000F1
:1041C0005FEA400C08BF91F0000F4FEA8C234FEAE2
:1041D000C12243EA51514FEA1C5018BF00F5F0408C
:1041E0004FEA300018BF41F000415FEA6C5C00F01C
:1041F0002980BCF1FF3F08BF40F080407047130C9E
:1042000006BF12044FF0100C4FF0000C130E04BF49
:1042100012020CF1080C130F04BF12010CF1040C74
:10422000930F04BF92000CF1020CD30F04BF520095
:104230000CF1010C11464FF00002A0F11F00A0EBA1
:104240000C00704711F0004F08BF704731F000417B
:104250003FF4D5AF0B0C06BF09044FF0100C4FF024
:10426000000C0B0E04BF09020CF1080C0B0F04BF6D
:1042700009010CF1040C8B0F04BF89000CF1020C36
:10428000CB0F04BF49000CF1010CCCF1200322FA42
:1042900003F341EA030102FA0CF2A0EB0C0000F177
:1042A0000100704723F07F4720F07F4C80EA030035
:1042B00000F00040ACEB070303F57C5303F1FF0370
:1042C0002DE9804909B44FEA144324EA03484FEA30
:1042D000154B25EA0B4E0FF2042606EB13273E780A
:1042E00003FB0667C7F5000707FB06F64FEAD6464D
:1042F00006F102064FEA543707FB066CCCF1005C6E
:104300004FEA1C472CEA074C0CFB06F507FB06F4AA
:1043100004EB15464FEA961649085FEA320234BFAD
:1043200000204FF000404FEAD13706FB07FC4FEA70
:104330001C4C0CFB0BF7D21B03FB0CF761EB0701CA
:104340000CFB0EF7B0EB074072EB17420CFB08F7C3
:1043500034BFA2EB0742B2EB074261EB17414FEAD1
:104360000C444FEA910706FB07FC4FEA1C4C0CFB80
:104370000BF7B0EBC74072EB573203FB0CF734BFBF
:10438000A2EBC742B2EBC74261EB57310CFB0EF711
:10439000B0EBC70072EB57720CFB08F734BFA2EB0F
:1043A000C702B2EBC70261EB57714FEA816141EA84
:1043B00092114FEA826242EA90124FEA806004EB67
:1043C000CC04039F4FEAD13706FB07FC4FEA1C4C95
:1043D0000CFB0BF7D21B03FB0CF761EB07010CFB8B
:1043E0000EF7B0EB074072EB17420CFB08F734BF37
:1043F000A2EB0742B2EB074261EB17414FEA8C5543
:1044000004EB9C244FEA910706FB07FC4FEA1C4C87
:104410000CFB0BF7B0EBC74072EB573203FB0CF70A
:1044200034BFA2EBC742B2EBC74261EB57310CFB82
:104430000EF7B0EBC70072EB57720CFB08F734BFF6
:10444000A2EBC702B2EBC70261EB57714FEA816181
:1044500041EA92114FEA826242EA90124FEA80608A
:1044600015EB4C2544F100044FEAD13706FB07FC5D
:104470004FEA1C4C0CFB0BF7D21B03FB0CF761EB58
:1044800007010CFB0EF7B0EB074072EB17420CFB79
:1044900008F734BFA2EB0742B2EB074261EB1741CA
:1044A0004FEA813141EA92414FEA823242EA904238
:1044B0004FEA80304FEA0C7615EB1C1544F10004EE
:1044C00048EA03434EEA0B484FF0000EB2EB080CEB
:1044D00071EB030724BF624639464EEB0E0E4FF0D8
:1044E000000B0018524149414BEB0B0BB2EB080C8F
:1044F00071EB03077BF1000B24BF624639464EEB9C
:104500000E0E4FF0000B0018524149414BEB0B0BC4
:10451000B2EB080C71EB03077BF1000B24BF624682
:1045200039464EEB0E0E51EA020718BF46F001065F
:1045300016EB0E7655F1000254F1000103D5BDE8EB
:104540008901BDE80088BDE88901BDE80048B619C9
:10455000524141EB0101A3F10103704780807F7E4E
:104560007D7C7B7A797877767675747372717170E9
:104570006F6E6E6D6C6C6B6A6A696868676666659B
:104580006464636362616160605F5F5E5E5D5D5C29
:104590005C5B5B5A5A59595858575756565555559A
:1045A0005454535352525251515050504F4F4F4EFA
:1045B0004E4D4D4D4C4C4C4B4B4B4A4A4A49494948
:1045C000484848474747474646464545454444448A
:1045D0004443434343424242424141419C46002BB3
:1045E00030D477002BD04FEA37071CB503B44FF017
:1045F00010004FF01001BAF1000F06D0BCF1000F0F
:10460000DCBF40F0080040F008014FF000000FBC94
:10461000BDE810400BF1010BBBF1010F08BF5FEAD1
:10462000170722BF12F1010211F101014FF0004101
:1046300043F1000300F0004043EA00007047F9D363
:104640005708D0E746EA06464FEA164613F1400FF0
:104650001FDD13F1200FDFBF16430A460021203370
:104660005B42BED0C3F1200746EA06464FEA164633
:1046700002FA07F746EA070622FA03F2C3F1200717
:1046800001FA07F742EA070221FA03F14FF00003AB
:10469000A7E746EA020646EA06464FEA164646EA13
:1046A0000106BCBF46EA0646360C4FF000034FF049
:1046B00000024FF0000194E72DE9804C70B49A4657
:1046C000934691E8380007C831EA400C48BF34EA05
:1046D000430C03D5FFF7E6FDFFF780FFF0BCBDE814
:1046E000008C2DE9804C70B49A46934691E83800CE
:1046F00007C810F0804F08BF13F0804F03D100F0BF
:1047000005F8FFF76BFFF0BCBDE8008C20F07F4799
:1047100023F07F4C80EA030000F0004007EB0C031D
:10472000A3F57C53A3F1FE0392F0000F00F0B380D9
:1047300095F0000F00F077802DE901494FEA114014
:1047400021EA00484FEA144624EA064700FB06FC2B
:1047500008FB06F607FB08F818EB06484CEB164C6E
:1047600000FB07F718EB07484CEB17404FEA124BDA
:1047700022EA0B4E4FEA154625EA06470BFB06FCDC
:104780000EFB06F607FB0EFE1EEB064E4CEB164C20
:104790000BFB07F71EEB074E4CEB174B18EB0B0808
:1047A00040F1000018EB0E0B58EB000840F1000040
:1047B0008F1A4FF000014FF000063CBFC943661B43
:1047C00014BFB5EB040C00213CBFC943F61B4FEAF4
:1047D000174427EA04454FEA1C472CEA074C04FB20
:1047E000076205FB07F70CFB05F616EB074642EBE5
:1047F000174204FB0CFC16EB0C4642EB1C421BEB75
:10480000060658EB020241414EEA8E0E46EA9E062B
:1048100001D5BDE80189B619524141EB0101A3F16F
:104820000103BDE801894FEA144524EA05464FEA31
:10483000114721EA074C05FB07F406FB07F70CFBC1
:1048400006F111EB074144EB174405FB0CFC11EB9F
:104850000C4144EB1C444FEA124722EA074C05FB8B
:1048600007F206FB07F70CFB06F616EB074642EBD2
:10487000174205FB0CFC16EB0C4642EB1C456A1874
:1048800054F1000148BF7047B619524141EB010194
:10489000A3F10103704795F0000F37D04FEA1142A2
:1048A00021EA02464FEA144724EA074C02FB07F1CB
:1048B00006FB07F70CFB06F414EB074441EB17412A
:1048C00002FB0CFC14EB0C4441EB1C414FEA154776
:1048D00025EA074C02FB07F506FB07F70CFB06F67B
:1048E00016EB074645EB174502FB0CFC16EB0C4696
:1048F00045EB1C42121951F1000148BF7047B6192F
:10490000524141EB0101A3F1010370474FEA144505
:1049100024EA05464FEA114721EA074C05FB07F157
:1049200006FB07F70CFB06F212EB074241EB1741BF
:1049300005FB0CFC12EB0C4251EB1C414FF0000646
:1049400048BF7047921841EB0101A3F10103704782
:10495000490050EAC12018BF04204A0D18BF40F09A
:10496000010040F2FF72B2EB515F08BF40F002005D
:10497000012808BF0520704730380A2801D20120DD
:10498000704700207047000010B500290AD0087851
:10499000002807D005487844FCF7CCF9002801D05E
:1049A000002010BD0248784410BD0000D23B00003A
:1049B000CA3B000010B500290AD00878002807D0AB
:1049C00005487844FCF7B6F9002801D0002010BD56
:1049D0000248784410BD0000C23B0000BA3B000012
:1049E00021F0004201F00043A2F16052B2F5801FB5
:1049F00028BFD2F17F6C0BD95FEA001C43EAC202E8
:104A000042EB507018BF704728BF20F0010070477C
:104A1000B2F5801FBCBF184670474FEA410C1CF529
:104A2000001F02D2084600F0ACBA70B500F0B4F82E
:104A300000000089FFF7F6BF4FF00040A0F58000AE
:104A40007047000070B5DFF848C11CEA111E1EBF98
:104A50001CEA13159EEA0C0F95EA0C0F00F06F800C
:104A600081EA03044EEAD47EAE4421EA4C1123EAE3
:104A70004C1341F4801143F48013AEF17F7EA1FB0F
:104A8000024CA0FB0365361955EB0C05A1FB034C4A
:104A90004CF10003A0FB021C16EB0C06654153F120
:104AA0000003094218BF46F0010613F4007F0BD142
:104AB0004FEA03314FEA053041EA155140EA1650FA
:104AC00034036FF003020AE04FEAC3214FEAC52026
:104AD00041EA555140EA5650F4026FF0020202EBEF
:104AE0002E4201EB025585EACE710AD05FEA440CF2
:104AF00018BF24F0004450F1000041F1000120EA09
:104B0000D47040F2FE7C624500D270BDA84214BF52
:104B10004FF080444FF04044002E08BF0024BEF107
:104B2000806FA8BFA1F1C041BDE8704080F28280D3
:104B300001F1C04101F000414FF0000070470CEA64
:104B400013159EEA0C0F18BF95EA0C0F06D081EAE8
:104B5000030E4FF000000EF0004170BD00F01CF895
:104B60008900013E00F007B800F009B84FEA430C95
:104B70005FEA5C5C08D081EA030100F05BB84FEAB1
:104B8000410C5FEA5C5CF6D102494FF000007047CF
:104B90000000FF070000F87F0EF1020E2EF0030E5A
:104BA0005EF8046B364205D4012A43EB030515F584
:104BB000001F12D8012841EB010C1CF5001F0CD876
:104BC0000ED14FEAD17C0CEB4C0C0CF1020C15F51C
:104BD000001F08BF4CEBD37C04E04FF0080C01E051
:104BE0004FEAD37C0CEB4C0526FA05F606F00706D7
:104BF000B6F1040C06D20EEB860CBDE870404CF00A
:104C0000010C6047DFE80CF0090B02024FF0004195
:104C1000A1F500214FF0000070BD19461046012893
:104C200051EB010418BFD4F5001484BF002001F03B
:104C3000004170BD0808A0F500114FEA310170472E
:104C400043004FEAD30C4FEA3C0C43401FBF4007E0
:104C50000CF1605113F0FE4F70471CF0006F03D150
:104C60000CF00041002070470CF0004343EA507004
:104C700040EACC0010B500F03EF900BF0000009201
:104C80004FEA0001FFF7D6BF4FF00041A1F5002128
:104C90004FF000007047000090EA010F48BF81F01C
:104CA000004100F17A81421A3CBF801A89184FEA0C
:104CB000D052A2EBD1534FF07F4C1CEA410F18BFEA
:104CC0009CEA026F00F03B804FF0004C4CEA002061
:104CD0004CEA012121FA03FC10EB0C0C1ED202F16C
:104CE000FF325FEA1C2040EBC25038BF70471CF017
:104CF0007F0F4FEA400C18BFBCF17F4F38BF7047A1
:104D0000C3F12003994008BF20F00100BCF17F4FA0
:104D100038BF7047A0F1C04000F033B94FEA3C0003
:104D2000000A40EBC25028BF1CF0FF0F4FEA400CB6
:104D3000E6D018BFBCF17F4F38BF7047EAE79CEA66
:104D4000026F05D010EA5C0F08BF00F0004070470A
:104D500010B500F0D0F800BF64FBBE3EC10DD1F12C
:104D60009E0206DB4FEA002343F0004323FA02F0E1
:104D70007047004207D54FEA4001B1F1FE4F02D221
:104D80004FF00000704710B500F0B5F8499224804C
:104D9000002070476FEA20007047000010F00041CB
:104DA00048BF4042B0FA80F310FA03F2C3F19D030A
:104DB0000BD051EAC35101EB1220530638BF7047A4
:104DC00000F1010008BF20F001007047B0FA80F345
:104DD00010FA03F2C3F19D030AD0D90501EB1220AA
:104DE000530638BF704700F1010008BF20F00100F2
:104DF000704700004FF47F0C1CEAD0121EBF1CEA63
:104E0000D11392EA0C0F93EA0C0F00F0478090EA5E
:104E1000010F48BF42F480724FF0004C4CEA002072
:104E20004CEA012102EB0302A0FB0113A2F50002F0
:104E3000002918BF43F001035B0028BF4FEA33038A
:104E400042EB22425FEA132C4CEBC2502EBFBCEB6C
:104E5000436FB2F57C0F70474FEA036CBCF1004F13
:104E600008BF20F00100B2F57C0F38BF70470BD5AA
:104E700082F0FF0212F5803FC8BF704700F1C040CA
:104E8000D8BF00F00040704700F5000C5FEA4C0C02
:104E900048BF7047B0F1C04000F073B80CEAD113BE
:104EA00090EA010F48BF42F48072624538BF634503
:104EB00004D280EA010000F00040704710B500F015
:104EC0001AF800BF8900013E00F007B800F009B8E9
:104ED0005FEA410C5FEA1C6C08D080EA010000F038
:104EE00050B85FEA400C5FEA1C6CF6D14FF000400E
:104EF000A0F5800070470EF1020E2EF0030E5EF852
:104F0000044B244204D44FEA4102B2F17F4F11D83E
:104F10004FEA4003B3F17F4F0CD80ED14FEAD07C5B
:104F20000CEB4C0C0CF1020CB2F17F4F08BF4CEBB8
:104F3000D17C04E04FF0080C01E04FEAD17C0CEB8F
:104F40004C0324FA03F404F00704B4F1040C06D271
:104F50000EEB840CBDE810404CF0010C6047DFE81C
:104F60000CF0070802024FF00040A0F5800010BDD1
:104F70000846420018BFD2F1807288BF00F000409E
:104F800010BDFF2141EAD050C005704790EA010FE3
:104F900048BF81F000413FF586AE421A04D882F046
:104FA0000042A0EB020011444FEAD052A2EBD153D1
:104FB0004FF07F4C1CEA410F18BF9CEA026F4AD0A9
:104FC0004FF0004C4CEA00204CEA012121FA03FC8E
:104FD000B0EB0C0C0FD412F0FE0F36D05FEA4C0091
:104FE0001DD5001240EBC25038BF70471CF03F0F78
:104FF00018BF70470BE05FEA1C20A2F1010240EBF2
:10500000C25038BF70471CF07F0F18BF7047C3F104
:105010002003994014BF401E20F0010070474FEA62
:105020001223800808BF7047B0FA80FCA2EB0C0284
:10503000CCF1280C60FA0CF093EA122F04BF00EBBD
:10504000C25070474FEAC3707047130A5FEADC1022
:1050500008BF7047F6E79CEA026F04D010EA5C0FC5
:1050600008BF0020704710B5FFF745FF40DFF63E50
:1050700081F000407047FBF73CBB040000080000D3
:1050800000000000000200010000100002400000CB
:10509000000000A00000000005400000000000C863
:1050A000000000000C4000000000409C00000000D8
:1050B000194000000020BCBE000000003440000089
:1050C000BFC91B8E00000004B5400000504BCFD07C
:1050D0006607E2CF010000006C4100003E8251AA49
:1050E000DFEEA73401000000D9420000DCB5A0E2E9
:1050F0003A301F97FFFFFFFFB4450000FD25A0C811
:10510000E9A3C14FFFFFFFFFFF3F00000000008049
:1051100000000000FF3F00000000008000000000D1
:105120000204060800000000010203040102030457
:105130000607080900000000000000000000000051
:1051400000000404040404000004000014140A0015
:10515000000000000000000000000A0A1F0A0A1FE9
:105160000A0A000000040E1505060C14150E0400B2
:10517000000012150D152E2C2A1200000000040A42
:105180000A36151529160000020201000000000071
:1051900000000000100808040404040408081000BB
:1051A00002040408080808080404020000000004BF
:1051B000150E0E150400000000000008083E080847
:1051C00000000000000000000000000002020100DA
:1051D00000000000003F0000000000000000000090
:1051E0000000000000020000002010100808040465
:1051F0000202010000000E1111111111110E000028
:105200000000040604040404040E000000000E1153
:1052100011080402011F000000000E11100C1010F4
:10522000110E00000000080C0C0A091F081C0000E9
:1052300000001F01010F1110110E000000000C12E0
:10524000010D1311110E000000001E1008080404C7
:105250000404000000000E11110E1111110E0000C7
:1052600000000E11111916100906000000000000C0
:105270000400000000040000000000000004000022
:1052800000040400000010080402020408100000DA
:10529000000000003F003F0000000000000002048A
:1052A000081010080402000000000E111108040488
:1052B0000004000000001C22292D2D1D221C0000CE
:1052C000000004040C0A0A1E1233000000000F1232
:1052D000120E1212120F000000001E110101010136
:1052E000110E000000000F1212121212120F000015
:1052F00000001F120A0E0A02121F000000001F12F7
:105300000A0E0A020207000000001C1201013911F6
:10531000120C000000003312121E12121233000091
:1053200000001F0404040404041F000000003E08E1
:105330000808080808080907000037120A060A12B8
:10534000123700000000070202020202223F0000A2
:1053500000003B1B1B1B15151535000000003B1200
:1053600016161A1A1217000000000E111111111151
:10537000110E000000000F12120E020202070000C0
:1053800000000E1111111117190E180000000F1254
:10539000120E0A121237000000001E11010608103A
:1053A000110F000000001F1504040404040E000087
:1053B0000000331212121212120C000000003312FD
:1053C000120A0A0C040400000000151515150E0A37
:1053D0000A0A000000001B0A0A04040A0A1B000053
:1053E00000001B0A0A0A0404040E000000001F0942
:1053F00008040402121F00001C0404040404040432
:1054000004041C0000020204040408080810100030
:105410000E0808080808080808080E00040A00001A
:10542000000000000000000000000000000000007C
:105430000000003F02040000000000000000000027
:1054400000000000000C121C123C000000030202CD
:10545000020E1212120E000000000000001C1202C8
:10546000120C000000181010101C1212123C000048
:1054700000000000000C121E021C00000018240492
:10548000041E0404041E000000000000003C120C76
:10549000021C221C00030202020E1212123700002C
:1054A0000004040000060404040E000000080800C4
:1054B000000C08080808080700030202021A0A067E
:1054C0000A1300000007040404040404041F00007D
:1054D00000000000000F1515151500000000000069
:1054E000000F12121237000000000000000C121210
:1054F000120C000000000000000F1212120E020732
:1055000000000000001C1212121C103800000000E5
:10551000001B06020207000000000000001E020C33
:10552000101E000000000004041E0404041C0000FF
:1055300000000000001B1212123C000000000000DE
:10554000001B0A0A04040000000000000015150EEC
:105550000A0A000000000000001B0A040A1B0000E9
:1055600000000000003312120C08040300000000C9
:10557000001E0804041E000018080808080C08088B
:105580000808180008080808080808080808080893
:1055900006040404040804040404060016090000B8
:1055A00000000000000000000000000000000000FB
:1055B00000000000000000000000000808080808C3
:1055C000080800001818000000486C2412000000B1
:1055D00000000000000000000000002424247F12CE
:1055E00012127F12121200000000081C2A2A0A0C54
:1055F0001828282A2A1C080800000022251515153D
:105600002A585454542200000000000C1212120AAE
:1056100076252911916E00000006060403000000A3
:1056200000000000000000000040201010080808E2
:10563000080808101020400000020408081010108C
:1056400010101008080402000000000008086B1C7D
:105650001C6B080800000000000000000808080893
:105660007F0808080800000000000000000000009B
:105670000000000006060403000000000000000017
:10568000FE0000000000000000000000000000001C
:1056900000000000060600000000804040202010AE
:1056A00010080804040202000000001824424242CC
:1056B0004242424224180000000000080E08080878
:1056C00008080808083E00000000003C4242422052
:1056D00020100804427E00000000003C42422018D6
:1056E00020404042221C00000000002030282424DA
:1056F00022227E20207800000000007E0202021A92
:1057000026404042221C0000000000382402021AF9
:1057100026424242241800000000007E222210107F
:1057200008080808080800000000003C4242422423
:1057300018244242423C0000000000182442424229
:1057400064584040241C00000000000000001818AD
:105750000000000018180000000000000000000811
:1057600000000000000808040000004020100804A9
:1057700002040810204000000000000000007F002C
:1057800000007F000000000000000002040810205C
:1057900040201008040200000000003C4242464045
:1057A00020101000181800000000001C225A555547
:1057B00055552D42221C0000000000080818141442
:1057C000243C224242E700000000001F2222221E49
:1057D00022424242221F00000000007C424201019E
:1057E00001010142221C00000000001F224242422F
:1057F00042424242221F00000000003F4212121E9D
:1058000012120242423F00000000003F4212121EEC
:1058100012120202020700000000003C22220101D5
:1058200001712122221C0000000000E74242424296
:105830007E42424242E700000000003E080808089D
:1058400008080808083E00000000007C1010101036
:10585000101010101010110F0000007722120A0E05
:105860000A12122222770000000000070202020240
:1058700002020202427F0000000000773636363610
:105880002A2A2A2A2A6B0000000000E346464A4AD8
:1058900052525262624700000000001C2241414106
:1058A00041414141221C00000000003F424242426F
:1058B0003E020202020700000000001C224141419A
:1058C00041414D53321C60000000003F4242423EC5
:1058D0001212222242C700000000007C4242020451
:1058E00018204042423E00000000007F490808089E
:1058F00008080808081C0000000000E74242424275
:1059000042424242423C0000000000E74242222460
:1059100024141418080800000000006B4949494984
:105920005555362222220000000000E742242418A8
:105930001818242442E700000000007722221414E3
:1059400008080808081C00000000007E2120101034
:1059500008040442423F00000078080808080808CC
:105960000808080808087800000002020404080873
:105970000810102020204040001E101010101010A1
:105980001010101010101E0000384400000000001D
:105990000000000000000000000000000000000007
:1059A00000000000000000FF0006080000000000EA
:1059B0000000000000000000000000000000003CAB
:1059C0004278444242FC0000000000030202021A36
:1059D00026424242261A0000000000000000003863
:1059E0004402020244380000000000604040407859
:1059F0004442424264D80000000000000000003C25
:105A0000427E0202423C0000000000F08808087E4E
:105A100008080808083E0000000000000000007CA4
:105A200022221C023C42423C000000030202023AD5
:105A30004642424242E700000000000C0C00000E0B
:105A400008080808083E0000000000303000003858
:105A5000202020202020221E0000000302020272CB
:105A6000120A1612227700000000000E080808082B
:105A700008080808083E0000000000000000007F41
:105A80009292929292B70000000000000000003B4A
:105A90004642424242E70000000000000000003C95
:105AA00042424242423C0000000000000000001B55
:105AB00026424242221E0207000000000000007839
:105AC00044424242447840E0000000000000007779
:105AD0004C040404041F0000000000000000007CCF
