:020000040800F2
:1000000098090020FD01000849240008551D00083A
:1000100045240008791200089D40000800000000F7
:100020000000000000000000000000000F020008B7
:100030007D120008000000001302000815020008ED
:10004000170200081702000817020008170200082C
:1000500017020008170200088112000817020008A2
:10006000170200081702000817020008170200080C
:1000700017020008170200081702000817020008FC
:1000800017020008170200081702000817020008EC
:10009000170200081702000817020008DD12000806
:1000A00017020008170200081702000817020008CC
:1000B000B129000895310008A9310008170200088D
:1000C00017020008170200081702000817020008AC
:1000D00017020008253A000817020008993E000898
:1000E000170200081702000817020008170200088C
:1000F000170200081702000817020008170200087C
:100100001702000817020008BD3100081702000896
:10011000170200081702000817020008170200085B
:10012000170200081702000817020008170200084B
:1001300000F002F800F053F80AA090E8000C8244A6
:100140008344AAF10107DA4501D100F048F8AFF283
:10015000090EBAE80F0013F0010F18BFFB1A43F0A5
:100160000103184730EF000050EF0000103A24BFA1
:1001700078C878C1FAD8520724BF30C830C144BF0C
:1001800004680C607047000000230024002500264E
:10019000103A28BF78C1FBD8520728BF30C148BFEA
:1001A0000B60704766290AF0AC85642900F0B480C2
:1001B000782900F0ED80002070471FB500F08EFD1B
:1001C00004000020002109F019FC401C60600020A0
:1001D000002109F0FDFBE0601FBD10B510BD00F06F
:1001E000CDFE1146FFF7E9FF06F024FC00F0F9FE12
:1001F00003B4FFF7F2FF03BC05F02CFC094880476D
:1002000009480047FEE7FEE7FEE7FEE7FEE7FEE7F8
:10021000FEE7FEE7FEE7FEE704480549054A064B10
:100220007047000059280008310100089803002099
:10023000980900209805002098050020704710B507
:100240004C1084EA530404D54042C1F1000138BF88
:10025000491E1B4204D55242C3F1000338BF5B1E46
:1002600000F0DEF914F0804F04D04042C1F10001EB
:1002700038BF491E14F0004F04D05242C3F10003AE
:1002800038BF5B1E10BD00000FB4044910B503AAAF
:10029000029800F0CDFC10BC5DF814FB3C0100207E
:1002A0000FB41CB5074B06AA7B446946009005981D
:1002B00000F0A5FC0020694600F0B4FC1CBC5DF811
:1002C00014FB00007909000070B5044685690068D8
:1002D000C10601D5302600E02026C00707D070BD3A
:1002E000D4E9012130469047206A401C20626D1EEF
:1002F000F6D570BD70B5044685690078C00707D192
:1003000070BDD4E9012120209047206A401C206262
:100310006D1EF6D570BD00002DE9F04106460024A3
:1003200010687529314616A510D0AFF3008000285B
:1003300002DA404213A507E031688A0701D512A509
:1003400002E0490704D511A5012401E0AFF30080C4
:1003500000210A2206F1240709E0B0FBF2FCB0FB01
:10036000F2F302FB1C00303078541846491C002878
:10037000F3D123462A463046BDE8F04100F0D2B919
:10038000000000002D0000002B00000020000000F5
:1003900070B504460D4621461068AFF300802188F1
:1003A000090502D50F4A7A4402E00E4A7A440E3219
:1003B000002104F1240305E000F00F060009965D1A
:1003C0005E54491C0028F7D120780023000704D58B
:1003D000702D02D009B1022311322046BDE87040D1
:1003E00000F0A0B94CAA00002DE9F05F8946044650
:1003F0004FF0000ADFF824B1FB44C0F820A02046EB
:10040000E168884700287DD0252806D0D4E901215D
:100410009047206A401C2062F1E700255F46204695
:10042000E16888472028064607DB312E05D2B81937
:1004300010F8200C08B10543F1E7A80701D525F015
:100440000405C4F81CA00027C4F818A02A2E09D05F
:10045000304608F079FF38B304EB8708303EC8F81F
:10046000186019E059F8041B204604EB87029161DB
:10047000E1688847012F064618D1E069002820DA94
:1004800025F020051DE0D8F8180000EB800006EBF1
:1004900040003038C8F818002046E1688847064612
:1004A00008F052FF0028EED1012F0AD02E2E08D1DD
:1004B0002046E16888477F1C0646022F45F020054C
:1004C000C4DBA069002803DA404245F00105A061C1
:1004D000E80701D025F01005A6B1A6F141001928C2
:1004E00002D8203645F400654A463146204625604C
:1004F0004D46FFF757FE60B1012807D0ED1D25F0EE
:10050000070000E007E000F1080978E705F10409B9
:1005100075E730467AE7206ABDE8F09F22AA00001E
:1005200070B5064600F078F80468054630460A22A1
:10053000002100F08FFB2C6070BD000010B5044658
:1005400003E005F06BFF401C09D014F8010B0549CE
:100550000028F6D1BDE810400A2005F05FBF4FF03B
:10056000FF3010BD3C01002040EA010310B59B079D
:100570000FD1042A0DD310C808C9121F9C42F8D00D
:1005800020BA19BA884201D9012010BD4FF0FF30BE
:1005900010BD1AB1D30703D0521C07E0002010BDD4
:1005A00010F8013B11F8014B1B1B07D110F8013B60
:1005B00011F8014B1B1B01D1921EF1D1184610BD41
:1005C0004FF0000200B5134694469646203922BFEC
:1005D000A0E80C50A0E80C50B1F12001BFF4F7AF37
:1005E000090728BFA0E80C5048BF0CC05DF804EB19
:1005F000890028BF40F8042B08BF704748BF20F887
:10060000022B11F0804F18BF00F8012B7047704784
:10061000704770477047000000487047380000205E
:1006200053EA020C00F069802DE9F04B4FF0000610
:10063000002B1FBFB3FA83F503FA05F424FA05F67D
:100640005E4012BF1643B2FA82F502FA05F4C5F114
:1006500020051EBF22FA05FC44EA0C04203556EAA8
:10066000044C4FEA144418BF641C4FF000084FF0CC
:100670000009904271EB030C39D3002919BFB1FA7C
:1006800081F701FA07F6B0FA80F700FA07F6C7F12A
:1006900020071EBF20FA07FC46EA0C062037B6FBEF
:1006A000F4FCA7EB0507103F07F01F0BCBF120066A
:1006B0002CFA06F60CFA0BFB44BFB3460026202F9B
:1006C000A4BF5E464FF0000B5BEA060C08BF4FF07C
:1006D000010B19EB0B0948EB0608ABFB027C06FB90
:1006E00002CC0BFB03CCC01B71EB0C01C1E70B462A
:1006F000024641464846BDE8F08B13B54FF0000076
:100700004FF00001AFF30080BDE81C40704710B50A
:10071000FFF782FF006810BD10B50446FFF77CFFAD
:10072000046010BD2DE9F0470D46994692460446F7
:1007300000F124080168880604D5E06921F0100161
:10074000216000E00120A84201DD471B00E00027F6
:10075000A1697A1902EB0900081AA0612078C00685
:1007600002D42046FFF7B0FD002608E0D4E90121BD
:100770001AF806009047206A401C761C20624E45FD
:10078000F4DB2078C0060AD52046FFF79DFD06E081
:10079000D4E9012130209047206A401C2062381E95
:1007A000A7F10107F4DC07E0D4E9012118F80500FE
:1007B0009047206A401C2062281EA5F10105F3DC49
:1007C0002046FFF797FD2078000602D50220BDE8FD
:1007D000F0870120FBE72DE9FF4F0C461E464FF046
:1007E000FF378BB0D2E90001DDF860800A908A46BD
:1007F000C1F30A5505B93D46002108464FF00000F7
:10080000BAF1000F00F4400005DA00EB80004FF46D
:10081000400101EA50004FEA9059B9F1010F00DDA3
:10082000B9460A9850EA4A000ED044F61050A5F294
:10083000FF3545432F14B8F1000F1ED07542291E15
:100840001EDDC9F100021CE0B8F1010F4FF00000FD
:1008500001D0302103E0F24305E02154401CB042B6
:10086000FBDB30460022002121540B99C1F808809F
:10087000C1E900200FB0BDE8F08FBD1B6D1CDEE7A5
:100880004A4600DA694206A800F002FB06AB93E88C
:10089000070003AB83E8070050460A9908F010F9F7
:1008A0008DE80700A0F500501F3800900398002D38
:1008B0000ADD42F21F014A460844002303A90390BF
:1008C000684608F079FB09E0A0F500504A461F3859
:1008D000002303A90390684608F083FB8DE8070016
:1008E0000004000C03D04FF0FF30410800E0104638
:1008F000B8F1000F03D00022009215461EE0751ECD
:1009000005D400F0EFF9303262556D1EF9D5B346CB
:100910000122084302D000227F1C04E02078302806
:1009200001D100227F1E002A099784D01DE0112DDD
:1009300007DA00F0D7F9303262556D1C50EA010237
:10094000F5D1084302D00098C8B10EE00021681E1E
:1009500005E0235C625C63542254401E491C8142C2
:10096000F7DBAB46A81B401E0990002004F80B00E3
:100970000B98099AC0F80880C0E9002B7AE7112685
:100980004FF0000857E72DE9F04F88460446D21D86
:1009900022F0070191B0D1E90001CDE90A0108F088
:1009A00057FC02460B98C00F01D02D2007E02068AD
:1009B000810701D52B2002E0202101EAC000032A93
:1009C000099001D0072A05DB03464146204600F086
:1009D000CFF90BE12078800601D5E06900E0062020
:1009E000B8F1650F814606D0B8F1660F18D0B8F19E
:1009F000670F70D131E00020B9F1110F009001DBD9
:100A0000112301E009F101030AAA01A90CA8FFF7CB
:100A1000E2FEDDE90C70002609F10105834647E09E
:100A200001204B4600904FF000470AAA01A90CA8EC
:100A3000FFF7D1FEDDE90DB00C995D46002610B937
:100A400009F101000D18B9EB050003D4C0F1FF3620
:100A500009F10105A5EB09002BE0B9F1010F01DA5D
:100A60004FF001090020B9F1110F0090484601DD57
:100A7000112300E003460AAA01A90CA8FFF7ABFE68
:100A8000DDE90C704D4600268346207800070AD425
:100A9000AB4500DA5D4601A8012D04DD411911F8CE
:100AA000011C302907D04F4502DA17F1040F04DA90
:100AB000012082460FE06D1EEEE7002F02DCED1BE9
:100AC0003E4403E0781CA84200DD7D1CB81B00F109
:100AD000010A4FF000472078000703D4AA4501DB44
:100AE0004FF0FF3A0021B7F1004F0DF143088DF8A8
:100AF000431024D002202B23002F01DA7F422D2324
:100B00000A21021EA0F1010000DC5FB197FBF1FC9D
:100B100097FBF1F201FB1C7C17460CF1300C08F836
:100B200001CDEEE7A8F1010003702188090501D588
:100B3000452100E06521A0F1010800F8011C099899
:100B40000FA9A1EB0807FF1D00B10120411901EB1E
:100B5000EA70A1693844081A401EA0612078C006D6
:100B600002D42046FFF7B0FB099828B1D4E901214F
:100B70009047206A401C20622078C00622D520467B
:100B8000FFF7A2FB1EE0002E04DBB34502DD01A847
:100B9000805D00E03020D4E901219047206A401CAC
:100BA0002062761CAAF101005FEA000A0AD100F077
:100BB00095F8C0680168405CD4E901219047206A3B
:100BC000401C2062281EA5F10105DCDC07E0D4E909
:100BD000012118F8010B9047206A401C2062381E42
:100BE000A7F10107F3DC2046FFF784FB032011B0D7
:100BF00041E6000001694A1C02610878704700B5AF
:100C00008FB0CDE901310021059105497944CDE945
:100C1000031011466846FFF7E7FB0FB000BD000068
:100C2000E5FFFFFF0A6802F8010B0A607047000049
:100C3000074B70B50D467B44FFF7E1FF044628469D
:100C400000F098F910B14FF0FF3070BD204670BD34
:100C5000E35700002DE9F04791460F4680460446D1
:100C6000002614F8015B2DB100F030F80068405DFB
:100C7000C007F6D12B2D02D02D2D18D0641E4A4668
:100C80003946204600F0B4F827B13968A14201D1B5
:100C9000C7F800804FF0020471050BD540420028D0
:100CA00003DDFFF7B9FC0460A007BDE8F08746F458
:100CB0008066E4E70028F8DAFFF7AEFC04606FF026
:100CC0000040F2E7004870473800002010B500F0FF
:100CD00005F8001D10BD00BF258D000000487047BD
:100CE0005800002030B5B0F10A0271F100034FEA5C
:100CF000900E4EEA817EB0EB0E0061EB91014FEA5F
:100D0000101E4EEA017E10EB0E0041EB11114FEA6E
:100D1000102E4EEA016E10EB0E0041EB11214FEA4E
:100D2000104E4EEA014E10EB0E0041EB11414018FF
:100D300041F100014FEAD00040EA41704FEAD10191
:100D40004FEA810444EA907410EB800544EB0104FF
:100D50006D1944EB0404521BA3414FF0000348BF3C
:100D60000A3200D530BD401C41F1000130BD000009
:100D70002DE9F0411F46044603260168072A01F4C5
:100D8000006004DB08B116A505E016A503E008B174
:100D900015A500E015A521F010002060A069C01E77
:100DA000A0610FB1401EA0612046FFF78DFA4FB140
:100DB000D4E9012138469047206A401C2062C01CBB
:100DC000206206E0206AFAE7D4E9012115F8010B58
:100DD0009047761EF8D22046FFF78CFABDE8F081E6
:100DE0004E414E006E616E00494E4600696E6600CF
:100DF0002DE9F05F824615468B4600270AF1010473
:100E0000B9460078302801D09DB113E014F8010BE9
:100E10000127782803D0582801D045B10AE00DB148
:100E2000102D07D1002714F8010B102502E008252A
:100E300000E00A250026B0460EE005FB080005FB91
:100E400006F101271FFA80F801EB1046B6F5803F46
:100E500000D3B94614F8010B294600F0B4F8002875
:100E6000EBDABBF1000F05D00FB1641E00E0544671
:100E7000CBF80040B9F1000F06D0FFF7CDFB0221FF
:100E80000160C81EBDE8F09F48EA0640FAE700008E
:100E90002DE9F047814616468AB0354878440DC89A
:100EA0008DE80D0032487844801C03AC0DC884E8FE
:100EB0000D0041F69B300844372190FBF1F290FB86
:100EC000F1F5A5F1800501FB12041B3C02D564423B
:100ED000012000E00020DFF898A080460027FA44B7
:100EE000AAF1BE0A0EE0E0070AD03246684607EBD8
:100EF000470101230AEB810108F073F88DE8070030
:100F000064107F1C002CEED1194F7F44AE3F19E0D6
:100F1000E80715D007EB04100DF1180A90E80E0051
:100F20008AE80E00C068F04201D198190890324654
:100F3000012306A903A808F054F803AB83E80700CF
:100F40006D10641C002DE3D14FF001033246694659
:100F5000B8F1000F03A802D008F02EF801E008F065
:100F600040F8C9E90001C9F808200AB0BDE8F087D7
:100F7000FCA00000007B00F0800070477546FFF782
:100F8000A1FEAE4605006946534620F0070085469F
:100F900018B020B5FFF740F9BDE820404FF000063B
:100FA0004FF000074FF000084FF0000BAC46ACE8E4
:100FB000C009ACE8C009ACE8C009ACE8C00921F040
:100FC00007018D4670473A2800D2303820F02002C1
:100FD000412A01D3A2F13700884201D34FF0FF30FC
:100FE000704710B50446AFF300802046BDE81040BE
:100FF000FFF7FEB84FF0013C50F8042B51F8043BCA
:101000009A4221D1A2EB0C03934313EACC1317D1DC
:1010100050F8042B51F8043B9A4215D1A2EB0C0373
:10102000934313EACC130BD150F8042B51F8043B33
:101030009A4209D1A2EB0C03934313EACC13DBD001
:101040004FF00000704700BFD01A01BAB1FA81F129
:1010500001F0180122FA01F0CB40DBB2C0B2C01A95
:10106000C1F120012CFA01F3D11A914311EAC31105
:10107000E6D170478268002942F0010308BF22F0E0
:10108000010383607047000080B543F60041C4F25D
:101090000101884214D042F60001C4F201018842E5
:1010A00016D042F20041C4F20101884218BF80BD4F
:1010B0004FF40070012101F031FA4FF400700EE09E
:1010C0004FF40040012101F029FA4FF4004006E0FE
:1010D0004FF48060012101F021FA4FF4806000217B
:1010E000BDE8804001F01ABA8068C0F38000704704
:1010F000C06C80B2704700000068084018BF012033
:10110000704700008068C0F3C000704780B54FF69C
:10111000FF634268CFF6F07302EA030CD1E90032B4
:1011200043EA0C0343EA02224FF2FD734260CFF61A
:10113000F173826802EA030ED1E902C30A6942EA46
:101140000E021A4342EA4C028260C26A097D0139EA
:1011500022F47002C9B242EA0151C16280BD0000AE
:1011600010B501EB410C092988BFACF11E0C09290F
:1011700003FA0CFE4FF0070303FA0CFC4FF01003C8
:1011800088BF0C23062AC45824EA0C0444EA0E043F
:10119000C45003D834306FF0040307E00C2A87BF33
:1011A0002C306FF0400330306FF0220302EB8202EC
:1011B0001A441F23914003FA02F2036823EA020251
:1011C0001143016010BD0000816841F00801816099
:1011D000704700008268002942F4A00308BF22F48F
:1011E000A003836070470000816841F004018160C2
:1011F0007047000070B58AB04FF4017001210125DD
:1012000001F080F94FF4004001F05AF942F2004435
:101210000026042001A9C4F201040396ADF80400DD
:10122000A4F5A05000F028F92046FFF72DFF4FF459
:101230006020CDE90466069604A9CDE9070620469C
:101240008DF82450FFF762FF20460121FFF712FFBF
:101250002046FFF7B9FF00BF2046FFF753FF0028E5
:10126000FAD12046FFF7C0FF2046FFF73DFF0028D8
:10127000FAD10AB070BD0000FEE700007047000020
:1012800080B5322004F00AFC41F200000121C4F2D2
:10129000010000F099FAC0B940F290300021C2F28A
:1012A0000000016040F2A010C2F20000016040F2B4
:1012B0002C30C2F20000016040F29020C2F2000027
:1012C0000268032AB8BF511C0160012000F076F8C3
:1012D0000120BDE8804004F00FBC0000F0B581B0F3
:1012E0004FF4807000F070F8002804BF01B0F0BD2A
:1012F00040F600444FF48071C4F2000404F58030DD
:1013000000F062FA01280BD12046012101F07AFF9A
:1013100040F2C410C2F2000001680131016045E0F2
:1013200020460021002601F06DFF204602F0B4F8AF
:1013300040F26831C2F20001086000EB001008F0D2
:1013400024FE44F200030022C4F28F0308F05AFC8A
:1013500008F06AFB0021054609F0B2F940F2C41119
:10136000002840F28C2040F26437C2F2000118BF1E
:101370000025C2F20000C2F200070A680560386862
:10138000052A0BD10E604FF07A513E6009F078FBD0
:1013900040F28821C2F20001086003E0294609F00A
:1013A00011F938602046002102F0DCFA4FF4807019
:1013B00001B0BDE8F04000F001B8000040F2144177
:1013C000C4F201010860704740F20041C4F201011B
:1013D0000A68024018BF01224969084018BF01206D
:1013E00010407047C26840F20041C4F20101F2B1FE
:1013F00002680B6893430B604B6893434B60D0F8D3
:1014000004C05CF801301A434CF8012002688B6874
:1014100093438B60CB689343CB60806810280DD1D9
:10142000886810438860C8681043C8607047D0E976
:101430000020435823EA02024250704743581A439F
:101440004250704780B50C2240F2080E0F2302EA8A
:10145000810201F0FC01C4F2010E03FA02FC51F812
:101460000E30904023EA0C0341F80E3051F80E2064
:10147000104341F80E0080BD80B5D1F808E00EF0B1
:101480000F0C1EF0100F1CBF4B684CEA030C0988B0
:1014900011F0FF0F00F0A4800368CA070BD023F0FF
:1014A0000F02BEF1480F42EA0C0315D0BEF1280F1F
:1014B00001D1012242618A0712D523F0F002BEF168
:1014C000280F42EA0C131CD0BEF1480F08D10222AB
:1014D00002614A0706D418E0012202618A07ECD4AF
:1014E0004A0712D523F47062BEF1280F42EA0C239A
:1014F0001CD0BEF1480F08D1042202610A0719D599
:1015000005E0022242614A07ECD40A0712D523F40F
:101510007042BEF1280F42EA0C331CD0BEF1480FD6
:1015200008D108220261CA0606D418E004224261EA
:101530000A07ECD4CA0612D523F47022BEF1280F94
:1015400042EA0C431CD0BEF1480F08D110220261C0
:101550008A0619D505E008224261CA06ECD48A063B
:1015600012D523F47002BEF1280F42EA0C531CD0AE
:10157000BEF1480F08D1202202614A0606D418E0C5
:10158000102242618A06ECD44A0612D523F070621A
:10159000BEF1280F42EA0C631AD0BEF1480F08D101
:1015A000402202610A061AD505E0202242614A065D
:1015B000ECD40A0613D523F07042BEF1280F42EA9C
:1015C0000C730AD0BEF1480F09D18022026106E0F7
:1015D000402242610A06EED401E0802242610360AB
:1015E000B1F5807F38BF80BD4368CA050CD523F0B4
:1015F0000F02BEF1480F42EA0C0317D0BEF1280FCC
:1016000002D14FF4807242618A0514D523F0F002B2
:10161000BEF1280F42EA0C131FD0BEF1480F0AD1C9
:101620004FF4007202614A0507D41BE04FF4807248
:1016300002618A05EAD44A0514D523F47062BEF12A
:10164000280F42EA0C231FD0BEF1480F0AD14FF4F5
:10165000806202610A051CD506E04FF40072426107
:101660004A05EAD40A0514D523F47042BEF1280FC6
:1016700042EA0C331FD0BEF1480F0AD14FF400628A
:101680000261CA0407D41BE04FF4806242610A057C
:10169000EAD4CA0414D523F47022BEF1280F42EA1A
:1016A0000C431FD0BEF1480F0AD14FF480520261A3
:1016B0008A041CD506E04FF400624261CA04EAD4F1
:1016C0008A0414D523F47002BEF1280F42EA0C53A9
:1016D0001FD0BEF1480F0AD14FF4005202614A04F4
:1016E00007D41BE04FF4805242618A04EAD44A04D2
:1016F00014D523F07062BEF1280F42EA0C631ED0AD
:10170000BEF1480F0AD14FF48042026109041BD593
:1017100006E04FF4005242614A04EAD4090413D5AA
:1017200023F07041BEF1280F41EA0C730ED0BEF1D8
:10173000480F09D14FF400410161436080BD4FF46F
:10174000804242610904EBD4436080BD4FF4004104
:101750004161436080BD000010B50422002800F400
:1017600040141FFA80FCC4F201021346B8BF43F0D4
:101770001803B4F5401F1B68C0F3034E07D114686B
:1017800023F0706324F07064146081B916E0C40221
:1017900006D447F6F07404EA50440CFA04F402E06C
:1017A000032404FA0EF4A34343F0706331B147F607
:1017B000F07101EA50410CFA01F10B430028B8BF67
:1017C0001832136010BD00008068084018BF012067
:1017D0007047000041617047016170472DE9F04397
:1017E00081B08946804671B342F20046002400274A
:1017F000C4F201063046414601220723FFF7B0FC40
:1018000030460121FFF7E6FC30460221FFF774FC69
:101810000028F9D03046FFF76BFC0546052004F0A0
:101820003DF9284609F0B0F80546384609F0ACF80D
:10183000294608F0C7FE09F06FF801340746E0B208
:101840004845D7D300E00027B7FBF9F009F09CF832
:1018500001B0BDE8F08300002DE9F04F85B00446EB
:1018600000F084FC40F21811012CC2F20001086063
:1018700040F0858040F2EC0440F2141040F2201257
:10188000C2F20004C2F20000C2F20002214605F0DA
:101890007DFC002840F05A820DF1060369203B21AF
:1018A000062200F09FFED0B9BDF8060040F290116C
:1018B000C2F2000100BA000C0880BDF8080040F236
:1018C0009211C2F2000100BA000C0880BDF80A00B3
:1018D00040F29411C2F2000100BA000C08800DF130
:1018E000060369204321062200F07CFED0B9BDF832
:1018F000060040F22A21C2F2000100BA000C088062
:10190000BDF8080040F22C21C2F2000100BA000C20
:101910000880BDF80A0040F22E21C2F2000100BA90
:10192000000C088040F2B4012068C2F20001086097
:1019300040F22421C2F20001B1F90000B1F90440E3
:1019400009F00AF840F2C801C2F20001086020461E
:1019500009F002F840F2CC01C2F20001086040F246
:101960009610C2F20000B0F9040008F0F5FF40F252
:10197000B001C2F20001086005B0BDE8F08F0DF1C2
:10198000060369203B210E22009400F02BFEE0B1FB
:1019900040F2D000C2F20000D0F8009040F2D40033
:1019A000C2F20000D0F800A040F2AC00C2F2000089
:1019B000D0F800B040F2A800C2F20000066840F281
:1019C000A400C2F20000046843E0BDF80600C0BAFB
:1019D00008F0C2FF044640F2A400C2F20000046016
:1019E000BDF80800C0BA08F0B7FF064640F2A800EC
:1019F000C2F200000660BDF80A00C0BA08F0ACFFF1
:101A0000834640F2AC00C2F20000C0F800B0BDF85E
:101A10000E00C0BA08F0A0FF814640F2D000C2F22A
:101A20000000C0F80090BDF81000C0BA08F094FFA4
:101A3000824640F2D400C2F20000C0F800A0BDF817
:101A40001200C0BA08F088FF40F2D801C2F20001CB
:101A5000086040F2A411C2F20001B1F90000B1F92E
:101A60000270B1F90480B1F9085008F075FF014621
:101A7000204609F0D1F8044640F2A400C2F200006A
:101A80000460384608F068FF0146304609F0C4F8A3
:101A9000064640F2A800C2F200000660404608F088
:101AA0005BFF0146584609F0B7F840F2AC0807461C
:101AB000C2F20008C8F80000284608F04DFF0146B1
:101AC000504609F0A9F840F2D40A05464FF08E417D
:101AD000C2F2000ACAF80000484608F0F1FD60B9F9
:101AE00000214846CCF2807108F06CFD814640F23E
:101AF000D000C2F20000C0F8009028464FF08E419E
:101B000008F0DEFD38B900212846CCF2807108F0DB
:101B100059FDCAF8000040F2D80B4FF08E41C2F2D6
:101B2000000BDBF80050284608F0CAFD38B9002148
:101B30002846CCF2807108F045FDCBF80000204625
:101B40004FF08E4108F0BCFD50B900212046CCF288
:101B5000807108F037FD40F2A401C2F20001086074
:101B600030464FF08E4108F0ABFD58B900213046A9
:101B7000CCF2807108F026FD064640F2A800C2F2C1
:101B80000000066038464FF08E414C4608F098FD44
:101B900040B900213846CCF2807108F013FD0746A9
:101BA000C8F8000040F2C800C146C2F2000004605C
:101BB000304608F0DBFC044638460D4608F0D6FCFB
:101BC00002460B462046294607F00EFE48F2000466
:101BD0000022C4F26604234608F0EEF942F2FB1537
:101BE0004FF0C042C4F209052B4608F00BF807F08D
:101BF0001BFF40F2980140F2A408C2F20001C2F2B9
:101C000000080860D8F8000008F0B0FC0646D9F8D3
:101C100000000F4608F0AAFC02460B463046394643
:101C200007F0E2FD0022234608F0C6F94FF0C0425B
:101C30002B4607F0E7FF07F0F7FE40F29C09C2F2DF
:101C40000009C9F8000040F2A800C2F200000068D4
:101C500008F08CFC0646D8F800000F4608F086FC19
:101C600002460B463046394607F0BEFD00222346A9
:101C700008F0A2F94FF0C0422B4607F0C3FF07F06F
:101C8000D3FE40F2A001C2F20001086040F2D00091
:101C9000C2F20000006808F069FC46F266654FF089
:101CA0006632C4F230052B4607F0ACFF07F0BCFEED
:101CB000044640F2BC00C2F200000460DAF8000002
:101CC00008F054FC4FF066322B4607F09BFF07F0FC
:101CD000ABFE40F2C006C2F200063060DBF8000046
:101CE00008F044FC4FF066322B4607F08BFF07F0FC
:101CF0009BFE40F2C401C2F2000108600098022875
:101D000024D140F298004DF20A752146C2F200003B
:101D1000C3F6A335026840F264202B46C2F20000ED
:101D200004F0F6FD40F2EC01D9F800202B46C2F297
:101D30000001086040F240203168C2F2000004F067
:101D4000E7FD40F21411C2F20001086005B0BDE8E1
:101D5000F08F0000FEE70000022003F0CDBE00007F
:101D600080B584B00820012100F0CCFB102001A92F
:101D700003904FF44060ADF804000320029040F659
:101D80000040C4F20100FFF777FB04B080BD000003
:101D90002DE9F04F83B040F60441029048F2A815B7
:101DA0004FF0000BC4F20101C4F22125086820F4B1
:101DB00070400860086840F4004008600020286017
:101DC000022003F099FE01262E6055F87C0C01904C
:101DD000012003F091FE0220C5F800B003F08CFE54
:101DE0002E60012055F87C7C03F086FE0220C5F8A9
:101DF00000B003F081FE2E60012055F87C4C03F00A
:101E00007BFE0220C5F800B003F076FE2E600120B4
:101E100055F87C8C03F070FE0220C5F800B003F08A
:101E20006BFE2E60012055F87C9C03F065FE0220BD
:101E3000C5F800B003F060FE2E60012055F87CACC0
:101E400003F05AFE0220C5F800B003F055FE2E60E4
:101E5000012055F87CBC03F04FFE002028600220D2
:101E600003F04AFE2E60012055F87C6C03F044FE1E
:101E700040F6044200212960C4F20102106820F4F7
:101E800070401060106840F44050106001980028C5
:101E900018BF0120002F18BF0127002C18BF0124F4
:101EA00047EA4000B8F1000F18BF4FF0010844EABC
:101EB0004000B9F1000F18BF4FF0010948EA400097
:101EC000BAF1000F18BF4FF0010A49EA4000BBF118
:101ED000000F18BF4FF0010B4AEA4000002E4BEAFA
:101EE000400018BF012646EA4004029848B102208B
:101EF000696003F001FE01202860022003F0FCFD70
:101F000008E0012602206E6003F0F6FD02202E603C
:101F100003F0F2FD00202860E0B203B0BDE8F08FCE
:101F2000F0B581B0044640F6044048F2A8150026FA
:101F3000C4F20100C4F22125016821F4704101605E
:101F4000016841F440510160E0092E6068600220A0
:101F500003F0D2FD012702202F6003F0CDFD022007
:101F60002E6003F0C9FDC4F380106860022003F006
:101F7000C3FD02202F6003F0BFFD02202E6003F09E
:101F8000BBFDC4F340106860022003F0B5FD0220E1
:101F90002F6003F0B1FD02202E6003F0ADFDC4F30D
:101FA00000106860022003F0A7FD02202F6003F0FC
:101FB000A3FD02202E6003F09FFDC4F3C000686003
:101FC000022003F099FD02202F6003F095FD02200E
:101FD0002E6003F091FDC4F380006860022003F0DE
:101FE0008BFD02202F6003F087FD02202E6003F09E
:101FF00083FDC4F340006860022003F07DFD0220F1
:102000002F6003F079FD02202E6003F075FD04F0CF
:1020100001006860022003F06FFD02202F6003F0D2
:102020006BFD2E60022001B0BDE8F04003F064BDFE
:10203000B0B540F6044048F2A814C4F20100C4F25E
:102040002124016821F470410160016841F440518C
:102050000160012060602060042003F04DFD002538
:102060000420656003F048FD2560B0BD10B540F662
:10207000044048F2A814C4F20100C4F2212401680B
:1020800021F470410160016841F440510160002079
:1020900020606060042003F02FFD0120206060605C
:1020A0000420BDE8104003F027BD000070B540F6E5
:1020B000044448F22C150126C4F20104C4F221257F
:1020C000206820F470402060206840F400402060C8
:1020D0000120C5F8806003F00FFD0120EE6703F0DA
:1020E0000BFD286888B10020296871B1296861B1A9
:1020F00040F00201C9B2F9290BD82A682AB1F9299E
:1021000007D8296804300029EED100242046EC6766
:1021100070BD206820F470402060206840F440507A
:1021200020600020E867C5F88000042003F0E4FC8C
:1021300001240420EC67C5F8804003F0DDFC204654
:1021400070BD000041F21801C4F202010A6842F0B9
:1021500001020A600421C4F201010A6822F0E0626F
:102160000A600A6842EA406008607047B0B5FFF74D
:102170005FFFD220FFF7D4FEFFF798FF4120FFF763
:10218000CFFEFFF793FFFFF753FFD320FFF7C8FE03
:10219000FFF78CFF0020FFF7FBFD40F21534C2F281
:1021A00000042070FFF762FF2578FFF741FFD2207F
:1021B000FFF7B6FEFFF77AFF4220FFF7B1FEFFF709
:1021C00075FFFFF735FFD320FFF7AAFEFFF76EFF7D
:1021D0000020FFF7DDFD2070FFF748FF207840EA80
:1021E0000524204608F0B8FB00210546CCF280719A
:1021F00008F0E8F90021B4F5004F98BF2846C4F272
:10220000AA3108F077FA08F0B1F947F2A40244F2D3
:10221000D733C0F63D22C4F2420307F037FC002357
:102220000022C4F2240307F0C7FE07F0FDFB08F00C
:1022300057FBB0BD2DE9F04F83B0FFF791FD6B2048
:10224000802101F02DFF64204FF0640A03F026FC8A
:102250006B20002101F024FF1B20182101F020FF3A
:102260001C20102101F01CFF1920012101F018FF92
:102270001A20012101F014FF3820002101F010FF85
:102280006A20002101F00CFF2320002101F008FF4B
:102290003720802101F004FFFFF7CAFED220FFF7AC
:1022A0003FFEFFF703FF7520FFF73AFEFFF7FEFE44
:1022B000FFF7BEFED320FFF733FEFFF7F7FE002047
:1022C000FFF766FD40F21531C2F200010870FFF71A
:1022D000CDFE6B20032101F0E3FE6C20002101F014
:1022E000DFFE40F2B82B48F21F5940F2A4140DF162
:1022F0000608C2F2000BC5F2EB19C2F2000400BFDF
:10230000692043210622434600F06CF988B9BDF8E4
:10231000060000BA000CABF80000BDF8080000BAD7
:10232000000CABF80200BDF80A0000BA000CABF8D4
:10233000040069203B210622434600F053F938B1DE
:10234000BBF80A00BBF80810BBF8062012E000BF7B
:10235000BDF8060000BA020CBDF80800ABF8062074
:1023600000BA010CBDF80A00ABF8081000BA000C66
:10237000ABF80A00BBF90030BBF90270BBF904509E
:1023800012B209B200B2BAF1010A83FB09364FEA70
:10239000561303EBD67326883344238087FB093713
:1023A0004FEA571303EBD77367883B44638085FB81
:1023B00009374FEA571303EBD773A7883B44A38031
:1023C00082FB09234FEA531202EBD372E3881A44CB
:1023D000E28081FB09124FEA521101EBD27122898E
:1023E0001144218180FB09014FEA511000EBD170AB
:1023F0006189084460817FF483AF4DF20A7449F625
:10240000A63541F26F2640F264200021C3F6A334C2
:10241000C3F64435C3F68326C2F2000022462B469B
:10242000009604F065FA40F24020002122462B4637
:102430000096C2F2000004F05BFA002003B0BDE891
:10244000F08F0000FEE700007047000042684EF287
:102450000011CEF20001EAB110B54EF60C5207237E
:10246000CEF20002126890F801E0847890F800C083
:1024700023EA12220F23D340C2F1040223400EFAB2
:1024800002F21A4301EB0C03120183F80023BDE8AA
:10249000104000E080310078012300F01F02C0F3FB
:1024A000421003FA02F241F82020704740F08060A9
:1024B0004EF60C5140F0FD70CEF2000108607047FE
:1024C00041F20401C4F202010A6822F440421043BE
:1024D0000860704741F21C020029C4F20202116830
:1024E0000CBF21EA000008431060704741F210025F
:1024F0000029C4F2020211680CBF21EA000008435F
:102500001060704741F218020029C4F202021168FB
:102510000CBF21EA000008431060704741F20C0232
:102520000029C4F2020211680CBF21EA000008432E
:102530001060704780B541F2040EC4F2020EDEF85E
:10254000002002F00C0341F20022C0F27A02082BB4
:102550001FD1DEF80030C3F3834303F1020CDEF831
:10256000003013F4803F06D140F60012C0F23D0265
:102570000CFB02F20DE0DEF8003013F4003F02D154
:102580000CFB02F205E040F60012C0F23D020CFB2B
:1025900002F202604AF6B871DEF80030C0F60001BF
:1025A000C3F30313CB5CDA404260DEF80030C3F3C0
:1025B0000223CB5C22FA03F38360DEF80030C3F31E
:1025C000C223C95C4AF6B473C0F6000322FA01F1D3
:1025D000C160DEF80020C2F381329A5CB1FBF2F1F7
:1025E000016180BD2DE9F04F81B040F6044A0746F5
:1025F00048F2A81901261C4615468846C4F2010A6D
:10260000C4F22129DAF8000020F47040CAF8000072
:10261000DAF8000040F44050CAF800000420C9F87D
:102620000460C9F8006003F067FA4FF0000B042063
:10263000C9F804B003F060FA7F00C9F800B0F8B23E
:10264000FFF76EFCFFF732FDD0B1DAF8000020F49E
:102650007040CAF80000DAF8000040F44050CAF8B0
:1026600000000420C9F800B0C9F804B003F044FA2F
:102670000420C9F80060C9F8046003F03DFA51E095
:102680004046FFF74DFCFFF711FDDAF8000020F49B
:102690007040CAF80000DAF8000040F44050CAF870
:1026A00000000420C9F80460C9F8006003F024FAAF
:1026B0000420C9F804B003F01FFA47F00100C9F87C
:1026C00000B0C0B2FFF72CFCFFF7F0FC05E000BF44
:1026D000FFF75EFB04F8010B013DE8B2012803D0CF
:1026E00020B10120F4E700BF0020F1E7DAF8000094
:1026F000002620F47040CAF80000DAF8000040F428
:102700004050CAF800000420C9F80060C9F804600D
:1027100003F0F2F90120C9F80000C9F80400042010
:1027200003F0EAF9304601B0BDE8F08F41F2000154
:1027300000221423C4F202010A61CA604B618A615B
:10274000CA610B6843F001030B600023D1F804C099
:10275000CFF6FF0303EA0C034B604FF6FF73D1F88B
:1027600000C0CFF6F66303EA0C034EF6085C0B607C
:10277000CEF2000C0B6823F480230B604B6823F42B
:10278000FE034B604FF000638A60CCF800300B68AA
:1027900043F480330B6000BF0B68B3F5003F0BD2EE
:1027A0000B68B2EB534F07D10B68B2EB534F03D119
:1027B0000B68B3F5003FEFD34FF4806202384A60F4
:1027C000C0B24A6842EA80404860486840F48030BD
:1027D00048604FF480500A5842F032020A500868AC
:1027E00040F08070086000200A68B2F1007F0BD2D0
:1027F0000A68B0EB526F07D10A68B0EB526F03D191
:102800000A68B2F1007FEFD3486840F002004860E8
:10281000486800F00C0008280FD0486800F00C0051
:1028200008280AD0486800F00C00082808BF704744
:10283000486800F00C000828EAD170474EF21001F9
:102840000428CEF200010A6822F0040308BF42F017
:1028500004030B607047000082B041F204000022C4
:10286000C4F20200CFF6FF0250F8041C41F001014F
:1028700040F8041C016811404FF6FF720160CFF66A
:10288000F66250F8041C114040F8041C50F8041C77
:1028900021F4802140F8041C016821F4FE0101604C
:1028A0004FF41F01416000210191009150F8041C78
:1028B00041F4803140F8041C50F8041C01F400314C
:1028C0000091019901310191009919B90199B1F56E
:1028D000A06FF1D150F8041C11F4003F0CBF00218F
:1028E000012100910099012958D1D0F8FC1F41F035
:1028F0001001C0F8FC1FD0F8FC1F21F00301C0F844
:10290000FC1FD0F8FC1F41F00201C0F8FC1F016859
:10291000016001680160016841F480610160016843
:1029200021F47C110160016841F4E811016050F864
:10293000041C41F0807140F8041C00BF50F8041CD6
:1029400011F0007F0ED150F8041C11F0007F09D166
:1029500050F8041C11F0007F04D150F8041C11F051
:10296000007FEBD0016821F003010160016841F0B4
:1029700002010160016801F00C0108290ED0016814
:1029800001F00C01082909D0016801F00C010829A7
:1029900004D0016801F00C010829EBD14EF6085073
:1029A0004FF00061CEF20000016002B070470000FD
:1029B0002DE9F04F81B04FF08040012100F06EFD15
:1029C000002800F0CA834FF08040012100F016FC7F
:1029D0000220FEF741FF02F005FA40F2942740F290
:1029E000E000C2F20007C2F20000D7E90089D7F880
:1029F0000CB0C0F8008040F20810C2F20000C0F82D
:102A0000009040F23020C2F2000001680131016004
:102A100040F2C400C2F20000006807F0A7FD4DF2CA
:102A20000A7240F63D23C7F2A302C3F6EF7307F024
:102A30002DF841F27B4247F6E123C4F2AE72C3F6B1
:102A4000747307F0B9FA40F2A01A04460D46C2F2B8
:102A5000000ADAF8000007F089FD02460B4620461E
:102A6000294607F013F806F0DFFF40F23C25064642
:102A7000CAF80000C2F20005286801284ED140F2D1
:102A80001C2040F22021A9F15A09A8F15A08C2F2EB
:102A90000000C2F20001C0F800B03869086040F2DE
:102AA0009020C2F200000068002860D1002130466A
:102AB000C4F27A4107F0FDFDABF10101002840F2BC
:102AC0002C34B1FA81F118BF0120C2F20004490987
:102AD000084240F099802068B0F1FF3F40F39480B5
:102AE00000213046C4F27A4107F0F1FD002808BF0A
:102AF000BBF1030F00F0088100213046C4F27A4197
:102B000007F0E5FD002808BFBBF1020F00F01081BF
:102B100040F23400C2F2000001680DE140F2B4114D
:102B20003869A9F15A09A8F15A08C2F200010968E6
:102B3000084340F2202118BF0120C2F200010860C2
:102B400040F2B010C2F2000000688345014600EB7D
:102B50000B02B8BF5946002840F21C20D8BF1146CE
:102B6000BBF1000FC2F20000D8BF11460160286817
:102B700040F2902BC2F2000B012855D1DBF8000087
:102B8000012851D1DAF800600021C4F27A413046C0
:102B900007F08FFD40F21C21002840F22C34C2F2D5
:102BA000000118BF0120C2F200040F68791EB1FABB
:102BB00081F14909014211D12068B0F1FF3F0DDDDB
:102BC000032F13D100213046C4F22F4107F07FFDBF
:102BD00060B94CF6CD41C3F64C6122E000200021E3
:102BE00002F05AFE2068013820601DE0022F13D148
:102BF00000213046C4F22F4107F069FD60B94CF660
:102C0000CD41C3F6CC510CE00020002102F044FE7F
:102C1000206801382060AAE740F23400C2F20000C8
:102C20000168484602F038FE2868012840F08B8091
:102C3000DBF80000022840F08680DAF8006000210E
:102C4000C4F27A41304607F034FD40F21C210028DE
:102C500040F22C34C2F2000118BF0120C2F200047D
:102C60000F68791EB1FA81F14909014212D1206839
:102C7000B0F1FF3F0EDD032F14D100213046C4F226
:102C80007A4107F024FD68B94CF6CD414846C3F6B9
:102C90004C6156E00020002102F0FEFD2068013862
:102CA000206050E0022F0CD100213046C4F27A415E
:102CB00007F00DFD28B94CF6CD414846C3F6CC517E
:102CC0003FE000213046C4F2024107F000FD00BBA6
:102CD00000213046C4F22F4107F0E4FCC8B940F2AD
:102CE0008820C2F20000006801F0A0FB40F2FC1155
:102CF000C2F20001086040F23401C2F2000109682A
:102D000007F060FC014611E04CF6CD41C3F64C6182
:102D100012E000213046C4F22F4107F0D8FC40F207
:102D200034010028C2F20001096809D0484608E0D1
:102D30004CF6CD41C3F6CC51484602F0ADFD16E746
:102D4000404602F0A9FD2868012864D1DBF80000A4
:102D5000032860D1DAF800600021C4F27A413046DD
:102D600007F0A7FC40F21C21002840F22C34C2F2EC
:102D7000000118BF0120C2F200040F68791EB1FAE9
:102D800081F14909014211D12068B0F1FF3F0DDD09
:102D9000032F13D100213046C4F27A4107F097FC8B
:102DA00060B94CF6CD41C3F64C6131E00020002102
:102DB00002F072FD2068013820602CE0022F0BD158
:102DC00000213046C4F27A4107F081FC20B94CF66C
:102DD000CD41C3F6CC511BE040F22020C2F20000EE
:102DE000006801280FD140F29034C2F2000420683C
:102DF000B0F57A7F07DC0020002102F04DFD20684D
:102E00000130206007E040F23400C2F200000168A7
:102E1000484602F041FD2868DBF80010084366D1FF
:102E2000514640F2340749F69A10C2460E68002116
:102E3000C2F20007C3F699603860C4F2AA31304686
:102E400007F037FC40F21C21002840F22C38C2F277
:102E5000000118BF0120C2F200080C68611EB1FA1F
:102E600081F14909014212D1D8F80000B0F1FF3FC9
:102E70000DDD032C15D100213046C4F2AA3107F034
:102E800026FC70B94CF6CD41C3F64C6127E000201A
:102E9000002102F001FDD8F800000138C8F8000058
:102EA00020E0022C0BD100213046C4F2AA3107F0F9
:102EB0000EFC20B94CF6CD41C3F6CC510FE040F2E8
:102EC0008820C2F20000006801F0B0FA40F2FC1164
:102ED000C2F200010860396807F074FB01464846F9
:102EE00002F0DAFCD04640F2A01AC2F2000A2868CA
:102EF00000285CD1DBF80000012858D1DAF8006026
:102F00000021C4F22F41304607F0D3FB40F21C21D0
:102F1000002840F22C37C2F2000118BF0120C2F293
:102F200000070C68611EB1FA81F14909014211D113
:102F30003868B0F1FF3F0DDD032C13D1002130467E
:102F4000C4F22F4107F0C3FB60B94CF6CD41C3F684
:102F50004C6129E00020002102F09EFC3868013815
:102F6000386024E0022C0BD100213046C4F22F41FE
:102F700007F0ADFB20B94CF6CD41C3F6CC5113E0C0
:102F800040F28820C2F20000006801F04FFA40F2DF
:102F9000FC11C2F20001086040F23401C2F20001EB
:102FA000096807F00FFB0146484602F075FC2868E7
:102FB000002871D1DBF8000002286DD1DAF800603A
:102FC0000021C4F27A41304607F073FB40F21C2125
:102FD000002840F22C37C2F2000118BF0120C2F2D3
:102FE00000070C68611EB1FA81F14909014211D153
:102FF0003868B0F1FF3F0DDD032C13D100213046BE
:10300000C4F27A4107F063FB60B94CF6CD41C3F6D8
:103010004C613EE00020002102F03EFC386801389F
:10302000386039E0022C0BD100213046C4F27A41DD
:1030300007F04DFB20B94CF6CD41C3F6CC5128E04A
:1030400000213046C4F2AA3107F041FB68B90021E3
:103050003046C4F22F4107F025FB30B940F234006E
:10306000C2F200000168404614E040F28820C2F23B
:103070000000006801F0DAF940F2FC11C2F2000130
:10308000086040F23401C2F20001096807F09AFAC0
:103090000146484602F000FC286800285DD1DBF8B4
:1030A0000000032859D1DAF800500021C4F27A4117
:1030B000284607F0FEFA40F21C21002840F22C3688
:1030C000C2F2000118BF0120C2F200060C68611EA6
:1030D000B1FA81F14909014211D13068B0F1FF3FE5
:1030E0000DDD032C15D100212846C4F27A4107F0EA
:1030F000EEFA70B94CF6CD41C3F64C6144E00020C5
:10310000002102F0C9FB30680138306001B0BDE831
:10311000F08F022C0BD100212846C4F27A4107F02F
:10312000D6FA20B94CF6CD41C3F6CC512CE040F292
:103130002020C2F200000068012811D140F2903432
:10314000C2F200042068B0F57A7F09DC002000217B
:1031500002F0A2FB20680130206001B0BDE8F08FD2
:1031600040F28820C2F20000006801F05FF940F2EE
:10317000FC11C2F20001086040F23401C2F2000109
:10318000096807F01FFA0146484601B0BDE8F04F54
:1031900002F082BB40F21040C4F2000001880188B6
:1031A00021F001010180704740F61000C4F20000D8
:1031B0000188018821F001010180704710B540F6B7
:1031C00000440121C4F20004204600F067F9002801
:1031D00008BF10BD20460121BDE8104000F00EB828
:1031E0000288002942F0800308BF22F08003038098
:1031F00070470000C943018270470000C943018243
:10320000704700000288002942F0010308BF22F045
:103210000103038070470000B0F8442000291346E2
:103220006FF3DF3318BF42F40043A0F84430704717
:1032300080B541F6FF71C4F20001884228DD44F2F6
:10324000FF31C4F2010188423FDD44F6FF31C4F290
:10325000010188426EDD44F60041C4F2010188425A
:1032600000F0B58045F20001C4F20101884200F08F
:10327000B68045F20041C4F20101884218BF80BD0A
:103280004FF400100121FFF749F94FF40010D7E087
:1032900040F6FF71C4F20001884232DC40F2FF7157
:1032A000C4F2000188425ADCB0F1804F00F09F80E8
:1032B00040F20041C4F20001884240F0D080022078
:1032C0000121FFF713F90220C4E043F2FF31C4F2F9
:1032D0000101884255DC42F20001C4F2000188423B
:1032E00000F08B8042F60041C4F20101884240F0B8
:1032F000B6804FF400600121FFF710F94FF4006031
:103300009EE041F2FF71C4F2000188424DDC41F2BF
:103310000001C4F20001884277D041F20041C4F2BA
:103320000001884240F09B8020200121FFF7DEF859
:1033300020208FE044F20041C4F2010188426AD0AB
:1033400044F60001C4F20101884240F088804FF445
:1033500080200121FFF7E2F84FF4802070E040F672
:103360000001C4F2000188425DD040F60041C4F281
:103370000001884273D108200121FFF7B7F8082027
:1033800068E043F20041C4F20101884251D044F2A6
:103390000001C4F20101884261D14FF48030012163
:1033A000FFF7BCF84FF480304AE041F60001C4F268
:1033B0000001884249D041F60041C4F20001884230
:1033C0004DD180200121FFF791F8802042E04FF499
:1033D00000200121FFF7A2F84FF4002030E04FF465
:1033E00080100121FFF79AF84FF4801028E00120A7
:1033F0000121FFF77BF801202CE04FF480700121C0
:10340000FFF774F84FF4807024E010200121FFF7DB
:103410006DF810201EE04FF400300121FFF77EF818
:103420004FF400300CE004200121FFF75FF8042086
:1034300010E04FF400500121FFF770F84FF40050F6
:103440000021BDE88040FFF769B840200121FFF767
:103450004DF840200021BDE88040FFF747B880BD0F
:1034600080B5B0F808C02CF0070C41EA0C01B0F8A8
:1034700018C0B0F820E001814FF6FC410CEA010CC5
:1034800040F2011141EA0C01018342EA03112EF0DE
:1034900022021143018480BD808C7047028A0A4059
:1034A00018BF01228089084018BF012010407047D2
:1034B00070B50B88042B2AD0002B56D1B1F802C06E
:1034C0000A898B88068C40F6FF354FF6FC74C4F2EF
:1034D000000526F0010643EA02130246A8420684CC
:1034E00032F8186FB0F820E026F0F30643EA06033E
:1034F0006DDCB0F1804F7DD040F20045C4F2000594
:10350000A84277D040F60005C4F200056FE00E89AE
:103510004B888A88058C40F6FF44360325F0100559
:1035200046EA02260584024632F8185FB0F820E029
:10353000254046EA050C40F6FF356FF00306C4F25D
:103540000005A6F1AD04A84262DCB0F1804F71D055
:1035500040F20045C4F20005A8426BD040F60005D9
:10356000C4F20005A84265D068E00A898C884E88BC
:10357000058C082B71D125F48073038444EA02136F
:10358000024632F81C5FB0F820E025F0F30543EA6C
:10359000050C6FF4405303F5145440F6FF33C4F2A6
:1035A0000003984200F38180B0F1804F00F08F80DB
:1035B00040F20043C4F20003984200F0888040F6D5
:1035C0000003C4F20003984200F0818084E040F6DA
:1035D0000045C4F20005A8420CD042F60045C4F2F2
:1035E0000105A84206D043F20045C4F20105A842F5
:1035F00018BF083C03830EEA040343EA0C0343F0BC
:1036000001030384C988038B23F00C03038394E034
:1036100040F60045C4F20005A8420BD043F2004535
:10362000C4F20105A84205D042F60045C4F20105E6
:10363000A84203D14FF6FC741B012D3C0EEA040690
:10364000A0F818C0334343F010030384C988038BE8
:1036500023F44063090203836FE025F480531203CF
:10366000038442EA0423024640F6FF4432F81C5F1A
:10367000B0F820C0254046F6FF5443EA050E40F658
:10368000FF33C4F20003984234DCB0F1804F43D0E2
:1036900040F20043C4F2000398423DD040F60003DC
:1036A000C4F20003984237D039E040F60043C4F238
:1036B000000398420BD043F20043C4F20103984246
:1036C00005D042F60043C4F20103984204D14CF6FF
:1036D000FF73360203F534540EEA0403A0F81CC04D
:1036E000334343F480730384C988838B23F00C0332
:1036F000838322E040F60043C4F2000398420BD0DB
:1037000043F20043C4F20103984205D042F600435D
:10371000C4F20103984202D136034CF6FF740CEA5E
:103720000403A0F81CE0334343F480530384C988A6
:10373000838B23F44063090283831088084310803D
:1037400070BD0000002101220160426001817047CC
:10375000002A82890CBF22EA01011143818170474E
:1037600010B5028C22F001020284048CB0F804E04F
:10377000038B0A8823F0730343EA020C0B8924F0BD
:1037800002021A434B881A43A0F18043A3F59633F3
:103790004FEAB323072B14D8012404FA03F313F0E0
:1037A000E50F0ED08C892EF4407322F00C022343D7
:1037B000CC8943EA040E4B8923F004031A438B8817
:1037C0001A43A0F804E0A0F818C0C98881860284D2
:1037D00010BD0000028B22F00802114301837047E4
:1037E00010B5028C22F010020284048CB0F804E0C0
:1037F000038B0A8823F4E64343EA022C0B8924F066
:10380000200242EA03124B8842EA031243F20043C9
:10381000C4F20103984205D042F60043C4F201030A
:10382000984212D18B892EF4406422F0C00244EAFF
:103830008303CC8943EA840E4B896FF04F0404EA7A
:1038400003131A438B8842EA0312A0F804E0A0F89D
:1038500018C0C9880187028410BD0000028B22F4C1
:10386000006242EA012101837047000010B5028C1A
:1038700022F480720284048CB0F804E0838B0A88FE
:1038800023F0730343EA020C0B8924F4007242EA2A
:1038900003224B8842EA032243F20043C4F20103AD
:1038A000984205D042F60043C4F20103984212D177
:1038B0008B892EF4405422F4406244EA0313CC89ED
:1038C00043EA041E4B8940F2FF441B02A3431A4300
:1038D0008B8842EA0322A0F804E0A0F81CC0C98843
:1038E0008187028410BD0000828B22F00802114300
:1038F0008183704710B5028C22F480520284048CBC
:10390000B0F804E0828B0B8822F4E64242EA032CF2
:103910000B8924F4005242EA03324B8842EA033313
:1039200043F20042C4F20102904205D042F6004246
:10393000C4F20102904204D18A892EF4804444EA00
:10394000821EA0F804E0A0F81CC0C988A0F84010AE
:10395000038410BD828B22F4006242EA012181833C
:10396000704700008184704740F6FF33B0F800C014
:10397000C4F2000398420FDCB0F1804F1ED040F239
:103980000043C4F20003984218D040F60003C4F28A
:103990000003984212D016E040F60043C4F2000340
:1039A00098420BD043F20043C4F20103984205D081
:1039B00042F60043C4F20103984204D14B882CF034
:1039C000700243EA020C41F2004240F48063C4F208
:1039D0000002934204D0CB882CF4407243EA020CDC
:1039E000A0F800C08A8882850A880285A0F18042FA
:1039F000A2F596324FEAB222072A07D8012303FA2A
:103A000002F212F0E50F1CBF097A018601218182C2
:103A1000704700004FF6FF714160002101600172A4
:103A20007047000070B543F6000440F22551C4F21F
:103A30000104204600F09EFA002800F07F80204616
:103A400000F028FB044640F28830C2F20000A4F1E6
:103A5000580304602046252B1ED859210222DFE896
:103A600003F013151B1B1B1B1B1B1B1B1B1B1B1BF7
:103A70001B1B1B1B1B1B1B1B1B1B1B1B1B1B1B1B96
:103A80001B1B1B1B1B451B6E5821012240F2000013
:103A9000C2F200000270084640F23821C2F2000172
:103AA0000978B1B13A2870D0232840F0908040F2D4
:103AB0008C3100200122C2F20001087040F29C11FA
:103AC000C2F200010A7040F2C421C2F20001087083
:103AD000D3E040F23420C2F200000268511C0160C1
:103AE00040F2C520C2F200008454D5E040F2EC1050
:103AF00000210122C2F20000016040F23820C2F22F
:103B00000000027040F28C30C2F20000027040F2FD
:103B10009C10C2F20000017040F2C420C2F200000A
:103B2000027040F23420C2F2000001684A1C0260B8
:103B300040F2C520C2F200004454EAE070BD40F2F9
:103B4000382040F28C360025C2F20000C2F2000696
:103B50000570307800284ED040F2C010C2F200004C
:103B6000016840F2B810C2F200004554FCF7D8FCDE
:103B700040F2EC1140F2C8123570C2F20001C2F2FC
:103B80000002096842F8210042E040F2C01540F20C
:103B9000B8100022C2F20005C2F2000029684254A7
:103BA000FCF7BEFC40F2C42240F28C31C2F20002AB
:103BB000C2F2000116780B78A6B3002B41D0002189
:103BC000117040F2EC11C2F2000108604CE0A0F16B
:103BD0003001092924D840F2C012C2F20002116853
:103BE000052944DC4B1C136040F2B812C2F20002FB
:103BF0005054002041E040F29C10C2F200000078D6
:103C000030B140F2EC10C2F20000016801310160F5
:103C100040F2C0100021C2F20000016001202CE03F
:103C200000202AE06BB140F2EC1240F2C813C2F25D
:103C30000002C2F20003126843F82200002008705C
:103C400012E040F29C11C2F20001097861B140F229
:103C5000EC11C2F200010A68531C0B6040F2C8115B
:103C6000C2F2000141F822000020286005E040F285
:103C7000B8110020C2F20001887140F234220028FD
:103C8000C2F20002136803F10101116040F2C52283
:103C9000C2F20002D4540AD040F2C5200022C2F27F
:103CA0000000425440F23420C2F2000002600B2CAB
:103CB00038BF70BDA4F1410028282AD8DFE810F0F1
:103CC00086005D005D005D00930074007400740068
:103CD000290029002900290029002900290029009C
:103CE000290029002900290029002900290029008C
:103CF00029009D0029002900290029002900290008
:103D0000B300BB00C200C700CC00D100D800DF0068
:103D1000E40040F2B8000021C2F20000017040F25D
:103D2000BA00C2F20000017040F2B900C2F2000015
:103D3000017040F2BB00C2F20000017040F27C3022
:103D4000C2F20000016040F28030C2F20000016067
:103D500040F26C30C2F20000016040F27030C2F2FA
:103D60000000016040F27430C2F20000016040F2D5
:103D70007830C2F200000160E0E640F2B8000021B5
:103D8000C2F20000017040F2BA00C2F200000170FD
:103D900040F2B900C2F20000017040F2BB00012104
:103DA000C2F20000017070BD40F2B8000021012293
:103DB000C2F20000017040F2BA00C2F200000170CD
:103DC00040F2B900C2F20000027026E040F2B800F2
:103DD00000210122C2F20000017040F2BA00C2F2DA
:103DE0000000027014E040F2B8000121C2F20000AD
:103DF000017040F2BA00002107E040F2B800002153
:103E0000C2F20000017040F2BA00C2F2000001707C
:103E100040F2B900C2F20000017040F2BB00C2F2F1
:103E20000000017070BD40F2C8102821C2F20000ED
:103E3000FCF7C6FB70BD40F290200021C2F20000EA
:103E4000016070BD40F29020C2F2000020E040F21C
:103E50009020C2F200000FE040F29020C2F2000079
:103E600003E040F2B010C2F200000321016070BD17
:103E700040F2B010C2F200000221016070BD40F2B9
:103E8000B010C2F2000003E040F2B410C2F2000031
:103E90000121016070BD000010B544F6000440F23D
:103EA0002551C4F20004204600F064F8D8B320463F
:103EB00000F0F0F840F2843140F2243E5B28C2F278
:103EC0000001C2F2000E086040F22831DEF8003036
:103ED000C2F200010C6801BF53EA0402012008602D
:103EE00010BD5B2808BF012C1ED040F2142C012B02
:103EF000C2F2000CDCF8004008BF29281BD0012BBF
:103F000008BF29281ED0012B18BF10BD40F2A821E0
:103F100040F29423C2F20001C2F200030A6843F89F
:103F20002200501C086010BD002B02BF0120CEF8FB
:103F3000000010BDD9E7002C02BF0120CCF8000022
:103F400010BDDCE7012CDED10020086040F2A82182
:103F5000CCF80000CEF80000C2F20001086010BDED
:103F60008289002942F4005308BF22F40053838160
:103F70007047000001F01F02012303FA02F2C1F3AF
:103F80004213022B06D0012B14BF00F1140300F1E1
:103F90000C0301E000F110031B88090A1A404FF0DE
:103FA000010318BF0122008803FA01F1084018BF7D
:103FB000012010407047000001F01F0C012303FA9C
:103FC0000CFCC1F342131421022B08BF1021012B5A
:103FD00008BF0C21002A42580CBF22EA0C0242EA18
:103FE0000C0242507047000070B586B00446008A4B
:103FF0000D46C98801AE20F4405008434EF6F31137
:104000002082A0890840A988084329890843698932
:104010000843A081A08AA98920F440700843A082A7
:104020003046FEF787FA43F6000106F10800022247
:10403000C4F201018C424FF0190108BF06F10C00D7
:10404000042600684843A189A2EBD1312A6802FA0C
:1040500001F1B0FBF1F048F21F51C5F2EB11A0FBEA
:1040600001235A096FF0630302FB0300A389A6EB47
:10407000D336B0403230A0FB0101072040EA1330B4
:1040800080F0080000EA511040EA0210208106B0DA
:1040900070BD000080886FF35F207047FEE700006E
:1040A000B0B50C460546FDF7C3FFFDF755FED2201F
:1040B000FDF736FFFDF7FAFF18B1FDF7D7FF012036
:1040C000B0BD2846FDF72CFFFDF7F0FF2046FDF7B9
:1040D00027FFFDF7EBFF0446002818BF0124FDF77A
:1040E000C5FF2046B0BD00002DE9F04F81B040F67D
:1040F000044A074648F2A81901241D461646884678
:10410000C4F2010AC4F22129DAF8000020F4704058
:10411000CAF80000DAF8000040F44050CAF8000085
:104120000420C9F80440C9F8004001F0E5FC4FF054
:10413000000B0420C9F804B001F0DEFC7800C9F8D7
:1041400000B0C0B2FDF7ECFEFDF7B0FFD0B1DAF879
:10415000000020F47040CAF80000DAF8000040F4D3
:104160004050CAF800000420C9F800B0C9F804B0F3
:1041700001F0C2FC0420C9F80040C9F8044001F075
:10418000BBFC49E04046FDF7CBFEFDF78FFF56B183
:10419000002400BF285DFDF7C3FEFDF787FFF8B9D7
:1041A0000134B442F6D3DAF80000002420F4704061
:1041B000CAF80000DAF8000040F44050CAF80000E5
:1041C0000420C9F80040C9F8044001F095FC012022
:1041D000C9F80000C9F80400042001F08DFC1BE0C0
:1041E000DAF8000020F47040CAF80000DAF80000A5
:1041F00040F44050CAF800000020C9F80000C9F897
:104200000400042001F078FC01240420C9F80040D7
:10421000C9F8044001F070FC204601B0BDE8F08F01
:104220002DE9F04F81B0044640F22810C2F20000A0
:104230000168046040F22410C2F20000006800919E
:10424000214606F0BFF9074640F21830C2F20000DE
:104250003946D0E900A6D0F80890304606F010FCA8
:104260004CF2000B0546C4F2DA5B594606F01AFA26
:1042700080465846314606F03DFA40F22411B8F126
:10428000000F08BF3846C2F20001086050462146C0
:1042900006F0F6FB294606F095F9009905462046FA
:1042A00006F0BAFC0146484606F0EAFB01462846FD
:1042B00006F088F906F014FB01B0BDE8F08F0000AD
:1042C0002DE9F04F81B0044640F23010C2F20000F8
:1042D0000168046040F22C10C2F2000000680091F6
:1042E000214606F06FF9074640F21830C2F200008E
:1042F0003946D0E900A6D0F80890304606F0C0FB59
:104300004CF2000B0546C4F2DA5B594606F0CAF9D6
:1043100080465846314606F0EDF940F22C11B8F1CE
:10432000000F08BF3846C2F200010860504621461F
:1043300006F0A6FB294606F045F9009905462046F9
:1043400006F06AFC0146484606F09AFB01462846FC
:1043500006F038F906F0C4FA01B0BDE8F08F0000AD
:104360002DE9F0478CB0082001214FF00108FEF73D
:10437000C9F808200121FEF7ADF840F600444FF0DF
:10438000030909AE4FF400704FF0100AC4F20004A4
:10439000CDF82890ADF824003146CDF82CA004F5D6
:1043A00080352846FDF768F828464FF40071FDF780
:1043B00011FA4FF4807704203146ADF824700B9049
:1043C0002846FDF759F801200821FDF73BF80020A9
:1043D000CDE9027002A8CDE904A8FDF703F8172083
:1043E0008DF80290ADF800006846CDF80480FEF725
:1043F0002DF82046FEF71CFF4FF6FF7006A9079028
:10440000472006902046FFF7AFFA20460121FEF72D
:10441000F1FE204601210122FFF79AF920460021F2
:10442000FEF7F0FE0CB0BDE8F08700002DE9F0418A
:1044300000210446C4F2202106F049F90021054676
:104440002046CCF2A01106F0BDF80024002DC4F2E5
:10445000A01418BF0446204606F0B4F8054640F202
:10446000F010C2F2000090E84201204606F008FB7E
:1044700007462846314606F003FB0146384606F05B
:10448000A1F80546204606F0C7FB414606F0F8FABB
:104490000146284606F096F8BDE8F08110B50446BE
:1044A000000A00F0ADF8E0B2BDE8104000F0A8B896
:1044B0002DE9F04F87B0119E074690461C460D46E9
:1044C000069100EB5600013882B28819013883B298
:1044D000384600F0D9FB07210122300911EA560FB6
:1044E00018BF02EB161070430028049000F084807F
:1044F000A6F10C0075083E464FF0000BC0F3850195
:104500005FFA85F941EA8011A8F12000CBB24BF2A5
:104510003C41C2B20020C0F600010292039301EBBD
:10452000021101914CF60C41C0F6000101EB821121
:1045300000220091052B5FD80592DFE803F0030D00
:104540005D0F5D1902994AF6C872C0F6000201EBD0
:10455000410102EB81010CE001990AE002994BF65E
:104560003C22C0F6000201EB410102EB011100E028
:10457000009908444FF0000890F800A0012012991B
:1045800000FA08F000EA0A0081B148B10699B0B219
:10459000024689B20B4600F077FB2046FFF77EFF0C
:1045A0000136B0B2C01BA8420FD115E000280CBFE5
:1045B00010982046FFF772FF0BF1010B5FFA8BF0AA
:1045C000B0FBF9F101FB190058B108F10108B8F18D
:1045D000080FD3D308E000BF06983E46013006908E
:1045E00002E04FF0000B00BF059A0499039B0132D3
:1045F00090B281423FF69EAF07B0BDE8F08F000059
:10460000B0B541F6000405460221C4F2010420467B
:10461000FDF7E0F820460821FDF7DCF868B2B0F1BC
:10462000FF3F04DD20462021FDF7D4F803E02046BB
:104630002021FDF7D1F820460821FDF7CDF82046CE
:104640000821FDF7C7F8680604D420462021FDF7AD
:10465000C1F803E020462021FDF7BEF820460821DE
:10466000FDF7BAF820460821FDF7B4F8A80604D4EF
:1046700020462021FDF7AEF803E020462021FDF77B
:10468000ABF820460821FDF7A7F820460821FDF7E2
:10469000A1F8E80604D420462021FDF79BF803E0AA
:1046A00020462021FDF798F820460821FDF794F8D0
:1046B00020460821FDF78EF8280704D42046202143
:1046C000FDF788F803E020462021FDF785F8204615
:1046D0000821FDF781F820460821FDF77BF86807DF
:1046E00004D420462021FDF775F803E02046202160
:1046F000FDF772F820460821FDF76EF820460821E4
:10470000FDF768F8A80704D420462021FDF762F8D9
:1047100003E020462021FDF75FF820460821FDF741
:104720005BF820460821FDF755F8E80704D120463C
:104730002021FDF74FF803E020462021FDF74CF83B
:1047400020460821FDF748F820460221BDE8B04088
:10475000FDF742B8242200210228C4F200020AD048
:10476000042806D003284FF0000006D102F580622D
:1047700001E002F500621088118000B2704700006D
:10478000B0B58AB0112001210124FDF7BBFE012044
:1047900001F0B2F94820ADF81C4007A909900320A8
:1047A000089041F20000C4F20100FCF765FE02200F
:1047B00000210025FCF746FE0C20CDE90345CDE99C
:1047C000050403A8FCF70EFE04208DF8060040F255
:1047D0000620ADF8040001A80294FDF737FE0AB0E8
:1047E000B0BD000010B500F0BBF941F60004102187
:1047F000C4F201042046FCF7EDFF642001F04EF9FD
:1048000020461021FCF7E8FF642001F047F920461C
:104810004021FCF7E1FF642001F040F9204604212B
:10482000FCF7D8FF1120FFF7EBFE20460421FCF730
:10483000D3FF782001F032F920460421FCF7CAFFAB
:104840003620FFF7DDFE20460421FCF7C5FF0020DF
:10485000FFF7D6FE20460421FCF7BCFF3A20FFF705
:10486000CFFE20460421FCF7B7FF0520FFF7C8FE66
:1048700020460421FCF7AEFFB220FFF7C1FE204620
:104880000421FCF7A9FF0C20FFF7BAFE0C20FFF76C
:10489000B7FE0020FFF7B4FE3320FFF7B1FE332050
:1048A000FFF7AEFE20460421FCF794FFB720FFF788
:1048B000A7FE20460421FCF78FFF3520FFF7A0FE5E
:1048C00020460421FCF786FFBB20FFF799FE204617
:1048D0000421FCF781FF3220FFF792FE20460421DD
:1048E000FCF778FFC220FFF78BFE20460421FCF77F
:1048F00073FF0120FFF784FE20460421FCF76AFFC6
:10490000C320FFF77DFE20460421FCF765FF15203C
:10491000FFF776FE20460421FCF75CFFC420FFF77A
:104920006FFE20460421FCF757FF2020FFF768FEAA
:1049300020460421FCF74EFFC620FFF761FE20460B
:104940000421FCF749FF0F20FFF75AFE20460421FF
:10495000FCF740FFD020FFF753FE20460421FCF770
:104960003BFFA420FFF74CFEA120FFF749FE2046A5
:104970000421FCF72FFFE020FFF742FE2046042130
:10498000FCF72AFFD020FFF73BFE0820FFF738FE98
:104990000E20FFF735FE0920FFF732FE0920FFF752
:1049A0002FFE0520FFF72CFE3120FFF729FE3320D4
:1049B000FFF726FE4820FFF723FE1720FFF720FE13
:1049C0001420FFF71DFE1520FFF71AFE3120FFF718
:1049D00017FE3420FFF714FE20460421FCF7FAFEF0
:1049E000E120FFF70DFE20460421FCF7F5FED02064
:1049F000FFF706FE0820FFF703FE0E20FFF700FE7C
:104A00000920FFF7FDFD0920FFF7FAFD1520FFF74C
:104A1000F7FD3120FFF7F4FD3320FFF7F1FD4820CB
:104A2000FFF7EEFD1720FFF7EBFD1420FFF7E8FD81
:104A30001520FFF7E5FD3120FFF7E2FD3420FFF7F9
:104A4000DFFD20460421FCF7C5FE2120FFF7D8FD3D
:104A500020460421FCF7C0FE20460421FCF7BAFEE4
:104A60002920FFF7CDFD20460421BDE81040FCF7CA
:104A7000B3BE0000F0B58BB041F218000124C4F2BF
:104A80000200016841F045010160012001F034F8A5
:104A900008200121FDF71EFD45200121FDF732FD13
:104AA00040200121FDF72EFD102008AE03270A90BB
:104AB000ADF8204040F6004431460997C4F20004A6
:104AC00004F586352846FCF7D7FC28460121FCF77B
:104AD00083FE04200121FDF715FD182031460A90C0
:104AE0000F20ADF8200004F57C400997FCF7C4FCCA
:104AF0004FF47A7005A90690472005902046FEF7EE
:104B000033FF002001ADADF80C0060202946C0F253
:104B1000010001902046FEF723FE20460821FEF703
:104B200059FE20462946FEF75BFE20460821FEF787
:104B300095FE20462946FEF799FE20460821FEF7FD
:104B4000D3FE20462946FEF7D5FE20460821FEF773
:104B500001FF20460121FEF755FB0BB0F0BD000020
:104B600070B584B040200121FDF7CCFC41F6000473
:104B70001026022001AD0396ADF804000320C4F214
:104B80000104294602902046FCF776FC20460221CB
:104B9000FCF722FE28202946ADF804002046FCF749
:104BA0006BFC20462821FCF717FE44202946ADF86F
:104BB00004002046FCF760FC204648F22001FCF788
:104BC0000BFE20462946ADF80460FCF755FC204654
:104BD0001021FCF701FE04B070BD0000704700001A
:104BE0002DE9F04F83B00D4611789B460646B1B1D2
:104BF000DDE90C9ADDF83880571C4FEA5A0400BFF3
:104C0000CAB2B0B229465B46CDE9009ACDF8088019
:104C1000FFF74EFC17F8011B26440029F0D103B022
:104C2000BDE8F08F70470000B0B584B0702001215E
:104C3000FDF768FC102041F6000401AD03904FF42D
:104C40004160C4F201042946ADF80400032002903B
:104C5000A4F58060FCF710FC4FF480502946ADF8B5
:104C60000400A4F50060FCF707FC4FF480602946BF
:104C7000ADF804002046FCF7FFFB20464FF48061AE
:104C8000FCF7AAFD04B0B0BD2DE9F04141F60004E7
:104C90000E460546042198461746C4F201042046F4
:104CA000FCF798FD2A20FFF7ABFC20460421FCF717
:104CB00093FD280AFFF7A4FCE8B2FFF7A1FC380A2D
:104CC000FFF79EFCF8B2FFF79BFC20460421FCF79F
:104CD00081FD2B20FFF794FC20460421FCF77CFD8E
:104CE000300AFFF78DFCF0B2FFF78AFC4FEA18207C
:104CF000FFF786FC5FFA88F0FFF782FC204604216C
:104D0000FCF768FD2C20FFF77BFC20460421BDE862
:104D1000F041FCF761BD0000F0B58BB041F2180026
:104D2000C4F20200016841F400610160012000F05A
:104D3000E3FE42F63C4601200027C4F2010637801C
:104D4000B78000F0D9FEC0200121C0F21600FCF7A8
:104D500003FD4FF400600121FDF7D4FB4120012148
:104D6000FDF7D0FB032042F6004408A90990182063
:104D7000C4F201040A904FF4C040ADF82000A4F53D
:104D8000A050FCF779FB41F61F4005A9CDE905705D
:104D90002046FEF7E9FD602001ADC0F20100294682
:104DA00001902046CDF80A70FEF760FD20460821EC
:104DB000FEF79AFD20462946FEF79CFD2046082175
:104DC000FEF7C8FD20460121FEF726FA2046012104
:104DD000FEF706FA20460121FEF714FA3780B78065
:104DE0000BB0F0BD10B540F600444FF40071C4F2B2
:104DF00001042046FCF7F0FC142000F07DFE204664
:104E00004FF40071FCF7E6FC002010BDB0B58AB08D
:104E100002200121FDF75EFB10200121FDF772FB4E
:104E200040F600400121C0F21A00FCF795FC40F268
:104E30000044042001A90390C020C4F20004ADF88E
:104E4000040004F58630FCF717FB07AD2846FEF793
:104E5000E1FD4FF6FF70294608900020079020469C
:104E6000FEF782FD2046032100220023FEF7F8FA18
:104E700004AD2846FEF766FC0A202946ADF8180066
:104E80002046FEF715FB20460121FEF7B3F9204628
:104E900001210122FEF75CFC20460021FEF762FDA5
:104EA00020460121FEF7AEF90AB0B0BDB0B58AB018
:104EB000042001210424FDF70DFB20200121FDF732
:104EC00021FB4FF480500121FCF746FC039440F68F
:104ED00000044FF4405001A9C4F20004ADF80400EE
:104EE00004F58630FCF7C8FA07AD2846FEF792FDB8
:104EF0004FF6FF7029460890002007902046FEF7E5
:104F000033FD2046032100220023FEF7A9FA04AD59
:104F10002846FEF717FC0A202946ADF8180020465F
:104F2000FEF7C6FA20460121FEF764F9204601216A
:104F30000122FEF70DFC20460021FEF713FD20465E
:104F40000121FEF75FF90AB0B0BD000048F2A811D8
:104F500041F65832C4F2222190420EDC4EF2A842B1
:104F6000CFF6FF72904205DA0120524248600020DD
:104F7000086006E001280ADB0246002048600120A4
:104F8000086042F63C40C4F20100028070470028ED
:104F90000246E9D100224A600A60F2E740F2B0110D
:104FA00048F2901241F65833C4F22221C4F2222270
:104FB00098420EDC4EF2A843CFF6FF73984205DA12
:104FC00001205B4210600020086006E001280ADB37
:104FD0000346002010600120086042F64040C4F201
:104FE00001000380704700280346E9D100231360C5
:104FF0000B60F2E72DE9F04798B000200021EF2286
:10500000EF230024FFF740FE002500BF4FF6FF709E
:10501000FFF744FA0135A8B2F028F7D30134A0B263
:10502000F028F1D342F2200043F672214BF23C49C2
:1050300000254D240DF120080A9042F23A00C2F2F8
:105040002001C0F60009C2F22000069146F2651167
:10505000099046F64D70C6F26451C6F2645005914F
:1050600047F24931089042F22000C4F65F41C0F295
:1050700020000790CDE9030143F66420C2F220002E
:10508000029047F25300C6F26550019045F00701C7
:10509000A8B20F2300278AB20021FFF7F5FDA4F183
:1050A0002000C0B209EB0014E65D16F0010F0CBF42
:1050B0004FF6FF704FF47840FFF7F0F9B00754BF98
:1050C0004FF6FF704FF47840FFF7E8F9700754BFD0
:1050D0004FF6FF704FF47840FFF7E0F9300754BF08
:1050E0004FF6FF704FF47840FFF7D8F9F00654BF41
:1050F0004FF6FF704FF47840FFF7D0F9B00654BF79
:105100004FF6FF704FF47840FFF7C8F9700654BFB0
:105110004FF6FF704FF47840FFF7C0F9300654BFE8
:105120004FF6FF704FF47840FFF7B8F90137102FB2
:10513000BAD118F8014F0835002CA7D10025492411
:105140000DF1100845F00701A8B21F238AB2102103
:10515000FFF79AFDA4F120000024C0B209EB00176C
:105160003E5D16F0010F0CBF4FF6FF704FF4784014
:10517000FFF794F9B00754BF4FF6FF704FF4784033
:10518000FFF78CF9700754BF4FF6FF704FF478406B
:10519000FFF784F9300754BF4FF6FF704FF47840A3
:1051A000FFF77CF9F00654BF4FF6FF704FF47840DC
:1051B000FFF774F9B00654BF4FF6FF704FF4784014
:1051C000FFF76CF9700654BF4FF6FF704FF478404C
:1051D000FFF764F9300654BF4FF6FF704FF4784084
:1051E000FFF75CF90134102CBAD118F8014F0835DB
:1051F000002CA7D1002553240DF1040845F0070128
:10520000A8B22F238AB22021FFF73EFDA4F120008F
:105210000024C0B209EB00173E5D16F0010F0CBF71
:105220004FF6FF704FF47840FFF738F9B00754BFDE
:105230004FF6FF704FF47840FFF730F9700754BF16
:105240004FF6FF704FF47840FFF728F9300754BF4E
:105250004FF6FF704FF47840FFF720F9F00654BF87
:105260004FF6FF704FF47840FFF718F9B00654BFBF
:105270004FF6FF704FF47840FFF710F9700654BFF7
:105280004FF6FF704FF47840FFF708F9300654BF2F
:105290004FF6FF704FF47840FFF700F90134102CFF
:1052A000BAD118F8014F0835002CA7D10120FFF71B
:1052B00095FC3A2000256C240DF12C08ADF8300047
:1052C00046F26C50C7F266400B9000BF45F00701F4
:1052D000A8B23F238AB23021FFF7D6FCA4F1200008
:1052E0000024C0B209EB00173E5D16F0010F0CBFA1
:1052F0004FF6FF704FF47840FFF7D0F8B00754BF77
:105300004FF6FF704FF47840FFF7C8F8700754BFAE
:105310004FF6FF704FF47840FFF7C0F8300754BFE6
:105320004FF6FF704FF47840FFF7B8F8F00654BF1F
:105330004FF6FF704FF47840FFF7B0F8B00654BF57
:105340004FF6FF704FF47840FFF7A8F8700654BF8F
:105350004FF6FF704FF47840FFF7A0F8300654BFC7
:105360004FF6FF704FF47840FFF798F80134102C97
:10537000BAD118F8014F0835002CA7D143F6742094
:10538000002572240DF12C08ADF8300046F672109D
:105390008DF83250C6F667000B9000BF45F007014C
:1053A000A8B24F238AB24021FFF76EFCA4F120007F
:1053B0000024C0B209EB00173E5D16F0010F0CBFD0
:1053C0004FF6FF704FF47840FFF768F8B00754BF0E
:1053D0004FF6FF704FF47840FFF760F8700754BF46
:1053E0004FF6FF704FF47840FFF758F8300754BF7E
:1053F0004FF6FF704FF47840FFF750F8F00654BFB7
:105400004FF6FF704FF47840FFF748F8B00654BFEE
:105410004FF6FF704FF47840FFF740F8700654BF26
:105420004FF6FF704FF47840FFF738F8300654BF5E
:105430004FF6FF704FF47840FFF730F80134102C2E
:10544000BAD118F8014F0835002CA7D146F66748A5
:1054500045F64C7000264C240DF12C0AC3F6652845
:10546000C6F661608DF83460CDF830800B9000BFD7
:1054700046F00701B0B25F238AB25021FFF704FC67
:10548000A4F120000024C0B209EB00152F5D17F035
:10549000010F0CBF4FF6FF704FF47840FEF7FEFF90
:1054A000B80754BF4FF6FF704FF47840FEF7F6FF91
:1054B000780754BF4FF6FF704FF47840FEF7EEFFC9
:1054C000380754BF4FF6FF704FF47840FEF7E6FF01
:1054D000F80654BF4FF6FF704FF47840FEF7DEFF3A
:1054E000B80654BF4FF6FF704FF47840FEF7D6FF72
:1054F000780654BF4FF6FF704FF47840FEF7CEFFAA
:10550000380654BF4FF6FF704FF47840FEF7C6FFE1
:105510000134102CBAD11AF8014F0836002CA7D14B
:1055200045F652700026CDF8308052240DF12C083B
:10553000C6F661608DF834600B9000BF46F007013D
:10554000B0B26F238AB26021FFF79EFBA4F1200066
:105550000024C0B209EB00173D5D15F0010F0CBF30
:105560004FF6FF704FF47840FEF798FFA80754BF3E
:105570004FF6FF704FF47840FEF790FF680754BF76
:105580004FF6FF704FF47840FEF788FF280754BFAE
:105590004FF6FF704FF47840FEF780FFE80654BFE7
:1055A0004FF6FF704FF47840FEF778FFA80654BF1F
:1055B0004FF6FF704FF47840FEF770FF680654BF57
:1055C0004FF6FF704FF47840FEF768FF280654BF8F
:1055D0004FF6FF704FF47840FEF760FF0134102C57
:1055E000BAD118F8014F0836002CA7D143F64D2048
:1055F00000254C240DF12C08ADF8300045F64C7018
:105600008DF83250C5F250700B9000BF45F0070185
:10561000A8B27F238AB27021FFF736FBA4F12000E5
:105620000024C0B209EB00173E5D16F0010F0CBF5D
:105630004FF6FF704FF47840FEF730FFB00754BFCD
:105640004FF6FF704FF47840FEF728FF700754BF05
:105650004FF6FF704FF47840FEF720FF300754BF3D
:105660004FF6FF704FF47840FEF718FFF00654BF76
:105670004FF6FF704FF47840FEF710FFB00654BFAE
:105680004FF6FF704FF47840FEF708FF700654BFE6
:105690004FF6FF704FF47840FEF700FF300654BF1E
:1056A0004FF6FF704FF47840FEF7F8FE0134102CEF
:1056B000BAD118F8014F0835002CA7D143F64D2078
:1056C000002552240DF12C08ADF8300045F652703B
:1056D0008DF83250C5F250700B9000BF45F00701B5
:1056E000A8B28F238AB28021FFF7CEFAA4F120005E
:1056F0000024C0B209EB00173E5D16F0010F0CBF8D
:105700004FF6FF704FF47840FEF7C8FEB00754BF65
:105710004FF6FF704FF47840FEF7C0FE700754BF9D
:105720004FF6FF704FF47840FEF7B8FE300754BFD5
:105730004FF6FF704FF47840FEF7B0FEF00654BF0E
:105740004FF6FF704FF47840FEF7A8FEB00654BF46
:105750004FF6FF704FF47840FEF7A0FE700654BF7E
:105760004FF6FF704FF47840FEF798FE300654BFB6
:105770004FF6FF704FF47840FEF790FE0134102C86
:10578000BAD118F8014F0835002CA7D13A20782556
:1057900056240DF12C08ADF8300044F25640C4F206
:1057A00044100B9008E000BF18F8014F0835002C9A
:1057B00004BF18B0BDE8F08745F00701A8B20F2379
:1057C00000278AB20021FFF75FFAA4F12000C0B2DF
:1057D00009EB0014E65D16F0010F0CBF4FF6FF70E9
:1057E0004FF47840FEF75AFEB00754BF4FF6FF70F3
:1057F0004FF47840FEF752FE700754BF4FF6FF702B
:105800004FF47840FEF74AFE300754BF4FF6FF7062
:105810004FF47840FEF742FEF00654BF4FF6FF709B
:105820004FF47840FEF73AFEB00654BF4FF6FF70D3
:105830004FF47840FEF732FE700654BF4FF6FF700B
:105840004FF47840FEF72AFE300654BF4FF6FF7043
:105850004FF47840FEF722FE0137102FBAD1A3E7AC
:1058600010B584B004200121FCF74CFE102040F656
:10587000000401A903900820C4F20104ADF804005B
:10588000032002902046FBF7F7FD20460821FBF796
:10589000A1FF04B010BD00002DE9F04F85B00491C8
:1058A00005F05AF8054640F2381040F23414C2F2BE
:1058B0000000C2F2000401680560206803912946D7
:1058C00004F080FE8046206040F2AC20C2F200006E
:1058D0000168009141688068019102900420FEF700
:1058E00039FF40F2E407C2F2000738600320FEF7F8
:1058F00031FF40F20C114042C2F20001086004F096
:1059000044FB00230022C4F2690304F055FB46F275
:1059100000060022C4F29806334604F073F945F2FB
:10592000EC194EF6853AC1F6B869C3F6B17A4A4623
:10593000534604F041FB48F21F5B41F6B864C5F2E0
:10594000EB1BC4F209045A46234604F035FB04F06D
:105950006BF840F210113F68C2F200010860C820E5
:10596000784304F012FB0022334604F04BF94A4618
:1059700053464E46D14604F01FFB5A462346DA46AC
:10598000A34604F019FB04F04FF840F2E801C2F21C
:10599000000108600098294605F072F80446019855
:1059A000414605F06DF80146204604F00BFE0399D0
:1059B0000446284605F030F90146029805F060F8E3
:1059C0000146204604F0FEFD04F08AFF05460498D7
:1059D00004F0CCFD52465B4604F014F932464B46C7
:1059E00004F010F946F200030022C4F2980304F018
:1059F000E3FA41F27B4247F6E123C4F2AE72C3F60A
:105A0000747304F0D9FA04F091FA0446C01B04F050
:105A1000A3FFFEF705FC461B40F20C10C2F200008B
:105A20000068201A04F098FFFEF74AFC40F2DC04FC
:105A300040F204112844C2F20004C2F200012660C0
:105A40000860FFF7ABFA206805B0BDE8F04FFFF73C
:105A50007DBA00007047000080B56FF00400FCF7CD
:105A6000EDFE40F204004DF6836140F21A22C2F2CC
:105A70000000C4F21B31C2F200020068A0FB010169
:105A8000480D1070C1F347504FF47A71484340F20B
:105A90001821C2F20001088080BD000040F21821E8
:105AA000C2F20001098841434EF21000CEF200001C
:105AB000416000218160016841F00101016000BF87
:105AC000016801F0011101290ED1016801F00111F5
:105AD000012909D1016801F00111012904D10168EE
