:020000040800F2
:1000000098090020FD0100085D240008691D000812
:1000100059240008851200081D4500080000000052
:100020000000000000000000000000000F020008B7
:1000300089120008000000001302000815020008E1
:10004000170200081702000817020008170200082C
:1000500017020008170200088D1200081702000896
:10006000170200081702000817020008170200080C
:1000700017020008170200081702000817020008FC
:1000800017020008170200081702000817020008EC
:10009000170200081702000817020008F1120008F2
:1000A00017020008170200081702000817020008CC
:1000B000C5290008DD350008F135000817020008E1
:1000C00017020008170200081702000817020008AC
:1000D000170200086D3E00081702000819430008C7
:1000E000170200081702000817020008170200088C
:1000F000170200081702000817020008170200087C
:100100001702000817020008053600081702000849
:10011000170200081702000817020008170200085B
:10012000170200081702000817020008170200084B
:1001300000F002F800F053F80AA090E8000C8244A6
:100140008344AAF10107DA4501D100F048F8AFF283
:10015000090EBAE80F0013F0010F18BFFB1A43F0A5
:100160000103184710F2000030F20000103A24BFDB
:1001700078C878C1FAD8520724BF30C830C144BF0C
:1001800004680C607047000000230024002500264E
:10019000103A28BF78C1FBD8520728BF30C148BFEA
:1001A0000B60704766290AF01E87642900F0B4804E
:1001B000782900F0ED80002070471FB500F094FD15
:1001C00004000020002109F08BFD401C606000202D
:1001D000002109F06FFDE0601FBD10B510BD00F0FB
:1001E000D3FE1146FFF7E9FF06F01CFE00F0FFFE0C
:1001F00003B4FFF7F2FF03BC05F024FE0948804773
:1002000009480047FEE7FEE7FEE7FEE7FEE7FEE7F8
:10021000FEE7FEE7FEE7FEE704480549054A064B10
:10022000704700006D280008310100089803002085
:10023000980900209805002098050020704710B507
:100240004C1084EA530404D54042C1F1000138BF88
:10025000491E1B4204D55242C3F1000338BF5B1E46
:1002600000F0E4F914F0804F04D04042C1F10001E5
:1002700038BF491E14F0004F04D05242C3F10003AE
:1002800038BF5B1E10BD00000FB4044910B503AAAF
:10029000029800F0D3FC10BC5DF814FB3C01002078
:1002A0000FB41CB5074B06AA7B446946009005981D
:1002B00000F0ABFC0020694600F0BAFC1CBC5DF805
:1002C00014FB00008509000070B5044685690068CC
:1002D000C10601D5302600E02026C00707D070BD3A
:1002E000D4E9012130469047206A401C20626D1EEF
:1002F000F6D570BD70B5044685690078C00707D192
:1003000070BDD4E9012120209047206A401C206262
:100310006D1EF6D570BD00002DE9F04106460024A3
:1003200010687529314616A510D0AFF3008000285B
:1003300002DA404213A507E031688A0701D512A509
:1003400002E0490704D511A5012401E0AFF30080C4
:1003500000210A2206F1240709E0B0FBF2FCB0FB01
:10036000F2F302FB1C00303078541846491C002878
:10037000F3D123462A463046BDE8F04100F0D8B913
:10038000000000002D0000002B00000020000000F5
:1003900070B504460D4621461068AFF300802188F1
:1003A000090502D50F4A7A4402E00E4A7A440E3219
:1003B000002104F1240305E000F00F060009965D1A
:1003C0005E54491C0028F7D120780023000704D58B
:1003D000702D02D009B1022311322046BDE87040D1
:1003E00000F0A6B930AD00002DE9F05F8946044663
:1003F0004FF0000ADFF824B1FB44C0F820A02046EB
:10040000E168884700287DD0252806D0D4E901215D
:100410009047206A401C2062F1E700255F46204695
:10042000E16888472028064607DB312E05D2B81937
:1004300010F8200C08B10543F1E7A80701D525F015
:100440000405C4F81CA00027C4F818A02A2E09D05F
:10045000304609F0EBF838B304EB8708303EC8F8B3
:10046000186019E059F8041B204604EB87029161DB
:10047000E1688847012F064618D1E069002820DA94
:1004800025F020051DE0D8F8180000EB800006EBF1
:1004900040003038C8F818002046E1688847064612
:1004A00009F0C4F80028EED1012F0AD02E2E08D171
:1004B0002046E16888477F1C0646022F45F020054C
:1004C000C4DBA069002803DA404245F00105A061C1
:1004D000E80701D025F01005A6B1A6F141001928C2
:1004E00002D8203645F400654A463146204625604C
:1004F0004D46FFF757FE60B1012807D0ED1D25F0EE
:10050000070000E007E000F1080978E705F10409B9
:1005100075E730467AE7206ABDE8F09F06AD000037
:1005200070B5064600F07EF80468054630460A229B
:10053000002100F095FB2C6070BD0000014906F021
:1005400065B900003C01002010B5044603E006F048
:100550005DF9401C09D014F8010B05490028F6D1BB
:10056000BDE810400A2006F051B94FF0FF3010BD31
:100570003C01002040EA010310B59B070FD1042A7B
:100580000DD310C808C9121F9C42F8D020BA19BA5E
:10059000884201D9012010BD4FF0FF3010BD1AB1C3
:1005A000D30703D0521C07E0002010BD10F8013B18
:1005B00011F8014B1B1B07D110F8013B11F8014B3F
:1005C0001B1B01D1921EF1D1184610BD4FF0000245
:1005D00000B5134694469646203922BFA0E80C5039
:1005E000A0E80C50B1F12001BFF4F7AF090728BF14
:1005F000A0E80C5048BF0CC05DF804EB890028BF90
:1006000040F8042B08BF704748BF20F8022B11F0B8
:10061000804F18BF00F8012B704770477047704734
:1006200070470000004870473800002053EA020C71
:1006300000F069802DE9F04B4FF00006002B1FBF42
:10064000B3FA83F503FA05F424FA05F65E4012BF07
:100650001643B2FA82F502FA05F4C5F120051EBF71
:1006600022FA05FC44EA0C04203556EA044C4FEA11
:10067000144418BF641C4FF000084FF0000990426A
:1006800071EB030C39D3002919BFB1FA81F701FAD4
:1006900007F6B0FA80F700FA07F6C7F120071EBF89
:1006A00020FA07FC46EA0C062037B6FBF4FCA7EB61
:1006B0000507103F07F01F0BCBF120062CFA06F6BA
:1006C0000CFA0BFB44BFB3460026202FA4BF5E46A6
:1006D0004FF0000B5BEA060C08BF4FF0010B19EB63
:1006E0000B0948EB0608ABFB027C06FB02CC0BFBBC
:1006F00003CCC01B71EB0C01C1E70B46024641461F
:100700004846BDE8F08B13B54FF000004FF00001F4
:10071000AFF30080BDE81C40704710B5FFF782FFC3
:10072000006810BD10B50446FFF77CFF046010BDE3
:100730002DE9F0470D4699469246044600F12408FB
:100740000168880604D5E06921F01001216000E00D
:100750000120A84201DD471B00E00027A1697A19AA
:1007600002EB0900081AA0612078C00602D42046D6
:10077000FFF7AAFD002608E0D4E901211AF80600D7
:100780009047206A401C761C20624E45F4DB20789E
:10079000C0060AD52046FFF797FD06E0D4E90121FF
:1007A00030209047206A401C2062381EA7F10107C4
:1007B000F4DC07E0D4E9012118F805009047206A2D
:1007C000401C2062281EA5F10105F3DC2046FFF73E
:1007D00091FD2078000602D50220BDE8F0870120B7
:1007E000FBE72DE9FF4F0C461E464FF0FF378BB05D
:1007F000D2E90001DDF860800A908A46C1F30A550B
:1008000005B93D46002108464FF00000BAF1000F3F
:1008100000F4400005DA00EB80004FF4400101EAEB
:1008200050004FEA9059B9F1010F00DDB9460A981E
:1008300050EA4A000ED044F61050A5F2FF35454369
:100840002F14B8F1000F1ED07542291E1EDDC9F10C
:1008500000021CE0B8F1010F4FF0000001D0302180
:1008600003E0F24305E02154401CB042FBDB30467C
:100870000022002121540B99C1F80880C1E9002011
:100880000FB0BDE8F08FBD1B6D1CDEE74A4600DAF5
:10089000694206A800F002FB06AB93E8070003AB31
:1008A00083E8070050460A9908F07CFA8DE80700B3
:1008B000A0F500501F3800900398002D0ADD42F289
:1008C0001F014A460844002303A90390684608F024
:1008D000E5FC09E0A0F500504A461F38002303A9B3
:1008E0000390684608F0EFFC8DE807000004000C58
:1008F00003D04FF0FF30410800E01046B8F1000F80
:1009000003D00022009215461EE0751E05D400F0AB
:10091000EFF9303262556D1EF9D5B3460122084316
:1009200002D000227F1C04E02078302801D1002270
:100930007F1E002A099784D01DE0112D07DA00F0F0
:10094000D7F9303262556D1C50EA0102F5D10843E7
:1009500002D00098C8B10EE00021681E05E0235CBB
:10096000625C63542254401E491C8142F7DBAB4653
:10097000A81B401E0990002004F80B000B98099A50
:10098000C0F80880C0E9002B7AE711264FF0000874
:1009900057E72DE9F04F88460446D21D22F00701A3
:1009A00091B0D1E90001CDE90A0108F0C3FD02468A
:1009B0000B98C00F01D02D2007E02068810701D5DA
:1009C0002B2002E0202101EAC000032A099001D077
:1009D000072A05DB03464146204600F0CFF90BE12C
:1009E0002078800601D5E06900E00620B8F1650FA7
:1009F000814606D0B8F1660F18D0B8F1670F70D1F4
:100A000031E00020B9F1110F009001DB112301E06A
:100A100009F101030AAA01A90CA8FFF7E2FEDDE92A
:100A20000C70002609F10105834647E001204B4682
:100A300000904FF000470AAA01A90CA8FFF7D1FEC9
:100A4000DDE90DB00C995D46002610B909F10100F1
:100A50000D18B9EB050003D4C0F1FF3609F101050B
:100A6000A5EB09002BE0B9F1010F01DA4FF0010904
:100A70000020B9F1110F0090484601DD112300E07C
:100A800003460AAA01A90CA8FFF7ABFEDDE90C702A
:100A90004D4600268346207800070AD4AB4500DA8D
:100AA0005D4601A8012D04DD411911F8011C302912
:100AB00007D04F4502DA17F1040F04DA012082460D
:100AC0000FE06D1EEEE7002F02DCED1B3E4403E05D
:100AD000781CA84200DD7D1CB81B00F1010A4FF014
:100AE00000472078000703D4AA4501DB4FF0FF3A06
:100AF0000021B7F1004F0DF143088DF8431024D0C9
:100B000002202B23002F01DA7F422D230A21021E0F
:100B1000A0F1010000DC5FB197FBF1FC97FBF1F263
:100B200001FB1C7C17460CF1300C08F801CDEEE7F8
:100B3000A8F1010003702188090501D5452100E0D5
:100B40006521A0F1010800F8011C09980FA9A1EB8B
:100B50000807FF1D00B10120411901EBEA70A169EE
:100B60003844081A401EA0612078C00602D42046EE
:100B7000FFF7AAFB099828B1D4E901219047206A20
:100B8000401C20622078C00622D52046FFF79CFB3F
:100B90001EE0002E04DBB34502DD01A8805D00E00D
:100BA0003020D4E901219047206A401C2062761C45
:100BB000AAF101005FEA000A0AD100F095F8C068C6
:100BC0000168405CD4E901219047206A401C206202
:100BD000281EA5F10105DCDC07E0D4E9012118F8A5
:100BE000010B9047206A401C2062381EA7F10107C4
:100BF000F3DC2046FFF77EFB032011B041E6000046
:100C000001694A1C02610878704700B58FB0CDE9D0
:100C100001310021059105497944CDE903101146C0
:100C20006846FFF7E1FB0FB000BD0000E5FFFFFFE6
:100C30000A6802F8010B0A6070470000074B70B5A4
:100C40000D467B44FFF7E1FF0446284600F098F983
:100C500010B14FF0FF3070BD204670BDC75B000083
:100C60002DE9F04791460F4680460446002614F8C9
:100C7000015B2DB100F030F80068405DC007F6D18F
:100C80002B2D02D02D2D18D0641E4A463946204601
:100C900000F0B4F827B13968A14201D1C7F800804B
:100CA0004FF0020471050BD54042002803DDFFF729
:100CB000B9FC0460A007BDE8F08746F48066E4E76D
:100CC0000028F8DAFFF7AEFC04606FF00040F2E7AE
:100CD000004870473800002010B500F005F8001DEE
:100CE00010BD00BFFD8F0000004870475800002075
:100CF00030B5B0F10A0271F100034FEA900E4EEAEE
:100D0000817EB0EB0E0061EB91014FEA101E4EEABE
:100D1000017E10EB0E0041EB11114FEA102E4EEA4E
:100D2000016E10EB0E0041EB11214FEA104E4EEA1E
:100D3000014E10EB0E0041EB1141401841F1000152
:100D40004FEAD00040EA41704FEAD1014FEA8104F6
:100D500044EA907410EB800544EB01046D1944EBF8
:100D60000404521BA3414FF0000348BF0A3200D5D0
:100D700030BD401C41F1000130BD00002DE9F041C3
:100D80001F46044603260168072A01F4006004DBBD
:100D900008B116A505E016A503E008B115A500E009
:100DA00015A521F010002060A069C01EA0610FB140
:100DB000401EA0612046FFF787FA4FB1D4E9012118
:100DC00038469047206A401C2062C01C206206E022
:100DD000206AFAE7D4E9012115F8010B9047761E45
:100DE000F8D22046FFF786FABDE8F0814E414E006A
:100DF0006E616E00494E4600696E66002DE9F05F37
:100E0000824615468B4600270AF10104B946007850
:100E1000302801D09DB113E014F8010B0127782888
:100E200003D0582801D045B10AE00DB1102D07D1EB
:100E3000002714F8010B102502E0082500E00A2520
:100E40000026B0460EE005FB080005FB06F1012771
:100E50001FFA80F801EB1046B6F5803F00D3B94683
:100E600014F8010B294600F0B4F80028EBDABBF1C6
:100E7000000F05D00FB1641E00E05446CBF80040CF
:100E8000B9F1000F06D0FFF7CDFB02210160C81EAB
:100E9000BDE8F09F48EA0640FAE700002DE9F04778
:100EA000814616468AB0354878440DC88DE80D0055
:100EB00032487844801C03AC0DC884E80D0041F62C
:100EC0009B300844372190FBF1F290FBF1F5A5F13E
:100ED000800501FB12041B3C02D56442012000E0A6
:100EE0000020DFF898A080460027FA44AAF1BE0A45
:100EF0000EE0E0070AD03246684607EB47010123BF
:100F00000AEB810108F0DFF98DE8070064107F1C0F
:100F1000002CEED1194F7F44AE3F19E0E80715D001
:100F200007EB04100DF1180A90E80E008AE80E0095
:100F3000C068F04201D1981908903246012306A9F1
:100F400003A808F0C0F903AB83E807006D10641C28
:100F5000002DE3D14FF0010332466946B8F1000F8E
:100F600003A802D008F09AF901E008F0ACF9C9E949
:100F70000001C9F808200AB0BDE8F087D8A3000036
:100F8000007B00F0800070477546FFF7A1FEAE467B
:100F900005006946534620F00700854618B020B585
:100FA000FFF73AF9BDE820404FF000064FF0000788
:100FB0004FF000084FF0000BAC46ACE8C009ACE8BD
:100FC000C009ACE8C009ACE8C00921F007018D46B2
:100FD00070473A2800D2303820F02002412A01D34D
:100FE000A2F13700884201D34FF0FF30704710B5AF
:100FF0000446AFF300802046BDE81040FFF7F8B884
:101000004FF0013C50F8042B51F8043B9A4221D197
:10101000A2EB0C03934313EACC1317D150F8042B23
:1010200051F8043B9A4215D1A2EB0C03934313EA07
:10103000CC130BD150F8042B51F8043B9A4209D140
:10104000A2EB0C03934313EACC13DBD04FF0000068
:10105000704700BFD01A01BAB1FA81F101F018014E
:1010600022FA01F0CB40DBB2C0B2C01AC1F12001BC
:101070002CFA01F3D11A914311EAC311E6D170475A
:101080008268002942F0010308BF22F00103836057
:101090007047000080B543F60041C4F20101884268
:1010A00014D042F60001C4F20101884216D042F287
:1010B0000041C4F20101884218BF80BD4FF40070A6
:1010C000012101F035FA4FF400700EE04FF40040BA
:1010D000012101F02DFA4FF4004006E04FF480604A
:1010E000012101F025FA4FF480600021BDE8804025
:1010F00001F01EBA8068C0F380007047C06C80B2F7
:10110000704700000068084018BF012070470000C9
:101110008068C0F3C000704780B54FF6FF63426837
:10112000CFF6F07302EA030CD1E9003243EA0C0374
:1011300043EA02224FF2FD734260CFF6F1738268F8
:1011400002EA030ED1E902C30A6942EA0E021A4317
:1011500042EA4C028260C26A097D013922F47002BF
:10116000C9B242EA0151C16280BD000010B501EB75
:10117000410C092988BFACF11E0C092903FA0CFEA9
:101180004FF0070303FA0CFC4FF0100388BF0C2349
:10119000062AC45824EA0C0444EA0E04C45003D8B6
:1011A00034306FF0040307E00C2A87BF2C306FF057
:1011B000400330306FF0220302EB82021A441F23F7
:1011C000914003FA02F2036823EA0202114301602C
:1011D00010BD0000816841F0080181607047000087
:1011E0008268002942F4A00308BF22F4A0038360B0
:1011F00070470000816841F0040181607047000081
:1012000070B58AB04FF401700121012501F084F915
:101210004FF4004001F05EF942F200440026042041
:1012200001A9C4F201040396ADF80400A4F5A0508E
:1012300000F02CF92046FFF72DFF4FF46020CDE998
:101240000466069604A9CDE9070620468DF82450C9
:10125000FFF762FF20460121FFF712FF2046FFF74C
:10126000B9FF00BF2046FFF753FF0028FAD1204600
:10127000FFF7C0FF2046FFF73DFF0028FAD10AB074
:1012800070BD0000FEE700007047000080B532200E
:1012900004F0FCFD41F200000121C4F2010000F065
:1012A0009DFAE8B940F294300021C2F200000160DA
:1012B00040F2A010C2F20000016040F23030C2F2F1
:1012C0000000016040F22C30C2F20000016040F2E8
:1012D0000400C2F200000268032AB8BF511C01607A
:1012E000012000F075F80120BDE8804004F0FCBD4D
:1012F000F0B581B04FF4807000F070F8002804BFA2
:1013000001B0F0BD40F600444FF48071C4F2000417
:1013100004F5803000F062FA01280BD1204601214B
:1013200002F094F940F2C410C2F2000001680131E9
:10133000016045E020460021002602F087F92046A2
:1013400002F0CEFA40F26C31C2F20001086000EB0C
:10135000001008F08CFF44F200030022C4F28F0357
:1013600008F0C2FD08F0D2FC0021054609F01AFB86
:1013700040F2C411002840F2902040F26837C2F2D7
:10138000000118BF0025C2F20000C2F200070A687F
:1013900005603868052A0BD10E604FF07A513E6027
:1013A00009F0E0FC40F28C21C2F20001086003E089
:1013B000294609F079FA38602046002102F0F6FC4F
:1013C0004FF4807001B0BDE8F04000F001B80000BB
:1013D00040F21441C4F201010860704740F200413C
:1013E000C4F201010A68024018BF0122496908409D
:1013F00018BF012010407047C26840F20041C4F29B
:101400000101F2B102680B6893430B604B68934390
:101410004B60D0F804C05CF801301A434CF801204E
:1014200002688B6893438B60CB689343CB60806882
:1014300010280DD1886810438860C8681043C860C0
:101440007047D0E90020435823EA02024250704717
:1014500043581A434250704780B50C2240F2080EA0
:101460000F2302EA810201F0FC01C4F2010E03FA2B
:1014700002FC51F80E30904023EA0C0341F80E3084
:1014800051F80E20104341F80E0080BD80B5D1F810
:1014900008E00EF00F0C1EF0100F1CBF4B684CEA5A
:1014A000030C098811F0FF0F00F0A4800368CA073D
:1014B0000BD023F00F02BEF1480F42EA0C0315D007
:1014C000BEF1280F01D1012242618A0712D523F013
:1014D000F002BEF1280F42EA0C131CD0BEF1480FF7
:1014E00008D1022202614A0706D418E001220261F3
:1014F0008A07ECD44A0712D523F47062BEF1280F94
:1015000042EA0C231CD0BEF1480F08D1042202612C
:101510000A0719D505E0022242614A07ECD40A07FE
:1015200012D523F47042BEF1280F42EA0C331CD0CE
:10153000BEF1480F08D108220261CA0606D418E09D
:10154000042242610A07ECD4CA0612D523F47022A1
:10155000BEF1280F42EA0C431CD0BEF1480F08D15F
:10156000102202618A0619D505E008224261CA06E6
:10157000ECD48A0612D523F47002BEF1280F42EA99
:101580000C531CD0BEF1480F08D1202202614A063C
:1015900006D418E0102242618A06ECD44A0612D51D
:1015A00023F07062BEF1280F42EA0C631AD0BEF13C
:1015B000480F08D1402202610A061AD505E0202210
:1015C00042614A06ECD40A0613D523F07042BEF1FC
:1015D000280F42EA0C730AD0BEF1480F09D18022CD
:1015E000026106E0402242610A06EED401E0802258
:1015F00042610360B1F5807F38BF80BD4368CA0592
:101600000CD523F00F02BEF1480F42EA0C0317D0AD
:10161000BEF1280F02D14FF4807242618A0514D5C1
:1016200023F0F002BEF1280F42EA0C131FD0BEF1E6
:10163000480F0AD14FF4007202614A0507D41BE03B
:101640004FF4807202618A05EAD44A0514D523F466
:101650007062BEF1280F42EA0C231FD0BEF1480F82
:101660000AD14FF4806202610A051CD506E04FF4EE
:10167000007242614A05EAD40A0514D523F4704287
:10168000BEF1280F42EA0C331FD0BEF1480F0AD139
:101690004FF400620261CA0407D41BE04FF4806279
:1016A00042610A05EAD4CA0414D523F47022BEF1BB
:1016B000280F42EA0C431FD0BEF1480F0AD14FF465
:1016C000805202618A041CD506E04FF40062426138
:1016D000CA04EAD48A0414D523F47002BEF1280F98
:1016E00042EA0C531FD0BEF1480F0AD14FF400520A
:1016F00002614A0407D41BE04FF4805242618A041D
:10170000EAD44A0414D523F07062BEF1280F42EAED
:101710000C631ED0BEF1480F0AD14FF48042026123
:1017200009041BD506E04FF4005242614A04EAD492
:10173000090413D523F07041BEF1280F41EA0C7360
:101740000ED0BEF1480F09D14FF400410161436052
:1017500080BD4FF4804242610904EBD4436080BDF8
:101760004FF400414161436080BD000010B5042288
:10177000002800F440141FFA80FCC4F20102134652
:10178000B8BF43F01803B4F5401F1B68C0F3034E05
:1017900007D1146823F0706324F07064146081B979
:1017A00016E0C40206D447F6F07404EA50440CFA7A
:1017B00004F402E0032404FA0EF4A34343F070633C
:1017C00031B147F6F07101EA50410CFA01F10B43D7
:1017D0000028B8BF1832136010BD000080680840B0
:1017E00018BF0120704700004161704701617047D8
:1017F0002DE9F04381B08946804671B342F200463C
:1018000000240027C4F20106304641460122072386
:10181000FFF7ACFC30460121FFF7E2FC3046022125
:10182000FFF770FC0028F9D03046FFF767FC05464B
:10183000052004F02BFB284609F018FA0546384627
:1018400009F014FA294609F02FF809F0D7F9013404
:101850000746E0B24845D7D300E00027B7FBF9F0D0
:1018600009F004FA01B0BDE8F08300002DE9F04F63
:1018700085B0044600F084FC40F21811012CC2F23D
:101880000001086040F0858040F2EC0440F2141042
:1018900040F22012C2F20004C2F20000C2F20002C2
:1018A000214605F0E5FD002840F05A820DF10603BF
:1018B00069203B21062200F09FFED0B9BDF806004A
:1018C00040F29011C2F2000100BA000C0880BDF88D
:1018D000080040F29211C2F2000100BA000C088028
:1018E000BDF80A0040F29411C2F2000100BA000CE7
:1018F00008800DF1060369204321062200F07CFEDA
:10190000D0B9BDF8060040F22E21C2F2000100BAA3
:10191000000C0880BDF8080040F23021C2F200013E
:1019200000BA000C0880BDF80A0040F23221C2F271
:10193000000100BA000C088040F2B4012068C2F235
:101940000001086040F22821C2F20001B1F9000054
:10195000B1F9044009F072F940F2C801C2F2000185
:101960000860204609F06AF940F2CC01C2F2000199
:10197000086040F29610C2F20000B0F9040009F0CD
:101980005DF940F2B001C2F20001086005B0BDE8A7
:10199000F08F0DF1060369203B210E22009400F028
:1019A0002BFEE0B140F2D000C2F20000D0F800906F
:1019B00040F2D400C2F20000D0F800A040F2AC0027
:1019C000C2F20000D0F800B040F2A800C2F200005D
:1019D000066840F2A400C2F20000046843E0BDF8CB
:1019E0000600C0BA09F02AF9044640F2A400C2F287
:1019F00000000460BDF80800C0BA09F01FF90646EF
:101A000040F2A800C2F200000660BDF80A00C0BAA9
:101A100009F014F9834640F2AC00C2F20000C0F8AD
:101A200000B0BDF80E00C0BA09F008F9814640F2D6
:101A3000D000C2F20000C0F80090BDF81000C0BA9B
:101A400009F0FCF8824640F2D400C2F20000C0F86F
:101A500000A0BDF81200C0BA09F0F0F840F2D801B9
:101A6000C2F20001086040F2A411C2F20001B1F913
:101A70000000B1F90270B1F90480B1F9085009F021
:101A8000DDF80146204609F039FA044640F2A40088
:101A9000C2F200000460384609F0D0F80146304632
:101AA00009F02CFA064640F2A800C2F200000660D7
:101AB000404609F0C3F80146584609F01FFA40F2C3
:101AC000AC080746C2F20008C8F80000284609F032
:101AD000B5F80146504609F011FA40F2D40A05461D
:101AE0004FF08E41C2F2000ACAF80000484608F0E2
:101AF00059FF60B900214846CCF2807108F0D4FE4D
:101B0000814640F2D000C2F20000C0F800902846A2
:101B10004FF08E4108F046FF38B900212846CCF23C
:101B2000807108F0C1FECAF8000040F2D80B4FF0F7
:101B30008E41C2F2000BDBF80050284608F032FF5D
:101B400038B900212846CCF2807108F0ADFECBF800
:101B5000000020464FF08E4108F024FF50B90021CC
:101B60002046CCF2807108F09FFE40F2A401C2F240
:101B70000001086030464FF08E4108F013FF58B95D
:101B800000213046CCF2807108F08EFE064640F20D
:101B9000A800C2F20000066038464FF08E414C4665
:101BA00008F000FF40B900213846CCF2807108F0FF
:101BB0007BFE0746C8F8000040F2C800C146C2F2EA
:101BC00000000460304608F043FE044638460D46E7
:101BD00008F03EFE02460B462046294607F076FFF7
:101BE00048F200040022C4F26604234608F056FBC3
:101BF00042F2FB154FF0C042C4F209052B4608F033
:101C000073F908F083F840F2980140F2A408C2F298
:101C10000001C2F200080860D8F8000008F018FEC1
:101C20000646D9F800000F4608F012FE02460B46A1
:101C30003046394607F04AFF0022234608F02EFBC3
:101C40004FF0C0422B4608F04FF908F05FF840F221
:101C50009C09C2F20009C9F8000040F2A800C2F2D3
:101C60000000006808F0F4FD0646D8F800000F46B2
:101C700008F0EEFD02460B463046394607F026FFD7
:101C80000022234608F00AFB4FF0C0422B4608F022
:101C90002BF908F03BF840F2A001C2F20001086005
:101CA00040F2D000C2F20000006808F0D1FD46F218
:101CB00066654FF06632C4F230052B4608F014F921
:101CC00008F024F8044640F2BC00C2F200000460B0
:101CD000DAF8000008F0BCFD4FF066322B4608F041
:101CE00003F908F013F840F2C006C2F200063060B3
:101CF000DBF8000008F0ACFD4FF066322B4608F030
:101D0000F3F808F003F840F2C401C2F200010860E1
:101D10000098022824D140F298004DF20A7521461D
:101D2000C2F20000C3F6A335026840F268202B46D9
:101D3000C2F2000004F0E4FF40F2EC01D9F8002008
:101D40002B46C2F20001086040F244203168C2F222
:101D5000000004F0D5FF40F21411C2F20001086047
:101D600005B0BDE8F08F0000FEE70000022004F09F
:101D7000BBB8000080B584B00820012100F0CCFB86
:101D8000102001A903904FF44060ADF80400032037
:101D9000029040F60040C4F20100FFF777FB04B068
:101DA00080BD00002DE9F04F83B040F60441029061
:101DB00048F2A8154FF0000BC4F20101C4F221252E
:101DC000086820F470400860086840F4004008602B
:101DD00000202860022004F087F801262E6055F8C4
:101DE0007C0C0190012004F07FF80220C5F800B0BF
:101DF00004F07AF82E60012055F87C7C04F074F829
:101E00000220C5F800B004F06FF82E60012055F8EC
:101E10007C4C04F069F80220C5F800B004F064F8C6
:101E20002E60012055F87C8C04F05EF80220C5F885
:101E300000B004F059F82E60012055F87C9C04F0A5
:101E400053F80220C5F800B004F04EF82E600120CF
:101E500055F87CAC04F048F80220C5F800B004F056
:101E600043F82E60012055F87CBC04F03DF80020BA
:101E70002860022004F038F82E60012055F87C6CB0
:101E800004F032F840F6044200212960C4F2010255
:101E9000106820F470401060106840F440501060EA
:101EA0000198002818BF0120002F18BF0127002C1F
:101EB00018BF012447EA4000B8F1000F18BF4FF0E7
:101EC000010844EA4000B9F1000F18BF4FF00109C2
:101ED00048EA4000BAF1000F18BF4FF0010A49EA82
:101EE0004000BBF1000F18BF4FF0010B4AEA400061
:101EF000002E4BEA400018BF012646EA4004029833
:101F000048B10220696003F0EFFF01202860022041
:101F100003F0EAFF08E0012602206E6003F0E4FF10
:101F200002202E6003F0E0FF00202860E0B203B042
:101F3000BDE8F08FF0B581B0044640F6044048F2A9
:101F4000A8150026C4F20100C4F22125016821F47D
:101F500070410160016841F440510160E0092E6068
:101F60006860022003F0C0FF012702202F6003F009
:101F7000BBFF02202E6003F0B7FFC4F3801068603F
:101F8000022003F0B1FF02202F6003F0ADFF02201A
:101F90002E6003F0A9FFC4F340106860022003F034
:101FA000A3FF02202F6003F09FFF02202E6003F0AA
:101FB0009BFFC4F300106860022003F095FF02202D
:101FC0002F6003F091FF02202E6003F08DFFC4F319
:101FD000C0006860022003F087FF02202F6003F03A
:101FE00083FF02202E6003F07FFFC4F3800068604F
:101FF000022003F079FF02202F6003F075FF02201A
:102000002E6003F071FFC4F340006860022003F00B
:102010006BFF02202F6003F067FF02202E6003F0A9
:1020200063FF04F001006860022003F05DFF0220FE
:102030002F6003F059FF2E60022001B0BDE8F04090
:1020400003F052BFB0B540F6044048F2A814C4F201
:102050000100C4F22124016821F47041016001688B
:1020600041F440510160012060602060042003F0D1
:102070003BFF00250420656003F036FF2560B0BDFE
:1020800010B540F6044048F2A814C4F20100C4F2AE
:102090002124016821F470410160016841F440513C
:1020A0000160002020606060042003F01DFF01201B
:1020B000206060600420BDE8104003F015BF000000
:1020C00070B540F6044448F22C150126C4F2010410
:1020D000C4F22125206820F470402060206840F47C
:1020E000004020600120C5F8806003F0FDFE012063
:1020F000EE6703F0F9FE286888B10020296871B105
:10210000296861B140F00201C9B2F9290BD82A68E7
:102110002AB1F92907D8296804300029EED1002412
:102120002046EC6770BD206820F470402060206875
:1021300040F4405020600020E867C5F8800004208B
:1021400003F0D2FE01240420EC67C5F8804003F0C0
:10215000CBFE204670BD000041F21801C4F202011E
:102160000A6842F001020A600421C4F201010A680F
:1021700022F0E0620A600A6842EA40600860704744
:10218000B0B5FFF75FFFD220FFF7D4FEFFF798FF4F
:102190004120FFF7CFFEFFF793FFFFF753FFD32058
:1021A000FFF7C8FEFFF78CFF0020FFF7FBFD40F2B2
:1021B0001534C2F200042070FFF762FF2578FFF7A4
:1021C00041FFD220FFF7B6FEFFF77AFF4220FFF76C
:1021D000B1FEFFF775FFFFF735FFD320FFF7AAFE2B
:1021E000FFF76EFF0020FFF7DDFD2070FFF748FFCF
:1021F000207840EA0524204608F020FD002105460D
:10220000CCF2807108F050FB0021B4F5004F98BF6C
:102210002846C4F2AA3108F0DFFB08F019FB47F2A8
:10222000A40244F2D733C0F63D22C4F2420307F0C1
:102230009FFD00230022C4F2240308F02FF807F0CA
:1022400065FD08F0BFFCB0BD2DE9F04F83B0FFF78E
:1022500091FD6B20802102F063F964204FF0640A45
:1022600003F014FE6B20002102F05AF91B20182104
:1022700002F056F91C20102102F052F91920012118
:1022800002F04EF91A20012102F04AF9382000210B
:1022900002F046F96A20002102F042F923200021D1
:1022A00002F03EF93720802102F03AF9FFF7CAFE2A
:1022B000D220FFF73FFEFFF703FF7520FFF73AFE3E
:1022C000FFF7FEFEFFF7BEFED320FFF733FEFFF75A
:1022D000F7FE0020FFF766FD40F21531C2F2000163
:1022E0000870FFF7CDFE6B20032102F019F96C2076
:1022F000002102F015F940F2B82B48F21F5940F2C4
:10230000A4140DF10608C2F2000BC5F2EB19C2F2DB
:10231000000400BF692043210622434600F06CF907
:1023200088B9BDF8060000BA000CABF80000BDF893
:10233000080000BA000CABF80200BDF80A0000BAB1
:10234000000CABF8040069203B210622434600F054
:1023500053F938B1BBF80A00BBF80810BBF80620E7
:1023600012E000BFBDF8060000BA020CBDF808007C
:10237000ABF8062000BA010CBDF80A00ABF8081053
:1023800000BA000CABF80A00BBF90030BBF90270D0
:10239000BBF9045012B209B200B2BAF1010A83FBD0
:1023A00009364FEA561303EBD6732688334423804D
:1023B00087FB09374FEA571303EBD77367883B4412
:1023C000638085FB09374FEA571303EBD773A78860
:1023D0003B44A38082FB09234FEA531202EBD372E2
:1023E000E3881A44E28081FB09124FEA521101EBA3
:1023F000D27122891144218180FB09014FEA5110D9
:1024000000EBD1706189084460817FF483AF4DF2A5
:102410000A7449F6A63541F26F2640F26820002181
:10242000C3F6A334C3F64435C3F68326C2F20000D4
:1024300022462B46009604F053FC40F24420002133
:1024400022462B460096C2F2000004F049FC002010
:1024500003B0BDE8F08F0000FEE700007047000009
:1024600042684EF20011CEF20001EAB110B54EF60C
:102470000C520723CEF20002126890F801E0847833
:1024800090F800C023EA12220F23D340C2F10402C5
:1024900023400EFA02F21A4301EB0C03120183F8F7
:1024A0000023BDE8104000E080310078012300F0F7
:1024B0001F02C0F3421003FA02F241F820207047D5
:1024C00040F080604EF60C5140F0FD70CEF20001FD
:1024D0000860704741F20401C4F202010A6822F464
:1024E000404210430860704741F21C020029C4F2C8
:1024F000020211680CBF21EA000008431060704717
:1025000041F210020029C4F2020211680CBF21EA54
:10251000000008431060704741F218020029C4F21D
:10252000020211680CBF21EA0000084310607047E6
:1025300041F20C020029C4F2020211680CBF21EA28
:10254000000008431060704780B541F2040EC4F2E9
:10255000020EDEF8002002F00C0341F20022C0F26D
:102560007A02082B1FD1DEF80030C3F3834303F156
:10257000020CDEF8003013F4803F06D140F6001262
:10258000C0F23D020CFB02F20DE0DEF8003013F465
:10259000003F02D10CFB02F205E040F60012C0F24F
:1025A0003D020CFB02F202604BF2A021DEF800308B
:1025B000C0F60001C3F30313CB5CDA404260DEF8DF
:1025C0000030C3F30223CB5C22FA03F38360DEF80E
:1025D0000030C3F3C223C95C4BF29C23C0F6000356
:1025E00022FA01F1C160DEF80020C2F381329A5C68
:1025F000B1FBF2F1016180BD2DE9F04F81B040F6F1
:10260000044A074648F2A81901261C461546884682
:10261000C4F2010AC4F22129DAF8000020F4704063
:10262000CAF80000DAF8000040F44050CAF8000090
:102630000420C9F80460C9F8006003F055FC4FF0AD
:10264000000B0420C9F804B003F04EFC7F00C9F869
:1026500000B0F8B2FFF76EFCFFF732FDD0B1DAF848
:10266000000020F47040CAF80000DAF8000040F4DE
:102670004050CAF800000420C9F800B0C9F804B0FE
:1026800003F032FC0420C9F80060C9F8046003F0CC
:102690002BFC51E04046FFF74DFCFFF711FDDAF847
:1026A000000020F47040CAF80000DAF8000040F49E
:1026B0004050CAF800000420C9F80460C9F800605E
:1026C00003F012FC0420C9F804B003F00DFC47F03D
:1026D0000100C9F800B0C0B2FFF72CFCFFF7F0FC16
:1026E00005E000BFFFF75EFB04F8010B013DE8B217
:1026F000012803D020B10120F4E700BF0020F1E75A
:10270000DAF80000002620F47040CAF80000DAF879
:10271000000040F44050CAF800000420C9F80060EE
:10272000C9F8046003F0E0FB0120C9F80000C9F813
:102730000400042003F0D8FB304601B0BDE8F08F60
:1027400041F2000100221423C4F202010A61CA60AE
:102750004B618A61CA610B6843F001030B6000237F
:10276000D1F804C0CFF6FF0303EA0C034B604FF629
:10277000FF73D1F800C0CFF6F66303EA0C034EF600
:10278000085C0B60CEF2000C0B6823F480230B6016
:102790004B6823F4FE034B604FF000638A60CCF873
:1027A00000300B6843F480330B6000BF0B68B3F557
:1027B000003F0BD20B68B2EB534F07D10B68B2EB63
:1027C000534F03D10B68B3F5003FEFD34FF4806252
:1027D00002384A60C0B24A6842EA804048604868AD
:1027E00040F4803048604FF480500A5842F0320282
:1027F0000A50086840F08070086000200A68B2F152
:10280000007F0BD20A68B0EB526F07D10A68B0EBB9
:10281000526F03D10A68B2F1007FEFD3486840F0ED
:1028200002004860486800F00C0008280FD0486893
:1028300000F00C0008280AD0486800F00C000828B6
:1028400008BF7047486800F00C000828EAD17047BC
:102850004EF210010428CEF200010A6822F00403AF
:1028600008BF42F004030B607047000082B041F2E1
:1028700004000022C4F20200CFF6FF0250F8041C4C
:1028800041F0010140F8041C016811404FF6FF724D
:102890000160CFF6F66250F8041C114040F8041CA9
:1028A00050F8041C21F4802140F8041C016821F434
:1028B000FE0101604FF41F01416000210191009170
:1028C00050F8041C41F4803140F8041C50F8041CFA
:1028D00001F400310091019901310191009919B978
:1028E0000199B1F5A06FF1D150F8041C11F4003F2B
:1028F0000CBF0021012100910099012958D1D0F885
:10290000FC1F41F01001C0F8FC1FD0F8FC1F21F0A3
:102910000301C0F8FC1FD0F8FC1F41F00201C0F811
:10292000FC1F0168016001680160016841F4806179
:102930000160016821F47C110160016841F4E81133
:10294000016050F8041C41F0807140F8041C00BF85
:1029500050F8041C11F0007F0ED150F8041C11F047
:10296000007F09D150F8041C11F0007F04D150F809
:10297000041C11F0007FEBD0016821F0030101601D
:10298000016841F002010160016801F00C010829B1
:102990000ED0016801F00C01082909D0016801F08E
:1029A0000C01082904D0016801F00C010829EBD1C1
:1029B0004EF608504FF00061CEF20000016002B008
:1029C000704700002DE9F04F81B04FF080400121A9
:1029D00000F088FF002800F07D854FF08040012145
:1029E00000F030FE40F2E00440F20817C2F20004AA
:1029F000C2F2000726683D6802F0C8FB40F2942846
:102A0000A5F15A09A6F15A0BC2F20008D8E9001242
:102A1000D8F80C00216040F234213A6040F24024A2
:102A2000C2F20001C2F200040A6801320A602168A1
:102A300001290AD140F220210228C2F200010860D7
:102A400029D0032829D1662034E040F2B412D8F806
:102A50001010C2F200021268114340F2242218BF83
:102A60000121C2F20002116040F2B011C2F2000175
:102A7000096888420A4601EB0003B8BF02460029F4
:102A8000D8BF1A46002840F22020D8BF1A46C2F20A
:102A9000000002601DE067200CE0012809D040F230
:102AA0003030C2F200000068B0F1FF3F01DD6C2061
:102AB00000E06820FDF742FDD8F8100040F2242124
:102AC000C2F200010128086014BF6D206920FDF7E3
:102AD00035FD2068012840F0688140F22C35C2F2B3
:102AE00000052868B0F57A7FC0F25C810FD140F212
:102AF0000400C2F200000068032800F25281DFE8FF
:102B000010F0040049014B014D01622047E140F201
:102B1000A01A0021C2F2000AC4F2A001DAF8006093
:102B2000304607F046FF002840F0CD8000213046B7
:102B3000C4F2AA2107F036FF40B900213046C4F2A2
:102B4000BE2107F02FFF002840F0BD800021304655
:102B5000C4F22F3107F026FF40B900213046C4F2FD
:102B6000393107F01FFF002840F0AD8048F2000126
:102B70003046C4F2843107F015FF48B948F200012D
:102B80003046C4F2893107F00DFF002840F09B80E9
:102B900048F200013046C4F2B13107F003FF48B9F2
:102BA00048F200013046C4F2B63107F002FF0028B7
:102BB00040F0898048F200013046C4F2DE3107F06F
:102BC000F1FE40B948F200013046C4F2E33107F0AB
:102BD000E9FE002877D14CF200013046C4F20541ED
:102BE00007F0E0FE40B944F200013046C4F208416B
:102BF00007F0D8FE002866D144F200013046C4F246
:102C00001C4107F0CFFE40B94CF200013046C4F23F
:102C10001E4107F0C7FE002855D14CF20001304696
:102C2000C4F2324107F0BEFE40B944F20001304622
:102C3000C4F2354107F0BDFE002844D144F2000142
:102C40003046C4F2494107F0ADFE38B94CF20001FC
:102C50003046C4F24B4107F0A5FEA0BB4CF2000188
:102C60003046C4F25F4107F09DFE38B944F20001DE
:102C70003046C4F2624107F095FE20BB44F20001E9
:102C80003046C4F2764107F07FFE4CF200018046E8
:102C90003046C4F2784107F085FE46F2000107464F
:102CA0000028304618BF0127B8F1000FC4F2864152
:102CB00018BF4FF0010807F067FE002808BF18EAA8
:102CC000070000F088846A20FDF738FC0220FEF738
:102CD000CDFD40F2C400C2F20000006807F0B8FD6C
:102CE0004DF20A7240F63D23C7F2A302C3F6EF731A
:102CF00007F03EF841F27B4247F6E123C4F2AE72A0
:102D0000C3F6747307F0CAFA0646DAF800000F46F5
:102D100007F09EFD02460B463046394607F028F87C
:102D200006F0F4FF40F20405CAF80000C2F2000504
:102D30002968002940F00B8140F2340149F69A12CB
:102D4000C2F20001C3F699620A600021C4F2AA31FE
:102D500007F021FE40F22021002840F23036C2F276
:102D6000000118BF0120C2F2000609680139B1FA5A
:102D700081F14909084240F0E2803068B0F1FF3F3C
:102D800040F3DD8049F69A114846C3F6996102F096
:102D900057FFDBE0632002E0642000E06520FDF7E0
:102DA000CDFB2868013028602068002840F092831D
:102DB0000220FEF75BFD40F2C400C2F20000006892
:102DC00007F046FD4DF20A7240F63D23C7F2A3021A
:102DD000C3F6EF7306F0CCFF41F27B4247F6E123E6
:102DE000C4F2AE72C3F6747307F058FA40F2A0143E
:102DF00006460F46C2F20004206807F029FD02468D
:102E00000B463046394606F0B3FF06F07FFF40F22E
:102E1000040A06462060C2F2000ADAF80000002820
:102E200040F03E8140F2340849F69A1048F2000121
:102E3000C2F20008C3F69960C4F2B131C8F80000CC
:102E4000304607F0A8FD40F22021002840F230353E
:102E5000C2F2000118BF0120C2F200050968013961
:102E6000B1FA81F14909084259D12868B0F1FF3F10
:102E700055DD40F21C20C2F200000068012856D146
:102E800000213046C4F2201107F07EFD002800F03A
:102E9000E88000213046C4F2A02107F083FD30B95C
:102EA00000213046C4F2C82107F06EFDF8B10021C0
:102EB0003046C4F22A3107F075FD30B900213046A2
:102EC000C4F23E3107F060FD88B100213046C4F203
:102ED000823107F067FD002840F0D780002130469E
:102EE000C4F28C3107F057FD002840F0CE8040F24C
:102EF000FC1549F69A11C2F20005C3F699612868DB
:102F000007F0D2FC0146484602F09AFE40F28C20BF
:102F1000C2F20000006801F079FC2860B5E00020F2
:102F2000002102F08DFE286801382860B6E049F6DD
:102F30009A114846C3F6996102F082FEAEE0002085
:102F4000002102F07DFE30680138306029680129D7
:102F500030D140F234004FF07C51C2F200000160E9
:102F60000021DAF80000C4F22F4107F014FD40F20E
:102F70002021002840F23036C2F2000118BF0120A3
:102F8000C2F2000609680139B1FA81F1490901422A
:102F900009D13068B0F1FF3F05DD48464FF07C5164
:102FA00002F04EFE06E00020002102F049FE3068EB
:102FB000013830602868022840F0C28240F23408AC
:102FC000DAF8006000214FF07C50C2F20008C4F231
:102FD0007A41C8F80000304607F0DDFC40F22021BD
:102FE000002840F23037C2F2000118BF0120C2F2BF
:102FF000000709680139B1FA81F14909014228D174
:103000003868B0F1FF3F24DD00213046C4F20241B0
:1030100007F0CFFC002840F0848200213046C4F243
:103020002F4107F0B1FC002840F07B8240F28C2059
:10303000C2F20000006801F0E9FB40F2FC11C2F2AC
:1030400000010860D8F8001007F02EFC0146484641
:1030500073E20020002102F0F3FD38680138386087
:103060006DE240F28C20C2F20000006801F0CEFB5D
:1030700040F2FC11C2F200010860D8F8001007F01D
:1030800013FC0146484602F0DBFD00212068C4F233
:10309000AF3107F08EFC002800F02E82DAF8000035
:1030A000012840F0CA8040F23408266800214FF021
:1030B0007C50C2F20008C4F24841C8F80000304613
:1030C00007F069FC40F22021002840F23035C2F2BE
:1030D000000118BF0120C2F2000509680139B1FAE8
:1030E00081F14909014240F09B802868B0F1FF3F1F
:1030F00040F3968040F21C20C2F2000000680128D4
:1031000040F0968000213046C4F22A3107F04AFC94
:1031100038B900213046C4F23E3107F035FC0028B2
:1031200050D000213046C4F2823107F042FC38B959
:1031300000213046C4F28C3107F02DFC002841D02C
:1031400000213046C4F2AF3107F02CFC30B9002129
:103150003046C4F2B93107F017FC98B3002130466D
:10316000C4F2DC3107F01EFC30B900213046C4F255
:10317000E63107F009FC28B348F200013046C4F2FA
:10318000044107F016FC38B948F200013046C4F299
:10319000094107F000FCA8B100213046C4F21B41F0
:1031A00007F000FC30B900213046C4F2204107F09E
:1031B000EBFB38B148F200013046C4F2314107F070
:1031C000F1FB98B940F28C20C2F20000006801F0D7
:1031D0001DFB40F2FC11C2F200010860D8F800109B
:1031E00007F062FB0146484602F02AFD00212068F4
:1031F000C4F2F02107F0C8FBF8B940F28C20C2F20B
:103200000000006801F002FB40F2FC11C2F2000174
:103210000860D8F8001007F047FB014648460AE06E
:103220000020002102F00CFD28680138286004E02D
:1032300048464FF07C5102F003FDDAF80000022806
:1032400040F0B58040F23405266800214FF07C50F4
:10325000C2F20005C4F27A412860304607F09BFBB9
:1032600040F22021002840F23037C2F2000118BF9E
:103270000120C2F2000709680139B1FA81F1490958
:10328000014213D13868B0F1FF3F0FDD0021304615
:10329000C4F2AA3107F08DFB80B900213046C4F298
:1032A0002F4107F071FB48B958467AE00020002111
:1032B00002F0C6FC38680138386076E040F21C2025
:1032C000C2F20000006801286AD100213046C4F231
:1032D000201107F059FB002850D000213046C4F2DD
:1032E000A02107F05FFB38B900213046C4F2C821A5
:1032F00007F04AFB002841D000213046C4F22A31B1
:1033000007F050FB30B900213046C4F23E3107F0DF
:103310003BFB98B300213046C4F2823107F042FBF8
:1033200030B900213046C4F28C3107F034FB28B3A9
:1033300048F200013046C4F25E4107F033FB38B971
:1033400048F200013046C4F2634107F01DFBA8B10A
:1033500000213046C4F2754107F024FB30B900214A
:103360003046C4F27A4107F00FFB38B14CF200014D
:103370003046C4F2854107F015FBB0B940F28C200D
:10338000C2F20000006801F041FA40F2FC11C2F202
:1033900000010860296807F087FA0146484602E004
:1033A00048464FF07C5102F04BFCDAF8000003284D
:1033B00040F0908040F234074FF07E500021C2F27E
:1033C0000007C4F2AA313860206807F0E4FA40F23E
:1033D0002021002840F23035C2F2000118BF012040
:1033E000C2F2000509680139B1FA81F149090142C7
:1033F00019D12868B0F1FF3F15DD40F22420C2F258
:1034000000000068012818D140F29435C2F200058E
:103410002868B0F57A7F10DC0020002102F010FC53
:103420002868013005E00020002102F009FC28682E
:103430000138286001B0BDE8F08F40F21C20C2F2D4
:1034400000000068012848D140F28C20C2F2000040
:10345000006801F0DBF9054640F2FC102668002107
:10346000C2F20000C4F220110560304607F08CFA69
:10347000B8B300213046C4F2A02107F093FA30B966
:1034800000213046C4F2C82107F07EFA48B300217B
:103490003046C4F22A3107F085FA30B900213046AF
:1034A000C4F23E3107F070FAD8B100213046C4F2C0
:1034B000823107F077FA30B900213046C4F28C31FE
:1034C00007F069FA68B100213046C4F2AF3107F065
:1034D00070FA30B101B0BDE8F08F48464FF07E5130
:1034E00005E03968284607F0DFF90146484601B093
:1034F000BDE8F04F02F0A4BB40F2FC15D8F8000084
:10350000C2F20005296807F0CFF90146484602F0EB
:1035100097FB40F28C20C2F20000006801F076F9BF
:1035200003E500213046C4F22F4107F042FA00289B
:103530004FF07C5114BF4846584602F081FB286882
:1035400003287FF431AC40F234004FF07E51C2F2D8
:10355000000001600021DAF80000C4F2AA3107F08F
:103560001AFA40F22021002840F23035C2F2000160
:1035700018BF0120C2F2000509680139B1FA81F1D2
:103580004909014218D12868B0F1FF3F14DD40F22B
:103590002420C2F200000068012815D140F29435C1
:1035A000C2F200052868B0F57A7F0DDC002000210A
:1035B00002F046FBFFF7F5BB0020002102F040FBC4
:1035C00028680138FFF7EFBB48464FF07E5102F004
:1035D00037FBFFF7E9BB6B20FFF776BB40F21040EB
:1035E000C4F200000188018821F0010101807047C8
:1035F00040F61000C4F200000188018821F00101AA
:103600000180704710B540F600440121C4F2000467
:10361000204600F067F9002808BF10BD20460121B0
:10362000BDE8104000F00EB80288002942F0800387
:1036300008BF22F08003038070470000C943018265
:1036400070470000C94301827047000002880029CA
:1036500042F0010308BF22F001030380704700001D
:10366000B0F84420002913466FF3DF3318BF42F44B
:103670000043A0F84430704780B541F6FF71C4F2B2
:103680000001884228DD44F2FF31C4F20101884282
:103690003FDD44F6FF31C4F2010188426EDD44F69D
:1036A0000041C4F20101884200F0B58045F20001FA
:1036B000C4F20101884200F0B68045F20041C4F234
:1036C0000101884218BF80BD4FF400100121FEF7B0
:1036D0002FFF4FF40010D7E040F6FF71C4F2000155
:1036E000884232DC40F2FF71C4F2000188425ADCA9
:1036F000B0F1804F00F09F8040F20041C4F2000121
:10370000884240F0D08002200121FEF7F9FE02201D
:10371000C4E043F2FF31C4F20101884255DC42F2B9
:103720000001C4F20001884200F08B8042F60041A3
:10373000C4F20101884240F0B6804FF400600121DC
:10374000FEF7F6FE4FF400609EE041F2FF71C4F216
:10375000000188424DDC41F20001C4F200018842C0
:1037600077D041F20041C4F20001884240F09B80D2
:1037700020200121FEF7C4FE20208FE044F200410A
:10378000C4F2010188426AD044F60001C4F201018A
:10379000884240F088804FF480200121FEF7C8FE67
:1037A0004FF4802070E040F60001C4F2000188422E
:1037B0005DD040F60041C4F20001884273D1082078
:1037C0000121FEF79DFE082068E043F20041C4F2AB
:1037D0000101884251D044F20001C4F20101884243
:1037E00061D14FF480300121FEF7A2FE4FF480300A
:1037F0004AE041F60001C4F20001884249D041F696
:103800000041C4F2000188424DD180200121FEF721
:1038100077FE802042E04FF400200121FEF788FE71
:103820004FF4002030E04FF480100121FEF780FEBD
:103830004FF4801028E001200121FEF761FE0120F5
:103840002CE04FF480700121FEF75AFE4FF4807097
:1038500024E010200121FEF753FE10201EE04FF45B
:1038600000300121FEF764FE4FF400300CE004202C
:103870000121FEF745FE042010E04FF40050012125
:10388000FEF756FE4FF400500021BDE88040FEF7E1
:103890004FBE40200121FEF733FE40200021BDE84D
:1038A0008040FEF72DBE80BD80B5B0F808C02CF07A
:1038B000070C41EA0C01B0F818C0B0F820E0018113
:1038C0004FF6FC410CEA010C40F2011141EA0C01F7
:1038D000018342EA03112EF022021143018480BDCC
:1038E000808C7047028A0A4018BF012280890840F4
:1038F00018BF01201040704770B50B88042B2AD0E8
:10390000002B56D1B1F802C00A898B88068C40F68C
:10391000FF354FF6FC74C4F2000526F0010643EAB9
:1039200002130246A842068432F8186FB0F820E06D
:1039300026F0F30643EA06036DDCB0F1804F7DD03C
:1039400040F20045C4F20005A84277D040F60005D9
:10395000C4F200056FE00E894B888A88058C40F61A
:10396000FF44360325F0100546EA02260584024688
:1039700032F8185FB0F820E0254046EA050C40F622
:10398000FF356FF00306C4F20005A6F1AD04A842AE
:1039900062DCB0F1804F71D040F20045C4F2000506
:1039A000A8426BD040F60005C4F20005A84265D0DD
:1039B00068E00A898C884E88058C082B71D125F423
:1039C0008073038444EA0213024632F81C5FB0F8A5
:1039D00020E025F0F30543EA050C6FF4405303F5AE
:1039E000145440F6FF33C4F20003984200F3818080
:1039F000B0F1804F00F08F8040F20043C4F200032A
:103A0000984200F0888040F60003C4F20003984218
:103A100000F0818084E040F60045C4F20005A84231
:103A20000CD042F60045C4F20105A84206D043F28C
:103A30000045C4F20105A84218BF083C03830EEA02
:103A4000040343EA0C0343F001030384C988038B96
:103A500023F00C03038394E040F60045C4F2000514
:103A6000A8420BD043F20045C4F20105A84205D09C
:103A700042F60045C4F20105A84203D14FF6FC749A
:103A80001B012D3C0EEA0406A0F818C0334343F096
:103A900010030384C988038B23F440630902038362
:103AA0006FE025F480531203038442EA04230246A4
:103AB00040F6FF4432F81C5FB0F820C0254046F6BF
:103AC000FF5443EA050E40F6FF33C4F20003984268
:103AD00034DCB0F1804F43D040F20043C4F2000325
:103AE00098423DD040F60003C4F20003984237D01C
:103AF00039E040F60043C4F2000398420BD043F291
:103B00000043C4F20103984205D042F60043C4F2D8
:103B10000103984204D14CF6FF73360203F5345486
:103B20000EEA0403A0F81CC0334343F480730384FB
:103B3000C988838B23F00C03838322E040F6004383
:103B4000C4F2000398420BD043F20043C4F20103D5
:103B5000984205D042F60043C4F20103984202D1D4
:103B600036034CF6FF740CEA0403A0F81CE0334360
:103B700043F480530384C988838B23F44063090290
:103B8000838310880843108070BD0000002101224B
:103B90000160426001817047002A82890CBF22EADD
:103BA000010111438181704710B5028C22F001029E
:103BB0000284048CB0F804E0038B0A8823F07303BA
:103BC00043EA020C0B8924F002021A434B881A4381
:103BD000A0F18043A3F596334FEAB323072B14D803
:103BE000012404FA03F313F0E50F0ED08C892EF4B0
:103BF000407322F00C022343CC8943EA040E4B8924
:103C000023F004031A438B881A43A0F804E0A0F8B9
:103C100018C0C9888186028410BD0000028B22F082
:103C2000080211430183704710B5028C22F0100284
:103C30000284048CB0F804E0038B0A8823F4E64382
:103C400043EA022C0B8924F0200242EA03124B883B
:103C500042EA031243F20043C4F20103984205D042
:103C600042F60043C4F20103984212D18B892EF42C
:103C7000406422F0C00244EA8303CC8943EA840E04
:103C80004B896FF04F0404EA03131A438B8842EA0E
:103C90000312A0F804E0A0F818C0C98801870284C4
:103CA00010BD0000028B22F4006242EA0121018370
:103CB0007047000010B5028C22F480720284048CDC
:103CC000B0F804E0838B0A8823F0730343EA020C04
:103CD0000B8924F4007242EA03224B8842EA032251
:103CE00043F20043C4F20103984205D042F6004378
:103CF000C4F20103984212D18B892EF4405422F46D
:103D0000406244EA0313CC8943EA041E4B8940F223
:103D1000FF441B02A3431A438B8842EA0322A0F804
:103D200004E0A0F81CC0C9888187028410BD00008F
:103D3000828B22F0080211438183704710B5028CF8
:103D400022F480520284048CB0F804E0828B0B8849
:103D500022F4E64242EA032C0B8924F4005242EAA0
:103D600003324B8842EA033343F20042C4F20102B9
:103D7000904205D042F60042C4F20102904204D1C2
:103D80008A892EF4804444EA821EA0F804E0A0F858
:103D90001CC0C988A0F84010038410BD828B22F497
:103DA000006242EA012181837047000081847047EC
:103DB00040F6FF33B0F800C0C4F2000398420FDCB5
:103DC000B0F1804F1ED040F20043C4F2000398428D
:103DD00018D040F60003C4F20003984212D016E057
:103DE00040F60043C4F2000398420BD043F2004374
:103DF000C4F20103984205D042F60043C4F2010325
:103E0000984204D14B882CF0700243EA020C41F234
:103E1000004240F48063C4F20002934204D0CB8895
:103E20002CF4407243EA020CA0F800C08A88828514
:103E30000A880285A0F18042A2F596324FEAB222AA
:103E4000072A07D8012303FA02F212F0E50F1CBF7C
:103E5000097A018601218182704700004FF6FF71C7
:103E600041600021016001727047000070B543F6A7
:103E7000000440F22551C4F20104204600F0BAFAD1
:103E8000002800F01B82204600F044FB044640F26C
:103E90008C30C2F200007D2C04605DD07B2C40F0A1
:103EA000808040F2EC1000210122C2F2000001608B
:103EB00040F23C20C2F20000027040F29030C2F2A8
:103EC0000000027040F29C10C2F20000017040F24B
:103ED000C420C2F20000027040F23820C2F200009A
:103EE00001684A1C026040F2C520C2F2000044543E
:103EF00040F2B8000021C2F20000017040F2BA00A6
:103F0000C2F20000017040F2B900C2F2000001707C
:103F100040F2BB00C2F20000017040F28030C2F2F9
:103F20000000016040F28430C2F20000016040F203
:103F30007030C2F20000016040F27430C2F2000042
:103F4000016040F27830C2F20000016040F27C3043
:103F5000C2F20000016070BD40F23C2040F2903699
:103F60000025C2F20000C2F2000605703078B0B33E
:103F700040F2C010C2F20000016840F2B810C2F274
:103F800000004554FCF7CCFA40F2EC1140F2C812A4
:103F90003570C2F20001C2F20002096842F8210045
:103FA0002AE040F23C20C2F200000078D8B33A2C5C
:103FB00000F0B180232C40F0D38040F290310020FB
:103FC0000122C2F20001087040F29C11C2F200010D
:103FD0000A7040F2C421C2F20001087013E040F2FE
:103FE0009C10C2F20000007830B140F2EC10C2F236
:103FF000000001680131016040F2C0100021C2F2EE
:1040000000000160012040F238220028C2F20002C4
:10401000136803F10101116040F2C522C2F20002EF
:10402000D4540CD116E040F23820C2F200000268ED
:10403000511C016040F2C520C2F20000845440F2DD
:10404000C5200022C2F20000425440F23820C2F2E1
:10405000000002600B2C38BF70BDA4F141002C2879
:104060003FF646AFDFE810F092002E002E002E0043
:104070009F004500450045002D002D002D002D001E
:104080002D002D002D002D002D002D002D002D00C8
:104090002D002D002D002D002D00A9002D002D003C
:1040A0002D002D002D002D00BF00C700D300D8002B
:1040B000DD00F900000107010C01110118011D01CB
:1040C000240115E740F2B8000021C2F2000001709F
:1040D00040F2BA00C2F20000017040F2B900C2F230
:1040E0000000017040F2BB000121C2F2000001702B
:1040F00070BD40F2B80000210122C2F20000017040
:1041000040F2BA00C2F20000017040F2B900C2F2FF
:104110000000027061E040F2C01540F2B8100022C9
:10412000C2F20005C2F2000029684254FCF7F8F917
:1041300040F2C42240F29031C2F20002C2F2000109
:1041400016780B78002E00F0BA80002B00F0C680A5
:104150000021117040F2EC11C2F200010860D0E0C1
:10416000A4F1300080B209280ED840F2C011C2F28A
:1041700000010868052800F3C780421C0A6040F26D
:10418000B811C2F200010C5400203CE740F2B80024
:1041900000210122C2F20000017040F2BA00C2F216
:1041A0000000027014E040F2B8000121C2F20000E9
:1041B000017040F2BA00002107E040F2B80000218F
:1041C000C2F20000017040F2BA00C2F200000170B9
:1041D00040F2B900C2F20000017040F2BB00C2F22E
:1041E0000000017070BD40F2C8102821C2F200002A
:1041F000FCF7ECF970BD40F294300021C2F20000EF
:10420000016040F20400C2F20000016015E040F2DB
:1042100094300021012208E040F294300021022273
:1042200003E040F2943000210322C2F2000001605A
:1042300040F20400C2F20000026040F2A010C2F29C
:104240000000016040F23030C2F20000016040F234
:104250002C30C2F20000016070BD40F2B0100321AA
:10426000C2F20000016070BD40F2B0100221C2F243
:104270000000016070BD40F2B010C2F2000008E022
:1042800040F2B410C2F2000003E040F21C20C2F27F
:1042900000000121016070BD40F21C20C2F200004C
:1042A00003E040F2B010C2F200000021016070BDD6
:1042B00040F2B4100021C2F20000016070BD6BB189
:1042C00040F2EC1240F2C813C2F20002C2F2000344
:1042D000126843F822000020087012E040F29C119E
:1042E000C2F20001097861B140F2EC11C2F20001A2
:1042F0000A68531C0B6040F2C811C2F2000141F879
:104300002200002028607EE640F2B8110020C2F2B0
:104310000001887177E6000010B544F6000440F211
:104320002551C4F20004204600F064F8D8B32046BA
:1043300000F0F0F840F2883140F2243E5B28C2F2EF
:104340000001C2F2000E086040F22831DEF80030B1
:10435000C2F200010C6801BF53EA040201200860A8
:1043600010BD5B2808BF012C1ED040F2142C012B7D
:10437000C2F2000CDCF8004008BF29281BD0012B3A
:1043800008BF29281ED0012B18BF10BD40F2A8215C
:1043900040F29423C2F20001C2F200030A6843F81B
:1043A0002200501C086010BD002B02BF0120CEF877
:1043B000000010BDD9E7002C02BF0120CCF800009E
:1043C00010BDDCE7012CDED10020086040F2A821FE
:1043D000CCF80000CEF80000C2F20001086010BD69
:1043E0008289002942F4005308BF22F400538381DC
:1043F0007047000001F01F02012303FA02F2C1F32B
:104400004213022B06D0012B14BF00F1140300F15C
:104410000C0301E000F110031B88090A1A404FF059
:10442000010318BF0122008803FA01F1084018BFF8
:10443000012010407047000001F01F0C012303FA17
:104440000CFCC1F342131421022B08BF1021012BD5
:1044500008BF0C21002A42580CBF22EA0C0242EA93
:104460000C0242507047000070B586B00446008AC6
:104470000D46C98801AE20F4405008434EF6F311B2
:104480002082A0890840A9880843298908436989AE
:104490000843A081A08AA98920F440700843A08223
:1044A0003046FEF751F843F6000106F108000222FB
:1044B000C4F201018C424FF0190108BF06F10C0053
:1044C000042600684843A189A2EBD1312A6802FA88
:1044D00001F1B0FBF1F048F21F51C5F2EB11A0FB66
:1044E00001235A096FF0630302FB0300A389A6EBC3
:1044F000D336B0403230A0FB0101072040EA133030
:1045000080F0080000EA511040EA0210208106B055
:1045100070BD000080886FF35F207047FEE70000E9
:10452000B0B50C460546FDF78DFDFDF71FFCD2200A
:10453000FDF700FDFDF7C4FD18B1FDF7A1FD012059
:10454000B0BD2846FDF7F6FCFDF7BAFD2046FDF7A5
:10455000F1FCFDF7B5FD0446002818BF0124FDF766
:104560008FFD2046B0BD00002DE9F04F81B040F630
:10457000044A074648F2A81901241D4616468846F3
:10458000C4F2010AC4F22129DAF8000020F47040D4
:10459000CAF80000DAF8000040F44050CAF8000001
:1045A0000420C9F80440C9F8004001F09DFC4FF018
:1045B000000B0420C9F804B001F096FC7800C9F89B
:1045C00000B0C0B2FDF7B6FCFDF77AFDD0B1DAF865
:1045D000000020F47040CAF80000DAF8000040F44F
:1045E0004050CAF800000420C9F800B0C9F804B06F
:1045F00001F07AFC0420C9F80040C9F8044001F039
:1046000073FC49E04046FDF795FCFDF759FD56B1B6
:10461000002400BF285DFDF78DFCFDF751FDF8B9C2
:104620000134B442F6D3DAF80000002420F47040DC
:10463000CAF80000DAF8000040F44050CAF8000060
:104640000420C9F80040C9F8044001F04DFC0120E5
:10465000C9F80000C9F80400042001F045FC1BE083
:10466000DAF8000020F47040CAF80000DAF8000020
:1046700040F44050CAF800000020C9F80000C9F812
:104680000400042001F030FC01240420C9F800409B
:10469000C9F8044001F028FC204601B0BDE8F08FC5
:1046A0002DE9F04F81B0044640F22C10C2F2000018
:1046B0000168046040F22810C2F200000068009116
:1046C000214606F0F1F8074640F21830C2F2000029
:1046D0003946D0E900A6D0F80890304606F042FBF3
:1046E0004CF2000B0546C4F2DA5B594606F04CF971
:1046F00080465846314606F06FF940F22811B8F16D
:10470000000F08BF3846C2F200010860504621463B
:1047100006F028FB294606F0C7F800990546204612
:1047200006F0ECFB0146484606F01CFB0146284615
:1047300006F0BAF806F046FA01B0BDE8F08F0000C6
:104740002DE9F0478CB0082001214FF00108FDF75A
:10475000E3FE08200121FDF7C7FE40F600444FF0BC
:10476000030909AE4FF400704FF0100AC4F20004C0
:10477000CDF82890ADF824003146CDF82CA004F5F2
:1047800080352846FCF782FE28464FF40071FDF77D
:104790002BF84FF4807704203146ADF824700B904D
:1047A0002846FCF773FE01200821FCF755FE002087
:1047B000CDE9027002A8CDE904A8FCF71DFE172080
:1047C0008DF80290ADF800006846CDF80480FDF742
:1047D00047FE2046FEF750FF4FF6FF7006A90790F0
:1047E000472006902046FFF7E3FA20460121FEF716
:1047F00025FF204601210122FFF7CEF920460021A6
:10480000FEF724FF0CB0BDE8F0870000B0B5002132
:104810000446C4F2202106F0CCF8002105462046CB
:10482000CCF2C81106F040F80021002DC4F2A0110E
:1048300008BF084640F2F011C2F20001096806F014
:1048400091FAB0BD10B50446000A00F0ADF8E0B230
:10485000BDE8104000F0A8B82DE9F04F87B0119ED8
:10486000074690461C460D46069100EB560001385F
:1048700082B28819013883B2384600F0D9FB07218B
:104880000122300911EA560F18BF02EB16107043CF
:104890000028049000F08480A6F10C0075083E46C4
:1048A0004FF0000BC0F385015FFA85F941EA8011F2
:1048B000A8F12000CBB24BF22471C2B20020C0F6A6
:1048C00000010292039301EB021101914CF6F46195
:1048D000C0F6000101EB821100220091052B5FD888
:1048E0000592DFE803F0030D5D0F5D1902994BF2AD
:1048F000B022C0F6000201EB410102EB81010CE0A5
:1049000001990AE002994BF62452C0F6000201EB2D
:10491000410102EB011100E0009908444FF000084A
:1049200090F800A00120129900FA08F000EA0A00AD
:1049300081B148B10699B0B2024689B20B4600F087
:1049400077FB2046FFF77EFF0136B0B2C01BA842BE
:104950000FD115E000280CBF10982046FFF772FF1A
:104960000BF1010B5FFA8BF0B0FBF9F101FB1900C1
:1049700058B108F10108B8F1080FD3D308E000BF1F
:1049800006983E460130069002E04FF0000B00BF53
:10499000059A0499039B013290B281423FF69EAF83
:1049A00007B0BDE8F08F0000B0B541F60004054641
:1049B0000221C4F201042046FCF716FF204608211C
:1049C000FCF712FF68B2B0F1FF3F04DD2046202162
:1049D000FCF70AFF03E020462021FCF707FF2046F2
:1049E0000821FCF703FF20460821FCF7FDFE6806BE
:1049F00004D420462021FCF7F7FE03E020462021C6
:104A0000FCF7F4FE20460821FCF7F0FE20460821C2
:104A1000FCF7EAFEA80604D420462021FCF7E4FEB9
:104A200003E020462021FCF7E1FE20460821FCF7A8
:104A3000DDFE20460821FCF7D7FEE80604D4204618
:104A40002021FCF7D1FE03E020462021FCF7CEFE1A
:104A500020460821FCF7CAFE20460821FCF7C4FEC8
:104A6000280704D420462021FCF7BEFE03E02046A0
:104A70002021FCF7BBFE20460821FCF7B7FE2046AC
:104A80000821FCF7B1FE680704D420462021FCF77A
:104A9000ABFE03E020462021FCF7A8FE20460821BB
:104AA000FCF7A4FE20460821FCF79EFEA80704D4CC
:104AB00020462021FCF798FE03E020462021FCF749
:104AC00095FE20460821FCF791FE20460821FCF7C0
:104AD0008BFEE80704D120462021FCF785FE03E089
:104AE00020462021FCF782FE20460821FCF77EFEAE
:104AF00020460221BDE8B040FCF778BE2422002108
:104B00000228C4F200020AD0042806D003284FF07D
:104B1000000006D102F5806201E002F50062108813
:104B2000118000B270470000B0B58AB01120012199
:104B30000124FDF7F1FC012001F0D6F94820ADF881
:104B40001C4007A909900320089041F20000C4F21C
:104B50000100FCF79BFC022000210025FCF77CFCF7
:104B60000C20CDE90345CDE9050403A8FCF744FC7E
:104B700004208DF8060040F20620ADF8040001A8DC
:104B80000294FDF76DFC0AB0B0BD000010B500F056
:104B9000BBF941F600041021C4F201042046FCF7E1
:104BA00023FE642001F072F920461021FCF71EFE5E
:104BB000642001F06BF920464021FCF717FE6420C9
:104BC00001F064F920460421FCF70EFE1120FFF7E6
:104BD000EBFE20460421FCF709FE782001F056F98F
:104BE00020460421FCF700FE3620FFF7DDFE2046BC
:104BF0000421FCF7FBFD0020FFF7D6FE2046042130
:104C0000FCF7F2FD3A20FFF7CFFE20460421FCF727
:104C1000EDFD0520FFF7C8FE20460421FCF7E4FD6A
:104C2000B220FFF7C1FE20460421FCF7DFFD0C2077
:104C3000FFF7BAFE0C20FFF7B7FE0020FFF7B4FE27
:104C40003320FFF7B1FE3320FFF7AEFE20460421EC
:104C5000FCF7CAFDB720FFF7A7FE20460421FCF7AA
:104C6000C5FD3520FFF7A0FE20460421FCF7BCFD62
:104C7000BB20FFF799FE20460421FCF7B7FD322048
:104C8000FFF792FE20460421FCF7AEFDC220FFF79D
:104C90008BFE20460421FCF7A9FD0120FFF784FECE
:104CA00020460421FCF7A0FDC320FFF77DFE20462F
:104CB0000421FCF79BFD1520FFF776FE204604211A
:104CC000FCF792FDC420FFF76FFE20460421FCF79D
:104CD0008DFD2020FFF768FE20460421FCF784FDAF
:104CE000C620FFF761FE20460421FCF77FFD0F2060
:104CF000FFF75AFE20460421FCF776FDD020FFF78F
:104D000053FE20460421FCF771FDA420FFF74CFE62
:104D1000A120FFF749FE20460421FCF765FDE020B5
:104D2000FFF742FE20460421FCF760FDD020FFF78C
:104D30003BFE0820FFF738FE0E20FFF735FE092066
:104D4000FFF732FE0920FFF72FFE0520FFF72CFEAC
:104D50003120FFF729FE3320FFF726FE4820FFF71A
:104D600023FE1720FFF720FE1420FFF71DFE15205D
:104D7000FFF71AFE3120FFF717FE3420FFF714FE6D
:104D800020460421FCF730FDE120FFF70DFE204610
:104D90000421FCF72BFDD020FFF706FE0820FFF7CB
:104DA00003FE0E20FFF700FE0920FFF7FDFD09209E
:104DB000FFF7FAFD1520FFF7F7FD3120FFF7F4FDAF
:104DC0003320FFF7F1FD4820FFF7EEFD1720FFF736
:104DD000EBFD1420FFF7E8FD1520FFF7E5FD31207E
:104DE000FFF7E2FD3420FFF7DFFD20460421FCF74A
:104DF000FBFC2120FFF7D8FD20460421FCF7F6FC40
:104E000020460421FCF7F0FC2920FFF7CDFD2046C9
:104E10000421BDE81040FCF7E9BC0000F0B58BB000
:104E200041F218000124C4F20200016841F045017A
:104E30000160012001F058F808200121FDF754FB22
:104E400045200121FDF768FB40200121FDF764FBAF
:104E5000102008AE03270A90ADF8204040F6004429
:104E600031460997C4F2000404F586352846FCF75C
:104E70000DFB28460121FCF7B9FC04200121FDF7B8
:104E80004BFB182031460A900F20ADF8200004F5A6
:104E90007C400997FCF7FAFA4FF47A7005A906905E
:104EA000472005902046FEF783FF002001ADADF8B6
:104EB0000C0060202946C0F2010001902046FEF758
:104EC00073FE20460821FEF7A9FE20462946FEF77C
:104ED000ABFE20460821FEF7E5FE20462946FEF7F8
:104EE000E9FE20460821FEF723FF20462946FEF76B
:104EF00025FF20460821FEF751FF20460121FEF73D
:104F0000A5FB0BB0F0BD000070B584B040200121BE
:104F1000FDF702FB41F600041026022001AD0396C6
:104F2000ADF804000320C4F2010429460290204693
:104F3000FCF7ACFA20460221FCF758FC2820294651
:104F4000ADF804002046FCF7A1FA20462821FCF722
:104F50004DFC44202946ADF804002046FCF796FAA3
:104F6000204648F22001FCF741FC20462946ADF8D6
:104F70000460FCF78BFA20461021FCF737FC04B0E4
:104F800070BD0000704700002DE9F04F83B00D4662
:104F900011789B460646B1B1DDE90C9ADDF8388000
:104FA000571C4FEA5A0400BFCAB2B0B229465B464A
:104FB000CDE9009ACDF80880FFF74EFC17F8011BE9
:104FC00026440029F0D103B0BDE8F08F70470000FF
:104FD000B0B584B070200121FDF79EFA102041F693
:104FE000000401AD03904FF44160C4F2010429466E
:104FF000ADF8040003200290A4F58060FCF746FAA7
:105000004FF480502946ADF80400A4F50060FCF789
:105010003DFA4FF480602946ADF804002046FCF7C5
:1050200035FA20464FF48061FCF7E0FB04B0B0BDD8
:105030002DE9F04141F600040E460546042198464C
:105040001746C4F201042046FCF7CEFB2A20FFF7E6
:10505000ABFC20460421FCF7C9FB280AFFF7A4FC9F
:10506000E8B2FFF7A1FC380AFFF79EFCF8B2FFF7A1
:105070009BFC20460421FCF7B7FB2B20FFF794FC98
:1050800020460421FCF7B2FB300AFFF78DFCF0B29A
:10509000FFF78AFC4FEA1820FFF786FC5FFA88F0DA
:1050A000FFF782FC20460421FCF79EFB2C20FFF733
:1050B0007BFC20460421BDE8F041FCF797BB0000D3
:1050C000F0B58BB041F21800C4F20200016841F45F
:1050D00000610160012000F007FF42F63C4601201C
:1050E0000027C4F201063780B78000F0FDFEC02023
:1050F0000121C0F21600FCF739FB4FF400600121DA
:10510000FDF70AFA41200121FDF706FA032042F6D5
:10511000004408A909901820C4F201040A904FF431
:10512000C040ADF82000A4F5A050FCF7AFF941F65F
:105130001F4005A9CDE905702046FEF739FE602025
:1051400001ADC0F20100294601902046CDF80A7059
:10515000FEF7B0FD20460821FEF7EAFD204629466D
:10516000FEF7ECFD20460821FEF718FE204601213F
:10517000FEF776FA20460121FEF756FA2046012175
:10518000FEF764FA3780B7800BB0F0BD10B540F67B
:1051900000444FF40071C4F201042046FCF726FBE2
:1051A000142000F0A1FE20464FF40071FCF71CFB18
:1051B000002010BDB0B58AB002200121FDF794F99E
:1051C00010200121FDF7A8F940F600400121C0F2AE
:1051D0001A00FCF7CBFA40F20044042001A9039026
:1051E000C020C4F20004ADF8040004F58630FCF7DA
:1051F0004DF907AD2846FEF731FE4FF6FF70294600
:105200000890002007902046FEF7D2FD204603219B
:1052100000220023FEF748FB04AD2846FEF7B6FC4B
:105220000A202946ADF818002046FEF765FB204607
:105230000121FEF703FA204601210122FEF7ACFC12
:1052400020460021FEF7B2FD20460121FEF7FEF9BF
:105250000AB0B0BDB0B58AB0042001210424FDF726
:1052600043F920200121FDF757F94FF48050012127
:10527000FCF77CFA039440F600044FF4405001A977
:10528000C4F20004ADF8040004F58630FCF7FEF823
:1052900007AD2846FEF7E2FD4FF6FF70294608905D
:1052A000002007902046FEF783FD204603210022C0
:1052B0000023FEF7F9FA04AD2846FEF767FC0A2042
:1052C0002946ADF818002046FEF716FB20460121BE
:1052D000FEF7B4F9204601210122FEF75DFC2046CD
:1052E0000021FEF763FD20460121FEF7AFF90AB069
:1052F000B0BD000048F2A81141F65832C4F2222194
:1053000090420EDC4EF2A842CFF6FF72904205DAD0
:105310000120524248600020086006E001280ADBB4
:105320000246002048600120086042F63C40C4F27A
:1053300001000280704700280246E9D100224A603D
:105340000A60F2E740F2B01148F2901241F6583389
:10535000C4F22221C4F2222298420EDC4EF2A8436B
:10536000CFF6FF73984205DA01205B4210600020FF
:10537000086006E001280ADB0346002010600120D7
:10538000086042F64040C4F20100038070470028E4
:105390000346E9D1002313600B60F2E72DE9F047E3
:1053A00098B000200021EF22EF230024FFF740FEF9
:1053B000002500BF4FF6FF70FFF744FA0135A8B291
:1053C000F028F7D30134A0B2F028F1D342F2200044
:1053D00043F672214BF2247900254D240DF120086B
:1053E0000A9042F23A00C2F22001C0F60009C2F26D
:1053F0002000069146F26511099046F64D70C6F2FE
:105400006451C6F26450059147F24931089042F266
:105410002000C4F65F41C0F220000790CDE90301EF
:1054200043F66420C2F22000029047F25300C6F215
:105430006550019045F00701A8B20F2300278AB2FA
:105440000021FFF7F5FDA4F12000C0B209EB001424
:10545000E65D16F0010F0CBF4FF6FF704FF4784079
:10546000FFF7F0F9B00754BF4FF6FF704FF47840E4
:10547000FFF7E8F9700754BF4FF6FF704FF478401C
:10548000FFF7E0F9300754BF4FF6FF704FF4784054
:10549000FFF7D8F9F00654BF4FF6FF704FF478408D
:1054A000FFF7D0F9B00654BF4FF6FF704FF47840C5
:1054B000FFF7C8F9700654BF4FF6FF704FF47840FD
:1054C000FFF7C0F9300654BF4FF6FF704FF4784035
:1054D000FFF7B8F90137102FBAD118F8014F083586
:1054E000002CA7D1002549240DF1100845F0070133
:1054F000A8B21F238AB21021FFF79AFDA4F1200061
:105500000024C0B209EB00173E5D16F0010F0CBF7E
:105510004FF6FF704FF47840FFF794F9B00754BF8F
:105520004FF6FF704FF47840FFF78CF9700754BFC7
:105530004FF6FF704FF47840FFF784F9300754BFFF
:105540004FF6FF704FF47840FFF77CF9F00654BF38
:105550004FF6FF704FF47840FFF774F9B00654BF70
:105560004FF6FF704FF47840FFF76CF9700654BFA8
:105570004FF6FF704FF47840FFF764F9300654BFE0
:105580004FF6FF704FF47840FFF75CF90134102CB0
:10559000BAD118F8014F0835002CA7D100255324A3
:1055A0000DF1040845F00701A8B22F238AB220218B
:1055B000FFF73EFDA4F120000024C0B209EB001764
:1055C0003E5D16F0010F0CBF4FF6FF704FF47840B0
:1055D000FFF738F9B00754BF4FF6FF704FF478402B
:1055E000FFF730F9700754BF4FF6FF704FF4784063
:1055F000FFF728F9300754BF4FF6FF704FF478409B
:10560000FFF720F9F00654BF4FF6FF704FF47840D3
:10561000FFF718F9B00654BF4FF6FF704FF478400B
:10562000FFF710F9700654BF4FF6FF704FF4784043
:10563000FFF708F9300654BF4FF6FF704FF478407B
:10564000FFF700F90134102CBAD118F8014F0835D2
:10565000002CA7D10120FFF795FC3A2000256C24EF
:105660000DF12C08ADF8300046F26C50C7F26640E0
:105670000B9000BF45F00701A8B23F238AB230214A
:10568000FFF7D6FCA4F120000024C0B209EB0017FC
:105690003E5D16F0010F0CBF4FF6FF704FF47840DF
:1056A000FFF7D0F8B00754BF4FF6FF704FF47840C3
:1056B000FFF7C8F8700754BF4FF6FF704FF47840FB
:1056C000FFF7C0F8300754BF4FF6FF704FF4784033
:1056D000FFF7B8F8F00654BF4FF6FF704FF478406C
:1056E000FFF7B0F8B00654BF4FF6FF704FF47840A4
:1056F000FFF7A8F8700654BF4FF6FF704FF47840DC
:10570000FFF7A0F8300654BF4FF6FF704FF4784013
:10571000FFF798F80134102CBAD118F8014F08356A
:10572000002CA7D143F67420002572240DF12C081B
:10573000ADF8300046F672108DF83250C6F66700AC
:105740000B9000BF45F00701A8B24F238AB2402159
:10575000FFF76EFCA4F120000024C0B209EB001793
:105760003E5D16F0010F0CBF4FF6FF704FF478400E
:10577000FFF768F8B00754BF4FF6FF704FF478405A
:10578000FFF760F8700754BF4FF6FF704FF4784092
:10579000FFF758F8300754BF4FF6FF704FF47840CA
:1057A000FFF750F8F00654BF4FF6FF704FF4784003
:1057B000FFF748F8B00654BF4FF6FF704FF478403B
:1057C000FFF740F8700654BF4FF6FF704FF4784073
:1057D000FFF738F8300654BF4FF6FF704FF47840AB
:1057E000FFF730F80134102CBAD118F8014F083502
:1057F000002CA7D146F6674845F64C7000264C248D
:105800000DF12C0AC3F66528C6F661608DF8346088
:10581000CDF830800B9000BF46F00701B0B25F2397
:105820008AB25021FFF704FCA4F120000024C0B28A
:1058300009EB00152F5D17F0010F0CBF4FF6FF703D
:105840004FF47840FEF7FEFFB80754BF4FF6FF70E5
:105850004FF47840FEF7F6FF780754BF4FF6FF701D
:105860004FF47840FEF7EEFF380754BF4FF6FF7055
:105870004FF47840FEF7E6FFF80654BF4FF6FF708E
:105880004FF47840FEF7DEFFB80654BF4FF6FF70C6
:105890004FF47840FEF7D6FF780654BF4FF6FF70FE
:1058A0004FF47840FEF7CEFF380654BF4FF6FF7036
:1058B0004FF47840FEF7C6FF0134102CBAD11AF825
:1058C000014F0836002CA7D145F652700026CDF8BE
:1058D000308052240DF12C08C6F661608DF83460DA
:1058E0000B9000BF46F00701B0B26F238AB260216F
:1058F000FFF79EFBA4F120000024C0B209EB0017C3
:105900003D5D15F0010F0CBF4FF6FF704FF478406E
:10591000FEF798FFA80754BF4FF6FF704FF478408A
:10592000FEF790FF680754BF4FF6FF704FF47840C2
:10593000FEF788FF280754BF4FF6FF704FF47840FA
:10594000FEF780FFE80654BF4FF6FF704FF4784033
:10595000FEF778FFA80654BF4FF6FF704FF478406B
:10596000FEF770FF680654BF4FF6FF704FF47840A3
:10597000FEF768FF280654BF4FF6FF704FF47840DB
:10598000FEF760FF0134102CBAD118F8014F083629
:10599000002CA7D143F64D2000254C240DF12C08F6
:1059A000ADF8300045F64C708DF83250C5F25070AD
:1059B0000B9000BF45F00701A8B27F238AB2702187
:1059C000FFF736FBA4F120000024C0B209EB00175A
:1059D0003E5D16F0010F0CBF4FF6FF704FF478409C
:1059E000FEF730FFB00754BF4FF6FF704FF478401A
:1059F000FEF728FF700754BF4FF6FF704FF4784052
:105A0000FEF720FF300754BF4FF6FF704FF4784089
:105A1000FEF718FFF00654BF4FF6FF704FF47840C2
:105A2000FEF710FFB00654BF4FF6FF704FF47840FA
:105A3000FEF708FF700654BF4FF6FF704FF4784032
:105A4000FEF700FF300654BF4FF6FF704FF478406A
:105A5000FEF7F8FE0134102CBAD118F8014F0835C2
:105A6000002CA7D143F64D20002552240DF12C081F
:105A7000ADF8300045F652708DF83250C5F25070D6
:105A80000B9000BF45F00701A8B28F238AB2802196
:105A9000FFF7CEFAA4F120000024C0B209EB0017F2
:105AA0003E5D16F0010F0CBF4FF6FF704FF47840CB
:105AB000FEF7C8FEB00754BF4FF6FF704FF47840B2
:105AC000FEF7C0FE700754BF4FF6FF704FF47840EA
:105AD000FEF7B8FE300754BF4FF6FF704FF4784022
